{
	"ReferalSystem.sol": {
		"ReferralSystem": {
			"abi": [
				{
					"inputs": [
						{
							"internalType": "address",
							"name": "_rewardToken",
							"type": "address"
						},
						{
							"internalType": "uint256",
							"name": "_rewardAmount",
							"type": "uint256"
						},
						{
							"internalType": "address",
							"name": "_oracle",
							"type": "address"
						}
					],
					"stateMutability": "nonpayable",
					"type": "constructor"
				},
				{
					"inputs": [
						{
							"internalType": "address",
							"name": "user",
							"type": "address"
						}
					],
					"name": "addBlackList",
					"outputs": [],
					"stateMutability": "nonpayable",
					"type": "function"
				},
				{
					"inputs": [
						{
							"internalType": "uint256",
							"name": "userId",
							"type": "uint256"
						}
					],
					"name": "addBlackListUser",
					"outputs": [],
					"stateMutability": "nonpayable",
					"type": "function"
				},
				{
					"inputs": [
						{
							"internalType": "uint256",
							"name": "",
							"type": "uint256"
						}
					],
					"name": "blacklist",
					"outputs": [
						{
							"internalType": "address",
							"name": "",
							"type": "address"
						}
					],
					"stateMutability": "view",
					"type": "function"
				},
				{
					"inputs": [],
					"name": "blacklistCount",
					"outputs": [
						{
							"internalType": "uint256",
							"name": "",
							"type": "uint256"
						}
					],
					"stateMutability": "view",
					"type": "function"
				},
				{
					"inputs": [
						{
							"internalType": "address",
							"name": "",
							"type": "address"
						}
					],
					"name": "blacklistIds",
					"outputs": [
						{
							"internalType": "uint256",
							"name": "",
							"type": "uint256"
						}
					],
					"stateMutability": "view",
					"type": "function"
				},
				{
					"inputs": [
						{
							"internalType": "uint256",
							"name": "",
							"type": "uint256"
						}
					],
					"name": "blacklistUsers",
					"outputs": [
						{
							"internalType": "uint256",
							"name": "",
							"type": "uint256"
						}
					],
					"stateMutability": "view",
					"type": "function"
				},
				{
					"inputs": [],
					"name": "blacklistUsersCount",
					"outputs": [
						{
							"internalType": "uint256",
							"name": "",
							"type": "uint256"
						}
					],
					"stateMutability": "view",
					"type": "function"
				},
				{
					"inputs": [
						{
							"internalType": "uint256",
							"name": "",
							"type": "uint256"
						}
					],
					"name": "blacklistUsersIds",
					"outputs": [
						{
							"internalType": "uint256",
							"name": "",
							"type": "uint256"
						}
					],
					"stateMutability": "view",
					"type": "function"
				},
				{
					"inputs": [
						{
							"internalType": "uint256",
							"name": "",
							"type": "uint256"
						}
					],
					"name": "blacklistUsers_map",
					"outputs": [
						{
							"internalType": "bool",
							"name": "",
							"type": "bool"
						}
					],
					"stateMutability": "view",
					"type": "function"
				},
				{
					"inputs": [
						{
							"internalType": "address",
							"name": "",
							"type": "address"
						}
					],
					"name": "blacklist_map",
					"outputs": [
						{
							"internalType": "bool",
							"name": "",
							"type": "bool"
						}
					],
					"stateMutability": "view",
					"type": "function"
				},
				{
					"inputs": [
						{
							"internalType": "address",
							"name": "user",
							"type": "address"
						}
					],
					"name": "delBlackList",
					"outputs": [],
					"stateMutability": "nonpayable",
					"type": "function"
				},
				{
					"inputs": [
						{
							"internalType": "uint256",
							"name": "userId",
							"type": "uint256"
						}
					],
					"name": "delBlackListUser",
					"outputs": [],
					"stateMutability": "nonpayable",
					"type": "function"
				},
				{
					"inputs": [],
					"name": "getAllUsers",
					"outputs": [
						{
							"components": [
								{
									"internalType": "uint256",
									"name": "id",
									"type": "uint256"
								},
								{
									"internalType": "string",
									"name": "nickname",
									"type": "string"
								},
								{
									"internalType": "string",
									"name": "email",
									"type": "string"
								},
								{
									"internalType": "address",
									"name": "userAddress",
									"type": "address"
								},
								{
									"internalType": "uint256",
									"name": "referrer_id",
									"type": "uint256"
								},
								{
									"internalType": "address",
									"name": "referrer_address",
									"type": "address"
								},
								{
									"internalType": "uint256",
									"name": "referralsCount",
									"type": "uint256"
								},
								{
									"internalType": "uint256",
									"name": "tokensEarned",
									"type": "uint256"
								},
								{
									"internalType": "uint256",
									"name": "tokensPending",
									"type": "uint256"
								}
							],
							"internalType": "struct ReferralSystem.User[]",
							"name": "users",
							"type": "tuple[]"
						}
					],
					"stateMutability": "view",
					"type": "function"
				},
				{
					"inputs": [],
					"name": "getBalance",
					"outputs": [
						{
							"internalType": "uint256",
							"name": "",
							"type": "uint256"
						}
					],
					"stateMutability": "view",
					"type": "function"
				},
				{
					"inputs": [],
					"name": "getBlackList",
					"outputs": [
						{
							"internalType": "address[]",
							"name": "ret",
							"type": "address[]"
						}
					],
					"stateMutability": "view",
					"type": "function"
				},
				{
					"inputs": [],
					"name": "getBlackListUsers",
					"outputs": [
						{
							"internalType": "uint256[]",
							"name": "ret",
							"type": "uint256[]"
						}
					],
					"stateMutability": "view",
					"type": "function"
				},
				{
					"inputs": [],
					"name": "getDecimals",
					"outputs": [
						{
							"internalType": "uint8",
							"name": "",
							"type": "uint8"
						}
					],
					"stateMutability": "view",
					"type": "function"
				},
				{
					"inputs": [],
					"name": "getOracleBalance",
					"outputs": [
						{
							"internalType": "uint256",
							"name": "",
							"type": "uint256"
						}
					],
					"stateMutability": "view",
					"type": "function"
				},
				{
					"inputs": [],
					"name": "getSymbol",
					"outputs": [
						{
							"internalType": "string",
							"name": "",
							"type": "string"
						}
					],
					"stateMutability": "view",
					"type": "function"
				},
				{
					"inputs": [
						{
							"internalType": "uint256",
							"name": "userId",
							"type": "uint256"
						}
					],
					"name": "getUserAddreses",
					"outputs": [
						{
							"internalType": "address[]",
							"name": "addresses",
							"type": "address[]"
						}
					],
					"stateMutability": "view",
					"type": "function"
				},
				{
					"inputs": [
						{
							"internalType": "uint256",
							"name": "_id",
							"type": "uint256"
						}
					],
					"name": "getUserInfo",
					"outputs": [
						{
							"components": [
								{
									"internalType": "uint256",
									"name": "id",
									"type": "uint256"
								},
								{
									"internalType": "string",
									"name": "nickname",
									"type": "string"
								},
								{
									"internalType": "string",
									"name": "email",
									"type": "string"
								},
								{
									"internalType": "address",
									"name": "userAddress",
									"type": "address"
								},
								{
									"internalType": "uint256",
									"name": "referrer_id",
									"type": "uint256"
								},
								{
									"internalType": "address",
									"name": "referrer_address",
									"type": "address"
								},
								{
									"internalType": "uint256",
									"name": "referralsCount",
									"type": "uint256"
								},
								{
									"internalType": "uint256",
									"name": "tokensEarned",
									"type": "uint256"
								},
								{
									"internalType": "uint256",
									"name": "tokensPending",
									"type": "uint256"
								}
							],
							"internalType": "struct ReferralSystem.User",
							"name": "",
							"type": "tuple"
						}
					],
					"stateMutability": "view",
					"type": "function"
				},
				{
					"inputs": [
						{
							"internalType": "uint256",
							"name": "userId",
							"type": "uint256"
						}
					],
					"name": "getUserReferrals",
					"outputs": [
						{
							"internalType": "uint256[]",
							"name": "referralsIds",
							"type": "uint256[]"
						}
					],
					"stateMutability": "view",
					"type": "function"
				},
				{
					"inputs": [
						{
							"internalType": "uint256",
							"name": "userId",
							"type": "uint256"
						}
					],
					"name": "getUserReferralsData",
					"outputs": [
						{
							"components": [
								{
									"internalType": "uint256",
									"name": "id",
									"type": "uint256"
								},
								{
									"internalType": "string",
									"name": "nickname",
									"type": "string"
								},
								{
									"internalType": "string",
									"name": "email",
									"type": "string"
								},
								{
									"internalType": "address",
									"name": "userAddress",
									"type": "address"
								},
								{
									"internalType": "uint256",
									"name": "referrer_id",
									"type": "uint256"
								},
								{
									"internalType": "address",
									"name": "referrer_address",
									"type": "address"
								},
								{
									"internalType": "uint256",
									"name": "referralsCount",
									"type": "uint256"
								},
								{
									"internalType": "uint256",
									"name": "tokensEarned",
									"type": "uint256"
								},
								{
									"internalType": "uint256",
									"name": "tokensPending",
									"type": "uint256"
								}
							],
							"internalType": "struct ReferralSystem.User[]",
							"name": "referrals",
							"type": "tuple[]"
						}
					],
					"stateMutability": "view",
					"type": "function"
				},
				{
					"inputs": [],
					"name": "oracle",
					"outputs": [
						{
							"internalType": "address",
							"name": "",
							"type": "address"
						}
					],
					"stateMutability": "view",
					"type": "function"
				},
				{
					"inputs": [],
					"name": "owner",
					"outputs": [
						{
							"internalType": "address",
							"name": "",
							"type": "address"
						}
					],
					"stateMutability": "view",
					"type": "function"
				},
				{
					"inputs": [
						{
							"internalType": "address",
							"name": "",
							"type": "address"
						}
					],
					"name": "referrerAddresses",
					"outputs": [
						{
							"internalType": "bool",
							"name": "",
							"type": "bool"
						}
					],
					"stateMutability": "view",
					"type": "function"
				},
				{
					"inputs": [
						{
							"internalType": "uint256",
							"name": "_UserId",
							"type": "uint256"
						},
						{
							"internalType": "string",
							"name": "_UserNickName",
							"type": "string"
						},
						{
							"internalType": "string",
							"name": "_UserEmail",
							"type": "string"
						},
						{
							"internalType": "uint256",
							"name": "_ReferrerId",
							"type": "uint256"
						},
						{
							"internalType": "string",
							"name": "_ReferrerNickName",
							"type": "string"
						},
						{
							"internalType": "string",
							"name": "_ReferrerEmail",
							"type": "string"
						},
						{
							"internalType": "address",
							"name": "_ReferrerAddress",
							"type": "address"
						}
					],
					"name": "registerUser",
					"outputs": [],
					"stateMutability": "nonpayable",
					"type": "function"
				},
				{
					"inputs": [],
					"name": "repair",
					"outputs": [
						{
							"internalType": "address",
							"name": "",
							"type": "address"
						}
					],
					"stateMutability": "view",
					"type": "function"
				},
				{
					"inputs": [
						{
							"internalType": "address",
							"name": "newOwner",
							"type": "address"
						}
					],
					"name": "repairOwner",
					"outputs": [],
					"stateMutability": "nonpayable",
					"type": "function"
				},
				{
					"inputs": [],
					"name": "rewardAmount",
					"outputs": [
						{
							"internalType": "uint256",
							"name": "",
							"type": "uint256"
						}
					],
					"stateMutability": "view",
					"type": "function"
				},
				{
					"inputs": [],
					"name": "rewardToken",
					"outputs": [
						{
							"internalType": "contract IERC20",
							"name": "",
							"type": "address"
						}
					],
					"stateMutability": "view",
					"type": "function"
				},
				{
					"inputs": [
						{
							"internalType": "address",
							"name": "tokenAddress",
							"type": "address"
						}
					],
					"name": "safeTokens",
					"outputs": [],
					"stateMutability": "nonpayable",
					"type": "function"
				},
				{
					"inputs": [],
					"name": "sendPendingReward",
					"outputs": [],
					"stateMutability": "nonpayable",
					"type": "function"
				},
				{
					"inputs": [
						{
							"internalType": "address",
							"name": "newOracle",
							"type": "address"
						}
					],
					"name": "setOracle",
					"outputs": [],
					"stateMutability": "nonpayable",
					"type": "function"
				},
				{
					"inputs": [
						{
							"internalType": "uint256",
							"name": "newReward",
							"type": "uint256"
						}
					],
					"name": "setRewardAmount",
					"outputs": [],
					"stateMutability": "nonpayable",
					"type": "function"
				},
				{
					"inputs": [
						{
							"internalType": "address",
							"name": "newToken",
							"type": "address"
						}
					],
					"name": "setRewardToken",
					"outputs": [],
					"stateMutability": "nonpayable",
					"type": "function"
				},
				{
					"inputs": [],
					"name": "tokensEarned",
					"outputs": [
						{
							"internalType": "uint256",
							"name": "",
							"type": "uint256"
						}
					],
					"stateMutability": "view",
					"type": "function"
				},
				{
					"inputs": [
						{
							"internalType": "uint256",
							"name": "",
							"type": "uint256"
						}
					],
					"name": "tokensEarnedPending",
					"outputs": [
						{
							"internalType": "uint256",
							"name": "",
							"type": "uint256"
						}
					],
					"stateMutability": "view",
					"type": "function"
				},
				{
					"inputs": [],
					"name": "tokensPending",
					"outputs": [
						{
							"internalType": "uint256",
							"name": "",
							"type": "uint256"
						}
					],
					"stateMutability": "view",
					"type": "function"
				},
				{
					"inputs": [
						{
							"internalType": "address",
							"name": "newOwner",
							"type": "address"
						}
					],
					"name": "transferOwnership",
					"outputs": [],
					"stateMutability": "nonpayable",
					"type": "function"
				},
				{
					"inputs": [
						{
							"internalType": "uint256",
							"name": "",
							"type": "uint256"
						},
						{
							"internalType": "uint256",
							"name": "",
							"type": "uint256"
						}
					],
					"name": "userAddresses",
					"outputs": [
						{
							"internalType": "address",
							"name": "",
							"type": "address"
						}
					],
					"stateMutability": "view",
					"type": "function"
				},
				{
					"inputs": [
						{
							"internalType": "uint256",
							"name": "",
							"type": "uint256"
						}
					],
					"name": "userAddressesCount",
					"outputs": [
						{
							"internalType": "uint256",
							"name": "",
							"type": "uint256"
						}
					],
					"stateMutability": "view",
					"type": "function"
				},
				{
					"inputs": [
						{
							"internalType": "uint256",
							"name": "",
							"type": "uint256"
						},
						{
							"internalType": "address",
							"name": "",
							"type": "address"
						}
					],
					"name": "userAddressesExists",
					"outputs": [
						{
							"internalType": "bool",
							"name": "",
							"type": "bool"
						}
					],
					"stateMutability": "view",
					"type": "function"
				},
				{
					"inputs": [
						{
							"internalType": "uint256",
							"name": "",
							"type": "uint256"
						},
						{
							"internalType": "uint256",
							"name": "",
							"type": "uint256"
						}
					],
					"name": "userReferrals",
					"outputs": [
						{
							"internalType": "uint256",
							"name": "",
							"type": "uint256"
						}
					],
					"stateMutability": "view",
					"type": "function"
				},
				{
					"inputs": [
						{
							"internalType": "uint256",
							"name": "",
							"type": "uint256"
						}
					],
					"name": "usersById",
					"outputs": [
						{
							"internalType": "uint256",
							"name": "id",
							"type": "uint256"
						},
						{
							"internalType": "string",
							"name": "nickname",
							"type": "string"
						},
						{
							"internalType": "string",
							"name": "email",
							"type": "string"
						},
						{
							"internalType": "address",
							"name": "userAddress",
							"type": "address"
						},
						{
							"internalType": "uint256",
							"name": "referrer_id",
							"type": "uint256"
						},
						{
							"internalType": "address",
							"name": "referrer_address",
							"type": "address"
						},
						{
							"internalType": "uint256",
							"name": "referralsCount",
							"type": "uint256"
						},
						{
							"internalType": "uint256",
							"name": "tokensEarned",
							"type": "uint256"
						},
						{
							"internalType": "uint256",
							"name": "tokensPending",
							"type": "uint256"
						}
					],
					"stateMutability": "view",
					"type": "function"
				},
				{
					"inputs": [],
					"name": "usersCount",
					"outputs": [
						{
							"internalType": "uint256",
							"name": "",
							"type": "uint256"
						}
					],
					"stateMutability": "view",
					"type": "function"
				},
				{
					"inputs": [
						{
							"internalType": "uint256",
							"name": "",
							"type": "uint256"
						}
					],
					"name": "usersExists",
					"outputs": [
						{
							"internalType": "bool",
							"name": "",
							"type": "bool"
						}
					],
					"stateMutability": "view",
					"type": "function"
				},
				{
					"inputs": [
						{
							"internalType": "uint256",
							"name": "",
							"type": "uint256"
						}
					],
					"name": "usersIds",
					"outputs": [
						{
							"internalType": "uint256",
							"name": "",
							"type": "uint256"
						}
					],
					"stateMutability": "view",
					"type": "function"
				},
				{
					"inputs": [],
					"name": "withdrawTokens",
					"outputs": [],
					"stateMutability": "nonpayable",
					"type": "function"
				}
			],
			"devdoc": {
				"kind": "dev",
				"methods": {},
				"version": 1
			},
			"evm": {
				"assembly": "    /* \"ReferalSystem.sol\":354:13232  contract ReferralSystem {... */\n  mstore(0x40, 0x80)\n    /* \"ReferalSystem.sol\":1999:2000  0 */\n  0x00\n    /* \"ReferalSystem.sol\":1968:2000  uint256 public tokensPending = 0 */\n  0x09\n  sstore\n    /* \"ReferalSystem.sol\":2037:2038  0 */\n  0x00\n    /* \"ReferalSystem.sol\":2007:2038  uint256 public tokensEarned = 0 */\n  0x0a\n  sstore\n    /* \"ReferalSystem.sol\":4999:5001  10 */\n  0x0a\n    /* \"ReferalSystem.sol\":4969:5001  uint256 public rewardAmount = 10 */\n  0x18\n  sstore\n    /* \"ReferalSystem.sol\":5060:5312  constructor(address _rewardToken, uint256 _rewardAmount, address _oracle) {... */\n  callvalue\n  dup1\n  iszero\n  tag_1\n  jumpi\n  0x00\n  dup1\n  revert\ntag_1:\n  pop\n  mload(0x40)\n  sub(codesize, bytecodeSize)\n  dup1\n  bytecodeSize\n  dup4\n  codecopy\n  dup2\n  add\n  0x40\n  dup2\n  swap1\n  mstore\n  tag_2\n  swap2\n  tag_3\n  jump\t// in\ntag_2:\n    /* \"ReferalSystem.sol\":5145:5150  owner */\n  0x14\n    /* \"ReferalSystem.sol\":5145:5163  owner = msg.sender */\n  dup1\n  sload\n    /* \"ReferalSystem.sol\":5153:5163  msg.sender */\n  caller\n  not(sub(shl(0xa0, 0x01), 0x01))\n    /* \"ReferalSystem.sol\":5145:5163  owner = msg.sender */\n  swap2\n  dup3\n  and\n  dup2\n  or\n  swap1\n  swap3\n  sstore\n    /* \"ReferalSystem.sol\":5174:5180  oracle */\n  0x16\n    /* \"ReferalSystem.sol\":5174:5190  oracle = _oracle */\n  dup1\n  sload\n  dup3\n  and\n  sub(shl(0xa0, 0x01), 0x01)\n  swap5\n  dup6\n  and\n  or\n  swap1\n  sstore\n    /* \"ReferalSystem.sol\":5201:5207  repair */\n  0x15\n    /* \"ReferalSystem.sol\":5201:5220  repair = msg.sender */\n  dup1\n  sload\n  dup3\n  and\n  swap1\n  swap3\n  or\n  swap1\n  swap2\n  sstore\n    /* \"ReferalSystem.sol\":5231:5242  rewardToken */\n  0x17\n    /* \"ReferalSystem.sol\":5231:5265  rewardToken = IERC20(_rewardToken) */\n  dup1\n  sload\n  swap1\n  swap2\n  and\n  swap4\n  swap1\n  swap2\n  and\n  swap3\n  swap1\n  swap3\n  or\n  swap1\n  swap2\n  sstore\n    /* \"ReferalSystem.sol\":5276:5288  rewardAmount */\n  0x18\n    /* \"ReferalSystem.sol\":5276:5304  rewardAmount = _rewardAmount */\n  sstore\n    /* \"ReferalSystem.sol\":354:13232  contract ReferralSystem {... */\n  jump(tag_8)\n    /* \"#utility.yul\":14:191   */\ntag_7:\n    /* \"#utility.yul\":93:106   */\n  dup1\n  mload\n  sub(shl(0xa0, 0x01), 0x01)\n    /* \"#utility.yul\":135:166   */\n  dup2\n  and\n    /* \"#utility.yul\":125:167   */\n  dup2\n  eq\n    /* \"#utility.yul\":115:185   */\n  tag_10\n  jumpi\n    /* \"#utility.yul\":181:182   */\n  0x00\n    /* \"#utility.yul\":178:179   */\n  dup1\n    /* \"#utility.yul\":171:183   */\n  revert\n    /* \"#utility.yul\":115:185   */\ntag_10:\n    /* \"#utility.yul\":14:191   */\n  swap2\n  swap1\n  pop\n  jump\t// out\n    /* \"#utility.yul\":196:550   */\ntag_3:\n    /* \"#utility.yul\":284:290   */\n  0x00\n    /* \"#utility.yul\":292:298   */\n  dup1\n    /* \"#utility.yul\":300:306   */\n  0x00\n    /* \"#utility.yul\":353:355   */\n  0x60\n    /* \"#utility.yul\":341:350   */\n  dup5\n    /* \"#utility.yul\":332:339   */\n  dup7\n    /* \"#utility.yul\":328:351   */\n  sub\n    /* \"#utility.yul\":324:356   */\n  slt\n    /* \"#utility.yul\":321:373   */\n  iszero\n  tag_12\n  jumpi\n    /* \"#utility.yul\":369:370   */\n  0x00\n    /* \"#utility.yul\":366:367   */\n  dup1\n    /* \"#utility.yul\":359:371   */\n  revert\n    /* \"#utility.yul\":321:373   */\ntag_12:\n    /* \"#utility.yul\":392:432   */\n  tag_13\n    /* \"#utility.yul\":422:431   */\n  dup5\n    /* \"#utility.yul\":392:432   */\n  tag_7\n  jump\t// in\ntag_13:\n    /* \"#utility.yul\":382:432   */\n  swap3\n  pop\n    /* \"#utility.yul\":472:474   */\n  0x20\n    /* \"#utility.yul\":461:470   */\n  dup5\n    /* \"#utility.yul\":457:475   */\n  add\n    /* \"#utility.yul\":451:476   */\n  mload\n    /* \"#utility.yul\":441:476   */\n  swap2\n  pop\n    /* \"#utility.yul\":495:544   */\n  tag_14\n    /* \"#utility.yul\":540:542   */\n  0x40\n    /* \"#utility.yul\":529:538   */\n  dup6\n    /* \"#utility.yul\":525:543   */\n  add\n    /* \"#utility.yul\":495:544   */\n  tag_7\n  jump\t// in\ntag_14:\n    /* \"#utility.yul\":485:544   */\n  swap1\n  pop\n    /* \"#utility.yul\":196:550   */\n  swap3\n  pop\n  swap3\n  pop\n  swap3\n  jump\t// out\ntag_8:\n    /* \"ReferalSystem.sol\":354:13232  contract ReferralSystem {... */\n  dataSize(sub_0)\n  dup1\n  dataOffset(sub_0)\n  0x00\n  codecopy\n  0x00\n  return\nstop\n\nsub_0: assembly {\n        /* \"ReferalSystem.sol\":354:13232  contract ReferralSystem {... */\n      mstore(0x40, 0x80)\n      callvalue\n      dup1\n      iszero\n      tag_1\n      jumpi\n      0x00\n      dup1\n      revert\n    tag_1:\n      pop\n      jumpi(tag_2, lt(calldatasize, 0x04))\n      shr(0xe0, calldataload(0x00))\n      dup1\n      0x7ce58741\n      gt\n      tag_52\n      jumpi\n      dup1\n      0xb676b097\n      gt\n      tag_53\n      jumpi\n      dup1\n      0xe6983a1d\n      gt\n      tag_54\n      jumpi\n      dup1\n      0xf2fde38b\n      gt\n      tag_55\n      jumpi\n      dup1\n      0xf2fde38b\n      eq\n      tag_48\n      jumpi\n      dup1\n      0xf7b2a7be\n      eq\n      tag_49\n      jumpi\n      dup1\n      0xf7c618c1\n      eq\n      tag_50\n      jumpi\n      dup1\n      0xf9e41e9f\n      eq\n      tag_51\n      jumpi\n      0x00\n      dup1\n      revert\n    tag_55:\n      dup1\n      0xe6983a1d\n      eq\n      tag_45\n      jumpi\n      dup1\n      0xebf1ff44\n      eq\n      tag_46\n      jumpi\n      dup1\n      0xf0141d84\n      eq\n      tag_47\n      jumpi\n      0x00\n      dup1\n      revert\n    tag_54:\n      dup1\n      0xb676b097\n      eq\n      tag_39\n      jumpi\n      dup1\n      0xc5ee21d2\n      eq\n      tag_40\n      jumpi\n      dup1\n      0xd379dadf\n      eq\n      tag_41\n      jumpi\n      dup1\n      0xe0b42754\n      eq\n      tag_42\n      jumpi\n      dup1\n      0xe1f817c6\n      eq\n      tag_43\n      jumpi\n      dup1\n      0xe2842d79\n      eq\n      tag_44\n      jumpi\n      0x00\n      dup1\n      revert\n    tag_53:\n      dup1\n      0x8d8f2adb\n      gt\n      tag_56\n      jumpi\n      dup1\n      0x8d8f2adb\n      eq\n      tag_33\n      jumpi\n      dup1\n      0x8da5cb5b\n      eq\n      tag_34\n      jumpi\n      dup1\n      0x8ffc5752\n      eq\n      tag_35\n      jumpi\n      dup1\n      0xa8a65a78\n      eq\n      tag_36\n      jumpi\n      dup1\n      0xab3c5674\n      eq\n      tag_37\n      jumpi\n      dup1\n      0xb07cbc9c\n      eq\n      tag_38\n      jumpi\n      0x00\n      dup1\n      revert\n    tag_56:\n      dup1\n      0x7ce58741\n      eq\n      tag_27\n      jumpi\n      dup1\n      0x7dc0d1d0\n      eq\n      tag_28\n      jumpi\n      dup1\n      0x83d23d6c\n      eq\n      tag_29\n      jumpi\n      dup1\n      0x8ab85914\n      eq\n      tag_30\n      jumpi\n      dup1\n      0x8aee8127\n      eq\n      tag_31\n      jumpi\n      dup1\n      0x8bf0a38f\n      eq\n      tag_32\n      jumpi\n      0x00\n      dup1\n      revert\n    tag_52:\n      dup1\n      0x3a517151\n      gt\n      tag_57\n      jumpi\n      dup1\n      0x56823a3f\n      gt\n      tag_58\n      jumpi\n      dup1\n      0x56823a3f\n      eq\n      tag_21\n      jumpi\n      dup1\n      0x5a058758\n      eq\n      tag_22\n      jumpi\n      dup1\n      0x5e7e1786\n      eq\n      tag_23\n      jumpi\n      dup1\n      0x6ba13a82\n      eq\n      tag_24\n      jumpi\n      dup1\n      0x76dcf720\n      eq\n      tag_25\n      jumpi\n      dup1\n      0x7adbf973\n      eq\n      tag_26\n      jumpi\n      0x00\n      dup1\n      revert\n    tag_58:\n      dup1\n      0x3a517151\n      eq\n      tag_15\n      jumpi\n      dup1\n      0x426b5382\n      eq\n      tag_16\n      jumpi\n      dup1\n      0x4f292ea9\n      eq\n      tag_17\n      jumpi\n      dup1\n      0x5414f2fc\n      eq\n      tag_18\n      jumpi\n      dup1\n      0x54ed7da3\n      eq\n      tag_19\n      jumpi\n      dup1\n      0x55513d1f\n      eq\n      tag_20\n      jumpi\n      0x00\n      dup1\n      revert\n    tag_57:\n      dup1\n      0x1fdf35bd\n      gt\n      tag_59\n      jumpi\n      dup1\n      0x1fdf35bd\n      eq\n      tag_9\n      jumpi\n      dup1\n      0x217987ad\n      eq\n      tag_10\n      jumpi\n      dup1\n      0x28e08f79\n      eq\n      tag_11\n      jumpi\n      dup1\n      0x2a1c7116\n      eq\n      tag_12\n      jumpi\n      dup1\n      0x34679df9\n      eq\n      tag_13\n      jumpi\n      dup1\n      0x360b97b9\n      eq\n      tag_14\n      jumpi\n      0x00\n      dup1\n      revert\n    tag_59:\n      dup1\n      0x04d0ac48\n      eq\n      tag_3\n      jumpi\n      dup1\n      0x0ecb93c0\n      eq\n      tag_4\n      jumpi\n      dup1\n      0x0f2a0919\n      eq\n      tag_5\n      jumpi\n      dup1\n      0x12065fe0\n      eq\n      tag_6\n      jumpi\n      dup1\n      0x15070401\n      eq\n      tag_7\n      jumpi\n      dup1\n      0x188d1644\n      eq\n      tag_8\n      jumpi\n    tag_2:\n      0x00\n      dup1\n      revert\n        /* \"ReferalSystem.sol\":1968:2000  uint256 public tokensPending = 0 */\n    tag_3:\n      tag_60\n      sload(0x09)\n      dup2\n      jump\n    tag_60:\n      mload(0x40)\n        /* \"#utility.yul\":160:185   */\n      swap1\n      dup2\n      mstore\n        /* \"#utility.yul\":148:150   */\n      0x20\n        /* \"#utility.yul\":133:151   */\n      add\n        /* \"ReferalSystem.sol\":1968:2000  uint256 public tokensPending = 0 */\n    tag_62:\n      mload(0x40)\n      dup1\n      swap2\n      sub\n      swap1\n      return\n        /* \"ReferalSystem.sol\":3542:3820  function addBlackList(address user) public onlyOwner {... */\n    tag_4:\n      tag_64\n      tag_65\n      calldatasize\n      0x04\n      tag_66\n      jump\t// in\n    tag_65:\n      tag_67\n      jump\t// in\n    tag_64:\n      stop\n        /* \"ReferalSystem.sol\":2191:2235  mapping(uint256 => address) public blacklist */\n    tag_5:\n      tag_68\n      tag_69\n      calldatasize\n      0x04\n      tag_70\n      jump\t// in\n    tag_69:\n      mstore(0x20, 0x0e)\n      0x00\n      swap1\n      dup2\n      mstore\n      0x40\n      swap1\n      keccak256\n      sload\n      sub(shl(0xa0, 0x01), 0x01)\n      and\n      dup2\n      jump\n    tag_68:\n      mload(0x40)\n      sub(shl(0xa0, 0x01), 0x01)\n        /* \"#utility.yul\":1023:1055   */\n      swap1\n      swap2\n      and\n        /* \"#utility.yul\":1005:1056   */\n      dup2\n      mstore\n        /* \"#utility.yul\":993:995   */\n      0x20\n        /* \"#utility.yul\":978:996   */\n      add\n        /* \"ReferalSystem.sol\":2191:2235  mapping(uint256 => address) public blacklist */\n      tag_62\n        /* \"#utility.yul\":859:1062   */\n      jump\n        /* \"ReferalSystem.sol\":12194:12308  function getBalance() public view returns (uint256) {... */\n    tag_6:\n      tag_60\n      tag_75\n      jump\t// in\n        /* \"ReferalSystem.sol\":12523:12626  function getSymbol() public view returns (string memory) {... */\n    tag_7:\n      tag_77\n      tag_78\n      jump\t// in\n    tag_77:\n      mload(0x40)\n      tag_62\n      swap2\n      swap1\n      tag_80\n      jump\t// in\n        /* \"ReferalSystem.sol\":2242:2271  uint256 public blacklistCount */\n    tag_8:\n      tag_60\n      sload(0x0f)\n      dup2\n      jump\n        /* \"ReferalSystem.sol\":2452:2486  uint256 public blacklistUsersCount */\n    tag_9:\n      tag_60\n      sload(0x13)\n      dup2\n      jump\n        /* \"ReferalSystem.sol\":3826:4154  function delBlackList(address user) public onlyOwner {... */\n    tag_10:\n      tag_64\n      tag_88\n      calldatasize\n      0x04\n      tag_66\n      jump\t// in\n    tag_88:\n      tag_89\n      jump\t// in\n        /* \"ReferalSystem.sol\":2337:2389  mapping(uint256 => uint256) public blacklistUsersIds */\n    tag_11:\n      tag_60\n      tag_91\n      calldatasize\n      0x04\n      tag_70\n      jump\t// in\n    tag_91:\n      mstore(0x20, 0x11)\n      0x00\n      swap1\n      dup2\n      mstore\n      0x40\n      swap1\n      keccak256\n      sload\n      dup2\n      jump\n        /* \"ReferalSystem.sol\":1847:1896  mapping(address => bool) public referrerAddresses */\n    tag_12:\n      tag_94\n      tag_95\n      calldatasize\n      0x04\n      tag_66\n      jump\t// in\n    tag_95:\n      mstore(0x20, 0x07)\n      0x00\n      swap1\n      dup2\n      mstore\n      0x40\n      swap1\n      keccak256\n      sload\n      0xff\n      and\n      dup2\n      jump\n    tag_94:\n      mload(0x40)\n        /* \"#utility.yul\":1983:1997   */\n      swap1\n      iszero\n        /* \"#utility.yul\":1976:1998   */\n      iszero\n        /* \"#utility.yul\":1958:1999   */\n      dup2\n      mstore\n        /* \"#utility.yul\":1946:1948   */\n      0x20\n        /* \"#utility.yul\":1931:1949   */\n      add\n        /* \"ReferalSystem.sol\":1847:1896  mapping(address => bool) public referrerAddresses */\n      tag_62\n        /* \"#utility.yul\":1818:2005   */\n      jump\n        /* \"ReferalSystem.sol\":6293:6691  function getUserReferralsData(uint256 userId) public view returns(User[] memory referrals) {... */\n    tag_13:\n      tag_99\n      tag_100\n      calldatasize\n      0x04\n      tag_70\n      jump\t// in\n    tag_100:\n      tag_101\n      jump\t// in\n    tag_99:\n      mload(0x40)\n      tag_62\n      swap2\n      swap1\n      tag_103\n      jump\t// in\n        /* \"ReferalSystem.sol\":4160:4449  function getBlackList() public view returns (address[] memory ret) {... */\n    tag_14:\n      tag_104\n      tag_105\n      jump\t// in\n    tag_104:\n      mload(0x40)\n      tag_62\n      swap2\n      swap1\n      tag_107\n      jump\t// in\n        /* \"ReferalSystem.sol\":1582:1625  mapping(uint256 => uint256) public usersIds */\n    tag_15:\n      tag_60\n      tag_109\n      calldatasize\n      0x04\n      tag_70\n      jump\t// in\n    tag_109:\n      mstore(0x20, 0x03)\n      0x00\n      swap1\n      dup2\n      mstore\n      0x40\n      swap1\n      keccak256\n      sload\n      dup2\n      jump\n        /* \"ReferalSystem.sol\":1484:1525  mapping(uint256 => User) public usersById */\n    tag_16:\n      tag_112\n      tag_113\n      calldatasize\n      0x04\n      tag_70\n      jump\t// in\n    tag_113:\n      tag_114\n      jump\t// in\n    tag_112:\n      mload(0x40)\n      tag_62\n      swap10\n      swap9\n      swap8\n      swap7\n      swap6\n      swap5\n      swap4\n      swap3\n      swap2\n      swap1\n      tag_116\n      jump\t// in\n        /* \"ReferalSystem.sol\":12314:12412  function getOracleBalance() public view returns (uint256) {... */\n    tag_17:\n        /* \"ReferalSystem.sol\":12390:12396  oracle */\n      and(sub(shl(0xa0, 0x01), 0x01), sload(0x16))\n        /* \"ReferalSystem.sol\":12390:12404  oracle.balance */\n      balance\n        /* \"ReferalSystem.sol\":12314:12412  function getOracleBalance() public view returns (uint256) {... */\n      jump(tag_60)\n        /* \"ReferalSystem.sol\":2085:2130  mapping(address => bool) public blacklist_map */\n    tag_18:\n      tag_94\n      tag_121\n      calldatasize\n      0x04\n      tag_66\n      jump\t// in\n    tag_121:\n      mstore(0x20, 0x0c)\n      0x00\n      swap1\n      dup2\n      mstore\n      0x40\n      swap1\n      keccak256\n      sload\n      0xff\n      and\n      dup2\n      jump\n        /* \"ReferalSystem.sol\":6697:7096  function getUserReferrals(uint256 userId) public view returns(uint256[] memory referralsIds) {... */\n    tag_19:\n      tag_124\n      tag_125\n      calldatasize\n      0x04\n      tag_70\n      jump\t// in\n    tag_125:\n      tag_126\n      jump\t// in\n    tag_124:\n      mload(0x40)\n      tag_62\n      swap2\n      swap1\n      tag_128\n      jump\t// in\n        /* \"ReferalSystem.sol\":1632:1700  mapping(uint256 => mapping(uint256 => address)) public userAddresses */\n    tag_20:\n      tag_68\n      tag_130\n      calldatasize\n      0x04\n      tag_131\n      jump\t// in\n    tag_130:\n      0x04\n      0x20\n      swap1\n      dup2\n      mstore\n      0x00\n      swap3\n      dup4\n      mstore\n      0x40\n      dup1\n      dup5\n      keccak256\n      swap1\n      swap2\n      mstore\n      swap1\n      dup3\n      mstore\n      swap1\n      keccak256\n      sload\n      sub(shl(0xa0, 0x01), 0x01)\n      and\n      dup2\n      jump\n        /* \"ReferalSystem.sol\":1707:1778  mapping(uint256 => mapping(address => bool)) public userAddressesExists */\n    tag_21:\n      tag_94\n      tag_135\n      calldatasize\n      0x04\n      tag_136\n      jump\t// in\n    tag_135:\n      0x05\n      0x20\n      swap1\n      dup2\n      mstore\n      0x00\n      swap3\n      dup4\n      mstore\n      0x40\n      dup1\n      dup5\n      keccak256\n      swap1\n      swap2\n      mstore\n      swap1\n      dup3\n      mstore\n      swap1\n      keccak256\n      sload\n      0xff\n      and\n      dup2\n      jump\n        /* \"ReferalSystem.sol\":4526:4547  address public repair */\n    tag_22:\n      sload(0x15)\n      tag_68\n      swap1\n      sub(shl(0xa0, 0x01), 0x01)\n      and\n      dup2\n      jump\n        /* \"ReferalSystem.sol\":1905:1959  mapping(uint256 => uint256) public tokensEarnedPending */\n    tag_23:\n      tag_60\n      tag_143\n      calldatasize\n      0x04\n      tag_70\n      jump\t// in\n    tag_143:\n      mstore(0x20, 0x08)\n      0x00\n      swap1\n      dup2\n      mstore\n      0x40\n      swap1\n      keccak256\n      sload\n      dup2\n      jump\n        /* \"ReferalSystem.sol\":2047:2072  uint256 public usersCount */\n    tag_24:\n      tag_60\n      sload(0x0b)\n      dup2\n      jump\n        /* \"ReferalSystem.sol\":1532:1575  mapping(uint256 => bool) public usersExists */\n    tag_25:\n      tag_94\n      tag_150\n      calldatasize\n      0x04\n      tag_70\n      jump\t// in\n    tag_150:\n      mstore(0x20, 0x02)\n      0x00\n      swap1\n      dup2\n      mstore\n      0x40\n      swap1\n      keccak256\n      sload\n      0xff\n      and\n      dup2\n      jump\n        /* \"ReferalSystem.sol\":5682:5833  function setOracle(address newOracle) onlyOwner public {... */\n    tag_26:\n      tag_64\n      tag_154\n      calldatasize\n      0x04\n      tag_66\n      jump\t// in\n    tag_154:\n      tag_155\n      jump\t// in\n        /* \"ReferalSystem.sol\":2495:2822  function addBlackListUser(uint256 userId) public onlyOwner {... */\n    tag_27:\n      tag_64\n      tag_157\n      calldatasize\n      0x04\n      tag_70\n      jump\t// in\n    tag_157:\n      tag_158\n      jump\t// in\n        /* \"ReferalSystem.sol\":4653:4674  address public oracle */\n    tag_28:\n      sload(0x16)\n      tag_68\n      swap1\n      sub(shl(0xa0, 0x01), 0x01)\n      and\n      dup2\n      jump\n        /* \"ReferalSystem.sol\":2280:2330  mapping(uint256 => bool) public blacklistUsers_map */\n    tag_29:\n      tag_94\n      tag_163\n      calldatasize\n      0x04\n      tag_70\n      jump\t// in\n    tag_163:\n      mstore(0x20, 0x10)\n      0x00\n      swap1\n      dup2\n      mstore\n      0x40\n      swap1\n      keccak256\n      sload\n      0xff\n      and\n      dup2\n      jump\n        /* \"ReferalSystem.sol\":5542:5676  function repairOwner(address newOwner) public {... */\n    tag_30:\n      tag_64\n      tag_167\n      calldatasize\n      0x04\n      tag_66\n      jump\t// in\n    tag_167:\n      tag_168\n      jump\t// in\n        /* \"ReferalSystem.sol\":5318:5426  function setRewardToken(address newToken) onlyOwner public {... */\n    tag_31:\n      tag_64\n      tag_170\n      calldatasize\n      0x04\n      tag_66\n      jump\t// in\n    tag_170:\n      tag_171\n      jump\t// in\n        /* \"ReferalSystem.sol\":7102:7473  function getUserAddreses(uint256 userId) public view returns(address[] memory addresses) {... */\n    tag_32:\n      tag_104\n      tag_173\n      calldatasize\n      0x04\n      tag_70\n      jump\t// in\n    tag_173:\n      tag_174\n      jump\t// in\n        /* \"ReferalSystem.sol\":12901:13111  function withdrawTokens() public onlyOwner {... */\n    tag_33:\n      tag_64\n      tag_177\n      jump\t// in\n        /* \"ReferalSystem.sol\":4499:4519  address public owner */\n    tag_34:\n      sload(0x14)\n      tag_68\n      swap1\n      sub(shl(0xa0, 0x01), 0x01)\n      and\n      dup2\n      jump\n        /* \"ReferalSystem.sol\":2007:2038  uint256 public tokensEarned = 0 */\n    tag_35:\n      tag_60\n      sload(0x0a)\n      dup2\n      jump\n        /* \"ReferalSystem.sol\":5432:5536  function setRewardAmount(uint256 newReward) onlyOwner public {... */\n    tag_36:\n      tag_64\n      tag_185\n      calldatasize\n      0x04\n      tag_70\n      jump\t// in\n    tag_185:\n      tag_186\n      jump\t// in\n        /* \"ReferalSystem.sol\":2396:2445  mapping(uint256 => uint256) public blacklistUsers */\n    tag_37:\n      tag_60\n      tag_188\n      calldatasize\n      0x04\n      tag_70\n      jump\t// in\n    tag_188:\n      mstore(0x20, 0x12)\n      0x00\n      swap1\n      dup2\n      mstore\n      0x40\n      swap1\n      keccak256\n      sload\n      dup2\n      jump\n        /* \"ReferalSystem.sol\":1785:1838  mapping(uint256 => uint256) public userAddressesCount */\n    tag_38:\n      tag_60\n      tag_192\n      calldatasize\n      0x04\n      tag_70\n      jump\t// in\n    tag_192:\n      mstore(0x20, 0x06)\n      0x00\n      swap1\n      dup2\n      mstore\n      0x40\n      swap1\n      keccak256\n      sload\n      dup2\n      jump\n        /* \"ReferalSystem.sol\":1323:1391  mapping(uint256 => mapping(uint256 => uint256)) public userReferrals */\n    tag_39:\n      tag_60\n      tag_196\n      calldatasize\n      0x04\n      tag_131\n      jump\t// in\n    tag_196:\n      0x00\n      0x20\n      dup2\n      dup2\n      mstore\n      swap3\n      dup2\n      mstore\n      0x40\n      dup1\n      dup3\n      keccak256\n      swap1\n      swap4\n      mstore\n      swap1\n      dup2\n      mstore\n      keccak256\n      sload\n      dup2\n      jump\n        /* \"ReferalSystem.sol\":12634:12895  function safeTokens(address tokenAddress) public onlyOwner {... */\n    tag_40:\n      tag_64\n      tag_200\n      calldatasize\n      0x04\n      tag_66\n      jump\t// in\n    tag_200:\n      tag_201\n      jump\t// in\n        /* \"ReferalSystem.sol\":13117:13227  function getUserInfo(uint256 _id) external view returns (User memory) {... */\n    tag_41:\n      tag_202\n      tag_203\n      calldatasize\n      0x04\n      tag_70\n      jump\t// in\n    tag_203:\n      tag_204\n      jump\t// in\n    tag_202:\n      mload(0x40)\n      tag_62\n      swap2\n      swap1\n      tag_206\n      jump\t// in\n        /* \"ReferalSystem.sol\":11298:12186  function sendPendingReward() public onlyOwner {... */\n    tag_42:\n      tag_64\n      tag_208\n      jump\t// in\n        /* \"ReferalSystem.sol\":3221:3536  function getBlackListUsers() public view returns (uint256[] memory ret) {... */\n    tag_43:\n      tag_124\n      tag_210\n      jump\t// in\n        /* \"ReferalSystem.sol\":6001:6287  function getAllUsers() public view returns (User[] memory users) {... */\n    tag_44:\n      tag_99\n      tag_213\n      jump\t// in\n        /* \"ReferalSystem.sol\":2137:2184  mapping(address => uint256) public blacklistIds */\n    tag_45:\n      tag_60\n      tag_216\n      calldatasize\n      0x04\n      tag_66\n      jump\t// in\n    tag_216:\n      mstore(0x20, 0x0d)\n      0x00\n      swap1\n      dup2\n      mstore\n      0x40\n      swap1\n      keccak256\n      sload\n      dup2\n      jump\n        /* \"ReferalSystem.sol\":2828:3215  function delBlackListUser(uint256 userId) public onlyOwner {... */\n    tag_46:\n      tag_64\n      tag_220\n      calldatasize\n      0x04\n      tag_70\n      jump\t// in\n    tag_220:\n      tag_221\n      jump\t// in\n        /* \"ReferalSystem.sol\":12418:12517  function getDecimals() public view returns (uint8) {... */\n    tag_47:\n      tag_222\n      tag_223\n      jump\t// in\n    tag_222:\n      mload(0x40)\n        /* \"#utility.yul\":6980:6984   */\n      0xff\n        /* \"#utility.yul\":6968:6985   */\n      swap1\n      swap2\n      and\n        /* \"#utility.yul\":6950:6986   */\n      dup2\n      mstore\n        /* \"#utility.yul\":6938:6940   */\n      0x20\n        /* \"#utility.yul\":6923:6941   */\n      add\n        /* \"ReferalSystem.sol\":12418:12517  function getDecimals() public view returns (uint8) {... */\n      tag_62\n        /* \"#utility.yul\":6808:6992   */\n      jump\n        /* \"ReferalSystem.sol\":5839:5995  function transferOwnership (address newOwner) onlyOwner public {... */\n    tag_48:\n      tag_64\n      tag_227\n      calldatasize\n      0x04\n      tag_66\n      jump\t// in\n    tag_227:\n      tag_228\n      jump\t// in\n        /* \"ReferalSystem.sol\":4969:5001  uint256 public rewardAmount = 10 */\n    tag_49:\n      tag_60\n      sload(0x18)\n      dup2\n      jump\n        /* \"ReferalSystem.sol\":4827:4852  IERC20 public rewardToken */\n    tag_50:\n      sload(0x17)\n      tag_68\n      swap1\n      sub(shl(0xa0, 0x01), 0x01)\n      and\n      dup2\n      jump\n        /* \"ReferalSystem.sol\":9310:11290  function registerUser(... */\n    tag_51:\n      tag_64\n      tag_237\n      calldatasize\n      0x04\n      tag_238\n      jump\t// in\n    tag_237:\n      tag_239\n      jump\t// in\n        /* \"ReferalSystem.sol\":3542:3820  function addBlackList(address user) public onlyOwner {... */\n    tag_67:\n        /* \"ReferalSystem.sol\":4608:4613  owner */\n      and(sub(shl(0xa0, 0x01), 0x01), sload(0x14))\n        /* \"ReferalSystem.sol\":4594:4604  msg.sender */\n      caller\n        /* \"ReferalSystem.sol\":4594:4613  msg.sender == owner */\n      eq\n        /* \"ReferalSystem.sol\":4586:4627  require(msg.sender == owner, \"Not owner\") */\n      tag_241\n      jumpi\n      mload(0x40)\n      shl(0xe5, 0x461bcd)\n      dup2\n      mstore\n      0x04\n      add\n      tag_242\n      swap1\n      tag_243\n      jump\t// in\n    tag_242:\n      mload(0x40)\n      dup1\n      swap2\n      sub\n      swap1\n      revert\n    tag_241:\n      sub(shl(0xa0, 0x01), 0x01)\n        /* \"ReferalSystem.sol\":3611:3630  blacklist_map[user] */\n      dup2\n      and\n      0x00\n      swap1\n      dup2\n      mstore\n        /* \"ReferalSystem.sol\":3611:3624  blacklist_map */\n      0x0c\n        /* \"ReferalSystem.sol\":3611:3630  blacklist_map[user] */\n      0x20\n      mstore\n      0x40\n      swap1\n      keccak256\n      sload\n      0xff\n      and\n        /* \"ReferalSystem.sol\":3606:3813  if (!blacklist_map[user]) {... */\n      tag_245\n      jumpi\n        /* \"ReferalSystem.sol\":3647:3661  blacklistCount */\n      0x0f\n        /* \"ReferalSystem.sol\":3647:3663  blacklistCount++ */\n      dup1\n      sload\n      swap1\n        /* \"ReferalSystem.sol\":3647:3661  blacklistCount */\n      0x00\n        /* \"ReferalSystem.sol\":3647:3663  blacklistCount++ */\n      tag_246\n      dup4\n      tag_247\n      jump\t// in\n    tag_246:\n      swap1\n      swap2\n      sstore\n      pop\n      pop\n        /* \"ReferalSystem.sol\":3688:3702  blacklistCount */\n      0x0f\n      dup1\n      sload\n        /* \"ReferalSystem.sol\":3678:3703  blacklist[blacklistCount] */\n      0x00\n      swap1\n      dup2\n      mstore\n        /* \"ReferalSystem.sol\":3678:3687  blacklist */\n      0x0e\n        /* \"ReferalSystem.sol\":3678:3703  blacklist[blacklistCount] */\n      0x20\n      swap1\n      dup2\n      mstore\n      0x40\n      dup1\n      dup4\n      keccak256\n        /* \"ReferalSystem.sol\":3678:3710  blacklist[blacklistCount] = user */\n      dup1\n      sload\n      not(sub(shl(0xa0, 0x01), 0x01))\n      and\n      sub(shl(0xa0, 0x01), 0x01)\n      dup8\n      and\n      swap1\n      dup2\n      or\n      swap1\n      swap2\n      sstore\n        /* \"ReferalSystem.sol\":3725:3744  blacklist_map[user] */\n      dup4\n      mstore\n        /* \"ReferalSystem.sol\":3725:3738  blacklist_map */\n      0x0c\n        /* \"ReferalSystem.sol\":3725:3744  blacklist_map[user] */\n      dup3\n      mstore\n      dup1\n      dup4\n      keccak256\n        /* \"ReferalSystem.sol\":3725:3751  blacklist_map[user] = true */\n      dup1\n      sload\n      not(0xff)\n      and\n      0x01\n      or\n      swap1\n      sstore\n        /* \"ReferalSystem.sol\":3787:3801  blacklistCount */\n      swap3\n      sload\n        /* \"ReferalSystem.sol\":3766:3778  blacklistIds */\n      0x0d\n        /* \"ReferalSystem.sol\":3766:3784  blacklistIds[user] */\n      swap1\n      swap2\n      mstore\n      swap2\n      swap1\n      keccak256\n        /* \"ReferalSystem.sol\":3766:3801  blacklistIds[user] = blacklistCount */\n      sstore\n        /* \"ReferalSystem.sol\":3606:3813  if (!blacklist_map[user]) {... */\n    tag_245:\n        /* \"ReferalSystem.sol\":3542:3820  function addBlackList(address user) public onlyOwner {... */\n      pop\n      jump\t// out\n        /* \"ReferalSystem.sol\":12194:12308  function getBalance() public view returns (uint256) {... */\n    tag_75:\n        /* \"ReferalSystem.sol\":12264:12275  rewardToken */\n      sload(0x17)\n        /* \"ReferalSystem.sol\":12264:12300  rewardToken.balanceOf(address(this)) */\n      mload(0x40)\n      shl(0xe0, 0x70a08231)\n      dup2\n      mstore\n        /* \"ReferalSystem.sol\":12294:12298  this */\n      address\n        /* \"ReferalSystem.sol\":12264:12300  rewardToken.balanceOf(address(this)) */\n      0x04\n      dup3\n      add\n        /* \"#utility.yul\":1005:1056   */\n      mstore\n        /* \"ReferalSystem.sol\":12237:12244  uint256 */\n      0x00\n      swap2\n      sub(shl(0xa0, 0x01), 0x01)\n        /* \"ReferalSystem.sol\":12264:12275  rewardToken */\n      and\n      swap1\n        /* \"ReferalSystem.sol\":12264:12285  rewardToken.balanceOf */\n      0x70a08231\n      swap1\n        /* \"#utility.yul\":978:996   */\n      0x24\n      add\n        /* \"ReferalSystem.sol\":12264:12300  rewardToken.balanceOf(address(this)) */\n      0x20\n      mload(0x40)\n      dup1\n      dup4\n      sub\n      dup2\n      dup7\n      gas\n      staticcall\n      iszero\n      dup1\n      iszero\n      tag_251\n      jumpi\n      returndatasize\n      0x00\n      dup1\n      returndatacopy\n      revert(0x00, returndatasize)\n    tag_251:\n      pop\n      pop\n      pop\n      pop\n      mload(0x40)\n      returndatasize\n      not(0x1f)\n      0x1f\n      dup3\n      add\n      and\n      dup3\n      add\n      dup1\n      0x40\n      mstore\n      pop\n      dup2\n      add\n      swap1\n      tag_252\n      swap2\n      swap1\n      tag_253\n      jump\t// in\n    tag_252:\n        /* \"ReferalSystem.sol\":12257:12300  return rewardToken.balanceOf(address(this)) */\n      swap1\n      pop\n        /* \"ReferalSystem.sol\":12194:12308  function getBalance() public view returns (uint256) {... */\n      swap1\n      jump\t// out\n        /* \"ReferalSystem.sol\":12523:12626  function getSymbol() public view returns (string memory) {... */\n    tag_78:\n        /* \"ReferalSystem.sol\":12598:12609  rewardToken */\n      sload(0x17)\n        /* \"ReferalSystem.sol\":12598:12618  rewardToken.symbol() */\n      0x40\n      dup1\n      mload\n      shl(0xe0, 0x95d89b41)\n      dup2\n      mstore\n      swap1\n      mload\n        /* \"ReferalSystem.sol\":12565:12578  string memory */\n      0x60\n      swap3\n      sub(shl(0xa0, 0x01), 0x01)\n        /* \"ReferalSystem.sol\":12598:12609  rewardToken */\n      and\n      swap2\n        /* \"ReferalSystem.sol\":12598:12616  rewardToken.symbol */\n      0x95d89b41\n      swap2\n        /* \"ReferalSystem.sol\":12598:12618  rewardToken.symbol() */\n      0x04\n      dup1\n      dup4\n      add\n      swap3\n        /* \"ReferalSystem.sol\":12598:12609  rewardToken */\n      0x00\n      swap3\n        /* \"ReferalSystem.sol\":12598:12618  rewardToken.symbol() */\n      swap2\n      swap1\n      dup3\n      swap1\n      sub\n      add\n      dup2\n        /* \"ReferalSystem.sol\":12598:12609  rewardToken */\n      dup7\n        /* \"ReferalSystem.sol\":12598:12618  rewardToken.symbol() */\n      gas\n      staticcall\n      iszero\n      dup1\n      iszero\n      tag_256\n      jumpi\n      returndatasize\n      0x00\n      dup1\n      returndatacopy\n      revert(0x00, returndatasize)\n    tag_256:\n      pop\n      pop\n      pop\n      pop\n      mload(0x40)\n      returndatasize\n      0x00\n      dup3\n      returndatacopy\n      0x1f\n      returndatasize\n      swap1\n      dup2\n      add\n      not(0x1f)\n      and\n      dup3\n      add\n      0x40\n      mstore\n      tag_252\n      swap2\n      swap1\n      dup2\n      add\n      swap1\n      tag_258\n      jump\t// in\n        /* \"ReferalSystem.sol\":3826:4154  function delBlackList(address user) public onlyOwner {... */\n    tag_89:\n        /* \"ReferalSystem.sol\":4608:4613  owner */\n      and(sub(shl(0xa0, 0x01), 0x01), sload(0x14))\n        /* \"ReferalSystem.sol\":4594:4604  msg.sender */\n      caller\n        /* \"ReferalSystem.sol\":4594:4613  msg.sender == owner */\n      eq\n        /* \"ReferalSystem.sol\":4586:4627  require(msg.sender == owner, \"Not owner\") */\n      tag_260\n      jumpi\n      mload(0x40)\n      shl(0xe5, 0x461bcd)\n      dup2\n      mstore\n      0x04\n      add\n      tag_242\n      swap1\n      tag_243\n      jump\t// in\n    tag_260:\n      sub(shl(0xa0, 0x01), 0x01)\n        /* \"ReferalSystem.sol\":3894:3913  blacklist_map[user] */\n      dup2\n      and\n      0x00\n      swap1\n      dup2\n      mstore\n        /* \"ReferalSystem.sol\":3894:3907  blacklist_map */\n      0x0c\n        /* \"ReferalSystem.sol\":3894:3913  blacklist_map[user] */\n      0x20\n      mstore\n      0x40\n      swap1\n      keccak256\n      sload\n      0xff\n      and\n        /* \"ReferalSystem.sol\":3890:4147  if (blacklist_map[user]) {... */\n      iszero\n      tag_245\n      jumpi\n        /* \"ReferalSystem.sol\":3955:3969  blacklistCount */\n      sload(0x0f)\n      sub(shl(0xa0, 0x01), 0x01)\n        /* \"ReferalSystem.sol\":3934:3952  blacklistIds[user] */\n      dup3\n      and\n      0x00\n      swap1\n      dup2\n      mstore\n        /* \"ReferalSystem.sol\":3934:3946  blacklistIds */\n      0x0d\n        /* \"ReferalSystem.sol\":3934:3952  blacklistIds[user] */\n      0x20\n      mstore\n      0x40\n      swap1\n      keccak256\n      sload\n        /* \"ReferalSystem.sol\":3934:3969  blacklistIds[user] < blacklistCount */\n      lt\n        /* \"ReferalSystem.sol\":3930:4063  if (blacklistIds[user] < blacklistCount) {... */\n      iszero\n      tag_264\n      jumpi\n        /* \"ReferalSystem.sol\":4032:4046  blacklistCount */\n      sload(0x0f)\n        /* \"ReferalSystem.sol\":4022:4047  blacklist[blacklistCount] */\n      0x00\n      swap1\n      dup2\n      mstore\n        /* \"ReferalSystem.sol\":4022:4031  blacklist */\n      0x0e\n        /* \"ReferalSystem.sol\":4022:4047  blacklist[blacklistCount] */\n      0x20\n      dup2\n      dup2\n      mstore\n      0x40\n      dup1\n      dup5\n      keccak256\n      sload\n      sub(shl(0xa0, 0x01), 0x01)\n        /* \"ReferalSystem.sol\":4000:4018  blacklistIds[user] */\n      dup7\n      dup2\n      and\n      dup7\n      mstore\n        /* \"ReferalSystem.sol\":4000:4012  blacklistIds */\n      0x0d\n        /* \"ReferalSystem.sol\":4000:4018  blacklistIds[user] */\n      dup5\n      mstore\n      dup3\n      dup7\n      keccak256\n      sload\n        /* \"ReferalSystem.sol\":3990:4019  blacklist[blacklistIds[user]] */\n      dup7\n      mstore\n      swap4\n      swap1\n      swap3\n      mstore\n      swap1\n      swap3\n      keccak256\n        /* \"ReferalSystem.sol\":3990:4047  blacklist[blacklistIds[user]] = blacklist[blacklistCount] */\n      dup1\n      sload\n      not(sub(shl(0xa0, 0x01), 0x01))\n      and\n        /* \"ReferalSystem.sol\":4022:4047  blacklist[blacklistCount] */\n      swap2\n      swap1\n      swap3\n      and\n        /* \"ReferalSystem.sol\":3990:4047  blacklist[blacklistIds[user]] = blacklist[blacklistCount] */\n      or\n      swap1\n      sstore\n        /* \"ReferalSystem.sol\":3930:4063  if (blacklistIds[user] < blacklistCount) {... */\n    tag_264:\n      sub(shl(0xa0, 0x01), 0x01)\n        /* \"ReferalSystem.sol\":4077:4096  blacklist_map[user] */\n      dup2\n      and\n        /* \"ReferalSystem.sol\":4099:4104  false */\n      0x00\n        /* \"ReferalSystem.sol\":4077:4096  blacklist_map[user] */\n      swap1\n      dup2\n      mstore\n        /* \"ReferalSystem.sol\":4077:4090  blacklist_map */\n      0x0c\n        /* \"ReferalSystem.sol\":4077:4096  blacklist_map[user] */\n      0x20\n      mstore\n      0x40\n      dup2\n      keccak256\n        /* \"ReferalSystem.sol\":4077:4104  blacklist_map[user] = false */\n      dup1\n      sload\n      not(0xff)\n      and\n      swap1\n      sstore\n        /* \"ReferalSystem.sol\":4119:4133  blacklistCount */\n      0x0f\n        /* \"ReferalSystem.sol\":4119:4135  blacklistCount-- */\n      dup1\n      sload\n      swap2\n      tag_265\n      dup4\n      tag_266\n      jump\t// in\n    tag_265:\n      swap2\n      swap1\n      pop\n      sstore\n      pop\n        /* \"ReferalSystem.sol\":3826:4154  function delBlackList(address user) public onlyOwner {... */\n      pop\n      jump\t// out\n        /* \"ReferalSystem.sol\":6293:6691  function getUserReferralsData(uint256 userId) public view returns(User[] memory referrals) {... */\n    tag_101:\n        /* \"ReferalSystem.sol\":6434:6435  0 */\n      0x00\n        /* \"ReferalSystem.sol\":6399:6416  usersById[userId] */\n      dup2\n      dup2\n      mstore\n        /* \"ReferalSystem.sol\":6399:6408  usersById */\n      0x01\n        /* \"ReferalSystem.sol\":6399:6416  usersById[userId] */\n      0x20\n      mstore\n      0x40\n      swap1\n      keccak256\n        /* \"ReferalSystem.sol\":6399:6431  usersById[userId].referralsCount */\n      0x06\n      add\n      sload\n        /* \"ReferalSystem.sol\":6359:6382  User[] memory referrals */\n      0x60\n      swap1\n        /* \"ReferalSystem.sol\":6399:6435  usersById[userId].referralsCount > 0 */\n      iszero\n        /* \"ReferalSystem.sol\":6395:6684  if (usersById[userId].referralsCount > 0) {... */\n      tag_268\n      jumpi\n        /* \"ReferalSystem.sol\":6475:6492  usersById[userId] */\n      0x00\n      dup3\n      dup2\n      mstore\n        /* \"ReferalSystem.sol\":6475:6484  usersById */\n      0x01\n        /* \"ReferalSystem.sol\":6475:6492  usersById[userId] */\n      0x20\n      mstore\n      0x40\n      swap1\n      keccak256\n        /* \"ReferalSystem.sol\":6475:6507  usersById[userId].referralsCount */\n      0x06\n      add\n      sload\n        /* \"ReferalSystem.sol\":6464:6508  new User[](usersById[userId].referralsCount) */\n      0xffffffffffffffff\n      dup2\n      gt\n      iszero\n      tag_270\n      jumpi\n      tag_270\n      tag_271\n      jump\t// in\n    tag_270:\n      mload(0x40)\n      swap1\n      dup1\n      dup3\n      mstore\n      dup1\n      0x20\n      mul\n      0x20\n      add\n      dup3\n      add\n      0x40\n      mstore\n      dup1\n      iszero\n      tag_272\n      jumpi\n      dup2\n      0x20\n      add\n    tag_273:\n      tag_274\n      tag_275\n      jump\t// in\n    tag_274:\n      dup2\n      mstore\n      0x20\n      add\n      swap1\n      0x01\n      swap1\n      sub\n      swap1\n      dup2\n      tag_273\n      jumpi\n      swap1\n      pop\n    tag_272:\n      pop\n        /* \"ReferalSystem.sol\":6452:6508  referrals = new User[](usersById[userId].referralsCount) */\n      swap1\n      pop\n        /* \"ReferalSystem.sol\":6527:6536  uint256 i */\n      0x00\n        /* \"ReferalSystem.sol\":6523:6673  for(uint256 i = 0; i< usersById[userId].referralsCount; i++) {... */\n    tag_276:\n        /* \"ReferalSystem.sol\":6545:6562  usersById[userId] */\n      0x00\n      dup4\n      dup2\n      mstore\n        /* \"ReferalSystem.sol\":6545:6554  usersById */\n      0x01\n        /* \"ReferalSystem.sol\":6545:6562  usersById[userId] */\n      0x20\n      mstore\n      0x40\n      swap1\n      keccak256\n        /* \"ReferalSystem.sol\":6545:6577  usersById[userId].referralsCount */\n      0x06\n      add\n      sload\n        /* \"ReferalSystem.sol\":6542:6577  i< usersById[userId].referralsCount */\n      dup2\n      lt\n        /* \"ReferalSystem.sol\":6523:6673  for(uint256 i = 0; i< usersById[userId].referralsCount; i++) {... */\n      iszero\n      tag_277\n      jumpi\n        /* \"ReferalSystem.sol\":6618:6657  usersById[userReferrals[userId][i + 1]] */\n      0x00\n        /* \"ReferalSystem.sol\":6628:6649  userReferrals[userId] */\n      dup4\n      dup2\n      mstore\n      0x20\n      dup2\n      swap1\n      mstore\n      0x40\n      dup2\n      keccak256\n        /* \"ReferalSystem.sol\":6618:6627  usersById */\n      0x01\n      swap2\n        /* \"ReferalSystem.sol\":6618:6657  usersById[userReferrals[userId][i + 1]] */\n      swap1\n      dup2\n        /* \"ReferalSystem.sol\":6650:6655  i + 1 */\n      tag_279\n        /* \"ReferalSystem.sol\":6650:6651  i */\n      dup6\n        /* \"ReferalSystem.sol\":6618:6627  usersById */\n      dup6\n        /* \"ReferalSystem.sol\":6650:6655  i + 1 */\n      tag_280\n      jump\t// in\n    tag_279:\n        /* \"ReferalSystem.sol\":6628:6656  userReferrals[userId][i + 1] */\n      dup2\n      mstore\n      0x20\n      add\n      swap1\n      dup2\n      mstore\n      0x20\n      add\n      0x00\n      keccak256\n      sload\n        /* \"ReferalSystem.sol\":6618:6657  usersById[userReferrals[userId][i + 1]] */\n      dup2\n      mstore\n      0x20\n      add\n      swap1\n      dup2\n      mstore\n      0x20\n      add\n      0x00\n      keccak256\n        /* \"ReferalSystem.sol\":6603:6657  referrals[i] = usersById[userReferrals[userId][i + 1]] */\n      mload(0x40)\n      dup1\n      0x0120\n      add\n      0x40\n      mstore\n      swap1\n      dup2\n      0x00\n      dup3\n      add\n      sload\n      dup2\n      mstore\n      0x20\n      add\n      0x01\n      dup3\n      add\n      dup1\n      sload\n      tag_281\n      swap1\n      tag_282\n      jump\t// in\n    tag_281:\n      dup1\n      0x1f\n      add\n      0x20\n      dup1\n      swap2\n      div\n      mul\n      0x20\n      add\n      mload(0x40)\n      swap1\n      dup2\n      add\n      0x40\n      mstore\n      dup1\n      swap3\n      swap2\n      swap1\n      dup2\n      dup2\n      mstore\n      0x20\n      add\n      dup3\n      dup1\n      sload\n      tag_283\n      swap1\n      tag_282\n      jump\t// in\n    tag_283:\n      dup1\n      iszero\n      tag_284\n      jumpi\n      dup1\n      0x1f\n      lt\n      tag_285\n      jumpi\n      0x0100\n      dup1\n      dup4\n      sload\n      div\n      mul\n      dup4\n      mstore\n      swap2\n      0x20\n      add\n      swap2\n      jump(tag_284)\n    tag_285:\n      dup3\n      add\n      swap2\n      swap1\n      0x00\n      mstore\n      keccak256(0x00, 0x20)\n      swap1\n    tag_286:\n      dup2\n      sload\n      dup2\n      mstore\n      swap1\n      0x01\n      add\n      swap1\n      0x20\n      add\n      dup1\n      dup4\n      gt\n      tag_286\n      jumpi\n      dup3\n      swap1\n      sub\n      0x1f\n      and\n      dup3\n      add\n      swap2\n    tag_284:\n      pop\n      pop\n      pop\n      pop\n      pop\n      dup2\n      mstore\n      0x20\n      add\n      0x02\n      dup3\n      add\n      dup1\n      sload\n      tag_287\n      swap1\n      tag_282\n      jump\t// in\n    tag_287:\n      dup1\n      0x1f\n      add\n      0x20\n      dup1\n      swap2\n      div\n      mul\n      0x20\n      add\n      mload(0x40)\n      swap1\n      dup2\n      add\n      0x40\n      mstore\n      dup1\n      swap3\n      swap2\n      swap1\n      dup2\n      dup2\n      mstore\n      0x20\n      add\n      dup3\n      dup1\n      sload\n      tag_288\n      swap1\n      tag_282\n      jump\t// in\n    tag_288:\n      dup1\n      iszero\n      tag_289\n      jumpi\n      dup1\n      0x1f\n      lt\n      tag_290\n      jumpi\n      0x0100\n      dup1\n      dup4\n      sload\n      div\n      mul\n      dup4\n      mstore\n      swap2\n      0x20\n      add\n      swap2\n      jump(tag_289)\n    tag_290:\n      dup3\n      add\n      swap2\n      swap1\n      0x00\n      mstore\n      keccak256(0x00, 0x20)\n      swap1\n    tag_291:\n      dup2\n      sload\n      dup2\n      mstore\n      swap1\n      0x01\n      add\n      swap1\n      0x20\n      add\n      dup1\n      dup4\n      gt\n      tag_291\n      jumpi\n      dup3\n      swap1\n      sub\n      0x1f\n      and\n      dup3\n      add\n      swap2\n    tag_289:\n      pop\n      pop\n      pop\n      swap2\n      dup4\n      mstore\n      pop\n      pop\n      0x03\n      dup3\n      add\n      sload\n      sub(shl(0xa0, 0x01), 0x01)\n      swap1\n      dup2\n      and\n      0x20\n      dup4\n      add\n      mstore\n      0x04\n      dup4\n      add\n      sload\n      0x40\n      dup4\n      add\n      mstore\n      0x05\n      dup4\n      add\n      sload\n      and\n      0x60\n      dup3\n      add\n      mstore\n      0x06\n      dup3\n      add\n      sload\n      0x80\n      dup3\n      add\n      mstore\n      0x07\n      dup3\n      add\n      sload\n      0xa0\n      dup3\n      add\n      mstore\n      0x08\n      swap1\n      swap2\n      add\n      sload\n      0xc0\n      swap1\n      swap2\n      add\n      mstore\n        /* \"ReferalSystem.sol\":6603:6615  referrals[i] */\n      dup3\n      mload\n        /* \"ReferalSystem.sol\":6603:6612  referrals */\n      dup4\n      swap1\n        /* \"ReferalSystem.sol\":6613:6614  i */\n      dup4\n      swap1\n        /* \"ReferalSystem.sol\":6603:6615  referrals[i] */\n      dup2\n      lt\n      tag_293\n      jumpi\n      tag_293\n      tag_294\n      jump\t// in\n    tag_293:\n      0x20\n      mul\n      0x20\n      add\n      add\n        /* \"ReferalSystem.sol\":6603:6657  referrals[i] = usersById[userReferrals[userId][i + 1]] */\n      dup2\n      swap1\n      mstore\n      pop\n        /* \"ReferalSystem.sol\":6579:6582  i++ */\n      dup1\n      dup1\n      tag_295\n      swap1\n      tag_247\n      jump\t// in\n    tag_295:\n      swap2\n      pop\n      pop\n        /* \"ReferalSystem.sol\":6523:6673  for(uint256 i = 0; i< usersById[userId].referralsCount; i++) {... */\n      jump(tag_276)\n    tag_277:\n      pop\n        /* \"ReferalSystem.sol\":6395:6684  if (usersById[userId].referralsCount > 0) {... */\n    tag_268:\n        /* \"ReferalSystem.sol\":6293:6691  function getUserReferralsData(uint256 userId) public view returns(User[] memory referrals) {... */\n      swap2\n      swap1\n      pop\n      jump\t// out\n        /* \"ReferalSystem.sol\":4160:4449  function getBlackList() public view returns (address[] memory ret) {... */\n    tag_105:\n        /* \"ReferalSystem.sol\":4242:4256  blacklistCount */\n      sload(0x0f)\n        /* \"ReferalSystem.sol\":4205:4225  address[] memory ret */\n      0x60\n      swap1\n        /* \"ReferalSystem.sol\":4242:4260  blacklistCount > 0 */\n      iszero\n        /* \"ReferalSystem.sol\":4238:4442  if (blacklistCount > 0) {... */\n      tag_297\n      jumpi\n        /* \"ReferalSystem.sol\":4297:4311  blacklistCount */\n      sload(0x0f)\n        /* \"ReferalSystem.sol\":4283:4312  new address[](blacklistCount) */\n      0xffffffffffffffff\n      dup2\n      gt\n      iszero\n      tag_299\n      jumpi\n      tag_299\n      tag_271\n      jump\t// in\n    tag_299:\n      mload(0x40)\n      swap1\n      dup1\n      dup3\n      mstore\n      dup1\n      0x20\n      mul\n      0x20\n      add\n      dup3\n      add\n      0x40\n      mstore\n      dup1\n      iszero\n      tag_300\n      jumpi\n      dup2\n      0x20\n      add\n      0x20\n      dup3\n      mul\n      dup1\n      calldatasize\n      dup4\n      calldatacopy\n      add\n      swap1\n      pop\n    tag_300:\n      pop\n        /* \"ReferalSystem.sol\":4277:4312  ret = new address[](blacklistCount) */\n      swap1\n      pop\n        /* \"ReferalSystem.sol\":4332:4341  uint256 i */\n      0x00\n        /* \"ReferalSystem.sol\":4327:4431  for (uint256 i = 0; i< blacklistCount; i++) {... */\n    tag_301:\n        /* \"ReferalSystem.sol\":4350:4364  blacklistCount */\n      sload(0x0f)\n        /* \"ReferalSystem.sol\":4347:4348  i */\n      dup2\n        /* \"ReferalSystem.sol\":4347:4364  i< blacklistCount */\n      lt\n        /* \"ReferalSystem.sol\":4327:4431  for (uint256 i = 0; i< blacklistCount; i++) {... */\n      iszero\n      tag_302\n      jumpi\n        /* \"ReferalSystem.sol\":4399:4408  blacklist */\n      0x0e\n        /* \"ReferalSystem.sol\":4399:4415  blacklist[i + 1] */\n      0x00\n        /* \"ReferalSystem.sol\":4409:4414  i + 1 */\n      tag_304\n        /* \"ReferalSystem.sol\":4409:4410  i */\n      dup4\n        /* \"ReferalSystem.sol\":4413:4414  1 */\n      0x01\n        /* \"ReferalSystem.sol\":4409:4414  i + 1 */\n      tag_280\n      jump\t// in\n    tag_304:\n        /* \"ReferalSystem.sol\":4399:4415  blacklist[i + 1] */\n      dup2\n      mstore\n      0x20\n      add\n      swap1\n      dup2\n      mstore\n      0x20\n      add\n      0x00\n      keccak256\n      0x00\n      swap1\n      sload\n      swap1\n      0x0100\n      exp\n      swap1\n      div\n      sub(shl(0xa0, 0x01), 0x01)\n      and\n        /* \"ReferalSystem.sol\":4390:4393  ret */\n      dup3\n        /* \"ReferalSystem.sol\":4394:4395  i */\n      dup3\n        /* \"ReferalSystem.sol\":4390:4396  ret[i] */\n      dup2\n      mload\n      dup2\n      lt\n      tag_306\n      jumpi\n      tag_306\n      tag_294\n      jump\t// in\n    tag_306:\n      sub(shl(0xa0, 0x01), 0x01)\n        /* \"ReferalSystem.sol\":4390:4415  ret[i] = blacklist[i + 1] */\n      swap1\n      swap3\n      and\n        /* \"ReferalSystem.sol\":4390:4396  ret[i] */\n      0x20\n      swap3\n      dup4\n      mul\n      swap2\n      swap1\n      swap2\n      add\n      swap1\n      swap2\n      add\n        /* \"ReferalSystem.sol\":4390:4415  ret[i] = blacklist[i + 1] */\n      mstore\n        /* \"ReferalSystem.sol\":4366:4369  i++ */\n      dup1\n      tag_307\n      dup2\n      tag_247\n      jump\t// in\n    tag_307:\n      swap2\n      pop\n      pop\n        /* \"ReferalSystem.sol\":4327:4431  for (uint256 i = 0; i< blacklistCount; i++) {... */\n      jump(tag_301)\n    tag_302:\n      pop\n        /* \"ReferalSystem.sol\":4238:4442  if (blacklistCount > 0) {... */\n    tag_297:\n        /* \"ReferalSystem.sol\":4160:4449  function getBlackList() public view returns (address[] memory ret) {... */\n      swap1\n      jump\t// out\n        /* \"ReferalSystem.sol\":1484:1525  mapping(uint256 => User) public usersById */\n    tag_114:\n      0x01\n      0x20\n      dup2\n      swap1\n      mstore\n      0x00\n      swap2\n      dup3\n      mstore\n      0x40\n      swap1\n      swap2\n      keccak256\n      dup1\n      sload\n      swap2\n      dup2\n      add\n      dup1\n      sload\n      tag_308\n      swap1\n      tag_282\n      jump\t// in\n    tag_308:\n      dup1\n      0x1f\n      add\n      0x20\n      dup1\n      swap2\n      div\n      mul\n      0x20\n      add\n      mload(0x40)\n      swap1\n      dup2\n      add\n      0x40\n      mstore\n      dup1\n      swap3\n      swap2\n      swap1\n      dup2\n      dup2\n      mstore\n      0x20\n      add\n      dup3\n      dup1\n      sload\n      tag_309\n      swap1\n      tag_282\n      jump\t// in\n    tag_309:\n      dup1\n      iszero\n      tag_310\n      jumpi\n      dup1\n      0x1f\n      lt\n      tag_311\n      jumpi\n      0x0100\n      dup1\n      dup4\n      sload\n      div\n      mul\n      dup4\n      mstore\n      swap2\n      0x20\n      add\n      swap2\n      jump(tag_310)\n    tag_311:\n      dup3\n      add\n      swap2\n      swap1\n      0x00\n      mstore\n      keccak256(0x00, 0x20)\n      swap1\n    tag_312:\n      dup2\n      sload\n      dup2\n      mstore\n      swap1\n      0x01\n      add\n      swap1\n      0x20\n      add\n      dup1\n      dup4\n      gt\n      tag_312\n      jumpi\n      dup3\n      swap1\n      sub\n      0x1f\n      and\n      dup3\n      add\n      swap2\n    tag_310:\n      pop\n      pop\n      pop\n      pop\n      pop\n      swap1\n      dup1\n      0x02\n      add\n      dup1\n      sload\n      tag_313\n      swap1\n      tag_282\n      jump\t// in\n    tag_313:\n      dup1\n      0x1f\n      add\n      0x20\n      dup1\n      swap2\n      div\n      mul\n      0x20\n      add\n      mload(0x40)\n      swap1\n      dup2\n      add\n      0x40\n      mstore\n      dup1\n      swap3\n      swap2\n      swap1\n      dup2\n      dup2\n      mstore\n      0x20\n      add\n      dup3\n      dup1\n      sload\n      tag_314\n      swap1\n      tag_282\n      jump\t// in\n    tag_314:\n      dup1\n      iszero\n      tag_315\n      jumpi\n      dup1\n      0x1f\n      lt\n      tag_316\n      jumpi\n      0x0100\n      dup1\n      dup4\n      sload\n      div\n      mul\n      dup4\n      mstore\n      swap2\n      0x20\n      add\n      swap2\n      jump(tag_315)\n    tag_316:\n      dup3\n      add\n      swap2\n      swap1\n      0x00\n      mstore\n      keccak256(0x00, 0x20)\n      swap1\n    tag_317:\n      dup2\n      sload\n      dup2\n      mstore\n      swap1\n      0x01\n      add\n      swap1\n      0x20\n      add\n      dup1\n      dup4\n      gt\n      tag_317\n      jumpi\n      dup3\n      swap1\n      sub\n      0x1f\n      and\n      dup3\n      add\n      swap2\n    tag_315:\n      pop\n      pop\n      pop\n      0x03\n      dup5\n      add\n      sload\n      0x04\n      dup6\n      add\n      sload\n      0x05\n      dup7\n      add\n      sload\n      0x06\n      dup8\n      add\n      sload\n      0x07\n      dup9\n      add\n      sload\n      0x08\n      swap1\n      swap9\n      add\n      sload\n      swap7\n      swap8\n      sub(shl(0xa0, 0x01), 0x01)\n      swap5\n      dup6\n      and\n      swap8\n      swap4\n      swap7\n      pop\n      swap2\n      swap1\n      swap4\n      and\n      swap4\n      pop\n      swap1\n      dup10\n      jump\t// out\n        /* \"ReferalSystem.sol\":6697:7096  function getUserReferrals(uint256 userId) public view returns(uint256[] memory referralsIds) {... */\n    tag_126:\n        /* \"ReferalSystem.sol\":6840:6841  0 */\n      0x00\n        /* \"ReferalSystem.sol\":6805:6822  usersById[userId] */\n      dup2\n      dup2\n      mstore\n        /* \"ReferalSystem.sol\":6805:6814  usersById */\n      0x01\n        /* \"ReferalSystem.sol\":6805:6822  usersById[userId] */\n      0x20\n      mstore\n      0x40\n      swap1\n      keccak256\n        /* \"ReferalSystem.sol\":6805:6837  usersById[userId].referralsCount */\n      0x06\n      add\n      sload\n        /* \"ReferalSystem.sol\":6759:6788  uint256[] memory referralsIds */\n      0x60\n      swap1\n        /* \"ReferalSystem.sol\":6805:6841  usersById[userId].referralsCount > 0 */\n      iszero\n        /* \"ReferalSystem.sol\":6801:7089  if (usersById[userId].referralsCount > 0) {... */\n      tag_268\n      jumpi\n        /* \"ReferalSystem.sol\":6887:6904  usersById[userId] */\n      0x00\n      dup3\n      dup2\n      mstore\n        /* \"ReferalSystem.sol\":6887:6896  usersById */\n      0x01\n        /* \"ReferalSystem.sol\":6887:6904  usersById[userId] */\n      0x20\n      mstore\n      0x40\n      swap1\n      keccak256\n        /* \"ReferalSystem.sol\":6887:6919  usersById[userId].referralsCount */\n      0x06\n      add\n      sload\n        /* \"ReferalSystem.sol\":6873:6920  new uint256[](usersById[userId].referralsCount) */\n      0xffffffffffffffff\n      dup2\n      gt\n      iszero\n      tag_322\n      jumpi\n      tag_322\n      tag_271\n      jump\t// in\n    tag_322:\n      mload(0x40)\n      swap1\n      dup1\n      dup3\n      mstore\n      dup1\n      0x20\n      mul\n      0x20\n      add\n      dup3\n      add\n      0x40\n      mstore\n      dup1\n      iszero\n      tag_323\n      jumpi\n      dup2\n      0x20\n      add\n      0x20\n      dup3\n      mul\n      dup1\n      calldatasize\n      dup4\n      calldatacopy\n      add\n      swap1\n      pop\n    tag_323:\n      pop\n        /* \"ReferalSystem.sol\":6858:6920  referralsIds = new uint256[](usersById[userId].referralsCount) */\n      swap1\n      pop\n        /* \"ReferalSystem.sol\":6939:6948  uint256 i */\n      0x00\n        /* \"ReferalSystem.sol\":6935:7078  for(uint256 i = 0; i < usersById[userId].referralsCount; i++) {... */\n    tag_324:\n        /* \"ReferalSystem.sol\":6958:6975  usersById[userId] */\n      0x00\n      dup4\n      dup2\n      mstore\n        /* \"ReferalSystem.sol\":6958:6967  usersById */\n      0x01\n        /* \"ReferalSystem.sol\":6958:6975  usersById[userId] */\n      0x20\n      mstore\n      0x40\n      swap1\n      keccak256\n        /* \"ReferalSystem.sol\":6958:6990  usersById[userId].referralsCount */\n      0x06\n      add\n      sload\n        /* \"ReferalSystem.sol\":6954:6990  i < usersById[userId].referralsCount */\n      dup2\n      lt\n        /* \"ReferalSystem.sol\":6935:7078  for(uint256 i = 0; i < usersById[userId].referralsCount; i++) {... */\n      iszero\n      tag_277\n      jumpi\n        /* \"ReferalSystem.sol\":7034:7047  userReferrals */\n      0x00\n        /* \"ReferalSystem.sol\":7034:7055  userReferrals[userId] */\n      dup4\n      dup2\n      mstore\n      0x20\n      dup2\n      swap1\n      mstore\n      0x40\n      dup2\n      keccak256\n      swap1\n        /* \"ReferalSystem.sol\":7056:7061  i + 1 */\n      tag_327\n        /* \"ReferalSystem.sol\":7056:7057  i */\n      dup4\n        /* \"ReferalSystem.sol\":7060:7061  1 */\n      0x01\n        /* \"ReferalSystem.sol\":7056:7061  i + 1 */\n      tag_280\n      jump\t// in\n    tag_327:\n        /* \"ReferalSystem.sol\":7034:7062  userReferrals[userId][i + 1] */\n      dup2\n      mstore\n      0x20\n      add\n      swap1\n      dup2\n      mstore\n      0x20\n      add\n      0x00\n      keccak256\n      sload\n        /* \"ReferalSystem.sol\":7016:7028  referralsIds */\n      dup3\n        /* \"ReferalSystem.sol\":7029:7030  i */\n      dup3\n        /* \"ReferalSystem.sol\":7016:7031  referralsIds[i] */\n      dup2\n      mload\n      dup2\n      lt\n      tag_329\n      jumpi\n      tag_329\n      tag_294\n      jump\t// in\n    tag_329:\n      0x20\n      swap1\n      dup2\n      mul\n      swap2\n      swap1\n      swap2\n      add\n      add\n        /* \"ReferalSystem.sol\":7016:7062  referralsIds[i] = userReferrals[userId][i + 1] */\n      mstore\n        /* \"ReferalSystem.sol\":6992:6995  i++ */\n      dup1\n      tag_330\n      dup2\n      tag_247\n      jump\t// in\n    tag_330:\n      swap2\n      pop\n      pop\n        /* \"ReferalSystem.sol\":6935:7078  for(uint256 i = 0; i < usersById[userId].referralsCount; i++) {... */\n      jump(tag_324)\n        /* \"ReferalSystem.sol\":5682:5833  function setOracle(address newOracle) onlyOwner public {... */\n    tag_155:\n        /* \"ReferalSystem.sol\":4608:4613  owner */\n      and(sub(shl(0xa0, 0x01), 0x01), sload(0x14))\n        /* \"ReferalSystem.sol\":4594:4604  msg.sender */\n      caller\n        /* \"ReferalSystem.sol\":4594:4613  msg.sender == owner */\n      eq\n        /* \"ReferalSystem.sol\":4586:4627  require(msg.sender == owner, \"Not owner\") */\n      tag_332\n      jumpi\n      mload(0x40)\n      shl(0xe5, 0x461bcd)\n      dup2\n      mstore\n      0x04\n      add\n      tag_242\n      swap1\n      tag_243\n      jump\t// in\n    tag_332:\n      sub(shl(0xa0, 0x01), 0x01)\n        /* \"ReferalSystem.sol\":5756:5779  newOracle != address(0) */\n      dup2\n      and\n        /* \"ReferalSystem.sol\":5748:5796  require(newOracle != address(0), 'Zero address') */\n      tag_335\n      jumpi\n      mload(0x40)\n      shl(0xe5, 0x461bcd)\n      dup2\n      mstore\n        /* \"#utility.yul\":11885:11887   */\n      0x20\n        /* \"ReferalSystem.sol\":5748:5796  require(newOracle != address(0), 'Zero address') */\n      0x04\n      dup3\n      add\n        /* \"#utility.yul\":11867:11888   */\n      mstore\n        /* \"#utility.yul\":11924:11926   */\n      0x0c\n        /* \"#utility.yul\":11904:11922   */\n      0x24\n      dup3\n      add\n        /* \"#utility.yul\":11897:11927   */\n      mstore\n      shl(0xa0, 0x5a65726f2061646472657373)\n        /* \"#utility.yul\":11943:11961   */\n      0x44\n      dup3\n      add\n        /* \"#utility.yul\":11936:11978   */\n      mstore\n        /* \"#utility.yul\":11995:12013   */\n      0x64\n      add\n        /* \"ReferalSystem.sol\":5748:5796  require(newOracle != address(0), 'Zero address') */\n      tag_242\n        /* \"#utility.yul\":11683:12019   */\n      jump\n        /* \"ReferalSystem.sol\":5748:5796  require(newOracle != address(0), 'Zero address') */\n    tag_335:\n        /* \"ReferalSystem.sol\":5807:5813  oracle */\n      0x16\n        /* \"ReferalSystem.sol\":5807:5825  oracle = newOracle */\n      dup1\n      sload\n      not(sub(shl(0xa0, 0x01), 0x01))\n      and\n      sub(shl(0xa0, 0x01), 0x01)\n      swap3\n      swap1\n      swap3\n      and\n      swap2\n      swap1\n      swap2\n      or\n      swap1\n      sstore\n        /* \"ReferalSystem.sol\":5682:5833  function setOracle(address newOracle) onlyOwner public {... */\n      jump\t// out\n        /* \"ReferalSystem.sol\":2495:2822  function addBlackListUser(uint256 userId) public onlyOwner {... */\n    tag_158:\n        /* \"ReferalSystem.sol\":4608:4613  owner */\n      and(sub(shl(0xa0, 0x01), 0x01), sload(0x14))\n        /* \"ReferalSystem.sol\":4594:4604  msg.sender */\n      caller\n        /* \"ReferalSystem.sol\":4594:4613  msg.sender == owner */\n      eq\n        /* \"ReferalSystem.sol\":4586:4627  require(msg.sender == owner, \"Not owner\") */\n      tag_339\n      jumpi\n      mload(0x40)\n      shl(0xe5, 0x461bcd)\n      dup2\n      mstore\n      0x04\n      add\n      tag_242\n      swap1\n      tag_243\n      jump\t// in\n    tag_339:\n        /* \"ReferalSystem.sol\":2570:2596  blacklistUsers_map[userId] */\n      0x00\n      dup2\n      dup2\n      mstore\n        /* \"ReferalSystem.sol\":2570:2588  blacklistUsers_map */\n      0x10\n        /* \"ReferalSystem.sol\":2570:2596  blacklistUsers_map[userId] */\n      0x20\n      mstore\n      0x40\n      swap1\n      keccak256\n      sload\n      0xff\n      and\n        /* \"ReferalSystem.sol\":2565:2815  if (!blacklistUsers_map[userId]) {... */\n      tag_245\n      jumpi\n        /* \"ReferalSystem.sol\":2613:2632  blacklistUsersCount */\n      0x13\n        /* \"ReferalSystem.sol\":2613:2634  blacklistUsersCount++ */\n      dup1\n      sload\n      swap1\n        /* \"ReferalSystem.sol\":2613:2632  blacklistUsersCount */\n      0x00\n        /* \"ReferalSystem.sol\":2613:2634  blacklistUsersCount++ */\n      tag_343\n      dup4\n      tag_247\n      jump\t// in\n    tag_343:\n      swap1\n      swap2\n      sstore\n      pop\n      pop\n        /* \"ReferalSystem.sol\":2664:2683  blacklistUsersCount */\n      0x13\n      dup1\n      sload\n        /* \"ReferalSystem.sol\":2649:2684  blacklistUsers[blacklistUsersCount] */\n      0x00\n      swap1\n      dup2\n      mstore\n        /* \"ReferalSystem.sol\":2649:2663  blacklistUsers */\n      0x12\n        /* \"ReferalSystem.sol\":2649:2684  blacklistUsers[blacklistUsersCount] */\n      0x20\n      swap1\n      dup2\n      mstore\n      0x40\n      dup1\n      dup4\n      keccak256\n        /* \"ReferalSystem.sol\":2649:2693  blacklistUsers[blacklistUsersCount] = userId */\n      dup6\n      swap1\n      sstore\n        /* \"ReferalSystem.sol\":2708:2734  blacklistUsers_map[userId] */\n      dup5\n      dup4\n      mstore\n        /* \"ReferalSystem.sol\":2708:2726  blacklistUsers_map */\n      0x10\n        /* \"ReferalSystem.sol\":2708:2734  blacklistUsers_map[userId] */\n      dup3\n      mstore\n      dup1\n      dup4\n      keccak256\n        /* \"ReferalSystem.sol\":2708:2741  blacklistUsers_map[userId] = true */\n      dup1\n      sload\n      not(0xff)\n      and\n        /* \"ReferalSystem.sol\":2737:2741  true */\n      0x01\n        /* \"ReferalSystem.sol\":2708:2741  blacklistUsers_map[userId] = true */\n      or\n      swap1\n      sstore\n        /* \"ReferalSystem.sol\":2784:2803  blacklistUsersCount */\n      swap3\n      sload\n        /* \"ReferalSystem.sol\":2756:2773  blacklistUsersIds */\n      0x11\n        /* \"ReferalSystem.sol\":2756:2781  blacklistUsersIds[userId] */\n      swap1\n      swap2\n      mstore\n      swap2\n      swap1\n      keccak256\n        /* \"ReferalSystem.sol\":2756:2803  blacklistUsersIds[userId] = blacklistUsersCount */\n      sstore\n        /* \"ReferalSystem.sol\":2495:2822  function addBlackListUser(uint256 userId) public onlyOwner {... */\n      pop\n      jump\t// out\n        /* \"ReferalSystem.sol\":5542:5676  function repairOwner(address newOwner) public {... */\n    tag_168:\n        /* \"ReferalSystem.sol\":5621:5627  repair */\n      and(sub(shl(0xa0, 0x01), 0x01), sload(0x15))\n        /* \"ReferalSystem.sol\":5607:5617  msg.sender */\n      caller\n        /* \"ReferalSystem.sol\":5607:5627  msg.sender == repair */\n      eq\n        /* \"ReferalSystem.sol\":5599:5641  require(msg.sender == repair, \"Not owner\") */\n      tag_345\n      jumpi\n      mload(0x40)\n      shl(0xe5, 0x461bcd)\n      dup2\n      mstore\n      0x04\n      add\n      tag_242\n      swap1\n      tag_243\n      jump\t// in\n    tag_345:\n        /* \"ReferalSystem.sol\":5652:5657  owner */\n      0x14\n        /* \"ReferalSystem.sol\":5652:5668  owner = newOwner */\n      dup1\n      sload\n      not(sub(shl(0xa0, 0x01), 0x01))\n      and\n      sub(shl(0xa0, 0x01), 0x01)\n      swap3\n      swap1\n      swap3\n      and\n      swap2\n      swap1\n      swap2\n      or\n      swap1\n      sstore\n        /* \"ReferalSystem.sol\":5542:5676  function repairOwner(address newOwner) public {... */\n      jump\t// out\n        /* \"ReferalSystem.sol\":5318:5426  function setRewardToken(address newToken) onlyOwner public {... */\n    tag_171:\n        /* \"ReferalSystem.sol\":4608:4613  owner */\n      and(sub(shl(0xa0, 0x01), 0x01), sload(0x14))\n        /* \"ReferalSystem.sol\":4594:4604  msg.sender */\n      caller\n        /* \"ReferalSystem.sol\":4594:4613  msg.sender == owner */\n      eq\n        /* \"ReferalSystem.sol\":4586:4627  require(msg.sender == owner, \"Not owner\") */\n      tag_348\n      jumpi\n      mload(0x40)\n      shl(0xe5, 0x461bcd)\n      dup2\n      mstore\n      0x04\n      add\n      tag_242\n      swap1\n      tag_243\n      jump\t// in\n    tag_348:\n        /* \"ReferalSystem.sol\":5388:5399  rewardToken */\n      0x17\n        /* \"ReferalSystem.sol\":5388:5418  rewardToken = IERC20(newToken) */\n      dup1\n      sload\n      not(sub(shl(0xa0, 0x01), 0x01))\n      and\n      sub(shl(0xa0, 0x01), 0x01)\n      swap3\n      swap1\n      swap3\n      and\n      swap2\n      swap1\n      swap2\n      or\n      swap1\n      sstore\n        /* \"ReferalSystem.sol\":5318:5426  function setRewardToken(address newToken) onlyOwner public {... */\n      jump\t// out\n        /* \"ReferalSystem.sol\":7102:7473  function getUserAddreses(uint256 userId) public view returns(address[] memory addresses) {... */\n    tag_174:\n        /* \"ReferalSystem.sol\":7235:7236  0 */\n      0x00\n        /* \"ReferalSystem.sol\":7206:7232  userAddressesCount[userId] */\n      dup2\n      dup2\n      mstore\n        /* \"ReferalSystem.sol\":7206:7224  userAddressesCount */\n      0x06\n        /* \"ReferalSystem.sol\":7206:7232  userAddressesCount[userId] */\n      0x20\n      mstore\n      0x40\n      swap1\n      keccak256\n      sload\n        /* \"ReferalSystem.sol\":7163:7189  address[] memory addresses */\n      0x60\n      swap1\n        /* \"ReferalSystem.sol\":7206:7236  userAddressesCount[userId] > 0 */\n      iszero\n        /* \"ReferalSystem.sol\":7202:7466  if (userAddressesCount[userId] > 0) {... */\n      tag_268\n      jumpi\n        /* \"ReferalSystem.sol\":7279:7305  userAddressesCount[userId] */\n      0x00\n      dup3\n      dup2\n      mstore\n        /* \"ReferalSystem.sol\":7279:7297  userAddressesCount */\n      0x06\n        /* \"ReferalSystem.sol\":7279:7305  userAddressesCount[userId] */\n      0x20\n      mstore\n      0x40\n      swap1\n      keccak256\n      sload\n        /* \"ReferalSystem.sol\":7265:7306  new address[](userAddressesCount[userId]) */\n      0xffffffffffffffff\n      dup2\n      gt\n      iszero\n      tag_354\n      jumpi\n      tag_354\n      tag_271\n      jump\t// in\n    tag_354:\n      mload(0x40)\n      swap1\n      dup1\n      dup3\n      mstore\n      dup1\n      0x20\n      mul\n      0x20\n      add\n      dup3\n      add\n      0x40\n      mstore\n      dup1\n      iszero\n      tag_355\n      jumpi\n      dup2\n      0x20\n      add\n      0x20\n      dup3\n      mul\n      dup1\n      calldatasize\n      dup4\n      calldatacopy\n      add\n      swap1\n      pop\n    tag_355:\n      pop\n        /* \"ReferalSystem.sol\":7253:7306  addresses = new address[](userAddressesCount[userId]) */\n      swap1\n      pop\n        /* \"ReferalSystem.sol\":7325:7334  uint256 i */\n      0x00\n        /* \"ReferalSystem.sol\":7321:7455  for(uint256 i = 0; i < userAddressesCount[userId]; i++) {... */\n    tag_356:\n        /* \"ReferalSystem.sol\":7344:7370  userAddressesCount[userId] */\n      0x00\n      dup4\n      dup2\n      mstore\n        /* \"ReferalSystem.sol\":7344:7362  userAddressesCount */\n      0x06\n        /* \"ReferalSystem.sol\":7344:7370  userAddressesCount[userId] */\n      0x20\n      mstore\n      0x40\n      swap1\n      keccak256\n      sload\n        /* \"ReferalSystem.sol\":7340:7370  i < userAddressesCount[userId] */\n      dup2\n      lt\n        /* \"ReferalSystem.sol\":7321:7455  for(uint256 i = 0; i < userAddressesCount[userId]; i++) {... */\n      iszero\n      tag_277\n      jumpi\n        /* \"ReferalSystem.sol\":7411:7432  userAddresses[userId] */\n      0x00\n      dup4\n      dup2\n      mstore\n        /* \"ReferalSystem.sol\":7411:7424  userAddresses */\n      0x04\n        /* \"ReferalSystem.sol\":7411:7432  userAddresses[userId] */\n      0x20\n      mstore\n      0x40\n      dup2\n      keccak256\n      swap1\n        /* \"ReferalSystem.sol\":7433:7438  i + 1 */\n      tag_359\n        /* \"ReferalSystem.sol\":7433:7434  i */\n      dup4\n        /* \"ReferalSystem.sol\":7437:7438  1 */\n      0x01\n        /* \"ReferalSystem.sol\":7433:7438  i + 1 */\n      tag_280\n      jump\t// in\n    tag_359:\n        /* \"ReferalSystem.sol\":7411:7439  userAddresses[userId][i + 1] */\n      dup2\n      mstore\n      0x20\n      add\n      swap1\n      dup2\n      mstore\n      0x20\n      add\n      0x00\n      keccak256\n      0x00\n      swap1\n      sload\n      swap1\n      0x0100\n      exp\n      swap1\n      div\n      sub(shl(0xa0, 0x01), 0x01)\n      and\n        /* \"ReferalSystem.sol\":7396:7405  addresses */\n      dup3\n        /* \"ReferalSystem.sol\":7406:7407  i */\n      dup3\n        /* \"ReferalSystem.sol\":7396:7408  addresses[i] */\n      dup2\n      mload\n      dup2\n      lt\n      tag_361\n      jumpi\n      tag_361\n      tag_294\n      jump\t// in\n    tag_361:\n      sub(shl(0xa0, 0x01), 0x01)\n        /* \"ReferalSystem.sol\":7396:7439  addresses[i] = userAddresses[userId][i + 1] */\n      swap1\n      swap3\n      and\n        /* \"ReferalSystem.sol\":7396:7408  addresses[i] */\n      0x20\n      swap3\n      dup4\n      mul\n      swap2\n      swap1\n      swap2\n      add\n      swap1\n      swap2\n      add\n        /* \"ReferalSystem.sol\":7396:7439  addresses[i] = userAddresses[userId][i + 1] */\n      mstore\n        /* \"ReferalSystem.sol\":7372:7375  i++ */\n      dup1\n      tag_362\n      dup2\n      tag_247\n      jump\t// in\n    tag_362:\n      swap2\n      pop\n      pop\n        /* \"ReferalSystem.sol\":7321:7455  for(uint256 i = 0; i < userAddressesCount[userId]; i++) {... */\n      jump(tag_356)\n        /* \"ReferalSystem.sol\":12901:13111  function withdrawTokens() public onlyOwner {... */\n    tag_177:\n        /* \"ReferalSystem.sol\":4608:4613  owner */\n      and(sub(shl(0xa0, 0x01), 0x01), sload(0x14))\n        /* \"ReferalSystem.sol\":4594:4604  msg.sender */\n      caller\n        /* \"ReferalSystem.sol\":4594:4613  msg.sender == owner */\n      eq\n        /* \"ReferalSystem.sol\":4586:4627  require(msg.sender == owner, \"Not owner\") */\n      tag_364\n      jumpi\n      mload(0x40)\n      shl(0xe5, 0x461bcd)\n      dup2\n      mstore\n      0x04\n      add\n      tag_242\n      swap1\n      tag_243\n      jump\t// in\n    tag_364:\n        /* \"ReferalSystem.sol\":12973:12984  rewardToken */\n      sload(0x17)\n        /* \"ReferalSystem.sol\":12973:13009  rewardToken.balanceOf(address(this)) */\n      mload(0x40)\n      shl(0xe0, 0x70a08231)\n      dup2\n      mstore\n        /* \"ReferalSystem.sol\":13003:13007  this */\n      address\n        /* \"ReferalSystem.sol\":12973:13009  rewardToken.balanceOf(address(this)) */\n      0x04\n      dup3\n      add\n        /* \"#utility.yul\":1005:1056   */\n      mstore\n        /* \"ReferalSystem.sol\":12955:12970  uint256 balance */\n      0x00\n      swap2\n      sub(shl(0xa0, 0x01), 0x01)\n        /* \"ReferalSystem.sol\":12973:12984  rewardToken */\n      and\n      swap1\n        /* \"ReferalSystem.sol\":12973:12994  rewardToken.balanceOf */\n      0x70a08231\n      swap1\n        /* \"#utility.yul\":978:996   */\n      0x24\n      add\n        /* \"ReferalSystem.sol\":12973:13009  rewardToken.balanceOf(address(this)) */\n      0x20\n      mload(0x40)\n      dup1\n      dup4\n      sub\n      dup2\n      dup7\n      gas\n      staticcall\n      iszero\n      dup1\n      iszero\n      tag_369\n      jumpi\n      returndatasize\n      0x00\n      dup1\n      returndatacopy\n      revert(0x00, returndatasize)\n    tag_369:\n      pop\n      pop\n      pop\n      pop\n      mload(0x40)\n      returndatasize\n      not(0x1f)\n      0x1f\n      dup3\n      add\n      and\n      dup3\n      add\n      dup1\n      0x40\n      mstore\n      pop\n      dup2\n      add\n      swap1\n      tag_370\n      swap2\n      swap1\n      tag_253\n      jump\t// in\n    tag_370:\n        /* \"ReferalSystem.sol\":12955:13009  uint256 balance = rewardToken.balanceOf(address(this)) */\n      swap1\n      pop\n        /* \"ReferalSystem.sol\":13024:13035  balance > 0 */\n      dup1\n      iszero\n        /* \"ReferalSystem.sol\":13020:13104  if (balance > 0) {... */\n      tag_245\n      jumpi\n        /* \"ReferalSystem.sol\":13052:13063  rewardToken */\n      sload(0x17)\n        /* \"ReferalSystem.sol\":13052:13092  rewardToken.transfer(msg.sender,balance) */\n      mload(0x40)\n      shl(0xe0, 0xa9059cbb)\n      dup2\n      mstore\n        /* \"ReferalSystem.sol\":13073:13083  msg.sender */\n      caller\n        /* \"ReferalSystem.sol\":13052:13092  rewardToken.transfer(msg.sender,balance) */\n      0x04\n      dup3\n      add\n        /* \"#utility.yul\":12198:12249   */\n      mstore\n        /* \"#utility.yul\":12265:12283   */\n      0x24\n      dup2\n      add\n        /* \"#utility.yul\":12258:12292   */\n      dup4\n      swap1\n      mstore\n      sub(shl(0xa0, 0x01), 0x01)\n        /* \"ReferalSystem.sol\":13052:13063  rewardToken */\n      swap1\n      swap2\n      and\n      swap1\n        /* \"ReferalSystem.sol\":13052:13072  rewardToken.transfer */\n      0xa9059cbb\n      swap1\n        /* \"#utility.yul\":12171:12189   */\n      0x44\n      add\n        /* \"ReferalSystem.sol\":13052:13092  rewardToken.transfer(msg.sender,balance) */\n      0x20\n      mload(0x40)\n      dup1\n      dup4\n      sub\n      dup2\n      0x00\n      dup8\n      gas\n      call\n      iszero\n      dup1\n      iszero\n      tag_375\n      jumpi\n      returndatasize\n      0x00\n      dup1\n      returndatacopy\n      revert(0x00, returndatasize)\n    tag_375:\n      pop\n      pop\n      pop\n      pop\n      mload(0x40)\n      returndatasize\n      not(0x1f)\n      0x1f\n      dup3\n      add\n      and\n      dup3\n      add\n      dup1\n      0x40\n      mstore\n      pop\n      dup2\n      add\n      swap1\n      tag_376\n      swap2\n      swap1\n      tag_377\n      jump\t// in\n    tag_376:\n      pop\n        /* \"ReferalSystem.sol\":12944:13111  {... */\n      pop\n        /* \"ReferalSystem.sol\":12901:13111  function withdrawTokens() public onlyOwner {... */\n      jump\t// out\n        /* \"ReferalSystem.sol\":5432:5536  function setRewardAmount(uint256 newReward) onlyOwner public {... */\n    tag_186:\n        /* \"ReferalSystem.sol\":4608:4613  owner */\n      and(sub(shl(0xa0, 0x01), 0x01), sload(0x14))\n        /* \"ReferalSystem.sol\":4594:4604  msg.sender */\n      caller\n        /* \"ReferalSystem.sol\":4594:4613  msg.sender == owner */\n      eq\n        /* \"ReferalSystem.sol\":4586:4627  require(msg.sender == owner, \"Not owner\") */\n      tag_379\n      jumpi\n      mload(0x40)\n      shl(0xe5, 0x461bcd)\n      dup2\n      mstore\n      0x04\n      add\n      tag_242\n      swap1\n      tag_243\n      jump\t// in\n    tag_379:\n        /* \"ReferalSystem.sol\":5504:5516  rewardAmount */\n      0x18\n        /* \"ReferalSystem.sol\":5504:5528  rewardAmount = newReward */\n      sstore\n        /* \"ReferalSystem.sol\":5432:5536  function setRewardAmount(uint256 newReward) onlyOwner public {... */\n      jump\t// out\n        /* \"ReferalSystem.sol\":12634:12895  function safeTokens(address tokenAddress) public onlyOwner {... */\n    tag_201:\n        /* \"ReferalSystem.sol\":4608:4613  owner */\n      and(sub(shl(0xa0, 0x01), 0x01), sload(0x14))\n        /* \"ReferalSystem.sol\":4594:4604  msg.sender */\n      caller\n        /* \"ReferalSystem.sol\":4594:4613  msg.sender == owner */\n      eq\n        /* \"ReferalSystem.sol\":4586:4627  require(msg.sender == owner, \"Not owner\") */\n      tag_383\n      jumpi\n      mload(0x40)\n      shl(0xe5, 0x461bcd)\n      dup2\n      mstore\n      0x04\n      add\n      tag_242\n      swap1\n      tag_243\n      jump\t// in\n    tag_383:\n        /* \"ReferalSystem.sol\":12768:12798  token.balanceOf(address(this)) */\n      mload(0x40)\n      shl(0xe0, 0x70a08231)\n      dup2\n      mstore\n        /* \"ReferalSystem.sol\":12792:12796  this */\n      address\n        /* \"ReferalSystem.sol\":12768:12798  token.balanceOf(address(this)) */\n      0x04\n      dup3\n      add\n        /* \"#utility.yul\":1005:1056   */\n      mstore\n        /* \"ReferalSystem.sol\":12726:12738  tokenAddress */\n      dup2\n      swap1\n        /* \"ReferalSystem.sol\":12704:12716  IERC20 token */\n      0x00\n      swap1\n      sub(shl(0xa0, 0x01), 0x01)\n        /* \"ReferalSystem.sol\":12768:12783  token.balanceOf */\n      dup4\n      and\n      swap1\n      0x70a08231\n      swap1\n        /* \"#utility.yul\":978:996   */\n      0x24\n      add\n        /* \"ReferalSystem.sol\":12768:12798  token.balanceOf(address(this)) */\n      0x20\n      mload(0x40)\n      dup1\n      dup4\n      sub\n      dup2\n      dup7\n      gas\n      staticcall\n      iszero\n      dup1\n      iszero\n      tag_388\n      jumpi\n      returndatasize\n      0x00\n      dup1\n      returndatacopy\n      revert(0x00, returndatasize)\n    tag_388:\n      pop\n      pop\n      pop\n      pop\n      mload(0x40)\n      returndatasize\n      not(0x1f)\n      0x1f\n      dup3\n      add\n      and\n      dup3\n      add\n      dup1\n      0x40\n      mstore\n      pop\n      dup2\n      add\n      swap1\n      tag_389\n      swap2\n      swap1\n      tag_253\n      jump\t// in\n    tag_389:\n        /* \"ReferalSystem.sol\":12750:12798  uint256 balance = token.balanceOf(address(this)) */\n      swap1\n      pop\n        /* \"ReferalSystem.sol\":12813:12824  balance > 0 */\n      dup1\n      iszero\n        /* \"ReferalSystem.sol\":12809:12888  if (balance > 0) {... */\n      tag_390\n      jumpi\n        /* \"ReferalSystem.sol\":12841:12876  token.transfer(msg.sender, balance) */\n      mload(0x40)\n      shl(0xe0, 0xa9059cbb)\n      dup2\n      mstore\n        /* \"ReferalSystem.sol\":12856:12866  msg.sender */\n      caller\n        /* \"ReferalSystem.sol\":12841:12876  token.transfer(msg.sender, balance) */\n      0x04\n      dup3\n      add\n        /* \"#utility.yul\":12198:12249   */\n      mstore\n        /* \"#utility.yul\":12265:12283   */\n      0x24\n      dup2\n      add\n        /* \"#utility.yul\":12258:12292   */\n      dup3\n      swap1\n      mstore\n      sub(shl(0xa0, 0x01), 0x01)\n        /* \"ReferalSystem.sol\":12841:12855  token.transfer */\n      dup4\n      and\n      swap1\n      0xa9059cbb\n      swap1\n        /* \"#utility.yul\":12171:12189   */\n      0x44\n      add\n        /* \"ReferalSystem.sol\":12841:12876  token.transfer(msg.sender, balance) */\n      0x20\n      mload(0x40)\n      dup1\n      dup4\n      sub\n      dup2\n      0x00\n      dup8\n      gas\n      call\n      iszero\n      dup1\n      iszero\n      tag_393\n      jumpi\n      returndatasize\n      0x00\n      dup1\n      returndatacopy\n      revert(0x00, returndatasize)\n    tag_393:\n      pop\n      pop\n      pop\n      pop\n      mload(0x40)\n      returndatasize\n      not(0x1f)\n      0x1f\n      dup3\n      add\n      and\n      dup3\n      add\n      dup1\n      0x40\n      mstore\n      pop\n      dup2\n      add\n      swap1\n      tag_394\n      swap2\n      swap1\n      tag_377\n      jump\t// in\n    tag_394:\n      pop\n        /* \"ReferalSystem.sol\":12809:12888  if (balance > 0) {... */\n    tag_390:\n        /* \"ReferalSystem.sol\":12693:12895  {... */\n      pop\n      pop\n        /* \"ReferalSystem.sol\":12634:12895  function safeTokens(address tokenAddress) public onlyOwner {... */\n      pop\n      jump\t// out\n        /* \"ReferalSystem.sol\":13117:13227  function getUserInfo(uint256 _id) external view returns (User memory) {... */\n    tag_204:\n        /* \"ReferalSystem.sol\":13174:13185  User memory */\n      tag_395\n      tag_275\n      jump\t// in\n    tag_395:\n        /* \"ReferalSystem.sol\":13205:13219  usersById[_id] */\n      0x00\n      dup3\n      dup2\n      mstore\n        /* \"ReferalSystem.sol\":13205:13214  usersById */\n      0x01\n        /* \"ReferalSystem.sol\":13205:13219  usersById[_id] */\n      0x20\n      dup2\n      dup2\n      mstore\n      0x40\n      swap3\n      dup4\n      swap1\n      keccak256\n        /* \"ReferalSystem.sol\":13198:13219  return usersById[_id] */\n      dup4\n      mload\n      0x0120\n      dup2\n      add\n      swap1\n      swap5\n      mstore\n      dup1\n      sload\n      dup5\n      mstore\n      swap2\n      dup3\n      add\n      dup1\n      sload\n      swap2\n      dup5\n      add\n      swap2\n      tag_397\n      swap1\n      tag_282\n      jump\t// in\n    tag_397:\n      dup1\n      0x1f\n      add\n      0x20\n      dup1\n      swap2\n      div\n      mul\n      0x20\n      add\n      mload(0x40)\n      swap1\n      dup2\n      add\n      0x40\n      mstore\n      dup1\n      swap3\n      swap2\n      swap1\n      dup2\n      dup2\n      mstore\n      0x20\n      add\n      dup3\n      dup1\n      sload\n      tag_398\n      swap1\n      tag_282\n      jump\t// in\n    tag_398:\n      dup1\n      iszero\n      tag_399\n      jumpi\n      dup1\n      0x1f\n      lt\n      tag_400\n      jumpi\n      0x0100\n      dup1\n      dup4\n      sload\n      div\n      mul\n      dup4\n      mstore\n      swap2\n      0x20\n      add\n      swap2\n      jump(tag_399)\n    tag_400:\n      dup3\n      add\n      swap2\n      swap1\n      0x00\n      mstore\n      keccak256(0x00, 0x20)\n      swap1\n    tag_401:\n      dup2\n      sload\n      dup2\n      mstore\n      swap1\n      0x01\n      add\n      swap1\n      0x20\n      add\n      dup1\n      dup4\n      gt\n      tag_401\n      jumpi\n      dup3\n      swap1\n      sub\n      0x1f\n      and\n      dup3\n      add\n      swap2\n    tag_399:\n      pop\n      pop\n      pop\n      pop\n      pop\n      dup2\n      mstore\n      0x20\n      add\n      0x02\n      dup3\n      add\n      dup1\n      sload\n      tag_402\n      swap1\n      tag_282\n      jump\t// in\n    tag_402:\n      dup1\n      0x1f\n      add\n      0x20\n      dup1\n      swap2\n      div\n      mul\n      0x20\n      add\n      mload(0x40)\n      swap1\n      dup2\n      add\n      0x40\n      mstore\n      dup1\n      swap3\n      swap2\n      swap1\n      dup2\n      dup2\n      mstore\n      0x20\n      add\n      dup3\n      dup1\n      sload\n      tag_403\n      swap1\n      tag_282\n      jump\t// in\n    tag_403:\n      dup1\n      iszero\n      tag_404\n      jumpi\n      dup1\n      0x1f\n      lt\n      tag_405\n      jumpi\n      0x0100\n      dup1\n      dup4\n      sload\n      div\n      mul\n      dup4\n      mstore\n      swap2\n      0x20\n      add\n      swap2\n      jump(tag_404)\n    tag_405:\n      dup3\n      add\n      swap2\n      swap1\n      0x00\n      mstore\n      keccak256(0x00, 0x20)\n      swap1\n    tag_406:\n      dup2\n      sload\n      dup2\n      mstore\n      swap1\n      0x01\n      add\n      swap1\n      0x20\n      add\n      dup1\n      dup4\n      gt\n      tag_406\n      jumpi\n      dup3\n      swap1\n      sub\n      0x1f\n      and\n      dup3\n      add\n      swap2\n    tag_404:\n      pop\n      pop\n      pop\n      swap2\n      dup4\n      mstore\n      pop\n      pop\n      0x03\n      dup3\n      add\n      sload\n      sub(shl(0xa0, 0x01), 0x01)\n      swap1\n      dup2\n      and\n      0x20\n      dup4\n      add\n      mstore\n      0x04\n      dup4\n      add\n      sload\n      0x40\n      dup4\n      add\n      mstore\n      0x05\n      dup4\n      add\n      sload\n      and\n      0x60\n      dup3\n      add\n      mstore\n      0x06\n      dup3\n      add\n      sload\n      0x80\n      dup3\n      add\n      mstore\n      0x07\n      dup3\n      add\n      sload\n      0xa0\n      dup3\n      add\n      mstore\n      0x08\n      swap1\n      swap2\n      add\n      sload\n      0xc0\n      swap1\n      swap2\n      add\n      mstore\n      swap3\n        /* \"ReferalSystem.sol\":13117:13227  function getUserInfo(uint256 _id) external view returns (User memory) {... */\n      swap2\n      pop\n      pop\n      jump\t// out\n        /* \"ReferalSystem.sol\":11298:12186  function sendPendingReward() public onlyOwner {... */\n    tag_208:\n        /* \"ReferalSystem.sol\":4608:4613  owner */\n      and(sub(shl(0xa0, 0x01), 0x01), sload(0x14))\n        /* \"ReferalSystem.sol\":4594:4604  msg.sender */\n      caller\n        /* \"ReferalSystem.sol\":4594:4613  msg.sender == owner */\n      eq\n        /* \"ReferalSystem.sol\":4586:4627  require(msg.sender == owner, \"Not owner\") */\n      tag_408\n      jumpi\n      mload(0x40)\n      shl(0xe5, 0x461bcd)\n      dup2\n      mstore\n      0x04\n      add\n      tag_242\n      swap1\n      tag_243\n      jump\t// in\n    tag_408:\n        /* \"ReferalSystem.sol\":11373:11384  rewardToken */\n      sload(0x17)\n        /* \"ReferalSystem.sol\":11373:11409  rewardToken.balanceOf(address(this)) */\n      mload(0x40)\n      shl(0xe0, 0x70a08231)\n      dup2\n      mstore\n        /* \"ReferalSystem.sol\":11403:11407  this */\n      address\n        /* \"ReferalSystem.sol\":11373:11409  rewardToken.balanceOf(address(this)) */\n      0x04\n      dup3\n      add\n        /* \"#utility.yul\":1005:1056   */\n      mstore\n        /* \"ReferalSystem.sol\":11355:11370  uint256 balance */\n      0x00\n      swap2\n      sub(shl(0xa0, 0x01), 0x01)\n        /* \"ReferalSystem.sol\":11373:11384  rewardToken */\n      and\n      swap1\n        /* \"ReferalSystem.sol\":11373:11394  rewardToken.balanceOf */\n      0x70a08231\n      swap1\n        /* \"#utility.yul\":978:996   */\n      0x24\n      add\n        /* \"ReferalSystem.sol\":11373:11409  rewardToken.balanceOf(address(this)) */\n      0x20\n      mload(0x40)\n      dup1\n      dup4\n      sub\n      dup2\n      dup7\n      gas\n      staticcall\n      iszero\n      dup1\n      iszero\n      tag_413\n      jumpi\n      returndatasize\n      0x00\n      dup1\n      returndatacopy\n      revert(0x00, returndatasize)\n    tag_413:\n      pop\n      pop\n      pop\n      pop\n      mload(0x40)\n      returndatasize\n      not(0x1f)\n      0x1f\n      dup3\n      add\n      and\n      dup3\n      add\n      dup1\n      0x40\n      mstore\n      pop\n      dup2\n      add\n      swap1\n      tag_414\n      swap2\n      swap1\n      tag_253\n      jump\t// in\n    tag_414:\n        /* \"ReferalSystem.sol\":11355:11409  uint256 balance = rewardToken.balanceOf(address(this)) */\n      swap1\n      pop\n        /* \"ReferalSystem.sol\":11440:11441  0 */\n      0x00\n        /* \"ReferalSystem.sol\":11424:11437  tokensPending */\n      sload(0x09)\n        /* \"ReferalSystem.sol\":11424:11441  tokensPending > 0 */\n      gt\n        /* \"ReferalSystem.sol\":11424:11456  tokensPending > 0 && balance > 0 */\n      dup1\n      iszero\n      tag_415\n      jumpi\n      pop\n        /* \"ReferalSystem.sol\":11455:11456  0 */\n      0x00\n        /* \"ReferalSystem.sol\":11445:11452  balance */\n      dup2\n        /* \"ReferalSystem.sol\":11445:11456  balance > 0 */\n      gt\n        /* \"ReferalSystem.sol\":11424:11456  tokensPending > 0 && balance > 0 */\n    tag_415:\n        /* \"ReferalSystem.sol\":11420:12179  if (tokensPending > 0 && balance > 0)... */\n      iszero\n      tag_245\n      jumpi\n        /* \"ReferalSystem.sol\":11472:11481  uint256 i */\n      0x00\n        /* \"ReferalSystem.sol\":11467:12179  for (uint256 i = 0; i < usersCount; i++) {... */\n    tag_417:\n        /* \"ReferalSystem.sol\":11491:11501  usersCount */\n      sload(0x0b)\n        /* \"ReferalSystem.sol\":11487:11488  i */\n      dup2\n        /* \"ReferalSystem.sol\":11487:11501  i < usersCount */\n      lt\n        /* \"ReferalSystem.sol\":11467:12179  for (uint256 i = 0; i < usersCount; i++) {... */\n      iszero\n      tag_376\n      jumpi\n        /* \"ReferalSystem.sol\":11523:11537  uint256 userId */\n      0x00\n        /* \"ReferalSystem.sol\":11540:11548  usersIds */\n      0x03\n        /* \"ReferalSystem.sol\":11523:11537  uint256 userId */\n      dup2\n        /* \"ReferalSystem.sol\":11549:11554  i + 1 */\n      tag_420\n        /* \"ReferalSystem.sol\":11549:11550  i */\n      dup5\n        /* \"ReferalSystem.sol\":11553:11554  1 */\n      0x01\n        /* \"ReferalSystem.sol\":11549:11554  i + 1 */\n      tag_280\n      jump\t// in\n    tag_420:\n        /* \"ReferalSystem.sol\":11540:11555  usersIds[i + 1] */\n      dup2\n      mstore\n      0x20\n      add\n      swap1\n      dup2\n      mstore\n      0x20\n      add\n      0x00\n      keccak256\n      sload\n        /* \"ReferalSystem.sol\":11523:11555  uint256 userId = usersIds[i + 1] */\n      swap1\n      pop\n        /* \"ReferalSystem.sol\":11570:11590  User memory userData */\n      0x00\n        /* \"ReferalSystem.sol\":11593:11602  usersById */\n      0x01\n        /* \"ReferalSystem.sol\":11593:11610  usersById[userId] */\n      0x00\n        /* \"ReferalSystem.sol\":11603:11609  userId */\n      dup4\n        /* \"ReferalSystem.sol\":11593:11610  usersById[userId] */\n      dup2\n      mstore\n      0x20\n      add\n      swap1\n      dup2\n      mstore\n      0x20\n      add\n      0x00\n      keccak256\n        /* \"ReferalSystem.sol\":11570:11610  User memory userData = usersById[userId] */\n      mload(0x40)\n      dup1\n      0x0120\n      add\n      0x40\n      mstore\n      swap1\n      dup2\n      0x00\n      dup3\n      add\n      sload\n      dup2\n      mstore\n      0x20\n      add\n      0x01\n      dup3\n      add\n      dup1\n      sload\n      tag_421\n      swap1\n      tag_282\n      jump\t// in\n    tag_421:\n      dup1\n      0x1f\n      add\n      0x20\n      dup1\n      swap2\n      div\n      mul\n      0x20\n      add\n      mload(0x40)\n      swap1\n      dup2\n      add\n      0x40\n      mstore\n      dup1\n      swap3\n      swap2\n      swap1\n      dup2\n      dup2\n      mstore\n      0x20\n      add\n      dup3\n      dup1\n      sload\n      tag_422\n      swap1\n      tag_282\n      jump\t// in\n    tag_422:\n      dup1\n      iszero\n      tag_423\n      jumpi\n      dup1\n      0x1f\n      lt\n      tag_424\n      jumpi\n      0x0100\n      dup1\n      dup4\n      sload\n      div\n      mul\n      dup4\n      mstore\n      swap2\n      0x20\n      add\n      swap2\n      jump(tag_423)\n    tag_424:\n      dup3\n      add\n      swap2\n      swap1\n      0x00\n      mstore\n      keccak256(0x00, 0x20)\n      swap1\n    tag_425:\n      dup2\n      sload\n      dup2\n      mstore\n      swap1\n      0x01\n      add\n      swap1\n      0x20\n      add\n      dup1\n      dup4\n      gt\n      tag_425\n      jumpi\n      dup3\n      swap1\n      sub\n      0x1f\n      and\n      dup3\n      add\n      swap2\n    tag_423:\n      pop\n      pop\n      pop\n      pop\n      pop\n      dup2\n      mstore\n      0x20\n      add\n      0x02\n      dup3\n      add\n      dup1\n      sload\n      tag_426\n      swap1\n      tag_282\n      jump\t// in\n    tag_426:\n      dup1\n      0x1f\n      add\n      0x20\n      dup1\n      swap2\n      div\n      mul\n      0x20\n      add\n      mload(0x40)\n      swap1\n      dup2\n      add\n      0x40\n      mstore\n      dup1\n      swap3\n      swap2\n      swap1\n      dup2\n      dup2\n      mstore\n      0x20\n      add\n      dup3\n      dup1\n      sload\n      tag_427\n      swap1\n      tag_282\n      jump\t// in\n    tag_427:\n      dup1\n      iszero\n      tag_428\n      jumpi\n      dup1\n      0x1f\n      lt\n      tag_429\n      jumpi\n      0x0100\n      dup1\n      dup4\n      sload\n      div\n      mul\n      dup4\n      mstore\n      swap2\n      0x20\n      add\n      swap2\n      jump(tag_428)\n    tag_429:\n      dup3\n      add\n      swap2\n      swap1\n      0x00\n      mstore\n      keccak256(0x00, 0x20)\n      swap1\n    tag_430:\n      dup2\n      sload\n      dup2\n      mstore\n      swap1\n      0x01\n      add\n      swap1\n      0x20\n      add\n      dup1\n      dup4\n      gt\n      tag_430\n      jumpi\n      dup3\n      swap1\n      sub\n      0x1f\n      and\n      dup3\n      add\n      swap2\n    tag_428:\n      pop\n      pop\n      pop\n      swap2\n      dup4\n      mstore\n      pop\n      pop\n      0x03\n      dup3\n      add\n      sload\n      sub(shl(0xa0, 0x01), 0x01)\n      swap1\n      dup2\n      and\n      0x20\n      dup4\n      add\n      mstore\n      0x04\n      dup4\n      add\n      sload\n      0x40\n      dup4\n      add\n      mstore\n      0x05\n      dup4\n      add\n      sload\n      and\n      0x60\n      dup3\n      add\n      mstore\n      0x06\n      dup3\n      add\n      sload\n      0x80\n      dup3\n      add\n      mstore\n      0x07\n      dup3\n      add\n      sload\n      0xa0\n      dup3\n      add\n      mstore\n      0x08\n      swap1\n      swap2\n      add\n      sload\n      0xc0\n      swap1\n      swap2\n      add\n      mstore\n      0x0100\n        /* \"ReferalSystem.sol\":11629:11651  userData.tokensPending */\n      dup2\n      add\n      mload\n        /* \"ReferalSystem.sol\":11570:11610  User memory userData = usersById[userId] */\n      swap1\n      swap2\n      pop\n        /* \"ReferalSystem.sol\":11629:11655  userData.tokensPending > 0 */\n      iszero\n      dup1\n      iszero\n      swap1\n        /* \"ReferalSystem.sol\":11629:11692  userData.tokensPending > 0 && balance >= userData.tokensPending */\n      tag_431\n      jumpi\n      pop\n        /* \"ReferalSystem.sol\":11670:11678  userData */\n      dup1\n        /* \"ReferalSystem.sol\":11670:11692  userData.tokensPending */\n      0x0100\n      add\n      mload\n        /* \"ReferalSystem.sol\":11659:11666  balance */\n      dup5\n        /* \"ReferalSystem.sol\":11659:11692  balance >= userData.tokensPending */\n      lt\n      iszero\n        /* \"ReferalSystem.sol\":11629:11692  userData.tokensPending > 0 && balance >= userData.tokensPending */\n    tag_431:\n        /* \"ReferalSystem.sol\":11625:12120  if (userData.tokensPending > 0 && balance >= userData.tokensPending) {... */\n      iszero\n      tag_432\n      jumpi\n        /* \"ReferalSystem.sol\":11724:11746  userData.tokensPending */\n      0x0100\n      dup2\n      add\n      mload\n        /* \"ReferalSystem.sol\":11713:11746  balance -= userData.tokensPending */\n      tag_433\n      swap1\n      dup6\n      tag_434\n      jump\t// in\n    tag_433:\n        /* \"ReferalSystem.sol\":11765:11776  rewardToken */\n      sload(0x17)\n        /* \"ReferalSystem.sol\":11786:11806  userData.userAddress */\n      0x60\n      dup4\n      add\n      mload\n        /* \"ReferalSystem.sol\":11765:11776  rewardToken */\n      0x0100\n        /* \"ReferalSystem.sol\":11808:11830  userData.tokensPending */\n      dup5\n      add\n      mload\n        /* \"ReferalSystem.sol\":11765:11831  rewardToken.transfer(userData.userAddress, userData.tokensPending) */\n      mload(0x40)\n      shl(0xe0, 0xa9059cbb)\n      dup2\n      mstore\n      sub(shl(0xa0, 0x01), 0x01)\n        /* \"#utility.yul\":12216:12248   */\n      swap3\n      dup4\n      and\n        /* \"ReferalSystem.sol\":11765:11831  rewardToken.transfer(userData.userAddress, userData.tokensPending) */\n      0x04\n      dup3\n      add\n        /* \"#utility.yul\":12198:12249   */\n      mstore\n        /* \"#utility.yul\":12265:12283   */\n      0x24\n      dup2\n      add\n        /* \"#utility.yul\":12258:12292   */\n      swap2\n      swap1\n      swap2\n      mstore\n        /* \"ReferalSystem.sol\":11713:11746  balance -= userData.tokensPending */\n      swap3\n      swap7\n      pop\n        /* \"ReferalSystem.sol\":11765:11776  rewardToken */\n      and\n      swap1\n        /* \"ReferalSystem.sol\":11765:11785  rewardToken.transfer */\n      0xa9059cbb\n      swap1\n        /* \"#utility.yul\":12171:12189   */\n      0x44\n      add\n        /* \"ReferalSystem.sol\":11765:11831  rewardToken.transfer(userData.userAddress, userData.tokensPending) */\n      0x20\n      mload(0x40)\n      dup1\n      dup4\n      sub\n      dup2\n      0x00\n      dup8\n      gas\n      call\n      iszero\n      dup1\n      iszero\n      tag_437\n      jumpi\n      returndatasize\n      0x00\n      dup1\n      returndatacopy\n      revert(0x00, returndatasize)\n    tag_437:\n      pop\n      pop\n      pop\n      pop\n      mload(0x40)\n      returndatasize\n      not(0x1f)\n      0x1f\n      dup3\n      add\n      and\n      dup3\n      add\n      dup1\n      0x40\n      mstore\n      pop\n      dup2\n      add\n      swap1\n      tag_438\n      swap2\n      swap1\n      tag_377\n      jump\t// in\n    tag_438:\n      pop\n        /* \"ReferalSystem.sol\":11875:11883  userData */\n      dup1\n        /* \"ReferalSystem.sol\":11875:11897  userData.tokensPending */\n      0x0100\n      add\n      mload\n        /* \"ReferalSystem.sol\":11850:11858  userData */\n      dup2\n        /* \"ReferalSystem.sol\":11850:11871  userData.tokensEarned */\n      0xe0\n      add\n        /* \"ReferalSystem.sol\":11850:11897  userData.tokensEarned += userData.tokensPending */\n      dup2\n      dup2\n      mload\n      tag_439\n      swap2\n      swap1\n      tag_280\n      jump\t// in\n    tag_439:\n      swap1\n      mstore\n      pop\n        /* \"ReferalSystem.sol\":11933:11955  userData.tokensPending */\n      0x0100\n      dup2\n      add\n      mload\n        /* \"ReferalSystem.sol\":11916:11929  tokensPending */\n      0x09\n        /* \"ReferalSystem.sol\":11916:11955  tokensPending -= userData.tokensPending */\n      dup1\n      sload\n        /* \"ReferalSystem.sol\":11916:11929  tokensPending */\n      0x00\n      swap1\n        /* \"ReferalSystem.sol\":11916:11955  tokensPending -= userData.tokensPending */\n      tag_440\n      swap1\n        /* \"ReferalSystem.sol\":11933:11955  userData.tokensPending */\n      dup5\n      swap1\n        /* \"ReferalSystem.sol\":11916:11955  tokensPending -= userData.tokensPending */\n      tag_434\n      jump\t// in\n    tag_440:\n      swap1\n      swap2\n      sstore\n      pop\n      pop\n        /* \"ReferalSystem.sol\":11990:12012  userData.tokensPending */\n      0x0100\n      dup2\n      add\n      mload\n        /* \"ReferalSystem.sol\":11974:11986  tokensEarned */\n      0x0a\n        /* \"ReferalSystem.sol\":11974:12012  tokensEarned += userData.tokensPending */\n      dup1\n      sload\n        /* \"ReferalSystem.sol\":11974:11986  tokensEarned */\n      0x00\n      swap1\n        /* \"ReferalSystem.sol\":11974:12012  tokensEarned += userData.tokensPending */\n      tag_441\n      swap1\n        /* \"ReferalSystem.sol\":11990:12012  userData.tokensPending */\n      dup5\n      swap1\n        /* \"ReferalSystem.sol\":11974:12012  tokensEarned += userData.tokensPending */\n      tag_280\n      jump\t// in\n    tag_441:\n      swap1\n      swap2\n      sstore\n      pop\n      pop\n        /* \"ReferalSystem.sol\":12056:12057  0 */\n      0x00\n        /* \"ReferalSystem.sol\":12031:12053  userData.tokensPending */\n      0x0100\n      dup3\n      add\n        /* \"ReferalSystem.sol\":12031:12057  userData.tokensPending = 0 */\n      dup2\n      swap1\n      mstore\n        /* \"ReferalSystem.sol\":12076:12093  usersById[userId] */\n      dup3\n      dup2\n      mstore\n        /* \"ReferalSystem.sol\":12076:12085  usersById */\n      0x01\n        /* \"ReferalSystem.sol\":12076:12093  usersById[userId] */\n      0x20\n      dup2\n      dup2\n      mstore\n      0x40\n      swap1\n      swap3\n      keccak256\n        /* \"ReferalSystem.sol\":12076:12104  usersById[userId] = userData */\n      dup4\n      mload\n      dup2\n      sstore\n      dup3\n      dup5\n      add\n      mload\n      dup1\n      mload\n        /* \"ReferalSystem.sol\":12031:12039  userData */\n      dup6\n      swap5\n        /* \"ReferalSystem.sol\":12076:12093  usersById[userId] */\n      swap3\n      swap4\n        /* \"ReferalSystem.sol\":12076:12104  usersById[userId] = userData */\n      tag_442\n      swap4\n      swap1\n      dup6\n      add\n      swap3\n      add\n      swap1\n      tag_443\n      jump\t// in\n    tag_442:\n      pop\n      0x40\n      dup3\n      add\n      mload\n      dup1\n      mload\n      tag_444\n      swap2\n      0x02\n      dup5\n      add\n      swap2\n      0x20\n      swap1\n      swap2\n      add\n      swap1\n      tag_443\n      jump\t// in\n    tag_444:\n      pop\n      0x60\n      dup3\n      add\n      mload\n      0x03\n      dup3\n      add\n      dup1\n      sload\n      sub(shl(0xa0, 0x01), 0x01)\n      swap3\n      dup4\n      and\n      not(sub(shl(0xa0, 0x01), 0x01))\n      swap2\n      dup3\n      and\n      or\n      swap1\n      swap2\n      sstore\n      0x80\n      dup5\n      add\n      mload\n      0x04\n      dup5\n      add\n      sstore\n      0xa0\n      dup5\n      add\n      mload\n      0x05\n      dup5\n      add\n      dup1\n      sload\n      swap2\n      swap1\n      swap4\n      and\n      swap2\n      and\n      or\n      swap1\n      sstore\n      0xc0\n      dup3\n      add\n      mload\n      0x06\n      dup3\n      add\n      sstore\n      0xe0\n      dup3\n      add\n      mload\n      0x07\n      dup3\n      add\n      sstore\n      0x0100\n      swap1\n      swap2\n      add\n      mload\n      0x08\n      swap1\n      swap2\n      add\n      sstore\n        /* \"ReferalSystem.sol\":11625:12120  if (userData.tokensPending > 0 && balance >= userData.tokensPending) {... */\n    tag_432:\n        /* \"ReferalSystem.sol\":12148:12160  rewardAmount */\n      sload(0x18)\n        /* \"ReferalSystem.sol\":12138:12145  balance */\n      dup5\n        /* \"ReferalSystem.sol\":12138:12160  balance < rewardAmount */\n      lt\n        /* \"ReferalSystem.sol\":12134:12167  if (balance < rewardAmount) break */\n      iszero\n      tag_445\n      jumpi\n        /* \"ReferalSystem.sol\":12162:12167  break */\n      pop\n      pop\n        /* \"ReferalSystem.sol\":13052:13092  rewardToken.transfer(msg.sender,balance) */\n      pop\n        /* \"ReferalSystem.sol\":12944:13111  {... */\n      pop\n        /* \"ReferalSystem.sol\":12901:13111  function withdrawTokens() public onlyOwner {... */\n      jump\t// out\n        /* \"ReferalSystem.sol\":12134:12167  if (balance < rewardAmount) break */\n    tag_445:\n        /* \"ReferalSystem.sol\":11508:12179  {... */\n      pop\n      pop\n        /* \"ReferalSystem.sol\":11503:11506  i++ */\n      dup1\n      dup1\n      tag_446\n      swap1\n      tag_247\n      jump\t// in\n    tag_446:\n      swap2\n      pop\n      pop\n        /* \"ReferalSystem.sol\":11467:12179  for (uint256 i = 0; i < usersCount; i++) {... */\n      jump(tag_417)\n        /* \"ReferalSystem.sol\":3221:3536  function getBlackListUsers() public view returns (uint256[] memory ret) {... */\n    tag_210:\n        /* \"ReferalSystem.sol\":3308:3327  blacklistUsersCount */\n      sload(0x13)\n        /* \"ReferalSystem.sol\":3271:3291  uint256[] memory ret */\n      0x60\n      swap1\n        /* \"ReferalSystem.sol\":3308:3331  blacklistUsersCount > 0 */\n      iszero\n        /* \"ReferalSystem.sol\":3304:3529  if (blacklistUsersCount > 0) {... */\n      tag_297\n      jumpi\n        /* \"ReferalSystem.sol\":3368:3387  blacklistUsersCount */\n      sload(0x13)\n        /* \"ReferalSystem.sol\":3354:3388  new uint256[](blacklistUsersCount) */\n      0xffffffffffffffff\n      dup2\n      gt\n      iszero\n      tag_450\n      jumpi\n      tag_450\n      tag_271\n      jump\t// in\n    tag_450:\n      mload(0x40)\n      swap1\n      dup1\n      dup3\n      mstore\n      dup1\n      0x20\n      mul\n      0x20\n      add\n      dup3\n      add\n      0x40\n      mstore\n      dup1\n      iszero\n      tag_451\n      jumpi\n      dup2\n      0x20\n      add\n      0x20\n      dup3\n      mul\n      dup1\n      calldatasize\n      dup4\n      calldatacopy\n      add\n      swap1\n      pop\n    tag_451:\n      pop\n        /* \"ReferalSystem.sol\":3348:3388  ret = new uint256[](blacklistUsersCount) */\n      swap1\n      pop\n        /* \"ReferalSystem.sol\":3408:3417  uint256 i */\n      0x00\n        /* \"ReferalSystem.sol\":3403:3518  for (uint256 i = 0; i < blacklistUsersCount; i++) {... */\n    tag_452:\n        /* \"ReferalSystem.sol\":3427:3446  blacklistUsersCount */\n      sload(0x13)\n        /* \"ReferalSystem.sol\":3423:3424  i */\n      dup2\n        /* \"ReferalSystem.sol\":3423:3446  i < blacklistUsersCount */\n      lt\n        /* \"ReferalSystem.sol\":3403:3518  for (uint256 i = 0; i < blacklistUsersCount; i++) {... */\n      iszero\n      tag_302\n      jumpi\n        /* \"ReferalSystem.sol\":3481:3495  blacklistUsers */\n      0x12\n        /* \"ReferalSystem.sol\":3481:3502  blacklistUsers[i + 1] */\n      0x00\n        /* \"ReferalSystem.sol\":3496:3501  i + 1 */\n      tag_455\n        /* \"ReferalSystem.sol\":3496:3497  i */\n      dup4\n        /* \"ReferalSystem.sol\":3500:3501  1 */\n      0x01\n        /* \"ReferalSystem.sol\":3496:3501  i + 1 */\n      tag_280\n      jump\t// in\n    tag_455:\n        /* \"ReferalSystem.sol\":3481:3502  blacklistUsers[i + 1] */\n      dup2\n      mstore\n      0x20\n      add\n      swap1\n      dup2\n      mstore\n      0x20\n      add\n      0x00\n      keccak256\n      sload\n        /* \"ReferalSystem.sol\":3472:3475  ret */\n      dup3\n        /* \"ReferalSystem.sol\":3476:3477  i */\n      dup3\n        /* \"ReferalSystem.sol\":3472:3478  ret[i] */\n      dup2\n      mload\n      dup2\n      lt\n      tag_457\n      jumpi\n      tag_457\n      tag_294\n      jump\t// in\n    tag_457:\n      0x20\n      swap1\n      dup2\n      mul\n      swap2\n      swap1\n      swap2\n      add\n      add\n        /* \"ReferalSystem.sol\":3472:3502  ret[i] = blacklistUsers[i + 1] */\n      mstore\n        /* \"ReferalSystem.sol\":3448:3451  i++ */\n      dup1\n      tag_458\n      dup2\n      tag_247\n      jump\t// in\n    tag_458:\n      swap2\n      pop\n      pop\n        /* \"ReferalSystem.sol\":3403:3518  for (uint256 i = 0; i < blacklistUsersCount; i++) {... */\n      jump(tag_452)\n        /* \"ReferalSystem.sol\":6001:6287  function getAllUsers() public view returns (User[] memory users) {... */\n    tag_213:\n        /* \"ReferalSystem.sol\":6081:6091  usersCount */\n      sload(0x0b)\n        /* \"ReferalSystem.sol\":6045:6064  User[] memory users */\n      0x60\n      swap1\n        /* \"ReferalSystem.sol\":6081:6095  usersCount > 0 */\n      iszero\n        /* \"ReferalSystem.sol\":6077:6280  if (usersCount > 0) {... */\n      tag_297\n      jumpi\n        /* \"ReferalSystem.sol\":6131:6141  usersCount */\n      sload(0x0b)\n        /* \"ReferalSystem.sol\":6120:6142  new User[](usersCount) */\n      0xffffffffffffffff\n      dup2\n      gt\n      iszero\n      tag_462\n      jumpi\n      tag_462\n      tag_271\n      jump\t// in\n    tag_462:\n      mload(0x40)\n      swap1\n      dup1\n      dup3\n      mstore\n      dup1\n      0x20\n      mul\n      0x20\n      add\n      dup3\n      add\n      0x40\n      mstore\n      dup1\n      iszero\n      tag_463\n      jumpi\n      dup2\n      0x20\n      add\n    tag_464:\n      tag_465\n      tag_275\n      jump\t// in\n    tag_465:\n      dup2\n      mstore\n      0x20\n      add\n      swap1\n      0x01\n      swap1\n      sub\n      swap1\n      dup2\n      tag_464\n      jumpi\n      swap1\n      pop\n    tag_463:\n      pop\n        /* \"ReferalSystem.sol\":6112:6142  users = new User[](usersCount) */\n      swap1\n      pop\n        /* \"ReferalSystem.sol\":6161:6170  uint256 i */\n      0x00\n        /* \"ReferalSystem.sol\":6157:6269  for(uint256 i = 0; i < usersCount; i++) {... */\n    tag_466:\n        /* \"ReferalSystem.sol\":6180:6190  usersCount */\n      sload(0x0b)\n        /* \"ReferalSystem.sol\":6176:6177  i */\n      dup2\n        /* \"ReferalSystem.sol\":6176:6190  i < usersCount */\n      lt\n        /* \"ReferalSystem.sol\":6157:6269  for(uint256 i = 0; i < usersCount; i++) {... */\n      iszero\n      tag_302\n      jumpi\n        /* \"ReferalSystem.sol\":6227:6236  usersById */\n      0x01\n        /* \"ReferalSystem.sol\":6227:6253  usersById[usersIds[i + 1]] */\n      0x00\n        /* \"ReferalSystem.sol\":6237:6245  usersIds */\n      0x03\n        /* \"ReferalSystem.sol\":6227:6253  usersById[usersIds[i + 1]] */\n      dup2\n        /* \"ReferalSystem.sol\":6246:6251  i + 1 */\n      tag_469\n        /* \"ReferalSystem.sol\":6246:6247  i */\n      dup6\n        /* \"ReferalSystem.sol\":6227:6236  usersById */\n      dup6\n        /* \"ReferalSystem.sol\":6246:6251  i + 1 */\n      tag_280\n      jump\t// in\n    tag_469:\n        /* \"ReferalSystem.sol\":6237:6252  usersIds[i + 1] */\n      dup2\n      mstore\n      0x20\n      add\n      swap1\n      dup2\n      mstore\n      0x20\n      add\n      0x00\n      keccak256\n      sload\n        /* \"ReferalSystem.sol\":6227:6253  usersById[usersIds[i + 1]] */\n      dup2\n      mstore\n      0x20\n      add\n      swap1\n      dup2\n      mstore\n      0x20\n      add\n      0x00\n      keccak256\n        /* \"ReferalSystem.sol\":6216:6253  users[i] = usersById[usersIds[i + 1]] */\n      mload(0x40)\n      dup1\n      0x0120\n      add\n      0x40\n      mstore\n      swap1\n      dup2\n      0x00\n      dup3\n      add\n      sload\n      dup2\n      mstore\n      0x20\n      add\n      0x01\n      dup3\n      add\n      dup1\n      sload\n      tag_470\n      swap1\n      tag_282\n      jump\t// in\n    tag_470:\n      dup1\n      0x1f\n      add\n      0x20\n      dup1\n      swap2\n      div\n      mul\n      0x20\n      add\n      mload(0x40)\n      swap1\n      dup2\n      add\n      0x40\n      mstore\n      dup1\n      swap3\n      swap2\n      swap1\n      dup2\n      dup2\n      mstore\n      0x20\n      add\n      dup3\n      dup1\n      sload\n      tag_471\n      swap1\n      tag_282\n      jump\t// in\n    tag_471:\n      dup1\n      iszero\n      tag_472\n      jumpi\n      dup1\n      0x1f\n      lt\n      tag_473\n      jumpi\n      0x0100\n      dup1\n      dup4\n      sload\n      div\n      mul\n      dup4\n      mstore\n      swap2\n      0x20\n      add\n      swap2\n      jump(tag_472)\n    tag_473:\n      dup3\n      add\n      swap2\n      swap1\n      0x00\n      mstore\n      keccak256(0x00, 0x20)\n      swap1\n    tag_474:\n      dup2\n      sload\n      dup2\n      mstore\n      swap1\n      0x01\n      add\n      swap1\n      0x20\n      add\n      dup1\n      dup4\n      gt\n      tag_474\n      jumpi\n      dup3\n      swap1\n      sub\n      0x1f\n      and\n      dup3\n      add\n      swap2\n    tag_472:\n      pop\n      pop\n      pop\n      pop\n      pop\n      dup2\n      mstore\n      0x20\n      add\n      0x02\n      dup3\n      add\n      dup1\n      sload\n      tag_475\n      swap1\n      tag_282\n      jump\t// in\n    tag_475:\n      dup1\n      0x1f\n      add\n      0x20\n      dup1\n      swap2\n      div\n      mul\n      0x20\n      add\n      mload(0x40)\n      swap1\n      dup2\n      add\n      0x40\n      mstore\n      dup1\n      swap3\n      swap2\n      swap1\n      dup2\n      dup2\n      mstore\n      0x20\n      add\n      dup3\n      dup1\n      sload\n      tag_476\n      swap1\n      tag_282\n      jump\t// in\n    tag_476:\n      dup1\n      iszero\n      tag_477\n      jumpi\n      dup1\n      0x1f\n      lt\n      tag_478\n      jumpi\n      0x0100\n      dup1\n      dup4\n      sload\n      div\n      mul\n      dup4\n      mstore\n      swap2\n      0x20\n      add\n      swap2\n      jump(tag_477)\n    tag_478:\n      dup3\n      add\n      swap2\n      swap1\n      0x00\n      mstore\n      keccak256(0x00, 0x20)\n      swap1\n    tag_479:\n      dup2\n      sload\n      dup2\n      mstore\n      swap1\n      0x01\n      add\n      swap1\n      0x20\n      add\n      dup1\n      dup4\n      gt\n      tag_479\n      jumpi\n      dup3\n      swap1\n      sub\n      0x1f\n      and\n      dup3\n      add\n      swap2\n    tag_477:\n      pop\n      pop\n      pop\n      swap2\n      dup4\n      mstore\n      pop\n      pop\n      0x03\n      dup3\n      add\n      sload\n      sub(shl(0xa0, 0x01), 0x01)\n      swap1\n      dup2\n      and\n      0x20\n      dup4\n      add\n      mstore\n      0x04\n      dup4\n      add\n      sload\n      0x40\n      dup4\n      add\n      mstore\n      0x05\n      dup4\n      add\n      sload\n      and\n      0x60\n      dup3\n      add\n      mstore\n      0x06\n      dup3\n      add\n      sload\n      0x80\n      dup3\n      add\n      mstore\n      0x07\n      dup3\n      add\n      sload\n      0xa0\n      dup3\n      add\n      mstore\n      0x08\n      swap1\n      swap2\n      add\n      sload\n      0xc0\n      swap1\n      swap2\n      add\n      mstore\n        /* \"ReferalSystem.sol\":6216:6224  users[i] */\n      dup3\n      mload\n        /* \"ReferalSystem.sol\":6216:6221  users */\n      dup4\n      swap1\n        /* \"ReferalSystem.sol\":6222:6223  i */\n      dup4\n      swap1\n        /* \"ReferalSystem.sol\":6216:6224  users[i] */\n      dup2\n      lt\n      tag_481\n      jumpi\n      tag_481\n      tag_294\n      jump\t// in\n    tag_481:\n      0x20\n      mul\n      0x20\n      add\n      add\n        /* \"ReferalSystem.sol\":6216:6253  users[i] = usersById[usersIds[i + 1]] */\n      dup2\n      swap1\n      mstore\n      pop\n        /* \"ReferalSystem.sol\":6192:6195  i++ */\n      dup1\n      dup1\n      tag_482\n      swap1\n      tag_247\n      jump\t// in\n    tag_482:\n      swap2\n      pop\n      pop\n        /* \"ReferalSystem.sol\":6157:6269  for(uint256 i = 0; i < usersCount; i++) {... */\n      jump(tag_466)\n        /* \"ReferalSystem.sol\":2828:3215  function delBlackListUser(uint256 userId) public onlyOwner {... */\n    tag_221:\n        /* \"ReferalSystem.sol\":4608:4613  owner */\n      and(sub(shl(0xa0, 0x01), 0x01), sload(0x14))\n        /* \"ReferalSystem.sol\":4594:4604  msg.sender */\n      caller\n        /* \"ReferalSystem.sol\":4594:4613  msg.sender == owner */\n      eq\n        /* \"ReferalSystem.sol\":4586:4627  require(msg.sender == owner, \"Not owner\") */\n      tag_484\n      jumpi\n      mload(0x40)\n      shl(0xe5, 0x461bcd)\n      dup2\n      mstore\n      0x04\n      add\n      tag_242\n      swap1\n      tag_243\n      jump\t// in\n    tag_484:\n        /* \"ReferalSystem.sol\":2902:2928  blacklistUsers_map[userId] */\n      0x00\n      dup2\n      dup2\n      mstore\n        /* \"ReferalSystem.sol\":2902:2920  blacklistUsers_map */\n      0x10\n        /* \"ReferalSystem.sol\":2902:2928  blacklistUsers_map[userId] */\n      0x20\n      mstore\n      0x40\n      swap1\n      keccak256\n      sload\n      0xff\n      and\n        /* \"ReferalSystem.sol\":2898:3208  if (blacklistUsers_map[userId]) {... */\n      iszero\n      tag_245\n      jumpi\n        /* \"ReferalSystem.sol\":2977:2996  blacklistUsersCount */\n      sload(0x13)\n        /* \"ReferalSystem.sol\":2949:2974  blacklistUsersIds[userId] */\n      0x00\n      dup3\n      dup2\n      mstore\n        /* \"ReferalSystem.sol\":2949:2966  blacklistUsersIds */\n      0x11\n        /* \"ReferalSystem.sol\":2949:2974  blacklistUsersIds[userId] */\n      0x20\n      mstore\n      0x40\n      swap1\n      keccak256\n      sload\n        /* \"ReferalSystem.sol\":2949:2996  blacklistUsersIds[userId] < blacklistUsersCount */\n      lt\n        /* \"ReferalSystem.sol\":2945:3112  if (blacklistUsersIds[userId] < blacklistUsersCount) {... */\n      iszero\n      tag_488\n      jumpi\n        /* \"ReferalSystem.sol\":3076:3095  blacklistUsersCount */\n      sload(0x13)\n        /* \"ReferalSystem.sol\":3061:3096  blacklistUsers[blacklistUsersCount] */\n      0x00\n      swap1\n      dup2\n      mstore\n        /* \"ReferalSystem.sol\":3061:3075  blacklistUsers */\n      0x12\n        /* \"ReferalSystem.sol\":3061:3096  blacklistUsers[blacklistUsersCount] */\n      0x20\n      dup2\n      dup2\n      mstore\n      0x40\n      dup1\n      dup5\n      keccak256\n      sload\n        /* \"ReferalSystem.sol\":3032:3057  blacklistUsersIds[userId] */\n      dup6\n      dup6\n      mstore\n        /* \"ReferalSystem.sol\":3032:3049  blacklistUsersIds */\n      0x11\n        /* \"ReferalSystem.sol\":3032:3057  blacklistUsersIds[userId] */\n      dup4\n      mstore\n      dup2\n      dup6\n      keccak256\n      sload\n        /* \"ReferalSystem.sol\":3017:3058  blacklistUsers[blacklistUsersIds[userId]] */\n      dup6\n      mstore\n      swap3\n      swap1\n      swap2\n      mstore\n      swap1\n      swap2\n      keccak256\n        /* \"ReferalSystem.sol\":3017:3096  blacklistUsers[blacklistUsersIds[userId]] = blacklistUsers[blacklistUsersCount] */\n      sstore\n        /* \"ReferalSystem.sol\":2945:3112  if (blacklistUsersIds[userId] < blacklistUsersCount) {... */\n    tag_488:\n        /* \"ReferalSystem.sol\":3155:3160  false */\n      0x00\n        /* \"ReferalSystem.sol\":3126:3152  blacklistUsers_map[userId] */\n      dup2\n      dup2\n      mstore\n        /* \"ReferalSystem.sol\":3126:3144  blacklistUsers_map */\n      0x10\n        /* \"ReferalSystem.sol\":3126:3152  blacklistUsers_map[userId] */\n      0x20\n      mstore\n      0x40\n      dup2\n      keccak256\n        /* \"ReferalSystem.sol\":3126:3160  blacklistUsers_map[userId] = false */\n      dup1\n      sload\n      not(0xff)\n      and\n      swap1\n      sstore\n        /* \"ReferalSystem.sol\":3175:3194  blacklistUsersCount */\n      0x13\n        /* \"ReferalSystem.sol\":3175:3196  blacklistUsersCount-- */\n      dup1\n      sload\n      swap2\n      tag_265\n      dup4\n      tag_266\n      jump\t// in\n        /* \"ReferalSystem.sol\":12418:12517  function getDecimals() public view returns (uint8) {... */\n    tag_223:\n        /* \"ReferalSystem.sol\":12487:12498  rewardToken */\n      sload(0x17)\n        /* \"ReferalSystem.sol\":12487:12509  rewardToken.decimals() */\n      0x40\n      dup1\n      mload\n      shl(0xe0, 0x313ce567)\n      dup2\n      mstore\n      swap1\n      mload\n        /* \"ReferalSystem.sol\":12462:12467  uint8 */\n      0x00\n      swap3\n      sub(shl(0xa0, 0x01), 0x01)\n        /* \"ReferalSystem.sol\":12487:12498  rewardToken */\n      and\n      swap2\n        /* \"ReferalSystem.sol\":12487:12507  rewardToken.decimals */\n      0x313ce567\n      swap2\n        /* \"ReferalSystem.sol\":12487:12509  rewardToken.decimals() */\n      0x04\n      dup1\n      dup4\n      add\n      swap3\n      0x20\n      swap3\n      swap2\n      swap1\n      dup3\n      swap1\n      sub\n      add\n      dup2\n        /* \"ReferalSystem.sol\":12487:12498  rewardToken */\n      dup7\n        /* \"ReferalSystem.sol\":12487:12509  rewardToken.decimals() */\n      gas\n      staticcall\n      iszero\n      dup1\n      iszero\n      tag_492\n      jumpi\n      returndatasize\n      0x00\n      dup1\n      returndatacopy\n      revert(0x00, returndatasize)\n    tag_492:\n      pop\n      pop\n      pop\n      pop\n      mload(0x40)\n      returndatasize\n      not(0x1f)\n      0x1f\n      dup3\n      add\n      and\n      dup3\n      add\n      dup1\n      0x40\n      mstore\n      pop\n      dup2\n      add\n      swap1\n      tag_252\n      swap2\n      swap1\n      tag_494\n      jump\t// in\n        /* \"ReferalSystem.sol\":5839:5995  function transferOwnership (address newOwner) onlyOwner public {... */\n    tag_228:\n        /* \"ReferalSystem.sol\":4608:4613  owner */\n      and(sub(shl(0xa0, 0x01), 0x01), sload(0x14))\n        /* \"ReferalSystem.sol\":4594:4604  msg.sender */\n      caller\n        /* \"ReferalSystem.sol\":4594:4613  msg.sender == owner */\n      eq\n        /* \"ReferalSystem.sol\":4586:4627  require(msg.sender == owner, \"Not owner\") */\n      tag_496\n      jumpi\n      mload(0x40)\n      shl(0xe5, 0x461bcd)\n      dup2\n      mstore\n      0x04\n      add\n      tag_242\n      swap1\n      tag_243\n      jump\t// in\n    tag_496:\n      sub(shl(0xa0, 0x01), 0x01)\n        /* \"ReferalSystem.sol\":5921:5943  newOwner != address(0) */\n      dup2\n      and\n        /* \"ReferalSystem.sol\":5913:5960  require(newOwner != address(0), 'Zero address') */\n      tag_345\n      jumpi\n      mload(0x40)\n      shl(0xe5, 0x461bcd)\n      dup2\n      mstore\n        /* \"#utility.yul\":11885:11887   */\n      0x20\n        /* \"ReferalSystem.sol\":5913:5960  require(newOwner != address(0), 'Zero address') */\n      0x04\n      dup3\n      add\n        /* \"#utility.yul\":11867:11888   */\n      mstore\n        /* \"#utility.yul\":11924:11926   */\n      0x0c\n        /* \"#utility.yul\":11904:11922   */\n      0x24\n      dup3\n      add\n        /* \"#utility.yul\":11897:11927   */\n      mstore\n      shl(0xa0, 0x5a65726f2061646472657373)\n        /* \"#utility.yul\":11943:11961   */\n      0x44\n      dup3\n      add\n        /* \"#utility.yul\":11936:11978   */\n      mstore\n        /* \"#utility.yul\":11995:12013   */\n      0x64\n      add\n        /* \"ReferalSystem.sol\":5913:5960  require(newOwner != address(0), 'Zero address') */\n      tag_242\n        /* \"#utility.yul\":11683:12019   */\n      jump\n        /* \"ReferalSystem.sol\":9310:11290  function registerUser(... */\n    tag_239:\n        /* \"ReferalSystem.sol\":4744:4749  owner */\n      and(sub(shl(0xa0, 0x01), 0x01), sload(0x14))\n        /* \"ReferalSystem.sol\":4730:4740  msg.sender */\n      caller\n        /* \"ReferalSystem.sol\":4730:4749  msg.sender == owner */\n      eq\n      dup1\n        /* \"ReferalSystem.sol\":4729:4776  (msg.sender == owner) || (msg.sender == oracle) */\n      tag_502\n      jumpi\n      pop\n        /* \"ReferalSystem.sol\":4769:4775  oracle */\n      and(sub(shl(0xa0, 0x01), 0x01), sload(0x16))\n        /* \"ReferalSystem.sol\":4755:4765  msg.sender */\n      caller\n        /* \"ReferalSystem.sol\":4755:4775  msg.sender == oracle */\n      eq\n        /* \"ReferalSystem.sol\":4729:4776  (msg.sender == owner) || (msg.sender == oracle) */\n    tag_502:\n        /* \"ReferalSystem.sol\":4721:4801  require((msg.sender == owner) || (msg.sender == oracle), \"Only owner or oracle\") */\n      tag_503\n      jumpi\n      mload(0x40)\n      shl(0xe5, 0x461bcd)\n      dup2\n      mstore\n        /* \"#utility.yul\":13195:13197   */\n      0x20\n        /* \"ReferalSystem.sol\":4721:4801  require((msg.sender == owner) || (msg.sender == oracle), \"Only owner or oracle\") */\n      0x04\n      dup3\n      add\n        /* \"#utility.yul\":13177:13198   */\n      mstore\n        /* \"#utility.yul\":13234:13236   */\n      0x14\n        /* \"#utility.yul\":13214:13232   */\n      0x24\n      dup3\n      add\n        /* \"#utility.yul\":13207:13237   */\n      mstore\n      shl(0x60, 0x4f6e6c79206f776e6572206f72206f7261636c65)\n        /* \"#utility.yul\":13253:13271   */\n      0x44\n      dup3\n      add\n        /* \"#utility.yul\":13246:13296   */\n      mstore\n        /* \"#utility.yul\":13313:13331   */\n      0x64\n      add\n        /* \"ReferalSystem.sol\":4721:4801  require((msg.sender == owner) || (msg.sender == oracle), \"Only owner or oracle\") */\n      tag_242\n        /* \"#utility.yul\":12993:13337   */\n      jump\n        /* \"ReferalSystem.sol\":4721:4801  require((msg.sender == owner) || (msg.sender == oracle), \"Only owner or oracle\") */\n    tag_503:\n        /* \"ReferalSystem.sol\":9688:9708  usersExists[_UserId] */\n      0x00\n      dup8\n      dup2\n      mstore\n        /* \"ReferalSystem.sol\":9688:9699  usersExists */\n      0x02\n        /* \"ReferalSystem.sol\":9688:9708  usersExists[_UserId] */\n      0x20\n      mstore\n      0x40\n      swap1\n      keccak256\n      sload\n      0xff\n      and\n        /* \"ReferalSystem.sol\":9688:9717  usersExists[_UserId] == false */\n      iszero\n        /* \"ReferalSystem.sol\":9680:9745  require(usersExists[_UserId] == false, \"User already registered\") */\n      tag_507\n      jumpi\n      mload(0x40)\n      shl(0xe5, 0x461bcd)\n      dup2\n      mstore\n        /* \"#utility.yul\":13544:13546   */\n      0x20\n        /* \"ReferalSystem.sol\":9680:9745  require(usersExists[_UserId] == false, \"User already registered\") */\n      0x04\n      dup3\n      add\n        /* \"#utility.yul\":13526:13547   */\n      mstore\n        /* \"#utility.yul\":13583:13585   */\n      0x17\n        /* \"#utility.yul\":13563:13581   */\n      0x24\n      dup3\n      add\n        /* \"#utility.yul\":13556:13586   */\n      mstore\n        /* \"#utility.yul\":13622:13647   */\n      0x5573657220616c72656164792072656769737465726564000000000000000000\n        /* \"#utility.yul\":13602:13620   */\n      0x44\n      dup3\n      add\n        /* \"#utility.yul\":13595:13648   */\n      mstore\n        /* \"#utility.yul\":13665:13683   */\n      0x64\n      add\n        /* \"ReferalSystem.sol\":9680:9745  require(usersExists[_UserId] == false, \"User already registered\") */\n      tag_242\n        /* \"#utility.yul\":13342:13689   */\n      jump\n        /* \"ReferalSystem.sol\":9680:9745  require(usersExists[_UserId] == false, \"User already registered\") */\n    tag_507:\n        /* \"ReferalSystem.sol\":9775:9786  _ReferrerId */\n      dup4\n        /* \"ReferalSystem.sol\":9764:9771  _UserId */\n      dup8\n        /* \"ReferalSystem.sol\":9764:9786  _UserId != _ReferrerId */\n      eq\n      iszero\n        /* \"ReferalSystem.sol\":9756:9815  require(_UserId != _ReferrerId, \"Self referer not allowed\") */\n      tag_510\n      jumpi\n      mload(0x40)\n      shl(0xe5, 0x461bcd)\n      dup2\n      mstore\n        /* \"#utility.yul\":13896:13898   */\n      0x20\n        /* \"ReferalSystem.sol\":9756:9815  require(_UserId != _ReferrerId, \"Self referer not allowed\") */\n      0x04\n      dup3\n      add\n        /* \"#utility.yul\":13878:13899   */\n      mstore\n        /* \"#utility.yul\":13935:13937   */\n      0x18\n        /* \"#utility.yul\":13915:13933   */\n      0x24\n      dup3\n      add\n        /* \"#utility.yul\":13908:13938   */\n      mstore\n        /* \"#utility.yul\":13974:14000   */\n      0x53656c662072656665726572206e6f7420616c6c6f7765640000000000000000\n        /* \"#utility.yul\":13954:13972   */\n      0x44\n      dup3\n      add\n        /* \"#utility.yul\":13947:14001   */\n      mstore\n        /* \"#utility.yul\":14018:14036   */\n      0x64\n      add\n        /* \"ReferalSystem.sol\":9756:9815  require(_UserId != _ReferrerId, \"Self referer not allowed\") */\n      tag_242\n        /* \"#utility.yul\":13694:14042   */\n      jump\n        /* \"ReferalSystem.sol\":9756:9815  require(_UserId != _ReferrerId, \"Self referer not allowed\") */\n    tag_510:\n      sub(shl(0xa0, 0x01), 0x01)\n        /* \"ReferalSystem.sol\":9834:9865  blacklist_map[_ReferrerAddress] */\n      dup2\n      and\n      0x00\n      swap1\n      dup2\n      mstore\n        /* \"ReferalSystem.sol\":9834:9847  blacklist_map */\n      0x0c\n        /* \"ReferalSystem.sol\":9834:9865  blacklist_map[_ReferrerAddress] */\n      0x20\n      mstore\n      0x40\n      swap1\n      keccak256\n      sload\n      0xff\n      and\n        /* \"ReferalSystem.sol\":9834:9874  blacklist_map[_ReferrerAddress] == false */\n      iszero\n        /* \"ReferalSystem.sol\":9826:9902  require(blacklist_map[_ReferrerAddress] == false, \"Referrer address banned\") */\n      tag_513\n      jumpi\n      mload(0x40)\n      shl(0xe5, 0x461bcd)\n      dup2\n      mstore\n        /* \"#utility.yul\":14249:14251   */\n      0x20\n        /* \"ReferalSystem.sol\":9826:9902  require(blacklist_map[_ReferrerAddress] == false, \"Referrer address banned\") */\n      0x04\n      dup3\n      add\n        /* \"#utility.yul\":14231:14252   */\n      mstore\n        /* \"#utility.yul\":14288:14290   */\n      0x17\n        /* \"#utility.yul\":14268:14286   */\n      0x24\n      dup3\n      add\n        /* \"#utility.yul\":14261:14291   */\n      mstore\n        /* \"#utility.yul\":14327:14352   */\n      0x526566657272657220616464726573732062616e6e6564000000000000000000\n        /* \"#utility.yul\":14307:14325   */\n      0x44\n      dup3\n      add\n        /* \"#utility.yul\":14300:14353   */\n      mstore\n        /* \"#utility.yul\":14370:14388   */\n      0x64\n      add\n        /* \"ReferalSystem.sol\":9826:9902  require(blacklist_map[_ReferrerAddress] == false, \"Referrer address banned\") */\n      tag_242\n        /* \"#utility.yul\":14047:14394   */\n      jump\n        /* \"ReferalSystem.sol\":9826:9902  require(blacklist_map[_ReferrerAddress] == false, \"Referrer address banned\") */\n    tag_513:\n        /* \"ReferalSystem.sol\":9921:9952  blacklistUsers_map[_ReferrerId] */\n      0x00\n      dup5\n      dup2\n      mstore\n        /* \"ReferalSystem.sol\":9921:9939  blacklistUsers_map */\n      0x10\n        /* \"ReferalSystem.sol\":9921:9952  blacklistUsers_map[_ReferrerId] */\n      0x20\n      mstore\n      0x40\n      swap1\n      keccak256\n      sload\n      0xff\n      and\n        /* \"ReferalSystem.sol\":9921:9961  blacklistUsers_map[_ReferrerId] == false */\n      iszero\n        /* \"ReferalSystem.sol\":9913:9984  require(blacklistUsers_map[_ReferrerId] == false, \"Referrer ID banned\") */\n      tag_516\n      jumpi\n      mload(0x40)\n      shl(0xe5, 0x461bcd)\n      dup2\n      mstore\n        /* \"#utility.yul\":14601:14603   */\n      0x20\n        /* \"ReferalSystem.sol\":9913:9984  require(blacklistUsers_map[_ReferrerId] == false, \"Referrer ID banned\") */\n      0x04\n      dup3\n      add\n        /* \"#utility.yul\":14583:14604   */\n      mstore\n        /* \"#utility.yul\":14640:14642   */\n      0x12\n        /* \"#utility.yul\":14620:14638   */\n      0x24\n      dup3\n      add\n        /* \"#utility.yul\":14613:14643   */\n      mstore\n      shl(0x72, 0x149959995c9c995c8812510818985b9b9959)\n        /* \"#utility.yul\":14659:14677   */\n      0x44\n      dup3\n      add\n        /* \"#utility.yul\":14652:14700   */\n      mstore\n        /* \"#utility.yul\":14717:14735   */\n      0x64\n      add\n        /* \"ReferalSystem.sol\":9913:9984  require(blacklistUsers_map[_ReferrerId] == false, \"Referrer ID banned\") */\n      tag_242\n        /* \"#utility.yul\":14399:14741   */\n      jump\n        /* \"ReferalSystem.sol\":9913:9984  require(blacklistUsers_map[_ReferrerId] == false, \"Referrer ID banned\") */\n    tag_516:\n        /* \"ReferalSystem.sol\":10018:10029  rewardToken */\n      sload(0x17)\n        /* \"ReferalSystem.sol\":10018:10054  rewardToken.balanceOf(address(this)) */\n      mload(0x40)\n      shl(0xe0, 0x70a08231)\n      dup2\n      mstore\n        /* \"ReferalSystem.sol\":10048:10052  this */\n      address\n        /* \"ReferalSystem.sol\":10018:10054  rewardToken.balanceOf(address(this)) */\n      0x04\n      dup3\n      add\n        /* \"#utility.yul\":1005:1056   */\n      mstore\n        /* \"ReferalSystem.sol\":9995:10015  uint256 tokensAmount */\n      0x00\n      swap2\n      sub(shl(0xa0, 0x01), 0x01)\n        /* \"ReferalSystem.sol\":10018:10029  rewardToken */\n      and\n      swap1\n        /* \"ReferalSystem.sol\":10018:10039  rewardToken.balanceOf */\n      0x70a08231\n      swap1\n        /* \"#utility.yul\":978:996   */\n      0x24\n      add\n        /* \"ReferalSystem.sol\":10018:10054  rewardToken.balanceOf(address(this)) */\n      0x20\n      mload(0x40)\n      dup1\n      dup4\n      sub\n      dup2\n      dup7\n      gas\n      staticcall\n      iszero\n      dup1\n      iszero\n      tag_521\n      jumpi\n      returndatasize\n      0x00\n      dup1\n      returndatacopy\n      revert(0x00, returndatasize)\n    tag_521:\n      pop\n      pop\n      pop\n      pop\n      mload(0x40)\n      returndatasize\n      not(0x1f)\n      0x1f\n      dup3\n      add\n      and\n      dup3\n      add\n      dup1\n      0x40\n      mstore\n      pop\n      dup2\n      add\n      swap1\n      tag_522\n      swap2\n      swap1\n      tag_253\n      jump\t// in\n    tag_522:\n        /* \"ReferalSystem.sol\":9995:10054  uint256 tokensAmount = rewardToken.balanceOf(address(this)) */\n      swap1\n      pop\n        /* \"ReferalSystem.sol\":10065:10089  User memory referrerData */\n      0x00\n        /* \"ReferalSystem.sol\":10092:10232  getReferrer(... */\n      tag_523\n        /* \"ReferalSystem.sol\":10118:10129  _ReferrerId */\n      dup7\n        /* \"ReferalSystem.sol\":10144:10161  _ReferrerNickName */\n      dup7\n        /* \"ReferalSystem.sol\":10176:10190  _ReferrerEmail */\n      dup7\n        /* \"ReferalSystem.sol\":10205:10221  _ReferrerAddress */\n      dup7\n        /* \"ReferalSystem.sol\":10092:10103  getReferrer */\n      tag_524\n        /* \"ReferalSystem.sol\":10092:10232  getReferrer(... */\n      jump\t// in\n    tag_523:\n        /* \"ReferalSystem.sol\":10245:10255  usersCount */\n      0x0b\n        /* \"ReferalSystem.sol\":10245:10257  usersCount++ */\n      dup1\n      sload\n        /* \"ReferalSystem.sol\":10065:10232  User memory referrerData = getReferrer(... */\n      swap2\n      swap3\n      pop\n        /* \"ReferalSystem.sol\":10245:10255  usersCount */\n      0x00\n        /* \"ReferalSystem.sol\":10245:10257  usersCount++ */\n      tag_525\n      dup4\n      tag_247\n      jump\t// in\n    tag_525:\n      swap1\n      swap2\n      sstore\n      pop\n      pop\n        /* \"ReferalSystem.sol\":10268:10288  usersExists[_UserId] */\n      0x00\n      dup10\n      dup2\n      mstore\n        /* \"ReferalSystem.sol\":10268:10279  usersExists */\n      0x02\n        /* \"ReferalSystem.sol\":10268:10288  usersExists[_UserId] */\n      0x20\n      swap1\n      dup2\n      mstore\n      0x40\n      dup1\n      dup4\n      keccak256\n        /* \"ReferalSystem.sol\":10268:10295  usersExists[_UserId] = true */\n      dup1\n      sload\n      not(0xff)\n      and\n        /* \"ReferalSystem.sol\":10291:10295  true */\n      0x01\n        /* \"ReferalSystem.sol\":10268:10295  usersExists[_UserId] = true */\n      swap1\n      dup2\n      or\n      swap1\n      swap2\n      sstore\n        /* \"ReferalSystem.sol\":10315:10325  usersCount */\n      sload(0x0b)\n        /* \"ReferalSystem.sol\":10306:10326  usersIds[usersCount] */\n      dup5\n      mstore\n        /* \"ReferalSystem.sol\":10306:10314  usersIds */\n      0x03\n        /* \"ReferalSystem.sol\":10306:10326  usersIds[usersCount] */\n      dup4\n      mstore\n      dup2\n      dup5\n      keccak256\n        /* \"ReferalSystem.sol\":10306:10336  usersIds[usersCount] = _UserId */\n      dup14\n      swap1\n      sstore\n        /* \"ReferalSystem.sol\":10368:10700  User({... */\n      dup2\n      mload\n      0x0120\n      dup2\n      add\n      dup4\n      mstore\n      dup14\n      dup2\n      mstore\n      dup1\n      dup5\n      add\n      dup14\n      dup2\n      mstore\n      dup2\n      dup5\n      add\n      dup14\n      swap1\n      mstore\n      0x60\n      dup3\n      add\n      dup7\n      swap1\n      mstore\n      0x80\n      dup3\n      add\n      dup13\n      swap1\n      mstore\n      sub(shl(0xa0, 0x01), 0x01)\n      dup10\n      and\n      0xa0\n      dup4\n      add\n      mstore\n      0xc0\n      dup3\n      add\n      dup7\n      swap1\n      mstore\n      0xe0\n      dup3\n      add\n      dup7\n      swap1\n      mstore\n        /* \"ReferalSystem.sol\":10268:10295  usersExists[_UserId] = true */\n      0x0100\n        /* \"ReferalSystem.sol\":10368:10700  User({... */\n      dup3\n      add\n      dup7\n      swap1\n      mstore\n        /* \"ReferalSystem.sol\":10347:10365  usersById[_UserId] */\n      dup15\n      dup7\n      mstore\n      dup3\n      dup6\n      mstore\n      swap3\n      swap1\n      swap5\n      keccak256\n        /* \"ReferalSystem.sol\":10347:10700  usersById[_UserId] = User({... */\n      dup5\n      mload\n      dup2\n      sstore\n      swap2\n      mload\n      dup1\n      mload\n        /* \"ReferalSystem.sol\":10347:10365  usersById[_UserId] */\n      swap3\n      swap4\n        /* \"ReferalSystem.sol\":10347:10700  usersById[_UserId] = User({... */\n      tag_526\n      swap4\n      swap3\n      dup6\n      add\n      swap3\n      swap2\n      add\n      swap1\n      tag_443\n      jump\t// in\n    tag_526:\n      pop\n      0x40\n      dup3\n      add\n      mload\n      dup1\n      mload\n      tag_527\n      swap2\n      0x02\n      dup5\n      add\n      swap2\n      0x20\n      swap1\n      swap2\n      add\n      swap1\n      tag_443\n      jump\t// in\n    tag_527:\n      pop\n      0x60\n      dup3\n      add\n      mload\n      0x03\n      dup3\n      add\n      dup1\n      sload\n      sub(shl(0xa0, 0x01), 0x01)\n      swap3\n      dup4\n      and\n      not(sub(shl(0xa0, 0x01), 0x01))\n      swap2\n      dup3\n      and\n      or\n      swap1\n      swap2\n      sstore\n      0x80\n      dup5\n      add\n      mload\n      0x04\n      dup5\n      add\n      sstore\n      0xa0\n      dup5\n      add\n      mload\n      0x05\n      dup5\n      add\n      dup1\n      sload\n      swap2\n      swap1\n      swap4\n      and\n      swap2\n      and\n      or\n      swap1\n      sstore\n      0xc0\n      dup1\n      dup4\n      add\n      mload\n      0x06\n      dup4\n      add\n      sstore\n      0xe0\n      dup4\n      add\n      mload\n      0x07\n      dup4\n      add\n      sstore\n      0x0100\n      swap1\n      swap3\n      add\n      mload\n      0x08\n      swap1\n      swap2\n      add\n      sstore\n        /* \"ReferalSystem.sol\":10713:10740  referrerData.referralsCount */\n      dup2\n      add\n        /* \"ReferalSystem.sol\":10713:10742  referrerData.referralsCount++ */\n      dup1\n      mload\n      swap1\n      tag_528\n      dup3\n      tag_247\n      jump\t// in\n    tag_528:\n      swap1\n      mstore\n      pop\n        /* \"ReferalSystem.sol\":10753:10766  userReferrals */\n      0x00\n        /* \"ReferalSystem.sol\":10753:10779  userReferrals[_ReferrerId] */\n      dup7\n      dup2\n      mstore\n      0x20\n      dup2\n      dup2\n      mstore\n      0x40\n      dup1\n      dup4\n      keccak256\n        /* \"ReferalSystem.sol\":10780:10807  referrerData.referralsCount */\n      0xc0\n      dup6\n      add\n      mload\n        /* \"ReferalSystem.sol\":10753:10808  userReferrals[_ReferrerId][referrerData.referralsCount] */\n      dup5\n      mstore\n      swap1\n      swap2\n      mstore\n      swap1\n      keccak256\n        /* \"ReferalSystem.sol\":10753:10818  userReferrals[_ReferrerId][referrerData.referralsCount] = _UserId */\n      dup10\n      swap1\n      sstore\n        /* \"ReferalSystem.sol\":10859:10871  rewardAmount */\n      sload(0x18)\n        /* \"ReferalSystem.sol\":10843:10871  tokensAmount >= rewardAmount */\n      dup3\n      lt\n        /* \"ReferalSystem.sol\":10839:11233  if (tokensAmount >= rewardAmount) {... */\n      tag_529\n      jumpi\n        /* \"ReferalSystem.sol\":10888:10899  rewardToken */\n      sload(0x17)\n        /* \"ReferalSystem.sol\":10927:10939  rewardAmount */\n      sload(0x18)\n        /* \"ReferalSystem.sol\":10888:10940  rewardToken.transfer(_ReferrerAddress, rewardAmount) */\n      mload(0x40)\n      shl(0xe0, 0xa9059cbb)\n      dup2\n      mstore\n      sub(shl(0xa0, 0x01), 0x01)\n        /* \"#utility.yul\":12216:12248   */\n      dup7\n      dup2\n      and\n        /* \"ReferalSystem.sol\":10888:10940  rewardToken.transfer(_ReferrerAddress, rewardAmount) */\n      0x04\n      dup4\n      add\n        /* \"#utility.yul\":12198:12249   */\n      mstore\n        /* \"#utility.yul\":12265:12283   */\n      0x24\n      dup3\n      add\n        /* \"#utility.yul\":12258:12292   */\n      swap3\n      swap1\n      swap3\n      mstore\n        /* \"ReferalSystem.sol\":10888:10899  rewardToken */\n      swap2\n      and\n      swap1\n        /* \"ReferalSystem.sol\":10888:10908  rewardToken.transfer */\n      0xa9059cbb\n      swap1\n        /* \"#utility.yul\":12171:12189   */\n      0x44\n      add\n        /* \"ReferalSystem.sol\":10888:10940  rewardToken.transfer(_ReferrerAddress, rewardAmount) */\n      0x20\n      mload(0x40)\n      dup1\n      dup4\n      sub\n      dup2\n      0x00\n      dup8\n      gas\n      call\n      iszero\n      dup1\n      iszero\n      tag_532\n      jumpi\n      returndatasize\n      0x00\n      dup1\n      returndatacopy\n      revert(0x00, returndatasize)\n    tag_532:\n      pop\n      pop\n      pop\n      pop\n      mload(0x40)\n      returndatasize\n      not(0x1f)\n      0x1f\n      dup3\n      add\n      and\n      dup3\n      add\n      dup1\n      0x40\n      mstore\n      pop\n      dup2\n      add\n      swap1\n      tag_533\n      swap2\n      swap1\n      tag_377\n      jump\t// in\n    tag_533:\n      pop\n        /* \"ReferalSystem.sol\":10984:10996  rewardAmount */\n      sload(0x18)\n        /* \"ReferalSystem.sol\":10955:10967  referrerData */\n      dup2\n        /* \"ReferalSystem.sol\":10955:10980  referrerData.tokensEarned */\n      0xe0\n      add\n        /* \"ReferalSystem.sol\":10955:10996  referrerData.tokensEarned += rewardAmount */\n      dup2\n      dup2\n      mload\n      tag_534\n      swap2\n      swap1\n      tag_280\n      jump\t// in\n    tag_534:\n      swap1\n      mstore\n      pop\n        /* \"ReferalSystem.sol\":11027:11039  rewardAmount */\n      sload(0x18)\n        /* \"ReferalSystem.sol\":11011:11023  tokensEarned */\n      0x0a\n        /* \"ReferalSystem.sol\":11011:11039  tokensEarned += rewardAmount */\n      dup1\n      sload\n        /* \"ReferalSystem.sol\":11011:11023  tokensEarned */\n      0x00\n      swap1\n        /* \"ReferalSystem.sol\":11011:11039  tokensEarned += rewardAmount */\n      tag_535\n      swap1\n        /* \"ReferalSystem.sol\":11027:11039  rewardAmount */\n      dup5\n      swap1\n        /* \"ReferalSystem.sol\":11011:11039  tokensEarned += rewardAmount */\n      tag_280\n      jump\t// in\n    tag_535:\n      swap1\n      swap2\n      sstore\n      pop\n        /* \"ReferalSystem.sol\":10839:11233  if (tokensAmount >= rewardAmount) {... */\n      tag_536\n      swap1\n      pop\n      jump\n    tag_529:\n        /* \"ReferalSystem.sol\":11102:11114  rewardAmount */\n      sload(0x18)\n        /* \"ReferalSystem.sol\":11072:11084  referrerData */\n      dup2\n        /* \"ReferalSystem.sol\":11072:11098  referrerData.tokensPending */\n      0x0100\n      add\n        /* \"ReferalSystem.sol\":11072:11114  referrerData.tokensPending += rewardAmount */\n      dup2\n      dup2\n      mload\n      tag_537\n      swap2\n      swap1\n      tag_280\n      jump\t// in\n    tag_537:\n      swap1\n      mstore\n      pop\n        /* \"ReferalSystem.sol\":11165:11177  rewardAmount */\n      sload(0x18)\n        /* \"ReferalSystem.sol\":11129:11161  tokensEarnedPending[_ReferrerId] */\n      0x00\n      dup8\n      dup2\n      mstore\n        /* \"ReferalSystem.sol\":11129:11148  tokensEarnedPending */\n      0x08\n        /* \"ReferalSystem.sol\":11129:11161  tokensEarnedPending[_ReferrerId] */\n      0x20\n      mstore\n      0x40\n      dup2\n      keccak256\n        /* \"ReferalSystem.sol\":11129:11177  tokensEarnedPending[_ReferrerId] += rewardAmount */\n      dup1\n      sload\n        /* \"ReferalSystem.sol\":11129:11161  tokensEarnedPending[_ReferrerId] */\n      swap1\n      swap2\n      swap1\n        /* \"ReferalSystem.sol\":11129:11177  tokensEarnedPending[_ReferrerId] += rewardAmount */\n      tag_538\n      swap1\n        /* \"ReferalSystem.sol\":11165:11177  rewardAmount */\n      dup5\n      swap1\n        /* \"ReferalSystem.sol\":11129:11177  tokensEarnedPending[_ReferrerId] += rewardAmount */\n      tag_280\n      jump\t// in\n    tag_538:\n      swap1\n      swap2\n      sstore\n      pop\n      pop\n        /* \"ReferalSystem.sol\":11209:11221  rewardAmount */\n      sload(0x18)\n        /* \"ReferalSystem.sol\":11192:11205  tokensPending */\n      0x09\n        /* \"ReferalSystem.sol\":11192:11221  tokensPending += rewardAmount */\n      dup1\n      sload\n        /* \"ReferalSystem.sol\":11192:11205  tokensPending */\n      0x00\n      swap1\n        /* \"ReferalSystem.sol\":11192:11221  tokensPending += rewardAmount */\n      tag_539\n      swap1\n        /* \"ReferalSystem.sol\":11209:11221  rewardAmount */\n      dup5\n      swap1\n        /* \"ReferalSystem.sol\":11192:11221  tokensPending += rewardAmount */\n      tag_280\n      jump\t// in\n    tag_539:\n      swap1\n      swap2\n      sstore\n      pop\n      pop\n        /* \"ReferalSystem.sol\":10839:11233  if (tokensAmount >= rewardAmount) {... */\n    tag_536:\n        /* \"ReferalSystem.sol\":11245:11267  usersById[_ReferrerId] */\n      0x00\n      dup7\n      dup2\n      mstore\n        /* \"ReferalSystem.sol\":11245:11254  usersById */\n      0x01\n        /* \"ReferalSystem.sol\":11245:11267  usersById[_ReferrerId] */\n      0x20\n      dup2\n      dup2\n      mstore\n      0x40\n      swap1\n      swap3\n      keccak256\n        /* \"ReferalSystem.sol\":11245:11282  usersById[_ReferrerId] = referrerData */\n      dup4\n      mload\n      dup2\n      sstore\n      dup3\n      dup5\n      add\n      mload\n      dup1\n      mload\n        /* \"ReferalSystem.sol\":11270:11282  referrerData */\n      dup6\n      swap5\n        /* \"ReferalSystem.sol\":11245:11267  usersById[_ReferrerId] */\n      swap3\n      swap4\n        /* \"ReferalSystem.sol\":11245:11282  usersById[_ReferrerId] = referrerData */\n      tag_540\n      swap4\n      swap1\n      dup6\n      add\n      swap3\n      add\n      swap1\n      tag_443\n      jump\t// in\n    tag_540:\n      pop\n      0x40\n      dup3\n      add\n      mload\n      dup1\n      mload\n      tag_541\n      swap2\n      0x02\n      dup5\n      add\n      swap2\n      0x20\n      swap1\n      swap2\n      add\n      swap1\n      tag_443\n      jump\t// in\n    tag_541:\n      pop\n      0x60\n      dup3\n      add\n      mload\n      0x03\n      dup3\n      add\n      dup1\n      sload\n      sub(shl(0xa0, 0x01), 0x01)\n      swap3\n      dup4\n      and\n      not(sub(shl(0xa0, 0x01), 0x01))\n      swap2\n      dup3\n      and\n      or\n      swap1\n      swap2\n      sstore\n      0x80\n      dup5\n      add\n      mload\n      0x04\n      dup5\n      add\n      sstore\n      0xa0\n      dup5\n      add\n      mload\n      0x05\n      dup5\n      add\n      dup1\n      sload\n      swap2\n      swap1\n      swap4\n      and\n      swap2\n      and\n      or\n      swap1\n      sstore\n      0xc0\n      dup3\n      add\n      mload\n      0x06\n      dup3\n      add\n      sstore\n      0xe0\n      dup3\n      add\n      mload\n      0x07\n      dup3\n      add\n      sstore\n      0x0100\n      swap1\n      swap2\n      add\n      mload\n      0x08\n      swap1\n      swap2\n      add\n      sstore\n      pop\n      pop\n      pop\n      pop\n      pop\n      pop\n      pop\n      pop\n      pop\n        /* \"ReferalSystem.sol\":9310:11290  function registerUser(... */\n      jump\t// out\n        /* \"ReferalSystem.sol\":7479:9220  function getReferrer(... */\n    tag_524:\n        /* \"ReferalSystem.sol\":7649:7665  User memory user */\n      tag_542\n      tag_275\n      jump\t// in\n    tag_542:\n        /* \"ReferalSystem.sol\":7683:7702  usersExists[userId] */\n      0x00\n      dup6\n      dup2\n      mstore\n        /* \"ReferalSystem.sol\":7683:7694  usersExists */\n      0x02\n        /* \"ReferalSystem.sol\":7683:7702  usersExists[userId] */\n      0x20\n      mstore\n      0x40\n      swap1\n      keccak256\n      sload\n      0xff\n      and\n        /* \"ReferalSystem.sol\":7678:9213  if (!usersExists[userId]) {... */\n      tag_544\n      jumpi\n      sub(shl(0xa0, 0x01), 0x01)\n        /* \"ReferalSystem.sol\":7727:7757  referrerAddresses[userAddress] */\n      dup3\n      and\n      0x00\n      swap1\n      dup2\n      mstore\n        /* \"ReferalSystem.sol\":7727:7744  referrerAddresses */\n      0x07\n        /* \"ReferalSystem.sol\":7727:7757  referrerAddresses[userAddress] */\n      0x20\n      mstore\n      0x40\n      swap1\n      keccak256\n      sload\n      0xff\n      and\n        /* \"ReferalSystem.sol\":7727:7766  referrerAddresses[userAddress] == false */\n      iszero\n        /* \"ReferalSystem.sol\":7719:7802  require(referrerAddresses[userAddress] == false, \"This address already registered\") */\n      tag_545\n      jumpi\n      mload(0x40)\n      shl(0xe5, 0x461bcd)\n      dup2\n      mstore\n        /* \"#utility.yul\":14948:14950   */\n      0x20\n        /* \"ReferalSystem.sol\":7719:7802  require(referrerAddresses[userAddress] == false, \"This address already registered\") */\n      0x04\n      dup3\n      add\n        /* \"#utility.yul\":14930:14951   */\n      mstore\n        /* \"#utility.yul\":14987:14989   */\n      0x1f\n        /* \"#utility.yul\":14967:14985   */\n      0x24\n      dup3\n      add\n        /* \"#utility.yul\":14960:14990   */\n      mstore\n        /* \"#utility.yul\":15026:15059   */\n      0x54686973206164647265737320616c7265616479207265676973746572656400\n        /* \"#utility.yul\":15006:15024   */\n      0x44\n      dup3\n      add\n        /* \"#utility.yul\":14999:15060   */\n      mstore\n        /* \"#utility.yul\":15077:15095   */\n      0x64\n      add\n        /* \"ReferalSystem.sol\":7719:7802  require(referrerAddresses[userAddress] == false, \"This address already registered\") */\n      tag_242\n        /* \"#utility.yul\":14746:15101   */\n      jump\n        /* \"ReferalSystem.sol\":7719:7802  require(referrerAddresses[userAddress] == false, \"This address already registered\") */\n    tag_545:\n        /* \"ReferalSystem.sol\":7896:7906  usersCount */\n      0x0b\n        /* \"ReferalSystem.sol\":7896:7908  usersCount++ */\n      dup1\n      sload\n      swap1\n        /* \"ReferalSystem.sol\":7896:7906  usersCount */\n      0x00\n        /* \"ReferalSystem.sol\":7896:7908  usersCount++ */\n      tag_548\n      dup4\n      tag_247\n      jump\t// in\n    tag_548:\n      swap1\n      swap2\n      sstore\n      pop\n      pop\n        /* \"ReferalSystem.sol\":7923:7942  usersExists[userId] */\n      0x00\n      dup6\n      dup2\n      mstore\n        /* \"ReferalSystem.sol\":7923:7934  usersExists */\n      0x02\n        /* \"ReferalSystem.sol\":7923:7942  usersExists[userId] */\n      0x20\n      swap1\n      dup2\n      mstore\n      0x40\n      dup1\n      dup4\n      keccak256\n        /* \"ReferalSystem.sol\":7923:7949  usersExists[userId] = true */\n      dup1\n      sload\n      not(0xff)\n      and\n        /* \"ReferalSystem.sol\":7945:7949  true */\n      0x01\n        /* \"ReferalSystem.sol\":7923:7949  usersExists[userId] = true */\n      swap1\n      dup2\n      or\n      swap1\n      swap2\n      sstore\n        /* \"ReferalSystem.sol\":7973:7983  usersCount */\n      sload(0x0b)\n        /* \"ReferalSystem.sol\":7964:7984  usersIds[usersCount] */\n      dup5\n      mstore\n        /* \"ReferalSystem.sol\":7964:7972  usersIds */\n      0x03\n        /* \"ReferalSystem.sol\":7964:7984  usersIds[usersCount] */\n      dup4\n      mstore\n      dup2\n      dup5\n      keccak256\n        /* \"ReferalSystem.sol\":7964:7993  usersIds[usersCount] = userId */\n      dup10\n      swap1\n      sstore\n        /* \"ReferalSystem.sol\":8028:8382  User({... */\n      dup2\n      mload\n      0x0120\n      dup2\n      add\n      dup4\n      mstore\n      dup10\n      dup2\n      mstore\n      dup1\n      dup5\n      add\n      dup10\n      dup2\n      mstore\n      dup2\n      dup5\n      add\n      dup10\n      swap1\n      mstore\n      sub(shl(0xa0, 0x01), 0x01)\n      dup9\n      and\n      0x60\n      dup4\n      add\n      mstore\n      0x80\n      dup3\n      add\n      dup7\n      swap1\n      mstore\n      0xa0\n      dup3\n      add\n      dup7\n      swap1\n      mstore\n      0xc0\n      dup3\n      add\n      dup7\n      swap1\n      mstore\n      0xe0\n      dup3\n      add\n      dup7\n      swap1\n      mstore\n        /* \"ReferalSystem.sol\":7923:7949  usersExists[userId] = true */\n      0x0100\n        /* \"ReferalSystem.sol\":8028:8382  User({... */\n      dup3\n      add\n      dup7\n      swap1\n      mstore\n        /* \"ReferalSystem.sol\":8008:8025  usersById[userId] */\n      dup11\n      dup7\n      mstore\n      dup3\n      dup6\n      mstore\n      swap3\n      swap1\n      swap5\n      keccak256\n        /* \"ReferalSystem.sol\":8008:8382  usersById[userId] = User({... */\n      dup5\n      mload\n      dup2\n      sstore\n      swap2\n      mload\n      dup1\n      mload\n        /* \"ReferalSystem.sol\":8008:8025  usersById[userId] */\n      swap3\n      swap4\n        /* \"ReferalSystem.sol\":8008:8382  usersById[userId] = User({... */\n      tag_549\n      swap4\n      swap3\n      dup6\n      add\n      swap3\n      swap2\n      add\n      swap1\n      tag_443\n      jump\t// in\n    tag_549:\n      pop\n      0x40\n      dup3\n      add\n      mload\n      dup1\n      mload\n      tag_550\n      swap2\n      0x02\n      dup5\n      add\n      swap2\n      0x20\n      swap1\n      swap2\n      add\n      swap1\n      tag_443\n      jump\t// in\n    tag_550:\n      pop\n      0x60\n      dup3\n      add\n      mload\n      0x03\n      dup3\n      add\n      dup1\n      sload\n      sub(shl(0xa0, 0x01), 0x01)\n      swap3\n      dup4\n      and\n      not(sub(shl(0xa0, 0x01), 0x01))\n      swap2\n      dup3\n      and\n      or\n      swap1\n      swap2\n      sstore\n      0x80\n      dup5\n      add\n      mload\n      0x04\n      dup5\n      add\n      sstore\n      0xa0\n      dup5\n      add\n      mload\n      0x05\n      dup5\n      add\n      dup1\n      sload\n      swap2\n      swap1\n      swap4\n      and\n      swap2\n      and\n      or\n      swap1\n      sstore\n      0xc0\n      dup3\n      add\n      mload\n      0x06\n      dup1\n      dup4\n      add\n      swap2\n      swap1\n      swap2\n      sstore\n      0xe0\n      dup4\n      add\n      mload\n      0x07\n      dup4\n      add\n      sstore\n      0x0100\n      swap1\n      swap3\n      add\n      mload\n      0x08\n      swap1\n      swap2\n      add\n      sstore\n      0x00\n        /* \"ReferalSystem.sol\":8397:8423  userAddressesCount[userId] */\n      dup7\n      dup2\n      mstore\n      0x20\n      swap2\n      swap1\n      swap2\n      mstore\n      0x40\n      dup2\n      keccak256\n        /* \"ReferalSystem.sol\":8397:8425  userAddressesCount[userId]++ */\n      dup1\n      sload\n      swap2\n      tag_551\n      dup4\n      tag_247\n      jump\t// in\n    tag_551:\n      swap1\n      swap2\n      sstore\n      pop\n      pop\n        /* \"ReferalSystem.sol\":8440:8461  userAddresses[userId] */\n      0x00\n      dup6\n      dup2\n      mstore\n        /* \"ReferalSystem.sol\":8440:8453  userAddresses */\n      0x04\n        /* \"ReferalSystem.sol\":8440:8461  userAddresses[userId] */\n      0x20\n      swap1\n      dup2\n      mstore\n      0x40\n      dup1\n      dup4\n      keccak256\n        /* \"ReferalSystem.sol\":8462:8480  userAddressesCount */\n      0x06\n        /* \"ReferalSystem.sol\":8462:8488  userAddressesCount[userId] */\n      dup4\n      mstore\n      dup2\n      dup5\n      keccak256\n      sload\n        /* \"ReferalSystem.sol\":8440:8489  userAddresses[userId][userAddressesCount[userId]] */\n      dup5\n      mstore\n      dup3\n      mstore\n      dup1\n      dup4\n      keccak256\n        /* \"ReferalSystem.sol\":8440:8503  userAddresses[userId][userAddressesCount[userId]] = userAddress */\n      dup1\n      sload\n      not(sub(shl(0xa0, 0x01), 0x01))\n      and\n      sub(shl(0xa0, 0x01), 0x01)\n      dup8\n      and\n      swap1\n      dup2\n      or\n      swap1\n      swap2\n      sstore\n        /* \"ReferalSystem.sol\":8518:8545  userAddressesExists[userId] */\n      dup9\n      dup5\n      mstore\n        /* \"ReferalSystem.sol\":8518:8537  userAddressesExists */\n      0x05\n        /* \"ReferalSystem.sol\":8518:8545  userAddressesExists[userId] */\n      dup4\n      mstore\n      dup2\n      dup5\n      keccak256\n        /* \"ReferalSystem.sol\":8518:8558  userAddressesExists[userId][userAddress] */\n      swap1\n      dup5\n      mstore\n      dup3\n      mstore\n      dup1\n      dup4\n      keccak256\n        /* \"ReferalSystem.sol\":8518:8565  userAddressesExists[userId][userAddress] = true */\n      dup1\n      sload\n      not(0xff)\n      swap1\n      dup2\n      and\n      0x01\n      swap1\n      dup2\n      or\n      swap1\n      swap3\n      sstore\n        /* \"ReferalSystem.sol\":8580:8597  referrerAddresses */\n      0x07\n        /* \"ReferalSystem.sol\":8580:8610  referrerAddresses[userAddress] */\n      dup5\n      mstore\n      dup3\n      dup6\n      keccak256\n        /* \"ReferalSystem.sol\":8580:8617  referrerAddresses[userAddress] = true */\n      dup1\n      sload\n      swap1\n      swap2\n      and\n      dup3\n      or\n      swap1\n      sstore\n        /* \"ReferalSystem.sol\":8639:8656  usersById[userId] */\n      dup9\n      dup5\n      mstore\n      dup1\n      dup4\n      mstore\n      swap3\n      dup2\n      swap1\n      keccak256\n        /* \"ReferalSystem.sol\":8632:8656  return usersById[userId] */\n      dup2\n      mload\n      0x0120\n      dup2\n      add\n      swap1\n      swap3\n      mstore\n      dup1\n      sload\n      dup3\n      mstore\n      swap3\n      dup4\n      add\n      dup1\n      sload\n      swap2\n      swap4\n        /* \"ReferalSystem.sol\":8639:8656  usersById[userId] */\n      swap3\n        /* \"ReferalSystem.sol\":8632:8656  return usersById[userId] */\n      dup5\n      add\n      swap2\n      tag_552\n      swap1\n      tag_282\n      jump\t// in\n    tag_552:\n      dup1\n      0x1f\n      add\n      0x20\n      dup1\n      swap2\n      div\n      mul\n      0x20\n      add\n      mload(0x40)\n      swap1\n      dup2\n      add\n      0x40\n      mstore\n      dup1\n      swap3\n      swap2\n      swap1\n      dup2\n      dup2\n      mstore\n      0x20\n      add\n      dup3\n      dup1\n      sload\n      tag_553\n      swap1\n      tag_282\n      jump\t// in\n    tag_553:\n      dup1\n      iszero\n      tag_554\n      jumpi\n      dup1\n      0x1f\n      lt\n      tag_555\n      jumpi\n      0x0100\n      dup1\n      dup4\n      sload\n      div\n      mul\n      dup4\n      mstore\n      swap2\n      0x20\n      add\n      swap2\n      jump(tag_554)\n    tag_555:\n      dup3\n      add\n      swap2\n      swap1\n      0x00\n      mstore\n      keccak256(0x00, 0x20)\n      swap1\n    tag_556:\n      dup2\n      sload\n      dup2\n      mstore\n      swap1\n      0x01\n      add\n      swap1\n      0x20\n      add\n      dup1\n      dup4\n      gt\n      tag_556\n      jumpi\n      dup3\n      swap1\n      sub\n      0x1f\n      and\n      dup3\n      add\n      swap2\n    tag_554:\n      pop\n      pop\n      pop\n      pop\n      pop\n      dup2\n      mstore\n      0x20\n      add\n      0x02\n      dup3\n      add\n      dup1\n      sload\n      tag_557\n      swap1\n      tag_282\n      jump\t// in\n    tag_557:\n      dup1\n      0x1f\n      add\n      0x20\n      dup1\n      swap2\n      div\n      mul\n      0x20\n      add\n      mload(0x40)\n      swap1\n      dup2\n      add\n      0x40\n      mstore\n      dup1\n      swap3\n      swap2\n      swap1\n      dup2\n      dup2\n      mstore\n      0x20\n      add\n      dup3\n      dup1\n      sload\n      tag_558\n      swap1\n      tag_282\n      jump\t// in\n    tag_558:\n      dup1\n      iszero\n      tag_559\n      jumpi\n      dup1\n      0x1f\n      lt\n      tag_560\n      jumpi\n      0x0100\n      dup1\n      dup4\n      sload\n      div\n      mul\n      dup4\n      mstore\n      swap2\n      0x20\n      add\n      swap2\n      jump(tag_559)\n    tag_560:\n      dup3\n      add\n      swap2\n      swap1\n      0x00\n      mstore\n      keccak256(0x00, 0x20)\n      swap1\n    tag_561:\n      dup2\n      sload\n      dup2\n      mstore\n      swap1\n      0x01\n      add\n      swap1\n      0x20\n      add\n      dup1\n      dup4\n      gt\n      tag_561\n      jumpi\n      dup3\n      swap1\n      sub\n      0x1f\n      and\n      dup3\n      add\n      swap2\n    tag_559:\n      pop\n      pop\n      pop\n      swap2\n      dup4\n      mstore\n      pop\n      pop\n      0x03\n      dup3\n      add\n      sload\n      sub(shl(0xa0, 0x01), 0x01)\n      swap1\n      dup2\n      and\n      0x20\n      dup4\n      add\n      mstore\n      0x04\n      dup4\n      add\n      sload\n      0x40\n      dup4\n      add\n      mstore\n      0x05\n      dup4\n      add\n      sload\n      and\n      0x60\n      dup3\n      add\n      mstore\n      0x06\n      dup3\n      add\n      sload\n      0x80\n      dup3\n      add\n      mstore\n      0x07\n      dup3\n      add\n      sload\n      0xa0\n      dup3\n      add\n      mstore\n      0x08\n      swap1\n      swap2\n      add\n      sload\n      0xc0\n      swap1\n      swap2\n      add\n      mstore\n      swap1\n      pop\n      jump(tag_562)\n        /* \"ReferalSystem.sol\":7678:9213  if (!usersExists[userId]) {... */\n    tag_544:\n        /* \"ReferalSystem.sol\":8694:8721  userAddressesExists[userId] */\n      0x00\n      dup6\n      dup2\n      mstore\n        /* \"ReferalSystem.sol\":8694:8713  userAddressesExists */\n      0x05\n        /* \"ReferalSystem.sol\":8694:8721  userAddressesExists[userId] */\n      0x20\n      swap1\n      dup2\n      mstore\n      0x40\n      dup1\n      dup4\n      keccak256\n      sub(shl(0xa0, 0x01), 0x01)\n        /* \"ReferalSystem.sol\":8694:8734  userAddressesExists[userId][userAddress] */\n      dup7\n      and\n      dup5\n      mstore\n      swap1\n      swap2\n      mstore\n      swap1\n      keccak256\n      sload\n      0xff\n      and\n        /* \"ReferalSystem.sol\":8689:9105  if (!userAddressesExists[userId][userAddress]) {... */\n      tag_563\n      jumpi\n      sub(shl(0xa0, 0x01), 0x01)\n        /* \"ReferalSystem.sol\":8763:8793  referrerAddresses[userAddress] */\n      dup3\n      and\n      0x00\n      swap1\n      dup2\n      mstore\n        /* \"ReferalSystem.sol\":8763:8780  referrerAddresses */\n      0x07\n        /* \"ReferalSystem.sol\":8763:8793  referrerAddresses[userAddress] */\n      0x20\n      mstore\n      0x40\n      swap1\n      keccak256\n      sload\n      0xff\n      and\n        /* \"ReferalSystem.sol\":8763:8802  referrerAddresses[userAddress] == false */\n      iszero\n        /* \"ReferalSystem.sol\":8755:8838  require(referrerAddresses[userAddress] == false, \"This address already registered\") */\n      tag_564\n      jumpi\n      mload(0x40)\n      shl(0xe5, 0x461bcd)\n      dup2\n      mstore\n        /* \"#utility.yul\":14948:14950   */\n      0x20\n        /* \"ReferalSystem.sol\":8755:8838  require(referrerAddresses[userAddress] == false, \"This address already registered\") */\n      0x04\n      dup3\n      add\n        /* \"#utility.yul\":14930:14951   */\n      mstore\n        /* \"#utility.yul\":14987:14989   */\n      0x1f\n        /* \"#utility.yul\":14967:14985   */\n      0x24\n      dup3\n      add\n        /* \"#utility.yul\":14960:14990   */\n      mstore\n        /* \"#utility.yul\":15026:15059   */\n      0x54686973206164647265737320616c7265616479207265676973746572656400\n        /* \"#utility.yul\":15006:15024   */\n      0x44\n      dup3\n      add\n        /* \"#utility.yul\":14999:15060   */\n      mstore\n        /* \"#utility.yul\":15077:15095   */\n      0x64\n      add\n        /* \"ReferalSystem.sol\":8755:8838  require(referrerAddresses[userAddress] == false, \"This address already registered\") */\n      tag_242\n        /* \"#utility.yul\":14746:15101   */\n      jump\n        /* \"ReferalSystem.sol\":8755:8838  require(referrerAddresses[userAddress] == false, \"This address already registered\") */\n    tag_564:\n        /* \"ReferalSystem.sol\":8857:8883  userAddressesCount[userId] */\n      0x00\n      dup6\n      dup2\n      mstore\n        /* \"ReferalSystem.sol\":8857:8875  userAddressesCount */\n      0x06\n        /* \"ReferalSystem.sol\":8857:8883  userAddressesCount[userId] */\n      0x20\n      mstore\n      0x40\n      dup2\n      keccak256\n        /* \"ReferalSystem.sol\":8857:8885  userAddressesCount[userId]++ */\n      dup1\n      sload\n      swap2\n      tag_566\n      dup4\n      tag_247\n      jump\t// in\n    tag_566:\n      swap1\n      swap2\n      sstore\n      pop\n      pop\n        /* \"ReferalSystem.sol\":8904:8925  userAddresses[userId] */\n      0x00\n      dup6\n      dup2\n      mstore\n        /* \"ReferalSystem.sol\":8904:8917  userAddresses */\n      0x04\n        /* \"ReferalSystem.sol\":8904:8925  userAddresses[userId] */\n      0x20\n      swap1\n      dup2\n      mstore\n      0x40\n      dup1\n      dup4\n      keccak256\n        /* \"ReferalSystem.sol\":8926:8944  userAddressesCount */\n      0x06\n        /* \"ReferalSystem.sol\":8926:8952  userAddressesCount[userId] */\n      dup4\n      mstore\n      dup2\n      dup5\n      keccak256\n      sload\n        /* \"ReferalSystem.sol\":8904:8953  userAddresses[userId][userAddressesCount[userId]] */\n      dup5\n      mstore\n      dup3\n      mstore\n      dup1\n      dup4\n      keccak256\n        /* \"ReferalSystem.sol\":8904:8967  userAddresses[userId][userAddressesCount[userId]] = userAddress */\n      dup1\n      sload\n      not(sub(shl(0xa0, 0x01), 0x01))\n      and\n      sub(shl(0xa0, 0x01), 0x01)\n      dup8\n      and\n      swap1\n      dup2\n      or\n      swap1\n      swap2\n      sstore\n        /* \"ReferalSystem.sol\":8986:9013  userAddressesExists[userId] */\n      dup9\n      dup5\n      mstore\n        /* \"ReferalSystem.sol\":8986:9005  userAddressesExists */\n      0x05\n        /* \"ReferalSystem.sol\":8986:9013  userAddressesExists[userId] */\n      dup4\n      mstore\n      dup2\n      dup5\n      keccak256\n        /* \"ReferalSystem.sol\":8986:9026  userAddressesExists[userId][userAddress] */\n      swap1\n      dup5\n      mstore\n      dup3\n      mstore\n      dup1\n      dup4\n      keccak256\n        /* \"ReferalSystem.sol\":8986:9033  userAddressesExists[userId][userAddress] = true */\n      dup1\n      sload\n      not(0xff)\n      swap1\n      dup2\n      and\n      0x01\n      swap1\n      dup2\n      or\n      swap1\n      swap3\n      sstore\n        /* \"ReferalSystem.sol\":9052:9069  referrerAddresses */\n      0x07\n        /* \"ReferalSystem.sol\":9052:9082  referrerAddresses[userAddress] */\n      swap1\n      swap4\n      mstore\n      swap3\n      keccak256\n        /* \"ReferalSystem.sol\":9052:9089  referrerAddresses[userAddress] = true */\n      dup1\n      sload\n      swap1\n      swap2\n      and\n      swap1\n      swap2\n      or\n      swap1\n      sstore\n        /* \"ReferalSystem.sol\":8689:9105  if (!userAddressesExists[userId][userAddress]) {... */\n    tag_563:\n        /* \"ReferalSystem.sol\":9119:9136  usersById[userId] */\n      0x00\n      dup6\n      dup2\n      mstore\n        /* \"ReferalSystem.sol\":9119:9128  usersById */\n      0x01\n        /* \"ReferalSystem.sol\":9119:9136  usersById[userId] */\n      0x20\n      dup2\n      dup2\n      mstore\n      0x40\n      swap3\n      dup4\n      swap1\n      keccak256\n        /* \"ReferalSystem.sol\":9119:9148  usersById[userId].userAddress */\n      0x03\n      dup2\n      add\n        /* \"ReferalSystem.sol\":9119:9162  usersById[userId].userAddress = userAddress */\n      dup1\n      sload\n      not(sub(shl(0xa0, 0x01), 0x01))\n      and\n      sub(shl(0xa0, 0x01), 0x01)\n      dup9\n      and\n      or\n      swap1\n      sstore\n        /* \"ReferalSystem.sol\":9177:9201  return usersById[userId] */\n      dup4\n      mload\n      0x0120\n      dup2\n      add\n      swap1\n      swap5\n      mstore\n      dup1\n      sload\n      dup5\n      mstore\n      swap2\n      dup3\n      add\n      dup1\n      sload\n      swap2\n      dup5\n      add\n      swap2\n      tag_552\n      swap1\n      tag_282\n      jump\t// in\n        /* \"ReferalSystem.sol\":7678:9213  if (!usersExists[userId]) {... */\n    tag_562:\n        /* \"ReferalSystem.sol\":7479:9220  function getReferrer(... */\n      swap5\n      swap4\n      pop\n      pop\n      pop\n      pop\n      jump\t// out\n    tag_275:\n      mload(0x40)\n      dup1\n      0x0120\n      add\n      0x40\n      mstore\n      dup1\n      0x00\n      dup2\n      mstore\n      0x20\n      add\n      0x60\n      dup2\n      mstore\n      0x20\n      add\n      0x60\n      dup2\n      mstore\n      0x20\n      add\n      and(sub(shl(0xa0, 0x01), 0x01), 0x00)\n      dup2\n      mstore\n      0x20\n      add\n      0x00\n      dup2\n      mstore\n      0x20\n      add\n      and(sub(shl(0xa0, 0x01), 0x01), 0x00)\n      dup2\n      mstore\n      0x20\n      add\n      0x00\n      dup2\n      mstore\n      0x20\n      add\n      0x00\n      dup2\n      mstore\n      0x20\n      add\n      0x00\n      dup2\n      mstore\n      pop\n      swap1\n      jump\t// out\n    tag_443:\n      dup3\n      dup1\n      sload\n      tag_577\n      swap1\n      tag_282\n      jump\t// in\n    tag_577:\n      swap1\n      0x00\n      mstore\n      keccak256(0x00, 0x20)\n      swap1\n      0x1f\n      add\n      0x20\n      swap1\n      div\n      dup2\n      add\n      swap3\n      dup3\n      tag_579\n      jumpi\n      0x00\n      dup6\n      sstore\n      jump(tag_582)\n    tag_579:\n      dup3\n      0x1f\n      lt\n      tag_580\n      jumpi\n      dup1\n      mload\n      not(0xff)\n      and\n      dup4\n      dup1\n      add\n      or\n      dup6\n      sstore\n      jump(tag_582)\n    tag_580:\n      dup3\n      dup1\n      add\n      0x01\n      add\n      dup6\n      sstore\n      dup3\n      iszero\n      tag_582\n      jumpi\n      swap2\n      dup3\n      add\n    tag_581:\n      dup3\n      dup2\n      gt\n      iszero\n      tag_582\n      jumpi\n      dup3\n      mload\n      dup3\n      sstore\n      swap2\n      0x20\n      add\n      swap2\n      swap1\n      0x01\n      add\n      swap1\n      jump(tag_581)\n    tag_582:\n      pop\n      tag_302\n      swap3\n      swap2\n      pop\n    tag_585:\n      dup1\n      dup3\n      gt\n      iszero\n      tag_302\n      jumpi\n      0x00\n      dup2\n      sstore\n      0x01\n      add\n      jump(tag_585)\n        /* \"#utility.yul\":196:369   */\n    tag_587:\n        /* \"#utility.yul\":264:284   */\n      dup1\n      calldataload\n      sub(shl(0xa0, 0x01), 0x01)\n        /* \"#utility.yul\":313:344   */\n      dup2\n      and\n        /* \"#utility.yul\":303:345   */\n      dup2\n      eq\n        /* \"#utility.yul\":293:363   */\n      tag_268\n      jumpi\n        /* \"#utility.yul\":359:360   */\n      0x00\n        /* \"#utility.yul\":356:357   */\n      dup1\n        /* \"#utility.yul\":349:361   */\n      revert\n        /* \"#utility.yul\":374:560   */\n    tag_66:\n        /* \"#utility.yul\":433:439   */\n      0x00\n        /* \"#utility.yul\":486:488   */\n      0x20\n        /* \"#utility.yul\":474:483   */\n      dup3\n        /* \"#utility.yul\":465:472   */\n      dup5\n        /* \"#utility.yul\":461:484   */\n      sub\n        /* \"#utility.yul\":457:489   */\n      slt\n        /* \"#utility.yul\":454:506   */\n      iszero\n      tag_601\n      jumpi\n        /* \"#utility.yul\":502:503   */\n      0x00\n        /* \"#utility.yul\":499:500   */\n      dup1\n        /* \"#utility.yul\":492:504   */\n      revert\n        /* \"#utility.yul\":454:506   */\n    tag_601:\n        /* \"#utility.yul\":525:554   */\n      tag_602\n        /* \"#utility.yul\":544:553   */\n      dup3\n        /* \"#utility.yul\":525:554   */\n      tag_587\n      jump\t// in\n    tag_602:\n        /* \"#utility.yul\":515:554   */\n      swap4\n        /* \"#utility.yul\":374:560   */\n      swap3\n      pop\n      pop\n      pop\n      jump\t// out\n        /* \"#utility.yul\":565:745   */\n    tag_70:\n        /* \"#utility.yul\":624:630   */\n      0x00\n        /* \"#utility.yul\":677:679   */\n      0x20\n        /* \"#utility.yul\":665:674   */\n      dup3\n        /* \"#utility.yul\":656:663   */\n      dup5\n        /* \"#utility.yul\":652:675   */\n      sub\n        /* \"#utility.yul\":648:680   */\n      slt\n        /* \"#utility.yul\":645:697   */\n      iszero\n      tag_604\n      jumpi\n        /* \"#utility.yul\":693:694   */\n      0x00\n        /* \"#utility.yul\":690:691   */\n      dup1\n        /* \"#utility.yul\":683:695   */\n      revert\n        /* \"#utility.yul\":645:697   */\n    tag_604:\n      pop\n        /* \"#utility.yul\":716:739   */\n      calldataload\n      swap2\n        /* \"#utility.yul\":565:745   */\n      swap1\n      pop\n      jump\t// out\n        /* \"#utility.yul\":1067:1325   */\n    tag_589:\n        /* \"#utility.yul\":1139:1140   */\n      0x00\n        /* \"#utility.yul\":1149:1262   */\n    tag_608:\n        /* \"#utility.yul\":1163:1169   */\n      dup4\n        /* \"#utility.yul\":1160:1161   */\n      dup2\n        /* \"#utility.yul\":1157:1170   */\n      lt\n        /* \"#utility.yul\":1149:1262   */\n      iszero\n      tag_610\n      jumpi\n        /* \"#utility.yul\":1239:1250   */\n      dup2\n      dup2\n      add\n        /* \"#utility.yul\":1233:1251   */\n      mload\n        /* \"#utility.yul\":1220:1231   */\n      dup4\n      dup3\n      add\n        /* \"#utility.yul\":1213:1252   */\n      mstore\n        /* \"#utility.yul\":1185:1187   */\n      0x20\n        /* \"#utility.yul\":1178:1188   */\n      add\n        /* \"#utility.yul\":1149:1262   */\n      jump(tag_608)\n    tag_610:\n        /* \"#utility.yul\":1280:1286   */\n      dup4\n        /* \"#utility.yul\":1277:1278   */\n      dup2\n        /* \"#utility.yul\":1274:1287   */\n      gt\n        /* \"#utility.yul\":1271:1319   */\n      iszero\n      tag_394\n      jumpi\n      pop\n      pop\n        /* \"#utility.yul\":1315:1316   */\n      0x00\n        /* \"#utility.yul\":1297:1313   */\n      swap2\n      add\n        /* \"#utility.yul\":1290:1317   */\n      mstore\n        /* \"#utility.yul\":1067:1325   */\n      jump\t// out\n        /* \"#utility.yul\":1330:1588   */\n    tag_590:\n        /* \"#utility.yul\":1372:1375   */\n      0x00\n        /* \"#utility.yul\":1410:1415   */\n      dup2\n        /* \"#utility.yul\":1404:1416   */\n      mload\n        /* \"#utility.yul\":1437:1443   */\n      dup1\n        /* \"#utility.yul\":1432:1435   */\n      dup5\n        /* \"#utility.yul\":1425:1444   */\n      mstore\n        /* \"#utility.yul\":1453:1516   */\n      tag_613\n        /* \"#utility.yul\":1509:1515   */\n      dup2\n        /* \"#utility.yul\":1502:1506   */\n      0x20\n        /* \"#utility.yul\":1497:1500   */\n      dup7\n        /* \"#utility.yul\":1493:1507   */\n      add\n        /* \"#utility.yul\":1486:1490   */\n      0x20\n        /* \"#utility.yul\":1479:1484   */\n      dup7\n        /* \"#utility.yul\":1475:1491   */\n      add\n        /* \"#utility.yul\":1453:1516   */\n      tag_589\n      jump\t// in\n    tag_613:\n        /* \"#utility.yul\":1570:1572   */\n      0x1f\n        /* \"#utility.yul\":1549:1564   */\n      add\n      not(0x1f)\n        /* \"#utility.yul\":1545:1574   */\n      and\n        /* \"#utility.yul\":1536:1575   */\n      swap3\n      swap1\n      swap3\n      add\n        /* \"#utility.yul\":1577:1581   */\n      0x20\n        /* \"#utility.yul\":1532:1582   */\n      add\n      swap3\n        /* \"#utility.yul\":1330:1588   */\n      swap2\n      pop\n      pop\n      jump\t// out\n        /* \"#utility.yul\":1593:1813   */\n    tag_80:\n        /* \"#utility.yul\":1742:1744   */\n      0x20\n        /* \"#utility.yul\":1731:1740   */\n      dup2\n        /* \"#utility.yul\":1724:1745   */\n      mstore\n        /* \"#utility.yul\":1705:1709   */\n      0x00\n        /* \"#utility.yul\":1762:1807   */\n      tag_602\n        /* \"#utility.yul\":1803:1805   */\n      0x20\n        /* \"#utility.yul\":1792:1801   */\n      dup4\n        /* \"#utility.yul\":1788:1806   */\n      add\n        /* \"#utility.yul\":1780:1786   */\n      dup5\n        /* \"#utility.yul\":1762:1807   */\n      tag_590\n      jump\t// in\n        /* \"#utility.yul\":2010:2940   */\n    tag_591:\n        /* \"#utility.yul\":2057:2060   */\n      0x00\n        /* \"#utility.yul\":2085:2091   */\n      0x0120\n        /* \"#utility.yul\":2118:2123   */\n      dup3\n        /* \"#utility.yul\":2112:2124   */\n      mload\n        /* \"#utility.yul\":2107:2110   */\n      dup5\n        /* \"#utility.yul\":2100:2125   */\n      mstore\n        /* \"#utility.yul\":2171:2175   */\n      0x20\n        /* \"#utility.yul\":2164:2169   */\n      dup4\n        /* \"#utility.yul\":2160:2176   */\n      add\n        /* \"#utility.yul\":2154:2177   */\n      mload\n        /* \"#utility.yul\":2209:2211   */\n      dup2\n        /* \"#utility.yul\":2202:2206   */\n      0x20\n        /* \"#utility.yul\":2197:2200   */\n      dup7\n        /* \"#utility.yul\":2193:2207   */\n      add\n        /* \"#utility.yul\":2186:2212   */\n      mstore\n        /* \"#utility.yul\":2233:2278   */\n      tag_618\n        /* \"#utility.yul\":2274:2276   */\n      dup3\n        /* \"#utility.yul\":2269:2272   */\n      dup7\n        /* \"#utility.yul\":2265:2277   */\n      add\n        /* \"#utility.yul\":2251:2263   */\n      dup3\n        /* \"#utility.yul\":2233:2278   */\n      tag_590\n      jump\t// in\n    tag_618:\n        /* \"#utility.yul\":2221:2278   */\n      swap2\n      pop\n      pop\n        /* \"#utility.yul\":2326:2330   */\n      0x40\n        /* \"#utility.yul\":2319:2324   */\n      dup4\n        /* \"#utility.yul\":2315:2331   */\n      add\n        /* \"#utility.yul\":2309:2332   */\n      mload\n        /* \"#utility.yul\":2374:2377   */\n      dup5\n        /* \"#utility.yul\":2368:2372   */\n      dup3\n        /* \"#utility.yul\":2364:2378   */\n      sub\n        /* \"#utility.yul\":2357:2361   */\n      0x40\n        /* \"#utility.yul\":2352:2355   */\n      dup7\n        /* \"#utility.yul\":2348:2362   */\n      add\n        /* \"#utility.yul\":2341:2379   */\n      mstore\n        /* \"#utility.yul\":2402:2441   */\n      tag_619\n        /* \"#utility.yul\":2436:2440   */\n      dup3\n        /* \"#utility.yul\":2420:2434   */\n      dup3\n        /* \"#utility.yul\":2402:2441   */\n      tag_590\n      jump\t// in\n    tag_619:\n        /* \"#utility.yul\":2388:2441   */\n      swap2\n      pop\n      pop\n        /* \"#utility.yul\":2489:2493   */\n      0x60\n        /* \"#utility.yul\":2482:2487   */\n      dup4\n        /* \"#utility.yul\":2478:2494   */\n      add\n        /* \"#utility.yul\":2472:2495   */\n      mload\n        /* \"#utility.yul\":2504:2554   */\n      tag_620\n        /* \"#utility.yul\":2548:2552   */\n      0x60\n        /* \"#utility.yul\":2543:2546   */\n      dup7\n        /* \"#utility.yul\":2539:2553   */\n      add\n        /* \"#utility.yul\":2523:2537   */\n      dup3\n      sub(shl(0xa0, 0x01), 0x01)\n        /* \"#utility.yul\":816:847   */\n      and\n        /* \"#utility.yul\":804:848   */\n      swap1\n      mstore\n        /* \"#utility.yul\":750:854   */\n      jump\n        /* \"#utility.yul\":2504:2554   */\n    tag_620:\n      pop\n        /* \"#utility.yul\":2603:2607   */\n      0x80\n        /* \"#utility.yul\":2596:2601   */\n      dup4\n        /* \"#utility.yul\":2592:2608   */\n      add\n        /* \"#utility.yul\":2586:2609   */\n      mload\n        /* \"#utility.yul\":2579:2583   */\n      0x80\n        /* \"#utility.yul\":2574:2577   */\n      dup6\n        /* \"#utility.yul\":2570:2584   */\n      add\n        /* \"#utility.yul\":2563:2610   */\n      mstore\n        /* \"#utility.yul\":2658:2662   */\n      0xa0\n        /* \"#utility.yul\":2651:2656   */\n      dup4\n        /* \"#utility.yul\":2647:2663   */\n      add\n        /* \"#utility.yul\":2641:2664   */\n      mload\n        /* \"#utility.yul\":2673:2723   */\n      tag_621\n        /* \"#utility.yul\":2717:2721   */\n      0xa0\n        /* \"#utility.yul\":2712:2715   */\n      dup7\n        /* \"#utility.yul\":2708:2722   */\n      add\n        /* \"#utility.yul\":2692:2706   */\n      dup3\n      sub(shl(0xa0, 0x01), 0x01)\n        /* \"#utility.yul\":816:847   */\n      and\n        /* \"#utility.yul\":804:848   */\n      swap1\n      mstore\n        /* \"#utility.yul\":750:854   */\n      jump\n        /* \"#utility.yul\":2673:2723   */\n    tag_621:\n      pop\n        /* \"#utility.yul\":2772:2776   */\n      0xc0\n        /* \"#utility.yul\":2761:2777   */\n      dup4\n      dup2\n      add\n        /* \"#utility.yul\":2755:2778   */\n      mload\n        /* \"#utility.yul\":2739:2753   */\n      swap1\n      dup6\n      add\n        /* \"#utility.yul\":2732:2779   */\n      mstore\n        /* \"#utility.yul\":2828:2832   */\n      0xe0\n        /* \"#utility.yul\":2817:2833   */\n      dup1\n      dup5\n      add\n        /* \"#utility.yul\":2811:2834   */\n      mload\n        /* \"#utility.yul\":2795:2809   */\n      swap1\n      dup6\n      add\n        /* \"#utility.yul\":2788:2835   */\n      mstore\n        /* \"#utility.yul\":2854:2860   */\n      0x0100\n        /* \"#utility.yul\":2896:2910   */\n      swap3\n      dup4\n      add\n        /* \"#utility.yul\":2890:2911   */\n      mload\n        /* \"#utility.yul\":2876:2888   */\n      swap3\n      swap1\n      swap4\n      add\n        /* \"#utility.yul\":2869:2912   */\n      swap2\n      swap1\n      swap2\n      mstore\n      pop\n        /* \"#utility.yul\":2928:2934   */\n      swap1\n        /* \"#utility.yul\":2010:2940   */\n      jump\t// out\n        /* \"#utility.yul\":2945:3773   */\n    tag_103:\n        /* \"#utility.yul\":3127:3131   */\n      0x00\n        /* \"#utility.yul\":3156:3158   */\n      0x20\n        /* \"#utility.yul\":3196:3198   */\n      dup1\n        /* \"#utility.yul\":3185:3194   */\n      dup4\n        /* \"#utility.yul\":3181:3199   */\n      add\n        /* \"#utility.yul\":3226:3228   */\n      dup2\n        /* \"#utility.yul\":3215:3224   */\n      dup5\n        /* \"#utility.yul\":3208:3229   */\n      mstore\n        /* \"#utility.yul\":3249:3255   */\n      dup1\n        /* \"#utility.yul\":3284:3290   */\n      dup6\n        /* \"#utility.yul\":3278:3291   */\n      mload\n        /* \"#utility.yul\":3315:3321   */\n      dup1\n        /* \"#utility.yul\":3307:3313   */\n      dup4\n        /* \"#utility.yul\":3300:3322   */\n      mstore\n        /* \"#utility.yul\":3353:3355   */\n      0x40\n        /* \"#utility.yul\":3342:3351   */\n      dup7\n        /* \"#utility.yul\":3338:3356   */\n      add\n        /* \"#utility.yul\":3331:3356   */\n      swap2\n      pop\n        /* \"#utility.yul\":3415:3417   */\n      0x40\n        /* \"#utility.yul\":3405:3411   */\n      dup2\n        /* \"#utility.yul\":3402:3403   */\n      0x05\n        /* \"#utility.yul\":3398:3412   */\n      shl\n        /* \"#utility.yul\":3387:3396   */\n      dup8\n        /* \"#utility.yul\":3383:3413   */\n      add\n        /* \"#utility.yul\":3379:3418   */\n      add\n        /* \"#utility.yul\":3365:3418   */\n      swap3\n      pop\n        /* \"#utility.yul\":3453:3455   */\n      dup4\n        /* \"#utility.yul\":3445:3451   */\n      dup8\n        /* \"#utility.yul\":3441:3456   */\n      add\n        /* \"#utility.yul\":3474:3475   */\n      0x00\n        /* \"#utility.yul\":3484:3744   */\n    tag_623:\n        /* \"#utility.yul\":3498:3504   */\n      dup3\n        /* \"#utility.yul\":3495:3496   */\n      dup2\n        /* \"#utility.yul\":3492:3505   */\n      lt\n        /* \"#utility.yul\":3484:3744   */\n      iszero\n      tag_625\n      jumpi\n        /* \"#utility.yul\":3591:3593   */\n      0x3f\n        /* \"#utility.yul\":3587:3594   */\n      not\n        /* \"#utility.yul\":3575:3584   */\n      dup9\n        /* \"#utility.yul\":3567:3573   */\n      dup7\n        /* \"#utility.yul\":3563:3585   */\n      sub\n        /* \"#utility.yul\":3559:3595   */\n      add\n        /* \"#utility.yul\":3554:3557   */\n      dup5\n        /* \"#utility.yul\":3547:3596   */\n      mstore\n        /* \"#utility.yul\":3619:3664   */\n      tag_626\n        /* \"#utility.yul\":3657:3663   */\n      dup6\n        /* \"#utility.yul\":3648:3654   */\n      dup4\n        /* \"#utility.yul\":3642:3655   */\n      mload\n        /* \"#utility.yul\":3619:3664   */\n      tag_591\n      jump\t// in\n    tag_626:\n        /* \"#utility.yul\":3609:3664   */\n      swap5\n      pop\n        /* \"#utility.yul\":3722:3734   */\n      swap3\n      dup6\n      add\n      swap3\n        /* \"#utility.yul\":3687:3702   */\n      swap1\n      dup6\n      add\n      swap1\n        /* \"#utility.yul\":3520:3521   */\n      0x01\n        /* \"#utility.yul\":3513:3522   */\n      add\n        /* \"#utility.yul\":3484:3744   */\n      jump(tag_623)\n    tag_625:\n      pop\n        /* \"#utility.yul\":3761:3767   */\n      swap3\n      swap8\n        /* \"#utility.yul\":2945:3773   */\n      swap7\n      pop\n      pop\n      pop\n      pop\n      pop\n      pop\n      pop\n      jump\t// out\n        /* \"#utility.yul\":3778:4436   */\n    tag_107:\n        /* \"#utility.yul\":3949:3951   */\n      0x20\n        /* \"#utility.yul\":4001:4022   */\n      dup1\n      dup3\n      mstore\n        /* \"#utility.yul\":4071:4084   */\n      dup3\n      mload\n        /* \"#utility.yul\":3974:3992   */\n      dup3\n      dup3\n      add\n        /* \"#utility.yul\":4093:4115   */\n      dup2\n      swap1\n      mstore\n        /* \"#utility.yul\":3920:3924   */\n      0x00\n      swap2\n        /* \"#utility.yul\":3949:3951   */\n      swap1\n        /* \"#utility.yul\":4172:4187   */\n      dup5\n      dup3\n      add\n      swap1\n        /* \"#utility.yul\":4146:4148   */\n      0x40\n        /* \"#utility.yul\":4131:4149   */\n      dup6\n      add\n      swap1\n        /* \"#utility.yul\":3920:3924   */\n      dup5\n        /* \"#utility.yul\":4215:4410   */\n    tag_628:\n        /* \"#utility.yul\":4229:4235   */\n      dup2\n        /* \"#utility.yul\":4226:4227   */\n      dup2\n        /* \"#utility.yul\":4223:4236   */\n      lt\n        /* \"#utility.yul\":4215:4410   */\n      iszero\n      tag_630\n      jumpi\n        /* \"#utility.yul\":4294:4307   */\n      dup4\n      mload\n      sub(shl(0xa0, 0x01), 0x01)\n        /* \"#utility.yul\":4290:4329   */\n      and\n        /* \"#utility.yul\":4278:4330   */\n      dup4\n      mstore\n        /* \"#utility.yul\":4385:4400   */\n      swap3\n      dup5\n      add\n      swap3\n        /* \"#utility.yul\":4350:4362   */\n      swap2\n      dup5\n      add\n      swap2\n        /* \"#utility.yul\":4326:4327   */\n      0x01\n        /* \"#utility.yul\":4244:4253   */\n      add\n        /* \"#utility.yul\":4215:4410   */\n      jump(tag_628)\n    tag_630:\n      pop\n        /* \"#utility.yul\":4427:4430   */\n      swap1\n      swap7\n        /* \"#utility.yul\":3778:4436   */\n      swap6\n      pop\n      pop\n      pop\n      pop\n      pop\n      pop\n      jump\t// out\n        /* \"#utility.yul\":4441:5404   */\n    tag_116:\n        /* \"#utility.yul\":4797:4801   */\n      0x00\n        /* \"#utility.yul\":4826:4829   */\n      0x0120\n        /* \"#utility.yul\":4856:4862   */\n      dup12\n        /* \"#utility.yul\":4845:4854   */\n      dup4\n        /* \"#utility.yul\":4838:4863   */\n      mstore\n        /* \"#utility.yul\":4899:4901   */\n      dup1\n        /* \"#utility.yul\":4894:4896   */\n      0x20\n        /* \"#utility.yul\":4883:4892   */\n      dup5\n        /* \"#utility.yul\":4879:4897   */\n      add\n        /* \"#utility.yul\":4872:4902   */\n      mstore\n        /* \"#utility.yul\":4925:4970   */\n      tag_632\n        /* \"#utility.yul\":4966:4968   */\n      dup2\n        /* \"#utility.yul\":4955:4964   */\n      dup5\n        /* \"#utility.yul\":4951:4969   */\n      add\n        /* \"#utility.yul\":4943:4949   */\n      dup13\n        /* \"#utility.yul\":4925:4970   */\n      tag_590\n      jump\t// in\n    tag_632:\n        /* \"#utility.yul\":4911:4970   */\n      swap1\n      pop\n        /* \"#utility.yul\":5018:5027   */\n      dup3\n        /* \"#utility.yul\":5010:5016   */\n      dup2\n        /* \"#utility.yul\":5006:5028   */\n      sub\n        /* \"#utility.yul\":5001:5003   */\n      0x40\n        /* \"#utility.yul\":4990:4999   */\n      dup5\n        /* \"#utility.yul\":4986:5004   */\n      add\n        /* \"#utility.yul\":4979:5029   */\n      mstore\n        /* \"#utility.yul\":5046:5079   */\n      tag_633\n        /* \"#utility.yul\":5072:5078   */\n      dup2\n        /* \"#utility.yul\":5064:5070   */\n      dup12\n        /* \"#utility.yul\":5046:5079   */\n      tag_590\n      jump\t// in\n    tag_633:\n      sub(shl(0xa0, 0x01), 0x01)\n        /* \"#utility.yul\":5153:5168   */\n      swap10\n      dup11\n      and\n        /* \"#utility.yul\":5148:5150   */\n      0x60\n        /* \"#utility.yul\":5133:5151   */\n      dup6\n      add\n        /* \"#utility.yul\":5126:5169   */\n      mstore\n        /* \"#utility.yul\":5200:5203   */\n      0x80\n        /* \"#utility.yul\":5185:5204   */\n      dup5\n      add\n        /* \"#utility.yul\":5178:5213   */\n      swap9\n      swap1\n      swap9\n      mstore\n      pop\n      pop\n        /* \"#utility.yul\":5250:5265   */\n      swap4\n      swap1\n      swap6\n      and\n        /* \"#utility.yul\":5106:5109   */\n      0xa0\n        /* \"#utility.yul\":5229:5248   */\n      dup5\n      add\n        /* \"#utility.yul\":5222:5266   */\n      mstore\n        /* \"#utility.yul\":5297:5300   */\n      0xc0\n        /* \"#utility.yul\":5282:5301   */\n      dup4\n      add\n        /* \"#utility.yul\":5275:5310   */\n      swap2\n      swap1\n      swap2\n      mstore\n        /* \"#utility.yul\":5341:5344   */\n      0xe0\n        /* \"#utility.yul\":5326:5345   */\n      dup3\n      add\n        /* \"#utility.yul\":5319:5354   */\n      mstore\n        /* \"#utility.yul\":5385:5388   */\n      0x0100\n        /* \"#utility.yul\":5370:5389   */\n      add\n        /* \"#utility.yul\":5363:5398   */\n      swap2\n      swap1\n      swap2\n      mstore\n        /* \"#utility.yul\":5038:5079   */\n      swap4\n        /* \"#utility.yul\":4441:5404   */\n      swap3\n      pop\n      pop\n      pop\n      jump\t// out\n        /* \"#utility.yul\":5409:6041   */\n    tag_128:\n        /* \"#utility.yul\":5580:5582   */\n      0x20\n        /* \"#utility.yul\":5632:5653   */\n      dup1\n      dup3\n      mstore\n        /* \"#utility.yul\":5702:5715   */\n      dup3\n      mload\n        /* \"#utility.yul\":5605:5623   */\n      dup3\n      dup3\n      add\n        /* \"#utility.yul\":5724:5746   */\n      dup2\n      swap1\n      mstore\n        /* \"#utility.yul\":5551:5555   */\n      0x00\n      swap2\n        /* \"#utility.yul\":5580:5582   */\n      swap1\n        /* \"#utility.yul\":5803:5818   */\n      dup5\n      dup3\n      add\n      swap1\n        /* \"#utility.yul\":5777:5779   */\n      0x40\n        /* \"#utility.yul\":5762:5780   */\n      dup6\n      add\n      swap1\n        /* \"#utility.yul\":5551:5555   */\n      dup5\n        /* \"#utility.yul\":5846:6015   */\n    tag_635:\n        /* \"#utility.yul\":5860:5866   */\n      dup2\n        /* \"#utility.yul\":5857:5858   */\n      dup2\n        /* \"#utility.yul\":5854:5867   */\n      lt\n        /* \"#utility.yul\":5846:6015   */\n      iszero\n      tag_630\n      jumpi\n        /* \"#utility.yul\":5921:5934   */\n      dup4\n      mload\n        /* \"#utility.yul\":5909:5935   */\n      dup4\n      mstore\n        /* \"#utility.yul\":5990:6005   */\n      swap3\n      dup5\n      add\n      swap3\n        /* \"#utility.yul\":5955:5967   */\n      swap2\n      dup5\n      add\n      swap2\n        /* \"#utility.yul\":5882:5883   */\n      0x01\n        /* \"#utility.yul\":5875:5884   */\n      add\n        /* \"#utility.yul\":5846:6015   */\n      jump(tag_635)\n        /* \"#utility.yul\":6046:6294   */\n    tag_131:\n        /* \"#utility.yul\":6114:6120   */\n      0x00\n        /* \"#utility.yul\":6122:6128   */\n      dup1\n        /* \"#utility.yul\":6175:6177   */\n      0x40\n        /* \"#utility.yul\":6163:6172   */\n      dup4\n        /* \"#utility.yul\":6154:6161   */\n      dup6\n        /* \"#utility.yul\":6150:6173   */\n      sub\n        /* \"#utility.yul\":6146:6178   */\n      slt\n        /* \"#utility.yul\":6143:6195   */\n      iszero\n      tag_639\n      jumpi\n        /* \"#utility.yul\":6191:6192   */\n      0x00\n        /* \"#utility.yul\":6188:6189   */\n      dup1\n        /* \"#utility.yul\":6181:6193   */\n      revert\n        /* \"#utility.yul\":6143:6195   */\n    tag_639:\n      pop\n      pop\n        /* \"#utility.yul\":6214:6237   */\n      dup1\n      calldataload\n      swap3\n        /* \"#utility.yul\":6284:6286   */\n      0x20\n        /* \"#utility.yul\":6269:6287   */\n      swap1\n      swap2\n      add\n        /* \"#utility.yul\":6256:6288   */\n      calldataload\n      swap2\n      pop\n        /* \"#utility.yul\":6046:6294   */\n      jump\t// out\n        /* \"#utility.yul\":6299:6553   */\n    tag_136:\n        /* \"#utility.yul\":6367:6373   */\n      0x00\n        /* \"#utility.yul\":6375:6381   */\n      dup1\n        /* \"#utility.yul\":6428:6430   */\n      0x40\n        /* \"#utility.yul\":6416:6425   */\n      dup4\n        /* \"#utility.yul\":6407:6414   */\n      dup6\n        /* \"#utility.yul\":6403:6426   */\n      sub\n        /* \"#utility.yul\":6399:6431   */\n      slt\n        /* \"#utility.yul\":6396:6448   */\n      iszero\n      tag_641\n      jumpi\n        /* \"#utility.yul\":6444:6445   */\n      0x00\n        /* \"#utility.yul\":6441:6442   */\n      dup1\n        /* \"#utility.yul\":6434:6446   */\n      revert\n        /* \"#utility.yul\":6396:6448   */\n    tag_641:\n        /* \"#utility.yul\":6480:6489   */\n      dup3\n        /* \"#utility.yul\":6467:6490   */\n      calldataload\n        /* \"#utility.yul\":6457:6490   */\n      swap2\n      pop\n        /* \"#utility.yul\":6509:6547   */\n      tag_642\n        /* \"#utility.yul\":6543:6545   */\n      0x20\n        /* \"#utility.yul\":6532:6541   */\n      dup5\n        /* \"#utility.yul\":6528:6546   */\n      add\n        /* \"#utility.yul\":6509:6547   */\n      tag_587\n      jump\t// in\n    tag_642:\n        /* \"#utility.yul\":6499:6547   */\n      swap1\n      pop\n        /* \"#utility.yul\":6299:6553   */\n      swap3\n      pop\n      swap3\n      swap1\n      pop\n      jump\t// out\n        /* \"#utility.yul\":6558:6803   */\n    tag_206:\n        /* \"#utility.yul\":6727:6729   */\n      0x20\n        /* \"#utility.yul\":6716:6725   */\n      dup2\n        /* \"#utility.yul\":6709:6730   */\n      mstore\n        /* \"#utility.yul\":6690:6694   */\n      0x00\n        /* \"#utility.yul\":6747:6797   */\n      tag_602\n        /* \"#utility.yul\":6793:6795   */\n      0x20\n        /* \"#utility.yul\":6782:6791   */\n      dup4\n        /* \"#utility.yul\":6778:6796   */\n      add\n        /* \"#utility.yul\":6770:6776   */\n      dup5\n        /* \"#utility.yul\":6747:6797   */\n      tag_591\n      jump\t// in\n        /* \"#utility.yul\":7218:7345   */\n    tag_271:\n        /* \"#utility.yul\":7279:7289   */\n      0x4e487b71\n        /* \"#utility.yul\":7274:7277   */\n      0xe0\n        /* \"#utility.yul\":7270:7290   */\n      shl\n        /* \"#utility.yul\":7267:7268   */\n      0x00\n        /* \"#utility.yul\":7260:7291   */\n      mstore\n        /* \"#utility.yul\":7310:7314   */\n      0x41\n        /* \"#utility.yul\":7307:7308   */\n      0x04\n        /* \"#utility.yul\":7300:7315   */\n      mstore\n        /* \"#utility.yul\":7334:7338   */\n      0x24\n        /* \"#utility.yul\":7331:7332   */\n      0x00\n        /* \"#utility.yul\":7324:7339   */\n      revert\n        /* \"#utility.yul\":7350:7625   */\n    tag_592:\n        /* \"#utility.yul\":7421:7423   */\n      0x40\n        /* \"#utility.yul\":7415:7424   */\n      mload\n        /* \"#utility.yul\":7486:7488   */\n      0x1f\n        /* \"#utility.yul\":7467:7480   */\n      dup3\n      add\n      not(0x1f)\n        /* \"#utility.yul\":7463:7490   */\n      and\n        /* \"#utility.yul\":7451:7491   */\n      dup2\n      add\n        /* \"#utility.yul\":7521:7539   */\n      0xffffffffffffffff\n        /* \"#utility.yul\":7506:7540   */\n      dup2\n      gt\n        /* \"#utility.yul\":7542:7564   */\n      dup3\n      dup3\n      lt\n        /* \"#utility.yul\":7503:7565   */\n      or\n        /* \"#utility.yul\":7500:7588   */\n      iszero\n      tag_650\n      jumpi\n        /* \"#utility.yul\":7568:7586   */\n      tag_650\n      tag_271\n      jump\t// in\n    tag_650:\n        /* \"#utility.yul\":7604:7606   */\n      0x40\n        /* \"#utility.yul\":7597:7619   */\n      mstore\n        /* \"#utility.yul\":7350:7625   */\n      swap2\n      swap1\n      pop\n      jump\t// out\n        /* \"#utility.yul\":7630:7817   */\n    tag_593:\n        /* \"#utility.yul\":7679:7683   */\n      0x00\n        /* \"#utility.yul\":7712:7730   */\n      0xffffffffffffffff\n        /* \"#utility.yul\":7704:7710   */\n      dup3\n        /* \"#utility.yul\":7701:7731   */\n      gt\n        /* \"#utility.yul\":7698:7754   */\n      iszero\n      tag_653\n      jumpi\n        /* \"#utility.yul\":7734:7752   */\n      tag_653\n      tag_271\n      jump\t// in\n    tag_653:\n      pop\n        /* \"#utility.yul\":7800:7802   */\n      0x1f\n        /* \"#utility.yul\":7779:7794   */\n      add\n      not(0x1f)\n        /* \"#utility.yul\":7775:7804   */\n      and\n        /* \"#utility.yul\":7806:7810   */\n      0x20\n        /* \"#utility.yul\":7771:7811   */\n      add\n      swap1\n        /* \"#utility.yul\":7630:7817   */\n      jump\t// out\n        /* \"#utility.yul\":7822:8286   */\n    tag_594:\n        /* \"#utility.yul\":7865:7870   */\n      0x00\n        /* \"#utility.yul\":7918:7921   */\n      dup3\n        /* \"#utility.yul\":7911:7915   */\n      0x1f\n        /* \"#utility.yul\":7903:7909   */\n      dup4\n        /* \"#utility.yul\":7899:7916   */\n      add\n        /* \"#utility.yul\":7895:7922   */\n      slt\n        /* \"#utility.yul\":7885:7940   */\n      tag_655\n      jumpi\n        /* \"#utility.yul\":7936:7937   */\n      0x00\n        /* \"#utility.yul\":7933:7934   */\n      dup1\n        /* \"#utility.yul\":7926:7938   */\n      revert\n        /* \"#utility.yul\":7885:7940   */\n    tag_655:\n        /* \"#utility.yul\":7972:7978   */\n      dup2\n        /* \"#utility.yul\":7959:7979   */\n      calldataload\n        /* \"#utility.yul\":8003:8052   */\n      tag_656\n        /* \"#utility.yul\":8019:8051   */\n      tag_657\n        /* \"#utility.yul\":8048:8050   */\n      dup3\n        /* \"#utility.yul\":8019:8051   */\n      tag_593\n      jump\t// in\n    tag_657:\n        /* \"#utility.yul\":8003:8052   */\n      tag_592\n      jump\t// in\n    tag_656:\n        /* \"#utility.yul\":8077:8079   */\n      dup2\n        /* \"#utility.yul\":8068:8075   */\n      dup2\n        /* \"#utility.yul\":8061:8080   */\n      mstore\n        /* \"#utility.yul\":8123:8126   */\n      dup5\n        /* \"#utility.yul\":8116:8120   */\n      0x20\n        /* \"#utility.yul\":8111:8113   */\n      dup4\n        /* \"#utility.yul\":8103:8109   */\n      dup7\n        /* \"#utility.yul\":8099:8114   */\n      add\n        /* \"#utility.yul\":8095:8121   */\n      add\n        /* \"#utility.yul\":8092:8127   */\n      gt\n        /* \"#utility.yul\":8089:8144   */\n      iszero\n      tag_658\n      jumpi\n        /* \"#utility.yul\":8140:8141   */\n      0x00\n        /* \"#utility.yul\":8137:8138   */\n      dup1\n        /* \"#utility.yul\":8130:8142   */\n      revert\n        /* \"#utility.yul\":8089:8144   */\n    tag_658:\n        /* \"#utility.yul\":8205:8207   */\n      dup2\n        /* \"#utility.yul\":8198:8202   */\n      0x20\n        /* \"#utility.yul\":8190:8196   */\n      dup6\n        /* \"#utility.yul\":8186:8203   */\n      add\n        /* \"#utility.yul\":8179:8183   */\n      0x20\n        /* \"#utility.yul\":8170:8177   */\n      dup4\n        /* \"#utility.yul\":8166:8184   */\n      add\n        /* \"#utility.yul\":8153:8208   */\n      calldatacopy\n        /* \"#utility.yul\":8253:8254   */\n      0x00\n        /* \"#utility.yul\":8228:8244   */\n      swap2\n      dup2\n      add\n        /* \"#utility.yul\":8246:8250   */\n      0x20\n        /* \"#utility.yul\":8224:8251   */\n      add\n        /* \"#utility.yul\":8217:8255   */\n      swap2\n      swap1\n      swap2\n      mstore\n        /* \"#utility.yul\":8232:8239   */\n      swap4\n        /* \"#utility.yul\":7822:8286   */\n      swap3\n      pop\n      pop\n      pop\n      jump\t// out\n        /* \"#utility.yul\":8291:9448   */\n    tag_238:\n        /* \"#utility.yul\":8444:8450   */\n      0x00\n        /* \"#utility.yul\":8452:8458   */\n      dup1\n        /* \"#utility.yul\":8460:8466   */\n      0x00\n        /* \"#utility.yul\":8468:8474   */\n      dup1\n        /* \"#utility.yul\":8476:8482   */\n      0x00\n        /* \"#utility.yul\":8484:8490   */\n      dup1\n        /* \"#utility.yul\":8492:8498   */\n      0x00\n        /* \"#utility.yul\":8545:8548   */\n      0xe0\n        /* \"#utility.yul\":8533:8542   */\n      dup9\n        /* \"#utility.yul\":8524:8531   */\n      dup11\n        /* \"#utility.yul\":8520:8543   */\n      sub\n        /* \"#utility.yul\":8516:8549   */\n      slt\n        /* \"#utility.yul\":8513:8566   */\n      iszero\n      tag_660\n      jumpi\n        /* \"#utility.yul\":8562:8563   */\n      0x00\n        /* \"#utility.yul\":8559:8560   */\n      dup1\n        /* \"#utility.yul\":8552:8564   */\n      revert\n        /* \"#utility.yul\":8513:8566   */\n    tag_660:\n        /* \"#utility.yul\":8598:8607   */\n      dup8\n        /* \"#utility.yul\":8585:8608   */\n      calldataload\n        /* \"#utility.yul\":8575:8608   */\n      swap7\n      pop\n        /* \"#utility.yul\":8659:8661   */\n      0x20\n        /* \"#utility.yul\":8648:8657   */\n      dup9\n        /* \"#utility.yul\":8644:8662   */\n      add\n        /* \"#utility.yul\":8631:8663   */\n      calldataload\n        /* \"#utility.yul\":8682:8700   */\n      0xffffffffffffffff\n        /* \"#utility.yul\":8723:8725   */\n      dup1\n        /* \"#utility.yul\":8715:8721   */\n      dup3\n        /* \"#utility.yul\":8712:8726   */\n      gt\n        /* \"#utility.yul\":8709:8743   */\n      iszero\n      tag_661\n      jumpi\n        /* \"#utility.yul\":8739:8740   */\n      0x00\n        /* \"#utility.yul\":8736:8737   */\n      dup1\n        /* \"#utility.yul\":8729:8741   */\n      revert\n        /* \"#utility.yul\":8709:8743   */\n    tag_661:\n        /* \"#utility.yul\":8762:8812   */\n      tag_662\n        /* \"#utility.yul\":8804:8811   */\n      dup12\n        /* \"#utility.yul\":8795:8801   */\n      dup4\n        /* \"#utility.yul\":8784:8793   */\n      dup13\n        /* \"#utility.yul\":8780:8802   */\n      add\n        /* \"#utility.yul\":8762:8812   */\n      tag_594\n      jump\t// in\n    tag_662:\n        /* \"#utility.yul\":8752:8812   */\n      swap8\n      pop\n        /* \"#utility.yul\":8865:8867   */\n      0x40\n        /* \"#utility.yul\":8854:8863   */\n      dup11\n        /* \"#utility.yul\":8850:8868   */\n      add\n        /* \"#utility.yul\":8837:8869   */\n      calldataload\n        /* \"#utility.yul\":8821:8869   */\n      swap2\n      pop\n        /* \"#utility.yul\":8894:8896   */\n      dup1\n        /* \"#utility.yul\":8884:8892   */\n      dup3\n        /* \"#utility.yul\":8881:8897   */\n      gt\n        /* \"#utility.yul\":8878:8914   */\n      iszero\n      tag_663\n      jumpi\n        /* \"#utility.yul\":8910:8911   */\n      0x00\n        /* \"#utility.yul\":8907:8908   */\n      dup1\n        /* \"#utility.yul\":8900:8912   */\n      revert\n        /* \"#utility.yul\":8878:8914   */\n    tag_663:\n        /* \"#utility.yul\":8933:8985   */\n      tag_664\n        /* \"#utility.yul\":8977:8984   */\n      dup12\n        /* \"#utility.yul\":8966:8974   */\n      dup4\n        /* \"#utility.yul\":8955:8964   */\n      dup13\n        /* \"#utility.yul\":8951:8975   */\n      add\n        /* \"#utility.yul\":8933:8985   */\n      tag_594\n      jump\t// in\n    tag_664:\n        /* \"#utility.yul\":8923:8985   */\n      swap7\n      pop\n        /* \"#utility.yul\":9032:9034   */\n      0x60\n        /* \"#utility.yul\":9021:9030   */\n      dup11\n        /* \"#utility.yul\":9017:9035   */\n      add\n        /* \"#utility.yul\":9004:9036   */\n      calldataload\n        /* \"#utility.yul\":8994:9036   */\n      swap6\n      pop\n        /* \"#utility.yul\":9089:9092   */\n      0x80\n        /* \"#utility.yul\":9078:9087   */\n      dup11\n        /* \"#utility.yul\":9074:9093   */\n      add\n        /* \"#utility.yul\":9061:9094   */\n      calldataload\n        /* \"#utility.yul\":9045:9094   */\n      swap2\n      pop\n        /* \"#utility.yul\":9119:9121   */\n      dup1\n        /* \"#utility.yul\":9109:9117   */\n      dup3\n        /* \"#utility.yul\":9106:9122   */\n      gt\n        /* \"#utility.yul\":9103:9139   */\n      iszero\n      tag_665\n      jumpi\n        /* \"#utility.yul\":9135:9136   */\n      0x00\n        /* \"#utility.yul\":9132:9133   */\n      dup1\n        /* \"#utility.yul\":9125:9137   */\n      revert\n        /* \"#utility.yul\":9103:9139   */\n    tag_665:\n        /* \"#utility.yul\":9158:9210   */\n      tag_666\n        /* \"#utility.yul\":9202:9209   */\n      dup12\n        /* \"#utility.yul\":9191:9199   */\n      dup4\n        /* \"#utility.yul\":9180:9189   */\n      dup13\n        /* \"#utility.yul\":9176:9200   */\n      add\n        /* \"#utility.yul\":9158:9210   */\n      tag_594\n      jump\t// in\n    tag_666:\n        /* \"#utility.yul\":9148:9210   */\n      swap5\n      pop\n        /* \"#utility.yul\":9263:9266   */\n      0xa0\n        /* \"#utility.yul\":9252:9261   */\n      dup11\n        /* \"#utility.yul\":9248:9267   */\n      add\n        /* \"#utility.yul\":9235:9268   */\n      calldataload\n        /* \"#utility.yul\":9219:9268   */\n      swap2\n      pop\n        /* \"#utility.yul\":9293:9295   */\n      dup1\n        /* \"#utility.yul\":9283:9291   */\n      dup3\n        /* \"#utility.yul\":9280:9296   */\n      gt\n        /* \"#utility.yul\":9277:9313   */\n      iszero\n      tag_667\n      jumpi\n        /* \"#utility.yul\":9309:9310   */\n      0x00\n        /* \"#utility.yul\":9306:9307   */\n      dup1\n        /* \"#utility.yul\":9299:9311   */\n      revert\n        /* \"#utility.yul\":9277:9313   */\n    tag_667:\n      pop\n        /* \"#utility.yul\":9332:9384   */\n      tag_668\n        /* \"#utility.yul\":9376:9383   */\n      dup11\n        /* \"#utility.yul\":9365:9373   */\n      dup3\n        /* \"#utility.yul\":9354:9363   */\n      dup12\n        /* \"#utility.yul\":9350:9374   */\n      add\n        /* \"#utility.yul\":9332:9384   */\n      tag_594\n      jump\t// in\n    tag_668:\n        /* \"#utility.yul\":9322:9384   */\n      swap3\n      pop\n      pop\n        /* \"#utility.yul\":9403:9442   */\n      tag_669\n        /* \"#utility.yul\":9437:9440   */\n      0xc0\n        /* \"#utility.yul\":9426:9435   */\n      dup10\n        /* \"#utility.yul\":9422:9441   */\n      add\n        /* \"#utility.yul\":9403:9442   */\n      tag_587\n      jump\t// in\n    tag_669:\n        /* \"#utility.yul\":9393:9442   */\n      swap1\n      pop\n        /* \"#utility.yul\":8291:9448   */\n      swap3\n      swap6\n      swap9\n      swap2\n      swap5\n      swap8\n      pop\n      swap3\n      swap6\n      pop\n      jump\t// out\n        /* \"#utility.yul\":9453:9785   */\n    tag_243:\n        /* \"#utility.yul\":9655:9657   */\n      0x20\n        /* \"#utility.yul\":9637:9658   */\n      dup1\n      dup3\n      mstore\n        /* \"#utility.yul\":9694:9695   */\n      0x09\n        /* \"#utility.yul\":9674:9692   */\n      swap1\n      dup3\n      add\n        /* \"#utility.yul\":9667:9696   */\n      mstore\n      shl(0xb9, 0x2737ba1037bbb732b9)\n        /* \"#utility.yul\":9727:9729   */\n      0x40\n        /* \"#utility.yul\":9712:9730   */\n      dup3\n      add\n        /* \"#utility.yul\":9705:9744   */\n      mstore\n        /* \"#utility.yul\":9776:9778   */\n      0x60\n        /* \"#utility.yul\":9761:9779   */\n      add\n      swap1\n        /* \"#utility.yul\":9453:9785   */\n      jump\t// out\n        /* \"#utility.yul\":9790:9917   */\n    tag_595:\n        /* \"#utility.yul\":9851:9861   */\n      0x4e487b71\n        /* \"#utility.yul\":9846:9849   */\n      0xe0\n        /* \"#utility.yul\":9842:9862   */\n      shl\n        /* \"#utility.yul\":9839:9840   */\n      0x00\n        /* \"#utility.yul\":9832:9863   */\n      mstore\n        /* \"#utility.yul\":9882:9886   */\n      0x11\n        /* \"#utility.yul\":9879:9880   */\n      0x04\n        /* \"#utility.yul\":9872:9887   */\n      mstore\n        /* \"#utility.yul\":9906:9910   */\n      0x24\n        /* \"#utility.yul\":9903:9904   */\n      0x00\n        /* \"#utility.yul\":9896:9911   */\n      revert\n        /* \"#utility.yul\":9922:10057   */\n    tag_247:\n        /* \"#utility.yul\":9961:9964   */\n      0x00\n      not(0x00)\n        /* \"#utility.yul\":9982:9999   */\n      dup3\n      eq\n        /* \"#utility.yul\":9979:10022   */\n      iszero\n      tag_674\n      jumpi\n        /* \"#utility.yul\":10002:10020   */\n      tag_674\n      tag_595\n      jump\t// in\n    tag_674:\n      pop\n        /* \"#utility.yul\":10049:10050   */\n      0x01\n        /* \"#utility.yul\":10038:10051   */\n      add\n      swap1\n        /* \"#utility.yul\":9922:10057   */\n      jump\t// out\n        /* \"#utility.yul\":10062:10246   */\n    tag_253:\n        /* \"#utility.yul\":10132:10138   */\n      0x00\n        /* \"#utility.yul\":10185:10187   */\n      0x20\n        /* \"#utility.yul\":10173:10182   */\n      dup3\n        /* \"#utility.yul\":10164:10171   */\n      dup5\n        /* \"#utility.yul\":10160:10183   */\n      sub\n        /* \"#utility.yul\":10156:10188   */\n      slt\n        /* \"#utility.yul\":10153:10205   */\n      iszero\n      tag_676\n      jumpi\n        /* \"#utility.yul\":10201:10202   */\n      0x00\n        /* \"#utility.yul\":10198:10199   */\n      dup1\n        /* \"#utility.yul\":10191:10203   */\n      revert\n        /* \"#utility.yul\":10153:10205   */\n    tag_676:\n      pop\n        /* \"#utility.yul\":10224:10240   */\n      mload\n      swap2\n        /* \"#utility.yul\":10062:10246   */\n      swap1\n      pop\n      jump\t// out\n        /* \"#utility.yul\":10251:10887   */\n    tag_258:\n        /* \"#utility.yul\":10331:10337   */\n      0x00\n        /* \"#utility.yul\":10384:10386   */\n      0x20\n        /* \"#utility.yul\":10372:10381   */\n      dup3\n        /* \"#utility.yul\":10363:10370   */\n      dup5\n        /* \"#utility.yul\":10359:10382   */\n      sub\n        /* \"#utility.yul\":10355:10387   */\n      slt\n        /* \"#utility.yul\":10352:10404   */\n      iszero\n      tag_678\n      jumpi\n        /* \"#utility.yul\":10400:10401   */\n      0x00\n        /* \"#utility.yul\":10397:10398   */\n      dup1\n        /* \"#utility.yul\":10390:10402   */\n      revert\n        /* \"#utility.yul\":10352:10404   */\n    tag_678:\n        /* \"#utility.yul\":10433:10442   */\n      dup2\n        /* \"#utility.yul\":10427:10443   */\n      mload\n        /* \"#utility.yul\":10466:10484   */\n      0xffffffffffffffff\n        /* \"#utility.yul\":10458:10464   */\n      dup2\n        /* \"#utility.yul\":10455:10485   */\n      gt\n        /* \"#utility.yul\":10452:10502   */\n      iszero\n      tag_679\n      jumpi\n        /* \"#utility.yul\":10498:10499   */\n      0x00\n        /* \"#utility.yul\":10495:10496   */\n      dup1\n        /* \"#utility.yul\":10488:10500   */\n      revert\n        /* \"#utility.yul\":10452:10502   */\n    tag_679:\n        /* \"#utility.yul\":10521:10543   */\n      dup3\n      add\n        /* \"#utility.yul\":10574:10578   */\n      0x1f\n        /* \"#utility.yul\":10566:10579   */\n      dup2\n      add\n        /* \"#utility.yul\":10562:10589   */\n      dup5\n      sgt\n        /* \"#utility.yul\":10552:10607   */\n      tag_680\n      jumpi\n        /* \"#utility.yul\":10603:10604   */\n      0x00\n        /* \"#utility.yul\":10600:10601   */\n      dup1\n        /* \"#utility.yul\":10593:10605   */\n      revert\n        /* \"#utility.yul\":10552:10607   */\n    tag_680:\n        /* \"#utility.yul\":10632:10634   */\n      dup1\n        /* \"#utility.yul\":10626:10635   */\n      mload\n        /* \"#utility.yul\":10657:10706   */\n      tag_681\n        /* \"#utility.yul\":10673:10705   */\n      tag_657\n        /* \"#utility.yul\":10702:10704   */\n      dup3\n        /* \"#utility.yul\":10673:10705   */\n      tag_593\n      jump\t// in\n        /* \"#utility.yul\":10657:10706   */\n    tag_681:\n        /* \"#utility.yul\":10729:10731   */\n      dup2\n        /* \"#utility.yul\":10722:10727   */\n      dup2\n        /* \"#utility.yul\":10715:10732   */\n      mstore\n        /* \"#utility.yul\":10769:10776   */\n      dup6\n        /* \"#utility.yul\":10764:10766   */\n      0x20\n        /* \"#utility.yul\":10759:10761   */\n      dup4\n        /* \"#utility.yul\":10755:10757   */\n      dup6\n        /* \"#utility.yul\":10751:10762   */\n      add\n        /* \"#utility.yul\":10747:10767   */\n      add\n        /* \"#utility.yul\":10744:10777   */\n      gt\n        /* \"#utility.yul\":10741:10794   */\n      iszero\n      tag_683\n      jumpi\n        /* \"#utility.yul\":10790:10791   */\n      0x00\n        /* \"#utility.yul\":10787:10788   */\n      dup1\n        /* \"#utility.yul\":10780:10792   */\n      revert\n        /* \"#utility.yul\":10741:10794   */\n    tag_683:\n        /* \"#utility.yul\":10803:10857   */\n      tag_684\n        /* \"#utility.yul\":10854:10856   */\n      dup3\n        /* \"#utility.yul\":10849:10851   */\n      0x20\n        /* \"#utility.yul\":10842:10847   */\n      dup4\n        /* \"#utility.yul\":10838:10852   */\n      add\n        /* \"#utility.yul\":10833:10835   */\n      0x20\n        /* \"#utility.yul\":10829:10831   */\n      dup7\n        /* \"#utility.yul\":10825:10836   */\n      add\n        /* \"#utility.yul\":10803:10857   */\n      tag_589\n      jump\t// in\n    tag_684:\n        /* \"#utility.yul\":10876:10881   */\n      swap6\n        /* \"#utility.yul\":10251:10887   */\n      swap5\n      pop\n      pop\n      pop\n      pop\n      pop\n      jump\t// out\n        /* \"#utility.yul\":10892:11028   */\n    tag_266:\n        /* \"#utility.yul\":10931:10934   */\n      0x00\n        /* \"#utility.yul\":10959:10964   */\n      dup2\n        /* \"#utility.yul\":10949:10988   */\n      tag_687\n      jumpi\n        /* \"#utility.yul\":10968:10986   */\n      tag_687\n      tag_595\n      jump\t// in\n    tag_687:\n      pop\n      not(0x00)\n        /* \"#utility.yul\":11004:11022   */\n      add\n      swap1\n        /* \"#utility.yul\":10892:11028   */\n      jump\t// out\n        /* \"#utility.yul\":11033:11161   */\n    tag_280:\n        /* \"#utility.yul\":11073:11076   */\n      0x00\n        /* \"#utility.yul\":11104:11105   */\n      dup3\n        /* \"#utility.yul\":11100:11106   */\n      not\n        /* \"#utility.yul\":11097:11098   */\n      dup3\n        /* \"#utility.yul\":11094:11107   */\n      gt\n        /* \"#utility.yul\":11091:11130   */\n      iszero\n      tag_690\n      jumpi\n        /* \"#utility.yul\":11110:11128   */\n      tag_690\n      tag_595\n      jump\t// in\n    tag_690:\n      pop\n        /* \"#utility.yul\":11146:11155   */\n      add\n      swap1\n        /* \"#utility.yul\":11033:11161   */\n      jump\t// out\n        /* \"#utility.yul\":11166:11546   */\n    tag_282:\n        /* \"#utility.yul\":11245:11246   */\n      0x01\n        /* \"#utility.yul\":11241:11253   */\n      dup2\n      dup2\n      shr\n      swap1\n        /* \"#utility.yul\":11288:11300   */\n      dup3\n      and\n      dup1\n        /* \"#utility.yul\":11309:11370   */\n      tag_692\n      jumpi\n        /* \"#utility.yul\":11363:11367   */\n      0x7f\n        /* \"#utility.yul\":11355:11361   */\n      dup3\n        /* \"#utility.yul\":11351:11368   */\n      and\n        /* \"#utility.yul\":11341:11368   */\n      swap2\n      pop\n        /* \"#utility.yul\":11309:11370   */\n    tag_692:\n        /* \"#utility.yul\":11416:11418   */\n      0x20\n        /* \"#utility.yul\":11408:11414   */\n      dup3\n        /* \"#utility.yul\":11405:11419   */\n      lt\n        /* \"#utility.yul\":11385:11403   */\n      dup2\n        /* \"#utility.yul\":11382:11420   */\n      eq\n        /* \"#utility.yul\":11379:11540   */\n      iszero\n      tag_277\n      jumpi\n        /* \"#utility.yul\":11462:11472   */\n      0x4e487b71\n        /* \"#utility.yul\":11457:11460   */\n      0xe0\n        /* \"#utility.yul\":11453:11473   */\n      shl\n        /* \"#utility.yul\":11450:11451   */\n      0x00\n        /* \"#utility.yul\":11443:11474   */\n      mstore\n        /* \"#utility.yul\":11497:11501   */\n      0x22\n        /* \"#utility.yul\":11494:11495   */\n      0x04\n        /* \"#utility.yul\":11487:11502   */\n      mstore\n        /* \"#utility.yul\":11525:11529   */\n      0x24\n        /* \"#utility.yul\":11522:11523   */\n      0x00\n        /* \"#utility.yul\":11515:11530   */\n      revert\n        /* \"#utility.yul\":11551:11678   */\n    tag_294:\n        /* \"#utility.yul\":11612:11622   */\n      0x4e487b71\n        /* \"#utility.yul\":11607:11610   */\n      0xe0\n        /* \"#utility.yul\":11603:11623   */\n      shl\n        /* \"#utility.yul\":11600:11601   */\n      0x00\n        /* \"#utility.yul\":11593:11624   */\n      mstore\n        /* \"#utility.yul\":11643:11647   */\n      0x32\n        /* \"#utility.yul\":11640:11641   */\n      0x04\n        /* \"#utility.yul\":11633:11648   */\n      mstore\n        /* \"#utility.yul\":11667:11671   */\n      0x24\n        /* \"#utility.yul\":11664:11665   */\n      0x00\n        /* \"#utility.yul\":11657:11672   */\n      revert\n        /* \"#utility.yul\":12303:12580   */\n    tag_377:\n        /* \"#utility.yul\":12370:12376   */\n      0x00\n        /* \"#utility.yul\":12423:12425   */\n      0x20\n        /* \"#utility.yul\":12411:12420   */\n      dup3\n        /* \"#utility.yul\":12402:12409   */\n      dup5\n        /* \"#utility.yul\":12398:12421   */\n      sub\n        /* \"#utility.yul\":12394:12426   */\n      slt\n        /* \"#utility.yul\":12391:12443   */\n      iszero\n      tag_698\n      jumpi\n        /* \"#utility.yul\":12439:12440   */\n      0x00\n        /* \"#utility.yul\":12436:12437   */\n      dup1\n        /* \"#utility.yul\":12429:12441   */\n      revert\n        /* \"#utility.yul\":12391:12443   */\n    tag_698:\n        /* \"#utility.yul\":12471:12480   */\n      dup2\n        /* \"#utility.yul\":12465:12481   */\n      mload\n        /* \"#utility.yul\":12524:12529   */\n      dup1\n        /* \"#utility.yul\":12517:12530   */\n      iszero\n        /* \"#utility.yul\":12510:12531   */\n      iszero\n        /* \"#utility.yul\":12503:12508   */\n      dup2\n        /* \"#utility.yul\":12500:12532   */\n      eq\n        /* \"#utility.yul\":12490:12550   */\n      tag_602\n      jumpi\n        /* \"#utility.yul\":12546:12547   */\n      0x00\n        /* \"#utility.yul\":12543:12544   */\n      dup1\n        /* \"#utility.yul\":12536:12548   */\n      revert\n        /* \"#utility.yul\":12585:12710   */\n    tag_434:\n        /* \"#utility.yul\":12625:12629   */\n      0x00\n        /* \"#utility.yul\":12653:12654   */\n      dup3\n        /* \"#utility.yul\":12650:12651   */\n      dup3\n        /* \"#utility.yul\":12647:12655   */\n      lt\n        /* \"#utility.yul\":12644:12678   */\n      iszero\n      tag_702\n      jumpi\n        /* \"#utility.yul\":12658:12676   */\n      tag_702\n      tag_595\n      jump\t// in\n    tag_702:\n      pop\n        /* \"#utility.yul\":12695:12704   */\n      sub\n      swap1\n        /* \"#utility.yul\":12585:12710   */\n      jump\t// out\n        /* \"#utility.yul\":12715:12988   */\n    tag_494:\n        /* \"#utility.yul\":12783:12789   */\n      0x00\n        /* \"#utility.yul\":12836:12838   */\n      0x20\n        /* \"#utility.yul\":12824:12833   */\n      dup3\n        /* \"#utility.yul\":12815:12822   */\n      dup5\n        /* \"#utility.yul\":12811:12834   */\n      sub\n        /* \"#utility.yul\":12807:12839   */\n      slt\n        /* \"#utility.yul\":12804:12856   */\n      iszero\n      tag_704\n      jumpi\n        /* \"#utility.yul\":12852:12853   */\n      0x00\n        /* \"#utility.yul\":12849:12850   */\n      dup1\n        /* \"#utility.yul\":12842:12854   */\n      revert\n        /* \"#utility.yul\":12804:12856   */\n    tag_704:\n        /* \"#utility.yul\":12884:12893   */\n      dup2\n        /* \"#utility.yul\":12878:12894   */\n      mload\n        /* \"#utility.yul\":12934:12938   */\n      0xff\n        /* \"#utility.yul\":12927:12932   */\n      dup2\n        /* \"#utility.yul\":12923:12939   */\n      and\n        /* \"#utility.yul\":12916:12921   */\n      dup2\n        /* \"#utility.yul\":12913:12940   */\n      eq\n        /* \"#utility.yul\":12903:12958   */\n      tag_602\n      jumpi\n        /* \"#utility.yul\":12954:12955   */\n      0x00\n        /* \"#utility.yul\":12951:12952   */\n      dup1\n        /* \"#utility.yul\":12944:12956   */\n      revert\n\n    auxdata: 0xa26469706673582212203585482b58c77ff6c24c1aa01162ae3c5af99492179d6177fb2408225e7bf3ff64736f6c634300080c0033\n}\n",
				"bytecode": {
					"linkReferences": {},
					"object": "608060405260006009556000600a55600a6018553480156200002057600080fd5b5060405162003294380380620032948339810160408190526200004391620000b1565b60148054336001600160a01b031991821681179092556016805482166001600160a01b03948516179055601580548216909217909155601780549091169390911692909217909155601855620000f2565b80516001600160a01b0381168114620000ac57600080fd5b919050565b600080600060608486031215620000c757600080fd5b620000d28462000094565b925060208401519150620000e96040850162000094565b90509250925092565b61319280620001026000396000f3fe608060405234801561001057600080fd5b50600436106102bb5760003560e01c80637ce5874111610182578063b676b097116100e9578063e6983a1d116100a2578063f2fde38b1161007c578063f2fde38b14610726578063f7b2a7be14610739578063f7c618c114610742578063f9e41e9f1461075557600080fd5b8063e6983a1d146106d9578063ebf1ff44146106f9578063f0141d841461070c57600080fd5b8063b676b09714610666578063c5ee21d21461068e578063d379dadf146106a1578063e0b42754146106c1578063e1f817c6146106c9578063e2842d79146106d157600080fd5b80638d8f2adb1161013b5780638d8f2adb146105ef5780638da5cb5b146105f75780638ffc57521461060a578063a8a65a7814610613578063ab3c567414610626578063b07cbc9c1461064657600080fd5b80637ce587411461056d5780637dc0d1d01461058057806383d23d6c146105935780638ab85914146105b65780638aee8127146105c95780638bf0a38f146105dc57600080fd5b80633a5171511161022657806356823a3f116101df57806356823a3f146104cd5780635a058758146104fb5780635e7e17861461050e5780636ba13a821461052e57806376dcf720146105375780637adbf9731461055a57600080fd5b80633a517151146103fc578063426b53821461041c5780634f292ea9146104445780635414f2fc1461045657806354ed7da31461047957806355513d1f1461049957600080fd5b80631fdf35bd116102785780631fdf35bd14610358578063217987ad1461036157806328e08f79146103745780632a1c71161461039457806334679df9146103c7578063360b97b9146103e757600080fd5b806304d0ac48146102c05780630ecb93c0146102dc5780630f2a0919146102f157806312065fe014610332578063150704011461033a578063188d16441461034f575b600080fd5b6102c960095481565b6040519081526020015b60405180910390f35b6102ef6102ea366004612b0d565b610768565b005b61031a6102ff366004612b2f565b600e602052600090815260409020546001600160a01b031681565b6040516001600160a01b0390911681526020016102d3565b6102c9610824565b610342610896565b6040516102d39190612ba0565b6102c9600f5481565b6102c960135481565b6102ef61036f366004612b0d565b610908565b6102c9610382366004612b2f565b60116020526000908152604090205481565b6103b76103a2366004612b0d565b60076020526000908152604090205460ff1681565b60405190151581526020016102d3565b6103da6103d5366004612b2f565b6109f2565b6040516102d39190612c57565b6103ef610c84565b6040516102d39190612cb9565b6102c961040a366004612b2f565b60036020526000908152604090205481565b61042f61042a366004612b2f565b610d55565b6040516102d399989796959493929190612d06565b6016546001600160a01b0316316102c9565b6103b7610464366004612b0d565b600c6020526000908152604090205460ff1681565b61048c610487366004612b2f565b610eba565b6040516102d39190612d73565b61031a6104a7366004612dab565b60046020908152600092835260408084209091529082529020546001600160a01b031681565b6103b76104db366004612dcd565b600560209081526000928352604080842090915290825290205460ff1681565b60155461031a906001600160a01b031681565b6102c961051c366004612b2f565b60086020526000908152604090205481565b6102c9600b5481565b6103b7610545366004612b2f565b60026020526000908152604090205460ff1681565b6102ef610568366004612b0d565b610f9e565b6102ef61057b366004612b2f565b61102f565b60165461031a906001600160a01b031681565b6103b76105a1366004612b2f565b60106020526000908152604090205460ff1681565b6102ef6105c4366004612b0d565b6110bf565b6102ef6105d7366004612b0d565b61110b565b6103ef6105ea366004612b2f565b611157565b6102ef611252565b60145461031a906001600160a01b031681565b6102c9600a5481565b6102ef610621366004612b2f565b61136a565b6102c9610634366004612b2f565b60126020526000908152604090205481565b6102c9610654366004612b2f565b60066020526000908152604090205481565b6102c9610674366004612dab565b600060208181529281526040808220909352908152205481565b6102ef61069c366004612b0d565b611399565b6106b46106af366004612b2f565b6114b0565b6040516102d39190612df9565b6102ef61164d565b61048c611aab565b6103da611b57565b6102c96106e7366004612b0d565b600d6020526000908152604090205481565b6102ef610707366004612b2f565b611da9565b610714611e51565b60405160ff90911681526020016102d3565b6102ef610734366004612b0d565b611ebf565b6102c960185481565b60175461031a906001600160a01b031681565b6102ef610763366004612ed1565b611f2e565b6014546001600160a01b0316331461079b5760405162461bcd60e51b815260040161079290612fa2565b60405180910390fd5b6001600160a01b0381166000908152600c602052604090205460ff1661082157600f80549060006107cb83612fdb565b9091555050600f80546000908152600e6020908152604080832080546001600160a01b0319166001600160a01b0387169081179091558352600c8252808320805460ff191660011790559254600d909152919020555b50565b6017546040516370a0823160e01b81523060048201526000916001600160a01b0316906370a0823190602401602060405180830381865afa15801561086d573d6000803e3d6000fd5b505050506040513d601f19601f820116820180604052508101906108919190612ff6565b905090565b601754604080516395d89b4160e01b815290516060926001600160a01b0316916395d89b419160048083019260009291908290030181865afa1580156108e0573d6000803e3d6000fd5b505050506040513d6000823e601f3d908101601f19168201604052610891919081019061300f565b6014546001600160a01b031633146109325760405162461bcd60e51b815260040161079290612fa2565b6001600160a01b0381166000908152600c602052604090205460ff161561082157600f546001600160a01b0382166000908152600d602052604090205410156109bc57600f546000908152600e60208181526040808420546001600160a01b038681168652600d84528286205486529390925290922080546001600160a01b031916919092161790555b6001600160a01b0381166000908152600c60205260408120805460ff19169055600f8054916109ea83613086565b919050555050565b60008181526001602052604090206006015460609015610c7f5760008281526001602052604090206006015467ffffffffffffffff811115610a3657610a36612e0c565b604051908082528060200260200182016040528015610a6f57816020015b610a5c612a08565b815260200190600190039081610a545790505b50905060005b600083815260016020526040902060060154811015610c7d5760008381526020819052604081206001919081610aab858561309d565b81526020019081526020016000205481526020019081526020016000206040518061012001604052908160008201548152602001600182018054610aee906130b5565b80601f0160208091040260200160405190810160405280929190818152602001828054610b1a906130b5565b8015610b675780601f10610b3c57610100808354040283529160200191610b67565b820191906000526020600020905b815481529060010190602001808311610b4a57829003601f168201915b50505050508152602001600282018054610b80906130b5565b80601f0160208091040260200160405190810160405280929190818152602001828054610bac906130b5565b8015610bf95780601f10610bce57610100808354040283529160200191610bf9565b820191906000526020600020905b815481529060010190602001808311610bdc57829003601f168201915b505050918352505060038201546001600160a01b03908116602083015260048301546040830152600583015416606082015260068201546080820152600782015460a082015260089091015460c0909101528251839083908110610c5f57610c5f6130ea565b60200260200101819052508080610c7590612fdb565b915050610a75565b505b919050565b600f5460609015610d5257600f5467ffffffffffffffff811115610caa57610caa612e0c565b604051908082528060200260200182016040528015610cd3578160200160208202803683370190505b50905060005b600f54811015610d5057600e6000610cf283600161309d565b815260200190815260200160002060009054906101000a90046001600160a01b0316828281518110610d2657610d266130ea565b6001600160a01b039092166020928302919091019091015280610d4881612fdb565b915050610cd9565b505b90565b600160208190526000918252604090912080549181018054610d76906130b5565b80601f0160208091040260200160405190810160405280929190818152602001828054610da2906130b5565b8015610def5780601f10610dc457610100808354040283529160200191610def565b820191906000526020600020905b815481529060010190602001808311610dd257829003601f168201915b505050505090806002018054610e04906130b5565b80601f0160208091040260200160405190810160405280929190818152602001828054610e30906130b5565b8015610e7d5780601f10610e5257610100808354040283529160200191610e7d565b820191906000526020600020905b815481529060010190602001808311610e6057829003601f168201915b5050506003840154600485015460058601546006870154600788015460089098015496976001600160a01b03948516979396509190931693509089565b60008181526001602052604090206006015460609015610c7f5760008281526001602052604090206006015467ffffffffffffffff811115610efe57610efe612e0c565b604051908082528060200260200182016040528015610f27578160200160208202803683370190505b50905060005b600083815260016020526040902060060154811015610c7d57600083815260208190526040812090610f6083600161309d565b815260200190815260200160002054828281518110610f8157610f816130ea565b602090810291909101015280610f9681612fdb565b915050610f2d565b6014546001600160a01b03163314610fc85760405162461bcd60e51b815260040161079290612fa2565b6001600160a01b03811661100d5760405162461bcd60e51b815260206004820152600c60248201526b5a65726f206164647265737360a01b6044820152606401610792565b601680546001600160a01b0319166001600160a01b0392909216919091179055565b6014546001600160a01b031633146110595760405162461bcd60e51b815260040161079290612fa2565b60008181526010602052604090205460ff16610821576013805490600061107f83612fdb565b909155505060138054600090815260126020908152604080832085905584835260108252808320805460ff19166001179055925460119091529190205550565b6015546001600160a01b031633146110e95760405162461bcd60e51b815260040161079290612fa2565b601480546001600160a01b0319166001600160a01b0392909216919091179055565b6014546001600160a01b031633146111355760405162461bcd60e51b815260040161079290612fa2565b601780546001600160a01b0319166001600160a01b0392909216919091179055565b60008181526006602052604090205460609015610c7f5760008281526006602052604090205467ffffffffffffffff81111561119557611195612e0c565b6040519080825280602002602001820160405280156111be578160200160208202803683370190505b50905060005b600083815260066020526040902054811015610c7d576000838152600460205260408120906111f483600161309d565b815260200190815260200160002060009054906101000a90046001600160a01b0316828281518110611228576112286130ea565b6001600160a01b03909216602092830291909101909101528061124a81612fdb565b9150506111c4565b6014546001600160a01b0316331461127c5760405162461bcd60e51b815260040161079290612fa2565b6017546040516370a0823160e01b81523060048201526000916001600160a01b0316906370a0823190602401602060405180830381865afa1580156112c5573d6000803e3d6000fd5b505050506040513d601f19601f820116820180604052508101906112e99190612ff6565b905080156108215760175460405163a9059cbb60e01b8152336004820152602481018390526001600160a01b039091169063a9059cbb906044016020604051808303816000875af1158015611342573d6000803e3d6000fd5b505050506040513d601f19601f820116820180604052508101906113669190613100565b5050565b6014546001600160a01b031633146113945760405162461bcd60e51b815260040161079290612fa2565b601855565b6014546001600160a01b031633146113c35760405162461bcd60e51b815260040161079290612fa2565b6040516370a0823160e01b815230600482015281906000906001600160a01b038316906370a0823190602401602060405180830381865afa15801561140c573d6000803e3d6000fd5b505050506040513d601f19601f820116820180604052508101906114309190612ff6565b905080156114ab5760405163a9059cbb60e01b8152336004820152602481018290526001600160a01b0383169063a9059cbb906044016020604051808303816000875af1158015611485573d6000803e3d6000fd5b505050506040513d601f19601f820116820180604052508101906114a99190613100565b505b505050565b6114b8612a08565b60008281526001602081815260409283902083516101208101909452805484529182018054918401916114ea906130b5565b80601f0160208091040260200160405190810160405280929190818152602001828054611516906130b5565b80156115635780601f1061153857610100808354040283529160200191611563565b820191906000526020600020905b81548152906001019060200180831161154657829003601f168201915b5050505050815260200160028201805461157c906130b5565b80601f01602080910402602001604051908101604052809291908181526020018280546115a8906130b5565b80156115f55780601f106115ca576101008083540402835291602001916115f5565b820191906000526020600020905b8154815290600101906020018083116115d857829003601f168201915b505050918352505060038201546001600160a01b03908116602083015260048301546040830152600583015416606082015260068201546080820152600782015460a082015260089091015460c09091015292915050565b6014546001600160a01b031633146116775760405162461bcd60e51b815260040161079290612fa2565b6017546040516370a0823160e01b81523060048201526000916001600160a01b0316906370a0823190602401602060405180830381865afa1580156116c0573d6000803e3d6000fd5b505050506040513d601f19601f820116820180604052508101906116e49190612ff6565b905060006009541180156116f85750600081115b156108215760005b600b5481101561136657600060038161171a84600161309d565b81526020019081526020016000205490506000600160008381526020019081526020016000206040518061012001604052908160008201548152602001600182018054611766906130b5565b80601f0160208091040260200160405190810160405280929190818152602001828054611792906130b5565b80156117df5780601f106117b4576101008083540402835291602001916117df565b820191906000526020600020905b8154815290600101906020018083116117c257829003601f168201915b505050505081526020016002820180546117f8906130b5565b80601f0160208091040260200160405190810160405280929190818152602001828054611824906130b5565b80156118715780601f1061184657610100808354040283529160200191611871565b820191906000526020600020905b81548152906001019060200180831161185457829003601f168201915b505050918352505060038201546001600160a01b03908116602083015260048301546040830152600583015416606082015260068201546080820152600782015460a082015260089091015460c090910152610100810151909150158015906118df57508061010001518410155b15611a86576101008101516118f49085613122565b601754606083015161010084015160405163a9059cbb60e01b81526001600160a01b0392831660048201526024810191909152929650169063a9059cbb906044016020604051808303816000875af1158015611954573d6000803e3d6000fd5b505050506040513d601f19601f820116820180604052508101906119789190613100565b508061010001518160e001818151611990919061309d565b905250610100810151600980546000906119ab908490613122565b9091555050610100810151600a80546000906119c890849061309d565b9091555050600061010082018190528281526001602081815260409092208351815582840151805185949293611a0393908501920190612a66565b5060408201518051611a1f916002840191602090910190612a66565b5060608201516003820180546001600160a01b039283166001600160a01b0319918216179091556080840151600484015560a084015160058401805491909316911617905560c0820151600682015560e08201516007820155610100909101516008909101555b601854841015611a965750505050565b50508080611aa390612fdb565b915050611700565b60135460609015610d525760135467ffffffffffffffff811115611ad157611ad1612e0c565b604051908082528060200260200182016040528015611afa578160200160208202803683370190505b50905060005b601354811015610d505760126000611b1983600161309d565b815260200190815260200160002054828281518110611b3a57611b3a6130ea565b602090810291909101015280611b4f81612fdb565b915050611b00565b600b5460609015610d5257600b5467ffffffffffffffff811115611b7d57611b7d612e0c565b604051908082528060200260200182016040528015611bb657816020015b611ba3612a08565b815260200190600190039081611b9b5790505b50905060005b600b54811015610d505760016000600381611bd7858561309d565b81526020019081526020016000205481526020019081526020016000206040518061012001604052908160008201548152602001600182018054611c1a906130b5565b80601f0160208091040260200160405190810160405280929190818152602001828054611c46906130b5565b8015611c935780601f10611c6857610100808354040283529160200191611c93565b820191906000526020600020905b815481529060010190602001808311611c7657829003601f168201915b50505050508152602001600282018054611cac906130b5565b80601f0160208091040260200160405190810160405280929190818152602001828054611cd8906130b5565b8015611d255780601f10611cfa57610100808354040283529160200191611d25565b820191906000526020600020905b815481529060010190602001808311611d0857829003601f168201915b505050918352505060038201546001600160a01b03908116602083015260048301546040830152600583015416606082015260068201546080820152600782015460a082015260089091015460c0909101528251839083908110611d8b57611d8b6130ea565b60200260200101819052508080611da190612fdb565b915050611bbc565b6014546001600160a01b03163314611dd35760405162461bcd60e51b815260040161079290612fa2565b60008181526010602052604090205460ff1615610821576013546000828152601160205260409020541015611e2d576013546000908152601260208181526040808420548585526011835281852054855292909152909120555b6000818152601060205260408120805460ff1916905560138054916109ea83613086565b6017546040805163313ce56760e01b815290516000926001600160a01b03169163313ce5679160048083019260209291908290030181865afa158015611e9b573d6000803e3d6000fd5b505050506040513d601f19601f820116820180604052508101906108919190613139565b6014546001600160a01b03163314611ee95760405162461bcd60e51b815260040161079290612fa2565b6001600160a01b0381166110e95760405162461bcd60e51b815260206004820152600c60248201526b5a65726f206164647265737360a01b6044820152606401610792565b6014546001600160a01b0316331480611f5157506016546001600160a01b031633145b611f945760405162461bcd60e51b81526020600482015260146024820152734f6e6c79206f776e6572206f72206f7261636c6560601b6044820152606401610792565b60008781526002602052604090205460ff1615611ff35760405162461bcd60e51b815260206004820152601760248201527f5573657220616c726561647920726567697374657265640000000000000000006044820152606401610792565b838714156120435760405162461bcd60e51b815260206004820152601860248201527f53656c662072656665726572206e6f7420616c6c6f77656400000000000000006044820152606401610792565b6001600160a01b0381166000908152600c602052604090205460ff16156120ac5760405162461bcd60e51b815260206004820152601760248201527f526566657272657220616464726573732062616e6e65640000000000000000006044820152606401610792565b60008481526010602052604090205460ff16156121005760405162461bcd60e51b8152602060048201526012602482015271149959995c9c995c8812510818985b9b995960721b6044820152606401610792565b6017546040516370a0823160e01b81523060048201526000916001600160a01b0316906370a0823190602401602060405180830381865afa158015612149573d6000803e3d6000fd5b505050506040513d601f19601f8201168201806040525081019061216d9190612ff6565b9050600061217d868686866124b2565b600b8054919250600061218f83612fdb565b90915550506000898152600260209081526040808320805460ff19166001908117909155600b548452600383528184208d90558151610120810183528d81528084018d81528184018d905260608201869052608082018c90526001600160a01b03891660a083015260c0820186905260e0820186905261010082018690528e865282855292909420845181559151805192936122319392850192910190612a66565b506040820151805161224d916002840191602090910190612a66565b5060608201516003820180546001600160a01b039283166001600160a01b0319918216179091556080840151600484015560a084015160058401805491909316911617905560c080830151600683015560e083015160078301556101009092015160089091015581018051906122c282612fdb565b90525060008681526020818152604080832060c085015184529091529020899055601854821061239e5760175460185460405163a9059cbb60e01b81526001600160a01b038681166004830152602482019290925291169063a9059cbb906044016020604051808303816000875af1158015612342573d6000803e3d6000fd5b505050506040513d601f19601f820116820180604052508101906123669190613100565b506018548160e00181815161237b919061309d565b905250601854600a805460009061239390849061309d565b909155506123f79050565b60185481610100018181516123b3919061309d565b905250601854600087815260086020526040812080549091906123d790849061309d565b9091555050601854600980546000906123f190849061309d565b90915550505b6000868152600160208181526040909220835181558284015180518594929361242593908501920190612a66565b5060408201518051612441916002840191602090910190612a66565b5060608201516003820180546001600160a01b039283166001600160a01b0319918216179091556080840151600484015560a084015160058401805491909316911617905560c0820151600682015560e0820151600782015561010090910151600890910155505050505050505050565b6124ba612a08565b60008581526002602052604090205460ff1661288f576001600160a01b03821660009081526007602052604090205460ff16156125395760405162461bcd60e51b815260206004820152601f60248201527f54686973206164647265737320616c72656164792072656769737465726564006044820152606401610792565b600b805490600061254983612fdb565b90915550506000858152600260209081526040808320805460ff19166001908117909155600b548452600383528184208990558151610120810183528981528084018981528184018990526001600160a01b03881660608301526080820186905260a0820186905260c0820186905260e0820186905261010082018690528a865282855292909420845181559151805192936125eb9392850192910190612a66565b5060408201518051612607916002840191602090910190612a66565b5060608201516003820180546001600160a01b039283166001600160a01b0319918216179091556080840151600484015560a084015160058401805491909316911617905560c082015160068083019190915560e083015160078301556101009092015160089091015560008681526020919091526040812080549161268c83612fdb565b9091555050600085815260046020908152604080832060068352818420548452825280832080546001600160a01b0319166001600160a01b038716908117909155888452600583528184209084528252808320805460ff19908116600190811790925560078452828520805490911682179055888452808352928190208151610120810190925280548252928301805491939284019161272b906130b5565b80601f0160208091040260200160405190810160405280929190818152602001828054612757906130b5565b80156127a45780601f10612779576101008083540402835291602001916127a4565b820191906000526020600020905b81548152906001019060200180831161278757829003601f168201915b505050505081526020016002820180546127bd906130b5565b80601f01602080910402602001604051908101604052809291908181526020018280546127e9906130b5565b80156128365780601f1061280b57610100808354040283529160200191612836565b820191906000526020600020905b81548152906001019060200180831161281957829003601f168201915b505050918352505060038201546001600160a01b03908116602083015260048301546040830152600583015416606082015260068201546080820152600782015460a082015260089091015460c0909101529050612a00565b60008581526005602090815260408083206001600160a01b038616845290915290205460ff166129b1576001600160a01b03821660009081526007602052604090205460ff16156129225760405162461bcd60e51b815260206004820152601f60248201527f54686973206164647265737320616c72656164792072656769737465726564006044820152606401610792565b600085815260066020526040812080549161293c83612fdb565b9091555050600085815260046020908152604080832060068352818420548452825280832080546001600160a01b0319166001600160a01b038716908117909155888452600583528184209084528252808320805460ff19908116600190811790925560079093529220805490911690911790555b6000858152600160208181526040928390206003810180546001600160a01b0319166001600160a01b038816179055835161012081019094528054845291820180549184019161272b906130b5565b949350505050565b60405180610120016040528060008152602001606081526020016060815260200160006001600160a01b031681526020016000815260200160006001600160a01b031681526020016000815260200160008152602001600081525090565b828054612a72906130b5565b90600052602060002090601f016020900481019282612a945760008555612ada565b82601f10612aad57805160ff1916838001178555612ada565b82800160010185558215612ada579182015b82811115612ada578251825591602001919060010190612abf565b50610d509291505b80821115610d505760008155600101612ae2565b80356001600160a01b0381168114610c7f57600080fd5b600060208284031215612b1f57600080fd5b612b2882612af6565b9392505050565b600060208284031215612b4157600080fd5b5035919050565b60005b83811015612b63578181015183820152602001612b4b565b838111156114a95750506000910152565b60008151808452612b8c816020860160208601612b48565b601f01601f19169290920160200192915050565b602081526000612b286020830184612b74565b6000610120825184526020830151816020860152612bd382860182612b74565b91505060408301518482036040860152612bed8282612b74565b9150506060830151612c0a60608601826001600160a01b03169052565b506080830151608085015260a0830151612c2f60a08601826001600160a01b03169052565b5060c0838101519085015260e080840151908501526101009283015192909301919091525090565b6000602080830181845280855180835260408601915060408160051b870101925083870160005b82811015612cac57603f19888603018452612c9a858351612bb3565b94509285019290850190600101612c7e565b5092979650505050505050565b6020808252825182820181905260009190848201906040850190845b81811015612cfa5783516001600160a01b031683529284019291840191600101612cd5565b50909695505050505050565b60006101208b8352806020840152612d208184018c612b74565b90508281036040840152612d34818b612b74565b6001600160a01b03998a166060850152608084019890985250509390951660a084015260c083019190915260e082015261010001919091529392505050565b6020808252825182820181905260009190848201906040850190845b81811015612cfa57835183529284019291840191600101612d8f565b60008060408385031215612dbe57600080fd5b50508035926020909101359150565b60008060408385031215612de057600080fd5b82359150612df060208401612af6565b90509250929050565b602081526000612b286020830184612bb3565b634e487b7160e01b600052604160045260246000fd5b604051601f8201601f1916810167ffffffffffffffff81118282101715612e4b57612e4b612e0c565b604052919050565b600067ffffffffffffffff821115612e6d57612e6d612e0c565b50601f01601f191660200190565b600082601f830112612e8c57600080fd5b8135612e9f612e9a82612e53565b612e22565b818152846020838601011115612eb457600080fd5b816020850160208301376000918101602001919091529392505050565b600080600080600080600060e0888a031215612eec57600080fd5b87359650602088013567ffffffffffffffff80821115612f0b57600080fd5b612f178b838c01612e7b565b975060408a0135915080821115612f2d57600080fd5b612f398b838c01612e7b565b965060608a0135955060808a0135915080821115612f5657600080fd5b612f628b838c01612e7b565b945060a08a0135915080821115612f7857600080fd5b50612f858a828b01612e7b565b925050612f9460c08901612af6565b905092959891949750929550565b6020808252600990820152682737ba1037bbb732b960b91b604082015260600190565b634e487b7160e01b600052601160045260246000fd5b6000600019821415612fef57612fef612fc5565b5060010190565b60006020828403121561300857600080fd5b5051919050565b60006020828403121561302157600080fd5b815167ffffffffffffffff81111561303857600080fd5b8201601f8101841361304957600080fd5b8051613057612e9a82612e53565b81815285602083850101111561306c57600080fd5b61307d826020830160208601612b48565b95945050505050565b60008161309557613095612fc5565b506000190190565b600082198211156130b0576130b0612fc5565b500190565b600181811c908216806130c957607f821691505b60208210811415610c7d57634e487b7160e01b600052602260045260246000fd5b634e487b7160e01b600052603260045260246000fd5b60006020828403121561311257600080fd5b81518015158114612b2857600080fd5b60008282101561313457613134612fc5565b500390565b60006020828403121561314b57600080fd5b815160ff81168114612b2857600080fdfea26469706673582212203585482b58c77ff6c24c1aa01162ae3c5af99492179d6177fb2408225e7bf3ff64736f6c634300080c0033",
					"opcodes": "PUSH1 0x80 PUSH1 0x40 MSTORE PUSH1 0x0 PUSH1 0x9 SSTORE PUSH1 0x0 PUSH1 0xA SSTORE PUSH1 0xA PUSH1 0x18 SSTORE CALLVALUE DUP1 ISZERO PUSH3 0x20 JUMPI PUSH1 0x0 DUP1 REVERT JUMPDEST POP PUSH1 0x40 MLOAD PUSH3 0x3294 CODESIZE SUB DUP1 PUSH3 0x3294 DUP4 CODECOPY DUP2 ADD PUSH1 0x40 DUP2 SWAP1 MSTORE PUSH3 0x43 SWAP2 PUSH3 0xB1 JUMP JUMPDEST PUSH1 0x14 DUP1 SLOAD CALLER PUSH1 0x1 PUSH1 0x1 PUSH1 0xA0 SHL SUB NOT SWAP2 DUP3 AND DUP2 OR SWAP1 SWAP3 SSTORE PUSH1 0x16 DUP1 SLOAD DUP3 AND PUSH1 0x1 PUSH1 0x1 PUSH1 0xA0 SHL SUB SWAP5 DUP6 AND OR SWAP1 SSTORE PUSH1 0x15 DUP1 SLOAD DUP3 AND SWAP1 SWAP3 OR SWAP1 SWAP2 SSTORE PUSH1 0x17 DUP1 SLOAD SWAP1 SWAP2 AND SWAP4 SWAP1 SWAP2 AND SWAP3 SWAP1 SWAP3 OR SWAP1 SWAP2 SSTORE PUSH1 0x18 SSTORE PUSH3 0xF2 JUMP JUMPDEST DUP1 MLOAD PUSH1 0x1 PUSH1 0x1 PUSH1 0xA0 SHL SUB DUP2 AND DUP2 EQ PUSH3 0xAC JUMPI PUSH1 0x0 DUP1 REVERT JUMPDEST SWAP2 SWAP1 POP JUMP JUMPDEST PUSH1 0x0 DUP1 PUSH1 0x0 PUSH1 0x60 DUP5 DUP7 SUB SLT ISZERO PUSH3 0xC7 JUMPI PUSH1 0x0 DUP1 REVERT JUMPDEST PUSH3 0xD2 DUP5 PUSH3 0x94 JUMP JUMPDEST SWAP3 POP PUSH1 0x20 DUP5 ADD MLOAD SWAP2 POP PUSH3 0xE9 PUSH1 0x40 DUP6 ADD PUSH3 0x94 JUMP JUMPDEST SWAP1 POP SWAP3 POP SWAP3 POP SWAP3 JUMP JUMPDEST PUSH2 0x3192 DUP1 PUSH3 0x102 PUSH1 0x0 CODECOPY PUSH1 0x0 RETURN INVALID PUSH1 0x80 PUSH1 0x40 MSTORE CALLVALUE DUP1 ISZERO PUSH2 0x10 JUMPI PUSH1 0x0 DUP1 REVERT JUMPDEST POP PUSH1 0x4 CALLDATASIZE LT PUSH2 0x2BB JUMPI PUSH1 0x0 CALLDATALOAD PUSH1 0xE0 SHR DUP1 PUSH4 0x7CE58741 GT PUSH2 0x182 JUMPI DUP1 PUSH4 0xB676B097 GT PUSH2 0xE9 JUMPI DUP1 PUSH4 0xE6983A1D GT PUSH2 0xA2 JUMPI DUP1 PUSH4 0xF2FDE38B GT PUSH2 0x7C JUMPI DUP1 PUSH4 0xF2FDE38B EQ PUSH2 0x726 JUMPI DUP1 PUSH4 0xF7B2A7BE EQ PUSH2 0x739 JUMPI DUP1 PUSH4 0xF7C618C1 EQ PUSH2 0x742 JUMPI DUP1 PUSH4 0xF9E41E9F EQ PUSH2 0x755 JUMPI PUSH1 0x0 DUP1 REVERT JUMPDEST DUP1 PUSH4 0xE6983A1D EQ PUSH2 0x6D9 JUMPI DUP1 PUSH4 0xEBF1FF44 EQ PUSH2 0x6F9 JUMPI DUP1 PUSH4 0xF0141D84 EQ PUSH2 0x70C JUMPI PUSH1 0x0 DUP1 REVERT JUMPDEST DUP1 PUSH4 0xB676B097 EQ PUSH2 0x666 JUMPI DUP1 PUSH4 0xC5EE21D2 EQ PUSH2 0x68E JUMPI DUP1 PUSH4 0xD379DADF EQ PUSH2 0x6A1 JUMPI DUP1 PUSH4 0xE0B42754 EQ PUSH2 0x6C1 JUMPI DUP1 PUSH4 0xE1F817C6 EQ PUSH2 0x6C9 JUMPI DUP1 PUSH4 0xE2842D79 EQ PUSH2 0x6D1 JUMPI PUSH1 0x0 DUP1 REVERT JUMPDEST DUP1 PUSH4 0x8D8F2ADB GT PUSH2 0x13B JUMPI DUP1 PUSH4 0x8D8F2ADB EQ PUSH2 0x5EF JUMPI DUP1 PUSH4 0x8DA5CB5B EQ PUSH2 0x5F7 JUMPI DUP1 PUSH4 0x8FFC5752 EQ PUSH2 0x60A JUMPI DUP1 PUSH4 0xA8A65A78 EQ PUSH2 0x613 JUMPI DUP1 PUSH4 0xAB3C5674 EQ PUSH2 0x626 JUMPI DUP1 PUSH4 0xB07CBC9C EQ PUSH2 0x646 JUMPI PUSH1 0x0 DUP1 REVERT JUMPDEST DUP1 PUSH4 0x7CE58741 EQ PUSH2 0x56D JUMPI DUP1 PUSH4 0x7DC0D1D0 EQ PUSH2 0x580 JUMPI DUP1 PUSH4 0x83D23D6C EQ PUSH2 0x593 JUMPI DUP1 PUSH4 0x8AB85914 EQ PUSH2 0x5B6 JUMPI DUP1 PUSH4 0x8AEE8127 EQ PUSH2 0x5C9 JUMPI DUP1 PUSH4 0x8BF0A38F EQ PUSH2 0x5DC JUMPI PUSH1 0x0 DUP1 REVERT JUMPDEST DUP1 PUSH4 0x3A517151 GT PUSH2 0x226 JUMPI DUP1 PUSH4 0x56823A3F GT PUSH2 0x1DF JUMPI DUP1 PUSH4 0x56823A3F EQ PUSH2 0x4CD JUMPI DUP1 PUSH4 0x5A058758 EQ PUSH2 0x4FB JUMPI DUP1 PUSH4 0x5E7E1786 EQ PUSH2 0x50E JUMPI DUP1 PUSH4 0x6BA13A82 EQ PUSH2 0x52E JUMPI DUP1 PUSH4 0x76DCF720 EQ PUSH2 0x537 JUMPI DUP1 PUSH4 0x7ADBF973 EQ PUSH2 0x55A JUMPI PUSH1 0x0 DUP1 REVERT JUMPDEST DUP1 PUSH4 0x3A517151 EQ PUSH2 0x3FC JUMPI DUP1 PUSH4 0x426B5382 EQ PUSH2 0x41C JUMPI DUP1 PUSH4 0x4F292EA9 EQ PUSH2 0x444 JUMPI DUP1 PUSH4 0x5414F2FC EQ PUSH2 0x456 JUMPI DUP1 PUSH4 0x54ED7DA3 EQ PUSH2 0x479 JUMPI DUP1 PUSH4 0x55513D1F EQ PUSH2 0x499 JUMPI PUSH1 0x0 DUP1 REVERT JUMPDEST DUP1 PUSH4 0x1FDF35BD GT PUSH2 0x278 JUMPI DUP1 PUSH4 0x1FDF35BD EQ PUSH2 0x358 JUMPI DUP1 PUSH4 0x217987AD EQ PUSH2 0x361 JUMPI DUP1 PUSH4 0x28E08F79 EQ PUSH2 0x374 JUMPI DUP1 PUSH4 0x2A1C7116 EQ PUSH2 0x394 JUMPI DUP1 PUSH4 0x34679DF9 EQ PUSH2 0x3C7 JUMPI DUP1 PUSH4 0x360B97B9 EQ PUSH2 0x3E7 JUMPI PUSH1 0x0 DUP1 REVERT JUMPDEST DUP1 PUSH4 0x4D0AC48 EQ PUSH2 0x2C0 JUMPI DUP1 PUSH4 0xECB93C0 EQ PUSH2 0x2DC JUMPI DUP1 PUSH4 0xF2A0919 EQ PUSH2 0x2F1 JUMPI DUP1 PUSH4 0x12065FE0 EQ PUSH2 0x332 JUMPI DUP1 PUSH4 0x15070401 EQ PUSH2 0x33A JUMPI DUP1 PUSH4 0x188D1644 EQ PUSH2 0x34F JUMPI JUMPDEST PUSH1 0x0 DUP1 REVERT JUMPDEST PUSH2 0x2C9 PUSH1 0x9 SLOAD DUP2 JUMP JUMPDEST PUSH1 0x40 MLOAD SWAP1 DUP2 MSTORE PUSH1 0x20 ADD JUMPDEST PUSH1 0x40 MLOAD DUP1 SWAP2 SUB SWAP1 RETURN JUMPDEST PUSH2 0x2EF PUSH2 0x2EA CALLDATASIZE PUSH1 0x4 PUSH2 0x2B0D JUMP JUMPDEST PUSH2 0x768 JUMP JUMPDEST STOP JUMPDEST PUSH2 0x31A PUSH2 0x2FF CALLDATASIZE PUSH1 0x4 PUSH2 0x2B2F JUMP JUMPDEST PUSH1 0xE PUSH1 0x20 MSTORE PUSH1 0x0 SWAP1 DUP2 MSTORE PUSH1 0x40 SWAP1 KECCAK256 SLOAD PUSH1 0x1 PUSH1 0x1 PUSH1 0xA0 SHL SUB AND DUP2 JUMP JUMPDEST PUSH1 0x40 MLOAD PUSH1 0x1 PUSH1 0x1 PUSH1 0xA0 SHL SUB SWAP1 SWAP2 AND DUP2 MSTORE PUSH1 0x20 ADD PUSH2 0x2D3 JUMP JUMPDEST PUSH2 0x2C9 PUSH2 0x824 JUMP JUMPDEST PUSH2 0x342 PUSH2 0x896 JUMP JUMPDEST PUSH1 0x40 MLOAD PUSH2 0x2D3 SWAP2 SWAP1 PUSH2 0x2BA0 JUMP JUMPDEST PUSH2 0x2C9 PUSH1 0xF SLOAD DUP2 JUMP JUMPDEST PUSH2 0x2C9 PUSH1 0x13 SLOAD DUP2 JUMP JUMPDEST PUSH2 0x2EF PUSH2 0x36F CALLDATASIZE PUSH1 0x4 PUSH2 0x2B0D JUMP JUMPDEST PUSH2 0x908 JUMP JUMPDEST PUSH2 0x2C9 PUSH2 0x382 CALLDATASIZE PUSH1 0x4 PUSH2 0x2B2F JUMP JUMPDEST PUSH1 0x11 PUSH1 0x20 MSTORE PUSH1 0x0 SWAP1 DUP2 MSTORE PUSH1 0x40 SWAP1 KECCAK256 SLOAD DUP2 JUMP JUMPDEST PUSH2 0x3B7 PUSH2 0x3A2 CALLDATASIZE PUSH1 0x4 PUSH2 0x2B0D JUMP JUMPDEST PUSH1 0x7 PUSH1 0x20 MSTORE PUSH1 0x0 SWAP1 DUP2 MSTORE PUSH1 0x40 SWAP1 KECCAK256 SLOAD PUSH1 0xFF AND DUP2 JUMP JUMPDEST PUSH1 0x40 MLOAD SWAP1 ISZERO ISZERO DUP2 MSTORE PUSH1 0x20 ADD PUSH2 0x2D3 JUMP JUMPDEST PUSH2 0x3DA PUSH2 0x3D5 CALLDATASIZE PUSH1 0x4 PUSH2 0x2B2F JUMP JUMPDEST PUSH2 0x9F2 JUMP JUMPDEST PUSH1 0x40 MLOAD PUSH2 0x2D3 SWAP2 SWAP1 PUSH2 0x2C57 JUMP JUMPDEST PUSH2 0x3EF PUSH2 0xC84 JUMP JUMPDEST PUSH1 0x40 MLOAD PUSH2 0x2D3 SWAP2 SWAP1 PUSH2 0x2CB9 JUMP JUMPDEST PUSH2 0x2C9 PUSH2 0x40A CALLDATASIZE PUSH1 0x4 PUSH2 0x2B2F JUMP JUMPDEST PUSH1 0x3 PUSH1 0x20 MSTORE PUSH1 0x0 SWAP1 DUP2 MSTORE PUSH1 0x40 SWAP1 KECCAK256 SLOAD DUP2 JUMP JUMPDEST PUSH2 0x42F PUSH2 0x42A CALLDATASIZE PUSH1 0x4 PUSH2 0x2B2F JUMP JUMPDEST PUSH2 0xD55 JUMP JUMPDEST PUSH1 0x40 MLOAD PUSH2 0x2D3 SWAP10 SWAP9 SWAP8 SWAP7 SWAP6 SWAP5 SWAP4 SWAP3 SWAP2 SWAP1 PUSH2 0x2D06 JUMP JUMPDEST PUSH1 0x16 SLOAD PUSH1 0x1 PUSH1 0x1 PUSH1 0xA0 SHL SUB AND BALANCE PUSH2 0x2C9 JUMP JUMPDEST PUSH2 0x3B7 PUSH2 0x464 CALLDATASIZE PUSH1 0x4 PUSH2 0x2B0D JUMP JUMPDEST PUSH1 0xC PUSH1 0x20 MSTORE PUSH1 0x0 SWAP1 DUP2 MSTORE PUSH1 0x40 SWAP1 KECCAK256 SLOAD PUSH1 0xFF AND DUP2 JUMP JUMPDEST PUSH2 0x48C PUSH2 0x487 CALLDATASIZE PUSH1 0x4 PUSH2 0x2B2F JUMP JUMPDEST PUSH2 0xEBA JUMP JUMPDEST PUSH1 0x40 MLOAD PUSH2 0x2D3 SWAP2 SWAP1 PUSH2 0x2D73 JUMP JUMPDEST PUSH2 0x31A PUSH2 0x4A7 CALLDATASIZE PUSH1 0x4 PUSH2 0x2DAB JUMP JUMPDEST PUSH1 0x4 PUSH1 0x20 SWAP1 DUP2 MSTORE PUSH1 0x0 SWAP3 DUP4 MSTORE PUSH1 0x40 DUP1 DUP5 KECCAK256 SWAP1 SWAP2 MSTORE SWAP1 DUP3 MSTORE SWAP1 KECCAK256 SLOAD PUSH1 0x1 PUSH1 0x1 PUSH1 0xA0 SHL SUB AND DUP2 JUMP JUMPDEST PUSH2 0x3B7 PUSH2 0x4DB CALLDATASIZE PUSH1 0x4 PUSH2 0x2DCD JUMP JUMPDEST PUSH1 0x5 PUSH1 0x20 SWAP1 DUP2 MSTORE PUSH1 0x0 SWAP3 DUP4 MSTORE PUSH1 0x40 DUP1 DUP5 KECCAK256 SWAP1 SWAP2 MSTORE SWAP1 DUP3 MSTORE SWAP1 KECCAK256 SLOAD PUSH1 0xFF AND DUP2 JUMP JUMPDEST PUSH1 0x15 SLOAD PUSH2 0x31A SWAP1 PUSH1 0x1 PUSH1 0x1 PUSH1 0xA0 SHL SUB AND DUP2 JUMP JUMPDEST PUSH2 0x2C9 PUSH2 0x51C CALLDATASIZE PUSH1 0x4 PUSH2 0x2B2F JUMP JUMPDEST PUSH1 0x8 PUSH1 0x20 MSTORE PUSH1 0x0 SWAP1 DUP2 MSTORE PUSH1 0x40 SWAP1 KECCAK256 SLOAD DUP2 JUMP JUMPDEST PUSH2 0x2C9 PUSH1 0xB SLOAD DUP2 JUMP JUMPDEST PUSH2 0x3B7 PUSH2 0x545 CALLDATASIZE PUSH1 0x4 PUSH2 0x2B2F JUMP JUMPDEST PUSH1 0x2 PUSH1 0x20 MSTORE PUSH1 0x0 SWAP1 DUP2 MSTORE PUSH1 0x40 SWAP1 KECCAK256 SLOAD PUSH1 0xFF AND DUP2 JUMP JUMPDEST PUSH2 0x2EF PUSH2 0x568 CALLDATASIZE PUSH1 0x4 PUSH2 0x2B0D JUMP JUMPDEST PUSH2 0xF9E JUMP JUMPDEST PUSH2 0x2EF PUSH2 0x57B CALLDATASIZE PUSH1 0x4 PUSH2 0x2B2F JUMP JUMPDEST PUSH2 0x102F JUMP JUMPDEST PUSH1 0x16 SLOAD PUSH2 0x31A SWAP1 PUSH1 0x1 PUSH1 0x1 PUSH1 0xA0 SHL SUB AND DUP2 JUMP JUMPDEST PUSH2 0x3B7 PUSH2 0x5A1 CALLDATASIZE PUSH1 0x4 PUSH2 0x2B2F JUMP JUMPDEST PUSH1 0x10 PUSH1 0x20 MSTORE PUSH1 0x0 SWAP1 DUP2 MSTORE PUSH1 0x40 SWAP1 KECCAK256 SLOAD PUSH1 0xFF AND DUP2 JUMP JUMPDEST PUSH2 0x2EF PUSH2 0x5C4 CALLDATASIZE PUSH1 0x4 PUSH2 0x2B0D JUMP JUMPDEST PUSH2 0x10BF JUMP JUMPDEST PUSH2 0x2EF PUSH2 0x5D7 CALLDATASIZE PUSH1 0x4 PUSH2 0x2B0D JUMP JUMPDEST PUSH2 0x110B JUMP JUMPDEST PUSH2 0x3EF PUSH2 0x5EA CALLDATASIZE PUSH1 0x4 PUSH2 0x2B2F JUMP JUMPDEST PUSH2 0x1157 JUMP JUMPDEST PUSH2 0x2EF PUSH2 0x1252 JUMP JUMPDEST PUSH1 0x14 SLOAD PUSH2 0x31A SWAP1 PUSH1 0x1 PUSH1 0x1 PUSH1 0xA0 SHL SUB AND DUP2 JUMP JUMPDEST PUSH2 0x2C9 PUSH1 0xA SLOAD DUP2 JUMP JUMPDEST PUSH2 0x2EF PUSH2 0x621 CALLDATASIZE PUSH1 0x4 PUSH2 0x2B2F JUMP JUMPDEST PUSH2 0x136A JUMP JUMPDEST PUSH2 0x2C9 PUSH2 0x634 CALLDATASIZE PUSH1 0x4 PUSH2 0x2B2F JUMP JUMPDEST PUSH1 0x12 PUSH1 0x20 MSTORE PUSH1 0x0 SWAP1 DUP2 MSTORE PUSH1 0x40 SWAP1 KECCAK256 SLOAD DUP2 JUMP JUMPDEST PUSH2 0x2C9 PUSH2 0x654 CALLDATASIZE PUSH1 0x4 PUSH2 0x2B2F JUMP JUMPDEST PUSH1 0x6 PUSH1 0x20 MSTORE PUSH1 0x0 SWAP1 DUP2 MSTORE PUSH1 0x40 SWAP1 KECCAK256 SLOAD DUP2 JUMP JUMPDEST PUSH2 0x2C9 PUSH2 0x674 CALLDATASIZE PUSH1 0x4 PUSH2 0x2DAB JUMP JUMPDEST PUSH1 0x0 PUSH1 0x20 DUP2 DUP2 MSTORE SWAP3 DUP2 MSTORE PUSH1 0x40 DUP1 DUP3 KECCAK256 SWAP1 SWAP4 MSTORE SWAP1 DUP2 MSTORE KECCAK256 SLOAD DUP2 JUMP JUMPDEST PUSH2 0x2EF PUSH2 0x69C CALLDATASIZE PUSH1 0x4 PUSH2 0x2B0D JUMP JUMPDEST PUSH2 0x1399 JUMP JUMPDEST PUSH2 0x6B4 PUSH2 0x6AF CALLDATASIZE PUSH1 0x4 PUSH2 0x2B2F JUMP JUMPDEST PUSH2 0x14B0 JUMP JUMPDEST PUSH1 0x40 MLOAD PUSH2 0x2D3 SWAP2 SWAP1 PUSH2 0x2DF9 JUMP JUMPDEST PUSH2 0x2EF PUSH2 0x164D JUMP JUMPDEST PUSH2 0x48C PUSH2 0x1AAB JUMP JUMPDEST PUSH2 0x3DA PUSH2 0x1B57 JUMP JUMPDEST PUSH2 0x2C9 PUSH2 0x6E7 CALLDATASIZE PUSH1 0x4 PUSH2 0x2B0D JUMP JUMPDEST PUSH1 0xD PUSH1 0x20 MSTORE PUSH1 0x0 SWAP1 DUP2 MSTORE PUSH1 0x40 SWAP1 KECCAK256 SLOAD DUP2 JUMP JUMPDEST PUSH2 0x2EF PUSH2 0x707 CALLDATASIZE PUSH1 0x4 PUSH2 0x2B2F JUMP JUMPDEST PUSH2 0x1DA9 JUMP JUMPDEST PUSH2 0x714 PUSH2 0x1E51 JUMP JUMPDEST PUSH1 0x40 MLOAD PUSH1 0xFF SWAP1 SWAP2 AND DUP2 MSTORE PUSH1 0x20 ADD PUSH2 0x2D3 JUMP JUMPDEST PUSH2 0x2EF PUSH2 0x734 CALLDATASIZE PUSH1 0x4 PUSH2 0x2B0D JUMP JUMPDEST PUSH2 0x1EBF JUMP JUMPDEST PUSH2 0x2C9 PUSH1 0x18 SLOAD DUP2 JUMP JUMPDEST PUSH1 0x17 SLOAD PUSH2 0x31A SWAP1 PUSH1 0x1 PUSH1 0x1 PUSH1 0xA0 SHL SUB AND DUP2 JUMP JUMPDEST PUSH2 0x2EF PUSH2 0x763 CALLDATASIZE PUSH1 0x4 PUSH2 0x2ED1 JUMP JUMPDEST PUSH2 0x1F2E JUMP JUMPDEST PUSH1 0x14 SLOAD PUSH1 0x1 PUSH1 0x1 PUSH1 0xA0 SHL SUB AND CALLER EQ PUSH2 0x79B JUMPI PUSH1 0x40 MLOAD PUSH3 0x461BCD PUSH1 0xE5 SHL DUP2 MSTORE PUSH1 0x4 ADD PUSH2 0x792 SWAP1 PUSH2 0x2FA2 JUMP JUMPDEST PUSH1 0x40 MLOAD DUP1 SWAP2 SUB SWAP1 REVERT JUMPDEST PUSH1 0x1 PUSH1 0x1 PUSH1 0xA0 SHL SUB DUP2 AND PUSH1 0x0 SWAP1 DUP2 MSTORE PUSH1 0xC PUSH1 0x20 MSTORE PUSH1 0x40 SWAP1 KECCAK256 SLOAD PUSH1 0xFF AND PUSH2 0x821 JUMPI PUSH1 0xF DUP1 SLOAD SWAP1 PUSH1 0x0 PUSH2 0x7CB DUP4 PUSH2 0x2FDB JUMP JUMPDEST SWAP1 SWAP2 SSTORE POP POP PUSH1 0xF DUP1 SLOAD PUSH1 0x0 SWAP1 DUP2 MSTORE PUSH1 0xE PUSH1 0x20 SWAP1 DUP2 MSTORE PUSH1 0x40 DUP1 DUP4 KECCAK256 DUP1 SLOAD PUSH1 0x1 PUSH1 0x1 PUSH1 0xA0 SHL SUB NOT AND PUSH1 0x1 PUSH1 0x1 PUSH1 0xA0 SHL SUB DUP8 AND SWAP1 DUP2 OR SWAP1 SWAP2 SSTORE DUP4 MSTORE PUSH1 0xC DUP3 MSTORE DUP1 DUP4 KECCAK256 DUP1 SLOAD PUSH1 0xFF NOT AND PUSH1 0x1 OR SWAP1 SSTORE SWAP3 SLOAD PUSH1 0xD SWAP1 SWAP2 MSTORE SWAP2 SWAP1 KECCAK256 SSTORE JUMPDEST POP JUMP JUMPDEST PUSH1 0x17 SLOAD PUSH1 0x40 MLOAD PUSH4 0x70A08231 PUSH1 0xE0 SHL DUP2 MSTORE ADDRESS PUSH1 0x4 DUP3 ADD MSTORE PUSH1 0x0 SWAP2 PUSH1 0x1 PUSH1 0x1 PUSH1 0xA0 SHL SUB AND SWAP1 PUSH4 0x70A08231 SWAP1 PUSH1 0x24 ADD PUSH1 0x20 PUSH1 0x40 MLOAD DUP1 DUP4 SUB DUP2 DUP7 GAS STATICCALL ISZERO DUP1 ISZERO PUSH2 0x86D JUMPI RETURNDATASIZE PUSH1 0x0 DUP1 RETURNDATACOPY RETURNDATASIZE PUSH1 0x0 REVERT JUMPDEST POP POP POP POP PUSH1 0x40 MLOAD RETURNDATASIZE PUSH1 0x1F NOT PUSH1 0x1F DUP3 ADD AND DUP3 ADD DUP1 PUSH1 0x40 MSTORE POP DUP2 ADD SWAP1 PUSH2 0x891 SWAP2 SWAP1 PUSH2 0x2FF6 JUMP JUMPDEST SWAP1 POP SWAP1 JUMP JUMPDEST PUSH1 0x17 SLOAD PUSH1 0x40 DUP1 MLOAD PUSH4 0x95D89B41 PUSH1 0xE0 SHL DUP2 MSTORE SWAP1 MLOAD PUSH1 0x60 SWAP3 PUSH1 0x1 PUSH1 0x1 PUSH1 0xA0 SHL SUB AND SWAP2 PUSH4 0x95D89B41 SWAP2 PUSH1 0x4 DUP1 DUP4 ADD SWAP3 PUSH1 0x0 SWAP3 SWAP2 SWAP1 DUP3 SWAP1 SUB ADD DUP2 DUP7 GAS STATICCALL ISZERO DUP1 ISZERO PUSH2 0x8E0 JUMPI RETURNDATASIZE PUSH1 0x0 DUP1 RETURNDATACOPY RETURNDATASIZE PUSH1 0x0 REVERT JUMPDEST POP POP POP POP PUSH1 0x40 MLOAD RETURNDATASIZE PUSH1 0x0 DUP3 RETURNDATACOPY PUSH1 0x1F RETURNDATASIZE SWAP1 DUP2 ADD PUSH1 0x1F NOT AND DUP3 ADD PUSH1 0x40 MSTORE PUSH2 0x891 SWAP2 SWAP1 DUP2 ADD SWAP1 PUSH2 0x300F JUMP JUMPDEST PUSH1 0x14 SLOAD PUSH1 0x1 PUSH1 0x1 PUSH1 0xA0 SHL SUB AND CALLER EQ PUSH2 0x932 JUMPI PUSH1 0x40 MLOAD PUSH3 0x461BCD PUSH1 0xE5 SHL DUP2 MSTORE PUSH1 0x4 ADD PUSH2 0x792 SWAP1 PUSH2 0x2FA2 JUMP JUMPDEST PUSH1 0x1 PUSH1 0x1 PUSH1 0xA0 SHL SUB DUP2 AND PUSH1 0x0 SWAP1 DUP2 MSTORE PUSH1 0xC PUSH1 0x20 MSTORE PUSH1 0x40 SWAP1 KECCAK256 SLOAD PUSH1 0xFF AND ISZERO PUSH2 0x821 JUMPI PUSH1 0xF SLOAD PUSH1 0x1 PUSH1 0x1 PUSH1 0xA0 SHL SUB DUP3 AND PUSH1 0x0 SWAP1 DUP2 MSTORE PUSH1 0xD PUSH1 0x20 MSTORE PUSH1 0x40 SWAP1 KECCAK256 SLOAD LT ISZERO PUSH2 0x9BC JUMPI PUSH1 0xF SLOAD PUSH1 0x0 SWAP1 DUP2 MSTORE PUSH1 0xE PUSH1 0x20 DUP2 DUP2 MSTORE PUSH1 0x40 DUP1 DUP5 KECCAK256 SLOAD PUSH1 0x1 PUSH1 0x1 PUSH1 0xA0 SHL SUB DUP7 DUP2 AND DUP7 MSTORE PUSH1 0xD DUP5 MSTORE DUP3 DUP7 KECCAK256 SLOAD DUP7 MSTORE SWAP4 SWAP1 SWAP3 MSTORE SWAP1 SWAP3 KECCAK256 DUP1 SLOAD PUSH1 0x1 PUSH1 0x1 PUSH1 0xA0 SHL SUB NOT AND SWAP2 SWAP1 SWAP3 AND OR SWAP1 SSTORE JUMPDEST PUSH1 0x1 PUSH1 0x1 PUSH1 0xA0 SHL SUB DUP2 AND PUSH1 0x0 SWAP1 DUP2 MSTORE PUSH1 0xC PUSH1 0x20 MSTORE PUSH1 0x40 DUP2 KECCAK256 DUP1 SLOAD PUSH1 0xFF NOT AND SWAP1 SSTORE PUSH1 0xF DUP1 SLOAD SWAP2 PUSH2 0x9EA DUP4 PUSH2 0x3086 JUMP JUMPDEST SWAP2 SWAP1 POP SSTORE POP POP JUMP JUMPDEST PUSH1 0x0 DUP2 DUP2 MSTORE PUSH1 0x1 PUSH1 0x20 MSTORE PUSH1 0x40 SWAP1 KECCAK256 PUSH1 0x6 ADD SLOAD PUSH1 0x60 SWAP1 ISZERO PUSH2 0xC7F JUMPI PUSH1 0x0 DUP3 DUP2 MSTORE PUSH1 0x1 PUSH1 0x20 MSTORE PUSH1 0x40 SWAP1 KECCAK256 PUSH1 0x6 ADD SLOAD PUSH8 0xFFFFFFFFFFFFFFFF DUP2 GT ISZERO PUSH2 0xA36 JUMPI PUSH2 0xA36 PUSH2 0x2E0C JUMP JUMPDEST PUSH1 0x40 MLOAD SWAP1 DUP1 DUP3 MSTORE DUP1 PUSH1 0x20 MUL PUSH1 0x20 ADD DUP3 ADD PUSH1 0x40 MSTORE DUP1 ISZERO PUSH2 0xA6F JUMPI DUP2 PUSH1 0x20 ADD JUMPDEST PUSH2 0xA5C PUSH2 0x2A08 JUMP JUMPDEST DUP2 MSTORE PUSH1 0x20 ADD SWAP1 PUSH1 0x1 SWAP1 SUB SWAP1 DUP2 PUSH2 0xA54 JUMPI SWAP1 POP JUMPDEST POP SWAP1 POP PUSH1 0x0 JUMPDEST PUSH1 0x0 DUP4 DUP2 MSTORE PUSH1 0x1 PUSH1 0x20 MSTORE PUSH1 0x40 SWAP1 KECCAK256 PUSH1 0x6 ADD SLOAD DUP2 LT ISZERO PUSH2 0xC7D JUMPI PUSH1 0x0 DUP4 DUP2 MSTORE PUSH1 0x20 DUP2 SWAP1 MSTORE PUSH1 0x40 DUP2 KECCAK256 PUSH1 0x1 SWAP2 SWAP1 DUP2 PUSH2 0xAAB DUP6 DUP6 PUSH2 0x309D JUMP JUMPDEST DUP2 MSTORE PUSH1 0x20 ADD SWAP1 DUP2 MSTORE PUSH1 0x20 ADD PUSH1 0x0 KECCAK256 SLOAD DUP2 MSTORE PUSH1 0x20 ADD SWAP1 DUP2 MSTORE PUSH1 0x20 ADD PUSH1 0x0 KECCAK256 PUSH1 0x40 MLOAD DUP1 PUSH2 0x120 ADD PUSH1 0x40 MSTORE SWAP1 DUP2 PUSH1 0x0 DUP3 ADD SLOAD DUP2 MSTORE PUSH1 0x20 ADD PUSH1 0x1 DUP3 ADD DUP1 SLOAD PUSH2 0xAEE SWAP1 PUSH2 0x30B5 JUMP JUMPDEST DUP1 PUSH1 0x1F ADD PUSH1 0x20 DUP1 SWAP2 DIV MUL PUSH1 0x20 ADD PUSH1 0x40 MLOAD SWAP1 DUP2 ADD PUSH1 0x40 MSTORE DUP1 SWAP3 SWAP2 SWAP1 DUP2 DUP2 MSTORE PUSH1 0x20 ADD DUP3 DUP1 SLOAD PUSH2 0xB1A SWAP1 PUSH2 0x30B5 JUMP JUMPDEST DUP1 ISZERO PUSH2 0xB67 JUMPI DUP1 PUSH1 0x1F LT PUSH2 0xB3C JUMPI PUSH2 0x100 DUP1 DUP4 SLOAD DIV MUL DUP4 MSTORE SWAP2 PUSH1 0x20 ADD SWAP2 PUSH2 0xB67 JUMP JUMPDEST DUP3 ADD SWAP2 SWAP1 PUSH1 0x0 MSTORE PUSH1 0x20 PUSH1 0x0 KECCAK256 SWAP1 JUMPDEST DUP2 SLOAD DUP2 MSTORE SWAP1 PUSH1 0x1 ADD SWAP1 PUSH1 0x20 ADD DUP1 DUP4 GT PUSH2 0xB4A JUMPI DUP3 SWAP1 SUB PUSH1 0x1F AND DUP3 ADD SWAP2 JUMPDEST POP POP POP POP POP DUP2 MSTORE PUSH1 0x20 ADD PUSH1 0x2 DUP3 ADD DUP1 SLOAD PUSH2 0xB80 SWAP1 PUSH2 0x30B5 JUMP JUMPDEST DUP1 PUSH1 0x1F ADD PUSH1 0x20 DUP1 SWAP2 DIV MUL PUSH1 0x20 ADD PUSH1 0x40 MLOAD SWAP1 DUP2 ADD PUSH1 0x40 MSTORE DUP1 SWAP3 SWAP2 SWAP1 DUP2 DUP2 MSTORE PUSH1 0x20 ADD DUP3 DUP1 SLOAD PUSH2 0xBAC SWAP1 PUSH2 0x30B5 JUMP JUMPDEST DUP1 ISZERO PUSH2 0xBF9 JUMPI DUP1 PUSH1 0x1F LT PUSH2 0xBCE JUMPI PUSH2 0x100 DUP1 DUP4 SLOAD DIV MUL DUP4 MSTORE SWAP2 PUSH1 0x20 ADD SWAP2 PUSH2 0xBF9 JUMP JUMPDEST DUP3 ADD SWAP2 SWAP1 PUSH1 0x0 MSTORE PUSH1 0x20 PUSH1 0x0 KECCAK256 SWAP1 JUMPDEST DUP2 SLOAD DUP2 MSTORE SWAP1 PUSH1 0x1 ADD SWAP1 PUSH1 0x20 ADD DUP1 DUP4 GT PUSH2 0xBDC JUMPI DUP3 SWAP1 SUB PUSH1 0x1F AND DUP3 ADD SWAP2 JUMPDEST POP POP POP SWAP2 DUP4 MSTORE POP POP PUSH1 0x3 DUP3 ADD SLOAD PUSH1 0x1 PUSH1 0x1 PUSH1 0xA0 SHL SUB SWAP1 DUP2 AND PUSH1 0x20 DUP4 ADD MSTORE PUSH1 0x4 DUP4 ADD SLOAD PUSH1 0x40 DUP4 ADD MSTORE PUSH1 0x5 DUP4 ADD SLOAD AND PUSH1 0x60 DUP3 ADD MSTORE PUSH1 0x6 DUP3 ADD SLOAD PUSH1 0x80 DUP3 ADD MSTORE PUSH1 0x7 DUP3 ADD SLOAD PUSH1 0xA0 DUP3 ADD MSTORE PUSH1 0x8 SWAP1 SWAP2 ADD SLOAD PUSH1 0xC0 SWAP1 SWAP2 ADD MSTORE DUP3 MLOAD DUP4 SWAP1 DUP4 SWAP1 DUP2 LT PUSH2 0xC5F JUMPI PUSH2 0xC5F PUSH2 0x30EA JUMP JUMPDEST PUSH1 0x20 MUL PUSH1 0x20 ADD ADD DUP2 SWAP1 MSTORE POP DUP1 DUP1 PUSH2 0xC75 SWAP1 PUSH2 0x2FDB JUMP JUMPDEST SWAP2 POP POP PUSH2 0xA75 JUMP JUMPDEST POP JUMPDEST SWAP2 SWAP1 POP JUMP JUMPDEST PUSH1 0xF SLOAD PUSH1 0x60 SWAP1 ISZERO PUSH2 0xD52 JUMPI PUSH1 0xF SLOAD PUSH8 0xFFFFFFFFFFFFFFFF DUP2 GT ISZERO PUSH2 0xCAA JUMPI PUSH2 0xCAA PUSH2 0x2E0C JUMP JUMPDEST PUSH1 0x40 MLOAD SWAP1 DUP1 DUP3 MSTORE DUP1 PUSH1 0x20 MUL PUSH1 0x20 ADD DUP3 ADD PUSH1 0x40 MSTORE DUP1 ISZERO PUSH2 0xCD3 JUMPI DUP2 PUSH1 0x20 ADD PUSH1 0x20 DUP3 MUL DUP1 CALLDATASIZE DUP4 CALLDATACOPY ADD SWAP1 POP JUMPDEST POP SWAP1 POP PUSH1 0x0 JUMPDEST PUSH1 0xF SLOAD DUP2 LT ISZERO PUSH2 0xD50 JUMPI PUSH1 0xE PUSH1 0x0 PUSH2 0xCF2 DUP4 PUSH1 0x1 PUSH2 0x309D JUMP JUMPDEST DUP2 MSTORE PUSH1 0x20 ADD SWAP1 DUP2 MSTORE PUSH1 0x20 ADD PUSH1 0x0 KECCAK256 PUSH1 0x0 SWAP1 SLOAD SWAP1 PUSH2 0x100 EXP SWAP1 DIV PUSH1 0x1 PUSH1 0x1 PUSH1 0xA0 SHL SUB AND DUP3 DUP3 DUP2 MLOAD DUP2 LT PUSH2 0xD26 JUMPI PUSH2 0xD26 PUSH2 0x30EA JUMP JUMPDEST PUSH1 0x1 PUSH1 0x1 PUSH1 0xA0 SHL SUB SWAP1 SWAP3 AND PUSH1 0x20 SWAP3 DUP4 MUL SWAP2 SWAP1 SWAP2 ADD SWAP1 SWAP2 ADD MSTORE DUP1 PUSH2 0xD48 DUP2 PUSH2 0x2FDB JUMP JUMPDEST SWAP2 POP POP PUSH2 0xCD9 JUMP JUMPDEST POP JUMPDEST SWAP1 JUMP JUMPDEST PUSH1 0x1 PUSH1 0x20 DUP2 SWAP1 MSTORE PUSH1 0x0 SWAP2 DUP3 MSTORE PUSH1 0x40 SWAP1 SWAP2 KECCAK256 DUP1 SLOAD SWAP2 DUP2 ADD DUP1 SLOAD PUSH2 0xD76 SWAP1 PUSH2 0x30B5 JUMP JUMPDEST DUP1 PUSH1 0x1F ADD PUSH1 0x20 DUP1 SWAP2 DIV MUL PUSH1 0x20 ADD PUSH1 0x40 MLOAD SWAP1 DUP2 ADD PUSH1 0x40 MSTORE DUP1 SWAP3 SWAP2 SWAP1 DUP2 DUP2 MSTORE PUSH1 0x20 ADD DUP3 DUP1 SLOAD PUSH2 0xDA2 SWAP1 PUSH2 0x30B5 JUMP JUMPDEST DUP1 ISZERO PUSH2 0xDEF JUMPI DUP1 PUSH1 0x1F LT PUSH2 0xDC4 JUMPI PUSH2 0x100 DUP1 DUP4 SLOAD DIV MUL DUP4 MSTORE SWAP2 PUSH1 0x20 ADD SWAP2 PUSH2 0xDEF JUMP JUMPDEST DUP3 ADD SWAP2 SWAP1 PUSH1 0x0 MSTORE PUSH1 0x20 PUSH1 0x0 KECCAK256 SWAP1 JUMPDEST DUP2 SLOAD DUP2 MSTORE SWAP1 PUSH1 0x1 ADD SWAP1 PUSH1 0x20 ADD DUP1 DUP4 GT PUSH2 0xDD2 JUMPI DUP3 SWAP1 SUB PUSH1 0x1F AND DUP3 ADD SWAP2 JUMPDEST POP POP POP POP POP SWAP1 DUP1 PUSH1 0x2 ADD DUP1 SLOAD PUSH2 0xE04 SWAP1 PUSH2 0x30B5 JUMP JUMPDEST DUP1 PUSH1 0x1F ADD PUSH1 0x20 DUP1 SWAP2 DIV MUL PUSH1 0x20 ADD PUSH1 0x40 MLOAD SWAP1 DUP2 ADD PUSH1 0x40 MSTORE DUP1 SWAP3 SWAP2 SWAP1 DUP2 DUP2 MSTORE PUSH1 0x20 ADD DUP3 DUP1 SLOAD PUSH2 0xE30 SWAP1 PUSH2 0x30B5 JUMP JUMPDEST DUP1 ISZERO PUSH2 0xE7D JUMPI DUP1 PUSH1 0x1F LT PUSH2 0xE52 JUMPI PUSH2 0x100 DUP1 DUP4 SLOAD DIV MUL DUP4 MSTORE SWAP2 PUSH1 0x20 ADD SWAP2 PUSH2 0xE7D JUMP JUMPDEST DUP3 ADD SWAP2 SWAP1 PUSH1 0x0 MSTORE PUSH1 0x20 PUSH1 0x0 KECCAK256 SWAP1 JUMPDEST DUP2 SLOAD DUP2 MSTORE SWAP1 PUSH1 0x1 ADD SWAP1 PUSH1 0x20 ADD DUP1 DUP4 GT PUSH2 0xE60 JUMPI DUP3 SWAP1 SUB PUSH1 0x1F AND DUP3 ADD SWAP2 JUMPDEST POP POP POP PUSH1 0x3 DUP5 ADD SLOAD PUSH1 0x4 DUP6 ADD SLOAD PUSH1 0x5 DUP7 ADD SLOAD PUSH1 0x6 DUP8 ADD SLOAD PUSH1 0x7 DUP9 ADD SLOAD PUSH1 0x8 SWAP1 SWAP9 ADD SLOAD SWAP7 SWAP8 PUSH1 0x1 PUSH1 0x1 PUSH1 0xA0 SHL SUB SWAP5 DUP6 AND SWAP8 SWAP4 SWAP7 POP SWAP2 SWAP1 SWAP4 AND SWAP4 POP SWAP1 DUP10 JUMP JUMPDEST PUSH1 0x0 DUP2 DUP2 MSTORE PUSH1 0x1 PUSH1 0x20 MSTORE PUSH1 0x40 SWAP1 KECCAK256 PUSH1 0x6 ADD SLOAD PUSH1 0x60 SWAP1 ISZERO PUSH2 0xC7F JUMPI PUSH1 0x0 DUP3 DUP2 MSTORE PUSH1 0x1 PUSH1 0x20 MSTORE PUSH1 0x40 SWAP1 KECCAK256 PUSH1 0x6 ADD SLOAD PUSH8 0xFFFFFFFFFFFFFFFF DUP2 GT ISZERO PUSH2 0xEFE JUMPI PUSH2 0xEFE PUSH2 0x2E0C JUMP JUMPDEST PUSH1 0x40 MLOAD SWAP1 DUP1 DUP3 MSTORE DUP1 PUSH1 0x20 MUL PUSH1 0x20 ADD DUP3 ADD PUSH1 0x40 MSTORE DUP1 ISZERO PUSH2 0xF27 JUMPI DUP2 PUSH1 0x20 ADD PUSH1 0x20 DUP3 MUL DUP1 CALLDATASIZE DUP4 CALLDATACOPY ADD SWAP1 POP JUMPDEST POP SWAP1 POP PUSH1 0x0 JUMPDEST PUSH1 0x0 DUP4 DUP2 MSTORE PUSH1 0x1 PUSH1 0x20 MSTORE PUSH1 0x40 SWAP1 KECCAK256 PUSH1 0x6 ADD SLOAD DUP2 LT ISZERO PUSH2 0xC7D JUMPI PUSH1 0x0 DUP4 DUP2 MSTORE PUSH1 0x20 DUP2 SWAP1 MSTORE PUSH1 0x40 DUP2 KECCAK256 SWAP1 PUSH2 0xF60 DUP4 PUSH1 0x1 PUSH2 0x309D JUMP JUMPDEST DUP2 MSTORE PUSH1 0x20 ADD SWAP1 DUP2 MSTORE PUSH1 0x20 ADD PUSH1 0x0 KECCAK256 SLOAD DUP3 DUP3 DUP2 MLOAD DUP2 LT PUSH2 0xF81 JUMPI PUSH2 0xF81 PUSH2 0x30EA JUMP JUMPDEST PUSH1 0x20 SWAP1 DUP2 MUL SWAP2 SWAP1 SWAP2 ADD ADD MSTORE DUP1 PUSH2 0xF96 DUP2 PUSH2 0x2FDB JUMP JUMPDEST SWAP2 POP POP PUSH2 0xF2D JUMP JUMPDEST PUSH1 0x14 SLOAD PUSH1 0x1 PUSH1 0x1 PUSH1 0xA0 SHL SUB AND CALLER EQ PUSH2 0xFC8 JUMPI PUSH1 0x40 MLOAD PUSH3 0x461BCD PUSH1 0xE5 SHL DUP2 MSTORE PUSH1 0x4 ADD PUSH2 0x792 SWAP1 PUSH2 0x2FA2 JUMP JUMPDEST PUSH1 0x1 PUSH1 0x1 PUSH1 0xA0 SHL SUB DUP2 AND PUSH2 0x100D JUMPI PUSH1 0x40 MLOAD PUSH3 0x461BCD PUSH1 0xE5 SHL DUP2 MSTORE PUSH1 0x20 PUSH1 0x4 DUP3 ADD MSTORE PUSH1 0xC PUSH1 0x24 DUP3 ADD MSTORE PUSH12 0x5A65726F2061646472657373 PUSH1 0xA0 SHL PUSH1 0x44 DUP3 ADD MSTORE PUSH1 0x64 ADD PUSH2 0x792 JUMP JUMPDEST PUSH1 0x16 DUP1 SLOAD PUSH1 0x1 PUSH1 0x1 PUSH1 0xA0 SHL SUB NOT AND PUSH1 0x1 PUSH1 0x1 PUSH1 0xA0 SHL SUB SWAP3 SWAP1 SWAP3 AND SWAP2 SWAP1 SWAP2 OR SWAP1 SSTORE JUMP JUMPDEST PUSH1 0x14 SLOAD PUSH1 0x1 PUSH1 0x1 PUSH1 0xA0 SHL SUB AND CALLER EQ PUSH2 0x1059 JUMPI PUSH1 0x40 MLOAD PUSH3 0x461BCD PUSH1 0xE5 SHL DUP2 MSTORE PUSH1 0x4 ADD PUSH2 0x792 SWAP1 PUSH2 0x2FA2 JUMP JUMPDEST PUSH1 0x0 DUP2 DUP2 MSTORE PUSH1 0x10 PUSH1 0x20 MSTORE PUSH1 0x40 SWAP1 KECCAK256 SLOAD PUSH1 0xFF AND PUSH2 0x821 JUMPI PUSH1 0x13 DUP1 SLOAD SWAP1 PUSH1 0x0 PUSH2 0x107F DUP4 PUSH2 0x2FDB JUMP JUMPDEST SWAP1 SWAP2 SSTORE POP POP PUSH1 0x13 DUP1 SLOAD PUSH1 0x0 SWAP1 DUP2 MSTORE PUSH1 0x12 PUSH1 0x20 SWAP1 DUP2 MSTORE PUSH1 0x40 DUP1 DUP4 KECCAK256 DUP6 SWAP1 SSTORE DUP5 DUP4 MSTORE PUSH1 0x10 DUP3 MSTORE DUP1 DUP4 KECCAK256 DUP1 SLOAD PUSH1 0xFF NOT AND PUSH1 0x1 OR SWAP1 SSTORE SWAP3 SLOAD PUSH1 0x11 SWAP1 SWAP2 MSTORE SWAP2 SWAP1 KECCAK256 SSTORE POP JUMP JUMPDEST PUSH1 0x15 SLOAD PUSH1 0x1 PUSH1 0x1 PUSH1 0xA0 SHL SUB AND CALLER EQ PUSH2 0x10E9 JUMPI PUSH1 0x40 MLOAD PUSH3 0x461BCD PUSH1 0xE5 SHL DUP2 MSTORE PUSH1 0x4 ADD PUSH2 0x792 SWAP1 PUSH2 0x2FA2 JUMP JUMPDEST PUSH1 0x14 DUP1 SLOAD PUSH1 0x1 PUSH1 0x1 PUSH1 0xA0 SHL SUB NOT AND PUSH1 0x1 PUSH1 0x1 PUSH1 0xA0 SHL SUB SWAP3 SWAP1 SWAP3 AND SWAP2 SWAP1 SWAP2 OR SWAP1 SSTORE JUMP JUMPDEST PUSH1 0x14 SLOAD PUSH1 0x1 PUSH1 0x1 PUSH1 0xA0 SHL SUB AND CALLER EQ PUSH2 0x1135 JUMPI PUSH1 0x40 MLOAD PUSH3 0x461BCD PUSH1 0xE5 SHL DUP2 MSTORE PUSH1 0x4 ADD PUSH2 0x792 SWAP1 PUSH2 0x2FA2 JUMP JUMPDEST PUSH1 0x17 DUP1 SLOAD PUSH1 0x1 PUSH1 0x1 PUSH1 0xA0 SHL SUB NOT AND PUSH1 0x1 PUSH1 0x1 PUSH1 0xA0 SHL SUB SWAP3 SWAP1 SWAP3 AND SWAP2 SWAP1 SWAP2 OR SWAP1 SSTORE JUMP JUMPDEST PUSH1 0x0 DUP2 DUP2 MSTORE PUSH1 0x6 PUSH1 0x20 MSTORE PUSH1 0x40 SWAP1 KECCAK256 SLOAD PUSH1 0x60 SWAP1 ISZERO PUSH2 0xC7F JUMPI PUSH1 0x0 DUP3 DUP2 MSTORE PUSH1 0x6 PUSH1 0x20 MSTORE PUSH1 0x40 SWAP1 KECCAK256 SLOAD PUSH8 0xFFFFFFFFFFFFFFFF DUP2 GT ISZERO PUSH2 0x1195 JUMPI PUSH2 0x1195 PUSH2 0x2E0C JUMP JUMPDEST PUSH1 0x40 MLOAD SWAP1 DUP1 DUP3 MSTORE DUP1 PUSH1 0x20 MUL PUSH1 0x20 ADD DUP3 ADD PUSH1 0x40 MSTORE DUP1 ISZERO PUSH2 0x11BE JUMPI DUP2 PUSH1 0x20 ADD PUSH1 0x20 DUP3 MUL DUP1 CALLDATASIZE DUP4 CALLDATACOPY ADD SWAP1 POP JUMPDEST POP SWAP1 POP PUSH1 0x0 JUMPDEST PUSH1 0x0 DUP4 DUP2 MSTORE PUSH1 0x6 PUSH1 0x20 MSTORE PUSH1 0x40 SWAP1 KECCAK256 SLOAD DUP2 LT ISZERO PUSH2 0xC7D JUMPI PUSH1 0x0 DUP4 DUP2 MSTORE PUSH1 0x4 PUSH1 0x20 MSTORE PUSH1 0x40 DUP2 KECCAK256 SWAP1 PUSH2 0x11F4 DUP4 PUSH1 0x1 PUSH2 0x309D JUMP JUMPDEST DUP2 MSTORE PUSH1 0x20 ADD SWAP1 DUP2 MSTORE PUSH1 0x20 ADD PUSH1 0x0 KECCAK256 PUSH1 0x0 SWAP1 SLOAD SWAP1 PUSH2 0x100 EXP SWAP1 DIV PUSH1 0x1 PUSH1 0x1 PUSH1 0xA0 SHL SUB AND DUP3 DUP3 DUP2 MLOAD DUP2 LT PUSH2 0x1228 JUMPI PUSH2 0x1228 PUSH2 0x30EA JUMP JUMPDEST PUSH1 0x1 PUSH1 0x1 PUSH1 0xA0 SHL SUB SWAP1 SWAP3 AND PUSH1 0x20 SWAP3 DUP4 MUL SWAP2 SWAP1 SWAP2 ADD SWAP1 SWAP2 ADD MSTORE DUP1 PUSH2 0x124A DUP2 PUSH2 0x2FDB JUMP JUMPDEST SWAP2 POP POP PUSH2 0x11C4 JUMP JUMPDEST PUSH1 0x14 SLOAD PUSH1 0x1 PUSH1 0x1 PUSH1 0xA0 SHL SUB AND CALLER EQ PUSH2 0x127C JUMPI PUSH1 0x40 MLOAD PUSH3 0x461BCD PUSH1 0xE5 SHL DUP2 MSTORE PUSH1 0x4 ADD PUSH2 0x792 SWAP1 PUSH2 0x2FA2 JUMP JUMPDEST PUSH1 0x17 SLOAD PUSH1 0x40 MLOAD PUSH4 0x70A08231 PUSH1 0xE0 SHL DUP2 MSTORE ADDRESS PUSH1 0x4 DUP3 ADD MSTORE PUSH1 0x0 SWAP2 PUSH1 0x1 PUSH1 0x1 PUSH1 0xA0 SHL SUB AND SWAP1 PUSH4 0x70A08231 SWAP1 PUSH1 0x24 ADD PUSH1 0x20 PUSH1 0x40 MLOAD DUP1 DUP4 SUB DUP2 DUP7 GAS STATICCALL ISZERO DUP1 ISZERO PUSH2 0x12C5 JUMPI RETURNDATASIZE PUSH1 0x0 DUP1 RETURNDATACOPY RETURNDATASIZE PUSH1 0x0 REVERT JUMPDEST POP POP POP POP PUSH1 0x40 MLOAD RETURNDATASIZE PUSH1 0x1F NOT PUSH1 0x1F DUP3 ADD AND DUP3 ADD DUP1 PUSH1 0x40 MSTORE POP DUP2 ADD SWAP1 PUSH2 0x12E9 SWAP2 SWAP1 PUSH2 0x2FF6 JUMP JUMPDEST SWAP1 POP DUP1 ISZERO PUSH2 0x821 JUMPI PUSH1 0x17 SLOAD PUSH1 0x40 MLOAD PUSH4 0xA9059CBB PUSH1 0xE0 SHL DUP2 MSTORE CALLER PUSH1 0x4 DUP3 ADD MSTORE PUSH1 0x24 DUP2 ADD DUP4 SWAP1 MSTORE PUSH1 0x1 PUSH1 0x1 PUSH1 0xA0 SHL SUB SWAP1 SWAP2 AND SWAP1 PUSH4 0xA9059CBB SWAP1 PUSH1 0x44 ADD PUSH1 0x20 PUSH1 0x40 MLOAD DUP1 DUP4 SUB DUP2 PUSH1 0x0 DUP8 GAS CALL ISZERO DUP1 ISZERO PUSH2 0x1342 JUMPI RETURNDATASIZE PUSH1 0x0 DUP1 RETURNDATACOPY RETURNDATASIZE PUSH1 0x0 REVERT JUMPDEST POP POP POP POP PUSH1 0x40 MLOAD RETURNDATASIZE PUSH1 0x1F NOT PUSH1 0x1F DUP3 ADD AND DUP3 ADD DUP1 PUSH1 0x40 MSTORE POP DUP2 ADD SWAP1 PUSH2 0x1366 SWAP2 SWAP1 PUSH2 0x3100 JUMP JUMPDEST POP POP JUMP JUMPDEST PUSH1 0x14 SLOAD PUSH1 0x1 PUSH1 0x1 PUSH1 0xA0 SHL SUB AND CALLER EQ PUSH2 0x1394 JUMPI PUSH1 0x40 MLOAD PUSH3 0x461BCD PUSH1 0xE5 SHL DUP2 MSTORE PUSH1 0x4 ADD PUSH2 0x792 SWAP1 PUSH2 0x2FA2 JUMP JUMPDEST PUSH1 0x18 SSTORE JUMP JUMPDEST PUSH1 0x14 SLOAD PUSH1 0x1 PUSH1 0x1 PUSH1 0xA0 SHL SUB AND CALLER EQ PUSH2 0x13C3 JUMPI PUSH1 0x40 MLOAD PUSH3 0x461BCD PUSH1 0xE5 SHL DUP2 MSTORE PUSH1 0x4 ADD PUSH2 0x792 SWAP1 PUSH2 0x2FA2 JUMP JUMPDEST PUSH1 0x40 MLOAD PUSH4 0x70A08231 PUSH1 0xE0 SHL DUP2 MSTORE ADDRESS PUSH1 0x4 DUP3 ADD MSTORE DUP2 SWAP1 PUSH1 0x0 SWAP1 PUSH1 0x1 PUSH1 0x1 PUSH1 0xA0 SHL SUB DUP4 AND SWAP1 PUSH4 0x70A08231 SWAP1 PUSH1 0x24 ADD PUSH1 0x20 PUSH1 0x40 MLOAD DUP1 DUP4 SUB DUP2 DUP7 GAS STATICCALL ISZERO DUP1 ISZERO PUSH2 0x140C JUMPI RETURNDATASIZE PUSH1 0x0 DUP1 RETURNDATACOPY RETURNDATASIZE PUSH1 0x0 REVERT JUMPDEST POP POP POP POP PUSH1 0x40 MLOAD RETURNDATASIZE PUSH1 0x1F NOT PUSH1 0x1F DUP3 ADD AND DUP3 ADD DUP1 PUSH1 0x40 MSTORE POP DUP2 ADD SWAP1 PUSH2 0x1430 SWAP2 SWAP1 PUSH2 0x2FF6 JUMP JUMPDEST SWAP1 POP DUP1 ISZERO PUSH2 0x14AB JUMPI PUSH1 0x40 MLOAD PUSH4 0xA9059CBB PUSH1 0xE0 SHL DUP2 MSTORE CALLER PUSH1 0x4 DUP3 ADD MSTORE PUSH1 0x24 DUP2 ADD DUP3 SWAP1 MSTORE PUSH1 0x1 PUSH1 0x1 PUSH1 0xA0 SHL SUB DUP4 AND SWAP1 PUSH4 0xA9059CBB SWAP1 PUSH1 0x44 ADD PUSH1 0x20 PUSH1 0x40 MLOAD DUP1 DUP4 SUB DUP2 PUSH1 0x0 DUP8 GAS CALL ISZERO DUP1 ISZERO PUSH2 0x1485 JUMPI RETURNDATASIZE PUSH1 0x0 DUP1 RETURNDATACOPY RETURNDATASIZE PUSH1 0x0 REVERT JUMPDEST POP POP POP POP PUSH1 0x40 MLOAD RETURNDATASIZE PUSH1 0x1F NOT PUSH1 0x1F DUP3 ADD AND DUP3 ADD DUP1 PUSH1 0x40 MSTORE POP DUP2 ADD SWAP1 PUSH2 0x14A9 SWAP2 SWAP1 PUSH2 0x3100 JUMP JUMPDEST POP JUMPDEST POP POP POP JUMP JUMPDEST PUSH2 0x14B8 PUSH2 0x2A08 JUMP JUMPDEST PUSH1 0x0 DUP3 DUP2 MSTORE PUSH1 0x1 PUSH1 0x20 DUP2 DUP2 MSTORE PUSH1 0x40 SWAP3 DUP4 SWAP1 KECCAK256 DUP4 MLOAD PUSH2 0x120 DUP2 ADD SWAP1 SWAP5 MSTORE DUP1 SLOAD DUP5 MSTORE SWAP2 DUP3 ADD DUP1 SLOAD SWAP2 DUP5 ADD SWAP2 PUSH2 0x14EA SWAP1 PUSH2 0x30B5 JUMP JUMPDEST DUP1 PUSH1 0x1F ADD PUSH1 0x20 DUP1 SWAP2 DIV MUL PUSH1 0x20 ADD PUSH1 0x40 MLOAD SWAP1 DUP2 ADD PUSH1 0x40 MSTORE DUP1 SWAP3 SWAP2 SWAP1 DUP2 DUP2 MSTORE PUSH1 0x20 ADD DUP3 DUP1 SLOAD PUSH2 0x1516 SWAP1 PUSH2 0x30B5 JUMP JUMPDEST DUP1 ISZERO PUSH2 0x1563 JUMPI DUP1 PUSH1 0x1F LT PUSH2 0x1538 JUMPI PUSH2 0x100 DUP1 DUP4 SLOAD DIV MUL DUP4 MSTORE SWAP2 PUSH1 0x20 ADD SWAP2 PUSH2 0x1563 JUMP JUMPDEST DUP3 ADD SWAP2 SWAP1 PUSH1 0x0 MSTORE PUSH1 0x20 PUSH1 0x0 KECCAK256 SWAP1 JUMPDEST DUP2 SLOAD DUP2 MSTORE SWAP1 PUSH1 0x1 ADD SWAP1 PUSH1 0x20 ADD DUP1 DUP4 GT PUSH2 0x1546 JUMPI DUP3 SWAP1 SUB PUSH1 0x1F AND DUP3 ADD SWAP2 JUMPDEST POP POP POP POP POP DUP2 MSTORE PUSH1 0x20 ADD PUSH1 0x2 DUP3 ADD DUP1 SLOAD PUSH2 0x157C SWAP1 PUSH2 0x30B5 JUMP JUMPDEST DUP1 PUSH1 0x1F ADD PUSH1 0x20 DUP1 SWAP2 DIV MUL PUSH1 0x20 ADD PUSH1 0x40 MLOAD SWAP1 DUP2 ADD PUSH1 0x40 MSTORE DUP1 SWAP3 SWAP2 SWAP1 DUP2 DUP2 MSTORE PUSH1 0x20 ADD DUP3 DUP1 SLOAD PUSH2 0x15A8 SWAP1 PUSH2 0x30B5 JUMP JUMPDEST DUP1 ISZERO PUSH2 0x15F5 JUMPI DUP1 PUSH1 0x1F LT PUSH2 0x15CA JUMPI PUSH2 0x100 DUP1 DUP4 SLOAD DIV MUL DUP4 MSTORE SWAP2 PUSH1 0x20 ADD SWAP2 PUSH2 0x15F5 JUMP JUMPDEST DUP3 ADD SWAP2 SWAP1 PUSH1 0x0 MSTORE PUSH1 0x20 PUSH1 0x0 KECCAK256 SWAP1 JUMPDEST DUP2 SLOAD DUP2 MSTORE SWAP1 PUSH1 0x1 ADD SWAP1 PUSH1 0x20 ADD DUP1 DUP4 GT PUSH2 0x15D8 JUMPI DUP3 SWAP1 SUB PUSH1 0x1F AND DUP3 ADD SWAP2 JUMPDEST POP POP POP SWAP2 DUP4 MSTORE POP POP PUSH1 0x3 DUP3 ADD SLOAD PUSH1 0x1 PUSH1 0x1 PUSH1 0xA0 SHL SUB SWAP1 DUP2 AND PUSH1 0x20 DUP4 ADD MSTORE PUSH1 0x4 DUP4 ADD SLOAD PUSH1 0x40 DUP4 ADD MSTORE PUSH1 0x5 DUP4 ADD SLOAD AND PUSH1 0x60 DUP3 ADD MSTORE PUSH1 0x6 DUP3 ADD SLOAD PUSH1 0x80 DUP3 ADD MSTORE PUSH1 0x7 DUP3 ADD SLOAD PUSH1 0xA0 DUP3 ADD MSTORE PUSH1 0x8 SWAP1 SWAP2 ADD SLOAD PUSH1 0xC0 SWAP1 SWAP2 ADD MSTORE SWAP3 SWAP2 POP POP JUMP JUMPDEST PUSH1 0x14 SLOAD PUSH1 0x1 PUSH1 0x1 PUSH1 0xA0 SHL SUB AND CALLER EQ PUSH2 0x1677 JUMPI PUSH1 0x40 MLOAD PUSH3 0x461BCD PUSH1 0xE5 SHL DUP2 MSTORE PUSH1 0x4 ADD PUSH2 0x792 SWAP1 PUSH2 0x2FA2 JUMP JUMPDEST PUSH1 0x17 SLOAD PUSH1 0x40 MLOAD PUSH4 0x70A08231 PUSH1 0xE0 SHL DUP2 MSTORE ADDRESS PUSH1 0x4 DUP3 ADD MSTORE PUSH1 0x0 SWAP2 PUSH1 0x1 PUSH1 0x1 PUSH1 0xA0 SHL SUB AND SWAP1 PUSH4 0x70A08231 SWAP1 PUSH1 0x24 ADD PUSH1 0x20 PUSH1 0x40 MLOAD DUP1 DUP4 SUB DUP2 DUP7 GAS STATICCALL ISZERO DUP1 ISZERO PUSH2 0x16C0 JUMPI RETURNDATASIZE PUSH1 0x0 DUP1 RETURNDATACOPY RETURNDATASIZE PUSH1 0x0 REVERT JUMPDEST POP POP POP POP PUSH1 0x40 MLOAD RETURNDATASIZE PUSH1 0x1F NOT PUSH1 0x1F DUP3 ADD AND DUP3 ADD DUP1 PUSH1 0x40 MSTORE POP DUP2 ADD SWAP1 PUSH2 0x16E4 SWAP2 SWAP1 PUSH2 0x2FF6 JUMP JUMPDEST SWAP1 POP PUSH1 0x0 PUSH1 0x9 SLOAD GT DUP1 ISZERO PUSH2 0x16F8 JUMPI POP PUSH1 0x0 DUP2 GT JUMPDEST ISZERO PUSH2 0x821 JUMPI PUSH1 0x0 JUMPDEST PUSH1 0xB SLOAD DUP2 LT ISZERO PUSH2 0x1366 JUMPI PUSH1 0x0 PUSH1 0x3 DUP2 PUSH2 0x171A DUP5 PUSH1 0x1 PUSH2 0x309D JUMP JUMPDEST DUP2 MSTORE PUSH1 0x20 ADD SWAP1 DUP2 MSTORE PUSH1 0x20 ADD PUSH1 0x0 KECCAK256 SLOAD SWAP1 POP PUSH1 0x0 PUSH1 0x1 PUSH1 0x0 DUP4 DUP2 MSTORE PUSH1 0x20 ADD SWAP1 DUP2 MSTORE PUSH1 0x20 ADD PUSH1 0x0 KECCAK256 PUSH1 0x40 MLOAD DUP1 PUSH2 0x120 ADD PUSH1 0x40 MSTORE SWAP1 DUP2 PUSH1 0x0 DUP3 ADD SLOAD DUP2 MSTORE PUSH1 0x20 ADD PUSH1 0x1 DUP3 ADD DUP1 SLOAD PUSH2 0x1766 SWAP1 PUSH2 0x30B5 JUMP JUMPDEST DUP1 PUSH1 0x1F ADD PUSH1 0x20 DUP1 SWAP2 DIV MUL PUSH1 0x20 ADD PUSH1 0x40 MLOAD SWAP1 DUP2 ADD PUSH1 0x40 MSTORE DUP1 SWAP3 SWAP2 SWAP1 DUP2 DUP2 MSTORE PUSH1 0x20 ADD DUP3 DUP1 SLOAD PUSH2 0x1792 SWAP1 PUSH2 0x30B5 JUMP JUMPDEST DUP1 ISZERO PUSH2 0x17DF JUMPI DUP1 PUSH1 0x1F LT PUSH2 0x17B4 JUMPI PUSH2 0x100 DUP1 DUP4 SLOAD DIV MUL DUP4 MSTORE SWAP2 PUSH1 0x20 ADD SWAP2 PUSH2 0x17DF JUMP JUMPDEST DUP3 ADD SWAP2 SWAP1 PUSH1 0x0 MSTORE PUSH1 0x20 PUSH1 0x0 KECCAK256 SWAP1 JUMPDEST DUP2 SLOAD DUP2 MSTORE SWAP1 PUSH1 0x1 ADD SWAP1 PUSH1 0x20 ADD DUP1 DUP4 GT PUSH2 0x17C2 JUMPI DUP3 SWAP1 SUB PUSH1 0x1F AND DUP3 ADD SWAP2 JUMPDEST POP POP POP POP POP DUP2 MSTORE PUSH1 0x20 ADD PUSH1 0x2 DUP3 ADD DUP1 SLOAD PUSH2 0x17F8 SWAP1 PUSH2 0x30B5 JUMP JUMPDEST DUP1 PUSH1 0x1F ADD PUSH1 0x20 DUP1 SWAP2 DIV MUL PUSH1 0x20 ADD PUSH1 0x40 MLOAD SWAP1 DUP2 ADD PUSH1 0x40 MSTORE DUP1 SWAP3 SWAP2 SWAP1 DUP2 DUP2 MSTORE PUSH1 0x20 ADD DUP3 DUP1 SLOAD PUSH2 0x1824 SWAP1 PUSH2 0x30B5 JUMP JUMPDEST DUP1 ISZERO PUSH2 0x1871 JUMPI DUP1 PUSH1 0x1F LT PUSH2 0x1846 JUMPI PUSH2 0x100 DUP1 DUP4 SLOAD DIV MUL DUP4 MSTORE SWAP2 PUSH1 0x20 ADD SWAP2 PUSH2 0x1871 JUMP JUMPDEST DUP3 ADD SWAP2 SWAP1 PUSH1 0x0 MSTORE PUSH1 0x20 PUSH1 0x0 KECCAK256 SWAP1 JUMPDEST DUP2 SLOAD DUP2 MSTORE SWAP1 PUSH1 0x1 ADD SWAP1 PUSH1 0x20 ADD DUP1 DUP4 GT PUSH2 0x1854 JUMPI DUP3 SWAP1 SUB PUSH1 0x1F AND DUP3 ADD SWAP2 JUMPDEST POP POP POP SWAP2 DUP4 MSTORE POP POP PUSH1 0x3 DUP3 ADD SLOAD PUSH1 0x1 PUSH1 0x1 PUSH1 0xA0 SHL SUB SWAP1 DUP2 AND PUSH1 0x20 DUP4 ADD MSTORE PUSH1 0x4 DUP4 ADD SLOAD PUSH1 0x40 DUP4 ADD MSTORE PUSH1 0x5 DUP4 ADD SLOAD AND PUSH1 0x60 DUP3 ADD MSTORE PUSH1 0x6 DUP3 ADD SLOAD PUSH1 0x80 DUP3 ADD MSTORE PUSH1 0x7 DUP3 ADD SLOAD PUSH1 0xA0 DUP3 ADD MSTORE PUSH1 0x8 SWAP1 SWAP2 ADD SLOAD PUSH1 0xC0 SWAP1 SWAP2 ADD MSTORE PUSH2 0x100 DUP2 ADD MLOAD SWAP1 SWAP2 POP ISZERO DUP1 ISZERO SWAP1 PUSH2 0x18DF JUMPI POP DUP1 PUSH2 0x100 ADD MLOAD DUP5 LT ISZERO JUMPDEST ISZERO PUSH2 0x1A86 JUMPI PUSH2 0x100 DUP2 ADD MLOAD PUSH2 0x18F4 SWAP1 DUP6 PUSH2 0x3122 JUMP JUMPDEST PUSH1 0x17 SLOAD PUSH1 0x60 DUP4 ADD MLOAD PUSH2 0x100 DUP5 ADD MLOAD PUSH1 0x40 MLOAD PUSH4 0xA9059CBB PUSH1 0xE0 SHL DUP2 MSTORE PUSH1 0x1 PUSH1 0x1 PUSH1 0xA0 SHL SUB SWAP3 DUP4 AND PUSH1 0x4 DUP3 ADD MSTORE PUSH1 0x24 DUP2 ADD SWAP2 SWAP1 SWAP2 MSTORE SWAP3 SWAP7 POP AND SWAP1 PUSH4 0xA9059CBB SWAP1 PUSH1 0x44 ADD PUSH1 0x20 PUSH1 0x40 MLOAD DUP1 DUP4 SUB DUP2 PUSH1 0x0 DUP8 GAS CALL ISZERO DUP1 ISZERO PUSH2 0x1954 JUMPI RETURNDATASIZE PUSH1 0x0 DUP1 RETURNDATACOPY RETURNDATASIZE PUSH1 0x0 REVERT JUMPDEST POP POP POP POP PUSH1 0x40 MLOAD RETURNDATASIZE PUSH1 0x1F NOT PUSH1 0x1F DUP3 ADD AND DUP3 ADD DUP1 PUSH1 0x40 MSTORE POP DUP2 ADD SWAP1 PUSH2 0x1978 SWAP2 SWAP1 PUSH2 0x3100 JUMP JUMPDEST POP DUP1 PUSH2 0x100 ADD MLOAD DUP2 PUSH1 0xE0 ADD DUP2 DUP2 MLOAD PUSH2 0x1990 SWAP2 SWAP1 PUSH2 0x309D JUMP JUMPDEST SWAP1 MSTORE POP PUSH2 0x100 DUP2 ADD MLOAD PUSH1 0x9 DUP1 SLOAD PUSH1 0x0 SWAP1 PUSH2 0x19AB SWAP1 DUP5 SWAP1 PUSH2 0x3122 JUMP JUMPDEST SWAP1 SWAP2 SSTORE POP POP PUSH2 0x100 DUP2 ADD MLOAD PUSH1 0xA DUP1 SLOAD PUSH1 0x0 SWAP1 PUSH2 0x19C8 SWAP1 DUP5 SWAP1 PUSH2 0x309D JUMP JUMPDEST SWAP1 SWAP2 SSTORE POP POP PUSH1 0x0 PUSH2 0x100 DUP3 ADD DUP2 SWAP1 MSTORE DUP3 DUP2 MSTORE PUSH1 0x1 PUSH1 0x20 DUP2 DUP2 MSTORE PUSH1 0x40 SWAP1 SWAP3 KECCAK256 DUP4 MLOAD DUP2 SSTORE DUP3 DUP5 ADD MLOAD DUP1 MLOAD DUP6 SWAP5 SWAP3 SWAP4 PUSH2 0x1A03 SWAP4 SWAP1 DUP6 ADD SWAP3 ADD SWAP1 PUSH2 0x2A66 JUMP JUMPDEST POP PUSH1 0x40 DUP3 ADD MLOAD DUP1 MLOAD PUSH2 0x1A1F SWAP2 PUSH1 0x2 DUP5 ADD SWAP2 PUSH1 0x20 SWAP1 SWAP2 ADD SWAP1 PUSH2 0x2A66 JUMP JUMPDEST POP PUSH1 0x60 DUP3 ADD MLOAD PUSH1 0x3 DUP3 ADD DUP1 SLOAD PUSH1 0x1 PUSH1 0x1 PUSH1 0xA0 SHL SUB SWAP3 DUP4 AND PUSH1 0x1 PUSH1 0x1 PUSH1 0xA0 SHL SUB NOT SWAP2 DUP3 AND OR SWAP1 SWAP2 SSTORE PUSH1 0x80 DUP5 ADD MLOAD PUSH1 0x4 DUP5 ADD SSTORE PUSH1 0xA0 DUP5 ADD MLOAD PUSH1 0x5 DUP5 ADD DUP1 SLOAD SWAP2 SWAP1 SWAP4 AND SWAP2 AND OR SWAP1 SSTORE PUSH1 0xC0 DUP3 ADD MLOAD PUSH1 0x6 DUP3 ADD SSTORE PUSH1 0xE0 DUP3 ADD MLOAD PUSH1 0x7 DUP3 ADD SSTORE PUSH2 0x100 SWAP1 SWAP2 ADD MLOAD PUSH1 0x8 SWAP1 SWAP2 ADD SSTORE JUMPDEST PUSH1 0x18 SLOAD DUP5 LT ISZERO PUSH2 0x1A96 JUMPI POP POP POP POP JUMP JUMPDEST POP POP DUP1 DUP1 PUSH2 0x1AA3 SWAP1 PUSH2 0x2FDB JUMP JUMPDEST SWAP2 POP POP PUSH2 0x1700 JUMP JUMPDEST PUSH1 0x13 SLOAD PUSH1 0x60 SWAP1 ISZERO PUSH2 0xD52 JUMPI PUSH1 0x13 SLOAD PUSH8 0xFFFFFFFFFFFFFFFF DUP2 GT ISZERO PUSH2 0x1AD1 JUMPI PUSH2 0x1AD1 PUSH2 0x2E0C JUMP JUMPDEST PUSH1 0x40 MLOAD SWAP1 DUP1 DUP3 MSTORE DUP1 PUSH1 0x20 MUL PUSH1 0x20 ADD DUP3 ADD PUSH1 0x40 MSTORE DUP1 ISZERO PUSH2 0x1AFA JUMPI DUP2 PUSH1 0x20 ADD PUSH1 0x20 DUP3 MUL DUP1 CALLDATASIZE DUP4 CALLDATACOPY ADD SWAP1 POP JUMPDEST POP SWAP1 POP PUSH1 0x0 JUMPDEST PUSH1 0x13 SLOAD DUP2 LT ISZERO PUSH2 0xD50 JUMPI PUSH1 0x12 PUSH1 0x0 PUSH2 0x1B19 DUP4 PUSH1 0x1 PUSH2 0x309D JUMP JUMPDEST DUP2 MSTORE PUSH1 0x20 ADD SWAP1 DUP2 MSTORE PUSH1 0x20 ADD PUSH1 0x0 KECCAK256 SLOAD DUP3 DUP3 DUP2 MLOAD DUP2 LT PUSH2 0x1B3A JUMPI PUSH2 0x1B3A PUSH2 0x30EA JUMP JUMPDEST PUSH1 0x20 SWAP1 DUP2 MUL SWAP2 SWAP1 SWAP2 ADD ADD MSTORE DUP1 PUSH2 0x1B4F DUP2 PUSH2 0x2FDB JUMP JUMPDEST SWAP2 POP POP PUSH2 0x1B00 JUMP JUMPDEST PUSH1 0xB SLOAD PUSH1 0x60 SWAP1 ISZERO PUSH2 0xD52 JUMPI PUSH1 0xB SLOAD PUSH8 0xFFFFFFFFFFFFFFFF DUP2 GT ISZERO PUSH2 0x1B7D JUMPI PUSH2 0x1B7D PUSH2 0x2E0C JUMP JUMPDEST PUSH1 0x40 MLOAD SWAP1 DUP1 DUP3 MSTORE DUP1 PUSH1 0x20 MUL PUSH1 0x20 ADD DUP3 ADD PUSH1 0x40 MSTORE DUP1 ISZERO PUSH2 0x1BB6 JUMPI DUP2 PUSH1 0x20 ADD JUMPDEST PUSH2 0x1BA3 PUSH2 0x2A08 JUMP JUMPDEST DUP2 MSTORE PUSH1 0x20 ADD SWAP1 PUSH1 0x1 SWAP1 SUB SWAP1 DUP2 PUSH2 0x1B9B JUMPI SWAP1 POP JUMPDEST POP SWAP1 POP PUSH1 0x0 JUMPDEST PUSH1 0xB SLOAD DUP2 LT ISZERO PUSH2 0xD50 JUMPI PUSH1 0x1 PUSH1 0x0 PUSH1 0x3 DUP2 PUSH2 0x1BD7 DUP6 DUP6 PUSH2 0x309D JUMP JUMPDEST DUP2 MSTORE PUSH1 0x20 ADD SWAP1 DUP2 MSTORE PUSH1 0x20 ADD PUSH1 0x0 KECCAK256 SLOAD DUP2 MSTORE PUSH1 0x20 ADD SWAP1 DUP2 MSTORE PUSH1 0x20 ADD PUSH1 0x0 KECCAK256 PUSH1 0x40 MLOAD DUP1 PUSH2 0x120 ADD PUSH1 0x40 MSTORE SWAP1 DUP2 PUSH1 0x0 DUP3 ADD SLOAD DUP2 MSTORE PUSH1 0x20 ADD PUSH1 0x1 DUP3 ADD DUP1 SLOAD PUSH2 0x1C1A SWAP1 PUSH2 0x30B5 JUMP JUMPDEST DUP1 PUSH1 0x1F ADD PUSH1 0x20 DUP1 SWAP2 DIV MUL PUSH1 0x20 ADD PUSH1 0x40 MLOAD SWAP1 DUP2 ADD PUSH1 0x40 MSTORE DUP1 SWAP3 SWAP2 SWAP1 DUP2 DUP2 MSTORE PUSH1 0x20 ADD DUP3 DUP1 SLOAD PUSH2 0x1C46 SWAP1 PUSH2 0x30B5 JUMP JUMPDEST DUP1 ISZERO PUSH2 0x1C93 JUMPI DUP1 PUSH1 0x1F LT PUSH2 0x1C68 JUMPI PUSH2 0x100 DUP1 DUP4 SLOAD DIV MUL DUP4 MSTORE SWAP2 PUSH1 0x20 ADD SWAP2 PUSH2 0x1C93 JUMP JUMPDEST DUP3 ADD SWAP2 SWAP1 PUSH1 0x0 MSTORE PUSH1 0x20 PUSH1 0x0 KECCAK256 SWAP1 JUMPDEST DUP2 SLOAD DUP2 MSTORE SWAP1 PUSH1 0x1 ADD SWAP1 PUSH1 0x20 ADD DUP1 DUP4 GT PUSH2 0x1C76 JUMPI DUP3 SWAP1 SUB PUSH1 0x1F AND DUP3 ADD SWAP2 JUMPDEST POP POP POP POP POP DUP2 MSTORE PUSH1 0x20 ADD PUSH1 0x2 DUP3 ADD DUP1 SLOAD PUSH2 0x1CAC SWAP1 PUSH2 0x30B5 JUMP JUMPDEST DUP1 PUSH1 0x1F ADD PUSH1 0x20 DUP1 SWAP2 DIV MUL PUSH1 0x20 ADD PUSH1 0x40 MLOAD SWAP1 DUP2 ADD PUSH1 0x40 MSTORE DUP1 SWAP3 SWAP2 SWAP1 DUP2 DUP2 MSTORE PUSH1 0x20 ADD DUP3 DUP1 SLOAD PUSH2 0x1CD8 SWAP1 PUSH2 0x30B5 JUMP JUMPDEST DUP1 ISZERO PUSH2 0x1D25 JUMPI DUP1 PUSH1 0x1F LT PUSH2 0x1CFA JUMPI PUSH2 0x100 DUP1 DUP4 SLOAD DIV MUL DUP4 MSTORE SWAP2 PUSH1 0x20 ADD SWAP2 PUSH2 0x1D25 JUMP JUMPDEST DUP3 ADD SWAP2 SWAP1 PUSH1 0x0 MSTORE PUSH1 0x20 PUSH1 0x0 KECCAK256 SWAP1 JUMPDEST DUP2 SLOAD DUP2 MSTORE SWAP1 PUSH1 0x1 ADD SWAP1 PUSH1 0x20 ADD DUP1 DUP4 GT PUSH2 0x1D08 JUMPI DUP3 SWAP1 SUB PUSH1 0x1F AND DUP3 ADD SWAP2 JUMPDEST POP POP POP SWAP2 DUP4 MSTORE POP POP PUSH1 0x3 DUP3 ADD SLOAD PUSH1 0x1 PUSH1 0x1 PUSH1 0xA0 SHL SUB SWAP1 DUP2 AND PUSH1 0x20 DUP4 ADD MSTORE PUSH1 0x4 DUP4 ADD SLOAD PUSH1 0x40 DUP4 ADD MSTORE PUSH1 0x5 DUP4 ADD SLOAD AND PUSH1 0x60 DUP3 ADD MSTORE PUSH1 0x6 DUP3 ADD SLOAD PUSH1 0x80 DUP3 ADD MSTORE PUSH1 0x7 DUP3 ADD SLOAD PUSH1 0xA0 DUP3 ADD MSTORE PUSH1 0x8 SWAP1 SWAP2 ADD SLOAD PUSH1 0xC0 SWAP1 SWAP2 ADD MSTORE DUP3 MLOAD DUP4 SWAP1 DUP4 SWAP1 DUP2 LT PUSH2 0x1D8B JUMPI PUSH2 0x1D8B PUSH2 0x30EA JUMP JUMPDEST PUSH1 0x20 MUL PUSH1 0x20 ADD ADD DUP2 SWAP1 MSTORE POP DUP1 DUP1 PUSH2 0x1DA1 SWAP1 PUSH2 0x2FDB JUMP JUMPDEST SWAP2 POP POP PUSH2 0x1BBC JUMP JUMPDEST PUSH1 0x14 SLOAD PUSH1 0x1 PUSH1 0x1 PUSH1 0xA0 SHL SUB AND CALLER EQ PUSH2 0x1DD3 JUMPI PUSH1 0x40 MLOAD PUSH3 0x461BCD PUSH1 0xE5 SHL DUP2 MSTORE PUSH1 0x4 ADD PUSH2 0x792 SWAP1 PUSH2 0x2FA2 JUMP JUMPDEST PUSH1 0x0 DUP2 DUP2 MSTORE PUSH1 0x10 PUSH1 0x20 MSTORE PUSH1 0x40 SWAP1 KECCAK256 SLOAD PUSH1 0xFF AND ISZERO PUSH2 0x821 JUMPI PUSH1 0x13 SLOAD PUSH1 0x0 DUP3 DUP2 MSTORE PUSH1 0x11 PUSH1 0x20 MSTORE PUSH1 0x40 SWAP1 KECCAK256 SLOAD LT ISZERO PUSH2 0x1E2D JUMPI PUSH1 0x13 SLOAD PUSH1 0x0 SWAP1 DUP2 MSTORE PUSH1 0x12 PUSH1 0x20 DUP2 DUP2 MSTORE PUSH1 0x40 DUP1 DUP5 KECCAK256 SLOAD DUP6 DUP6 MSTORE PUSH1 0x11 DUP4 MSTORE DUP2 DUP6 KECCAK256 SLOAD DUP6 MSTORE SWAP3 SWAP1 SWAP2 MSTORE SWAP1 SWAP2 KECCAK256 SSTORE JUMPDEST PUSH1 0x0 DUP2 DUP2 MSTORE PUSH1 0x10 PUSH1 0x20 MSTORE PUSH1 0x40 DUP2 KECCAK256 DUP1 SLOAD PUSH1 0xFF NOT AND SWAP1 SSTORE PUSH1 0x13 DUP1 SLOAD SWAP2 PUSH2 0x9EA DUP4 PUSH2 0x3086 JUMP JUMPDEST PUSH1 0x17 SLOAD PUSH1 0x40 DUP1 MLOAD PUSH4 0x313CE567 PUSH1 0xE0 SHL DUP2 MSTORE SWAP1 MLOAD PUSH1 0x0 SWAP3 PUSH1 0x1 PUSH1 0x1 PUSH1 0xA0 SHL SUB AND SWAP2 PUSH4 0x313CE567 SWAP2 PUSH1 0x4 DUP1 DUP4 ADD SWAP3 PUSH1 0x20 SWAP3 SWAP2 SWAP1 DUP3 SWAP1 SUB ADD DUP2 DUP7 GAS STATICCALL ISZERO DUP1 ISZERO PUSH2 0x1E9B JUMPI RETURNDATASIZE PUSH1 0x0 DUP1 RETURNDATACOPY RETURNDATASIZE PUSH1 0x0 REVERT JUMPDEST POP POP POP POP PUSH1 0x40 MLOAD RETURNDATASIZE PUSH1 0x1F NOT PUSH1 0x1F DUP3 ADD AND DUP3 ADD DUP1 PUSH1 0x40 MSTORE POP DUP2 ADD SWAP1 PUSH2 0x891 SWAP2 SWAP1 PUSH2 0x3139 JUMP JUMPDEST PUSH1 0x14 SLOAD PUSH1 0x1 PUSH1 0x1 PUSH1 0xA0 SHL SUB AND CALLER EQ PUSH2 0x1EE9 JUMPI PUSH1 0x40 MLOAD PUSH3 0x461BCD PUSH1 0xE5 SHL DUP2 MSTORE PUSH1 0x4 ADD PUSH2 0x792 SWAP1 PUSH2 0x2FA2 JUMP JUMPDEST PUSH1 0x1 PUSH1 0x1 PUSH1 0xA0 SHL SUB DUP2 AND PUSH2 0x10E9 JUMPI PUSH1 0x40 MLOAD PUSH3 0x461BCD PUSH1 0xE5 SHL DUP2 MSTORE PUSH1 0x20 PUSH1 0x4 DUP3 ADD MSTORE PUSH1 0xC PUSH1 0x24 DUP3 ADD MSTORE PUSH12 0x5A65726F2061646472657373 PUSH1 0xA0 SHL PUSH1 0x44 DUP3 ADD MSTORE PUSH1 0x64 ADD PUSH2 0x792 JUMP JUMPDEST PUSH1 0x14 SLOAD PUSH1 0x1 PUSH1 0x1 PUSH1 0xA0 SHL SUB AND CALLER EQ DUP1 PUSH2 0x1F51 JUMPI POP PUSH1 0x16 SLOAD PUSH1 0x1 PUSH1 0x1 PUSH1 0xA0 SHL SUB AND CALLER EQ JUMPDEST PUSH2 0x1F94 JUMPI PUSH1 0x40 MLOAD PUSH3 0x461BCD PUSH1 0xE5 SHL DUP2 MSTORE PUSH1 0x20 PUSH1 0x4 DUP3 ADD MSTORE PUSH1 0x14 PUSH1 0x24 DUP3 ADD MSTORE PUSH20 0x4F6E6C79206F776E6572206F72206F7261636C65 PUSH1 0x60 SHL PUSH1 0x44 DUP3 ADD MSTORE PUSH1 0x64 ADD PUSH2 0x792 JUMP JUMPDEST PUSH1 0x0 DUP8 DUP2 MSTORE PUSH1 0x2 PUSH1 0x20 MSTORE PUSH1 0x40 SWAP1 KECCAK256 SLOAD PUSH1 0xFF AND ISZERO PUSH2 0x1FF3 JUMPI PUSH1 0x40 MLOAD PUSH3 0x461BCD PUSH1 0xE5 SHL DUP2 MSTORE PUSH1 0x20 PUSH1 0x4 DUP3 ADD MSTORE PUSH1 0x17 PUSH1 0x24 DUP3 ADD MSTORE PUSH32 0x5573657220616C72656164792072656769737465726564000000000000000000 PUSH1 0x44 DUP3 ADD MSTORE PUSH1 0x64 ADD PUSH2 0x792 JUMP JUMPDEST DUP4 DUP8 EQ ISZERO PUSH2 0x2043 JUMPI PUSH1 0x40 MLOAD PUSH3 0x461BCD PUSH1 0xE5 SHL DUP2 MSTORE PUSH1 0x20 PUSH1 0x4 DUP3 ADD MSTORE PUSH1 0x18 PUSH1 0x24 DUP3 ADD MSTORE PUSH32 0x53656C662072656665726572206E6F7420616C6C6F7765640000000000000000 PUSH1 0x44 DUP3 ADD MSTORE PUSH1 0x64 ADD PUSH2 0x792 JUMP JUMPDEST PUSH1 0x1 PUSH1 0x1 PUSH1 0xA0 SHL SUB DUP2 AND PUSH1 0x0 SWAP1 DUP2 MSTORE PUSH1 0xC PUSH1 0x20 MSTORE PUSH1 0x40 SWAP1 KECCAK256 SLOAD PUSH1 0xFF AND ISZERO PUSH2 0x20AC JUMPI PUSH1 0x40 MLOAD PUSH3 0x461BCD PUSH1 0xE5 SHL DUP2 MSTORE PUSH1 0x20 PUSH1 0x4 DUP3 ADD MSTORE PUSH1 0x17 PUSH1 0x24 DUP3 ADD MSTORE PUSH32 0x526566657272657220616464726573732062616E6E6564000000000000000000 PUSH1 0x44 DUP3 ADD MSTORE PUSH1 0x64 ADD PUSH2 0x792 JUMP JUMPDEST PUSH1 0x0 DUP5 DUP2 MSTORE PUSH1 0x10 PUSH1 0x20 MSTORE PUSH1 0x40 SWAP1 KECCAK256 SLOAD PUSH1 0xFF AND ISZERO PUSH2 0x2100 JUMPI PUSH1 0x40 MLOAD PUSH3 0x461BCD PUSH1 0xE5 SHL DUP2 MSTORE PUSH1 0x20 PUSH1 0x4 DUP3 ADD MSTORE PUSH1 0x12 PUSH1 0x24 DUP3 ADD MSTORE PUSH18 0x149959995C9C995C8812510818985B9B9959 PUSH1 0x72 SHL PUSH1 0x44 DUP3 ADD MSTORE PUSH1 0x64 ADD PUSH2 0x792 JUMP JUMPDEST PUSH1 0x17 SLOAD PUSH1 0x40 MLOAD PUSH4 0x70A08231 PUSH1 0xE0 SHL DUP2 MSTORE ADDRESS PUSH1 0x4 DUP3 ADD MSTORE PUSH1 0x0 SWAP2 PUSH1 0x1 PUSH1 0x1 PUSH1 0xA0 SHL SUB AND SWAP1 PUSH4 0x70A08231 SWAP1 PUSH1 0x24 ADD PUSH1 0x20 PUSH1 0x40 MLOAD DUP1 DUP4 SUB DUP2 DUP7 GAS STATICCALL ISZERO DUP1 ISZERO PUSH2 0x2149 JUMPI RETURNDATASIZE PUSH1 0x0 DUP1 RETURNDATACOPY RETURNDATASIZE PUSH1 0x0 REVERT JUMPDEST POP POP POP POP PUSH1 0x40 MLOAD RETURNDATASIZE PUSH1 0x1F NOT PUSH1 0x1F DUP3 ADD AND DUP3 ADD DUP1 PUSH1 0x40 MSTORE POP DUP2 ADD SWAP1 PUSH2 0x216D SWAP2 SWAP1 PUSH2 0x2FF6 JUMP JUMPDEST SWAP1 POP PUSH1 0x0 PUSH2 0x217D DUP7 DUP7 DUP7 DUP7 PUSH2 0x24B2 JUMP JUMPDEST PUSH1 0xB DUP1 SLOAD SWAP2 SWAP3 POP PUSH1 0x0 PUSH2 0x218F DUP4 PUSH2 0x2FDB JUMP JUMPDEST SWAP1 SWAP2 SSTORE POP POP PUSH1 0x0 DUP10 DUP2 MSTORE PUSH1 0x2 PUSH1 0x20 SWAP1 DUP2 MSTORE PUSH1 0x40 DUP1 DUP4 KECCAK256 DUP1 SLOAD PUSH1 0xFF NOT AND PUSH1 0x1 SWAP1 DUP2 OR SWAP1 SWAP2 SSTORE PUSH1 0xB SLOAD DUP5 MSTORE PUSH1 0x3 DUP4 MSTORE DUP2 DUP5 KECCAK256 DUP14 SWAP1 SSTORE DUP2 MLOAD PUSH2 0x120 DUP2 ADD DUP4 MSTORE DUP14 DUP2 MSTORE DUP1 DUP5 ADD DUP14 DUP2 MSTORE DUP2 DUP5 ADD DUP14 SWAP1 MSTORE PUSH1 0x60 DUP3 ADD DUP7 SWAP1 MSTORE PUSH1 0x80 DUP3 ADD DUP13 SWAP1 MSTORE PUSH1 0x1 PUSH1 0x1 PUSH1 0xA0 SHL SUB DUP10 AND PUSH1 0xA0 DUP4 ADD MSTORE PUSH1 0xC0 DUP3 ADD DUP7 SWAP1 MSTORE PUSH1 0xE0 DUP3 ADD DUP7 SWAP1 MSTORE PUSH2 0x100 DUP3 ADD DUP7 SWAP1 MSTORE DUP15 DUP7 MSTORE DUP3 DUP6 MSTORE SWAP3 SWAP1 SWAP5 KECCAK256 DUP5 MLOAD DUP2 SSTORE SWAP2 MLOAD DUP1 MLOAD SWAP3 SWAP4 PUSH2 0x2231 SWAP4 SWAP3 DUP6 ADD SWAP3 SWAP2 ADD SWAP1 PUSH2 0x2A66 JUMP JUMPDEST POP PUSH1 0x40 DUP3 ADD MLOAD DUP1 MLOAD PUSH2 0x224D SWAP2 PUSH1 0x2 DUP5 ADD SWAP2 PUSH1 0x20 SWAP1 SWAP2 ADD SWAP1 PUSH2 0x2A66 JUMP JUMPDEST POP PUSH1 0x60 DUP3 ADD MLOAD PUSH1 0x3 DUP3 ADD DUP1 SLOAD PUSH1 0x1 PUSH1 0x1 PUSH1 0xA0 SHL SUB SWAP3 DUP4 AND PUSH1 0x1 PUSH1 0x1 PUSH1 0xA0 SHL SUB NOT SWAP2 DUP3 AND OR SWAP1 SWAP2 SSTORE PUSH1 0x80 DUP5 ADD MLOAD PUSH1 0x4 DUP5 ADD SSTORE PUSH1 0xA0 DUP5 ADD MLOAD PUSH1 0x5 DUP5 ADD DUP1 SLOAD SWAP2 SWAP1 SWAP4 AND SWAP2 AND OR SWAP1 SSTORE PUSH1 0xC0 DUP1 DUP4 ADD MLOAD PUSH1 0x6 DUP4 ADD SSTORE PUSH1 0xE0 DUP4 ADD MLOAD PUSH1 0x7 DUP4 ADD SSTORE PUSH2 0x100 SWAP1 SWAP3 ADD MLOAD PUSH1 0x8 SWAP1 SWAP2 ADD SSTORE DUP2 ADD DUP1 MLOAD SWAP1 PUSH2 0x22C2 DUP3 PUSH2 0x2FDB JUMP JUMPDEST SWAP1 MSTORE POP PUSH1 0x0 DUP7 DUP2 MSTORE PUSH1 0x20 DUP2 DUP2 MSTORE PUSH1 0x40 DUP1 DUP4 KECCAK256 PUSH1 0xC0 DUP6 ADD MLOAD DUP5 MSTORE SWAP1 SWAP2 MSTORE SWAP1 KECCAK256 DUP10 SWAP1 SSTORE PUSH1 0x18 SLOAD DUP3 LT PUSH2 0x239E JUMPI PUSH1 0x17 SLOAD PUSH1 0x18 SLOAD PUSH1 0x40 MLOAD PUSH4 0xA9059CBB PUSH1 0xE0 SHL DUP2 MSTORE PUSH1 0x1 PUSH1 0x1 PUSH1 0xA0 SHL SUB DUP7 DUP2 AND PUSH1 0x4 DUP4 ADD MSTORE PUSH1 0x24 DUP3 ADD SWAP3 SWAP1 SWAP3 MSTORE SWAP2 AND SWAP1 PUSH4 0xA9059CBB SWAP1 PUSH1 0x44 ADD PUSH1 0x20 PUSH1 0x40 MLOAD DUP1 DUP4 SUB DUP2 PUSH1 0x0 DUP8 GAS CALL ISZERO DUP1 ISZERO PUSH2 0x2342 JUMPI RETURNDATASIZE PUSH1 0x0 DUP1 RETURNDATACOPY RETURNDATASIZE PUSH1 0x0 REVERT JUMPDEST POP POP POP POP PUSH1 0x40 MLOAD RETURNDATASIZE PUSH1 0x1F NOT PUSH1 0x1F DUP3 ADD AND DUP3 ADD DUP1 PUSH1 0x40 MSTORE POP DUP2 ADD SWAP1 PUSH2 0x2366 SWAP2 SWAP1 PUSH2 0x3100 JUMP JUMPDEST POP PUSH1 0x18 SLOAD DUP2 PUSH1 0xE0 ADD DUP2 DUP2 MLOAD PUSH2 0x237B SWAP2 SWAP1 PUSH2 0x309D JUMP JUMPDEST SWAP1 MSTORE POP PUSH1 0x18 SLOAD PUSH1 0xA DUP1 SLOAD PUSH1 0x0 SWAP1 PUSH2 0x2393 SWAP1 DUP5 SWAP1 PUSH2 0x309D JUMP JUMPDEST SWAP1 SWAP2 SSTORE POP PUSH2 0x23F7 SWAP1 POP JUMP JUMPDEST PUSH1 0x18 SLOAD DUP2 PUSH2 0x100 ADD DUP2 DUP2 MLOAD PUSH2 0x23B3 SWAP2 SWAP1 PUSH2 0x309D JUMP JUMPDEST SWAP1 MSTORE POP PUSH1 0x18 SLOAD PUSH1 0x0 DUP8 DUP2 MSTORE PUSH1 0x8 PUSH1 0x20 MSTORE PUSH1 0x40 DUP2 KECCAK256 DUP1 SLOAD SWAP1 SWAP2 SWAP1 PUSH2 0x23D7 SWAP1 DUP5 SWAP1 PUSH2 0x309D JUMP JUMPDEST SWAP1 SWAP2 SSTORE POP POP PUSH1 0x18 SLOAD PUSH1 0x9 DUP1 SLOAD PUSH1 0x0 SWAP1 PUSH2 0x23F1 SWAP1 DUP5 SWAP1 PUSH2 0x309D JUMP JUMPDEST SWAP1 SWAP2 SSTORE POP POP JUMPDEST PUSH1 0x0 DUP7 DUP2 MSTORE PUSH1 0x1 PUSH1 0x20 DUP2 DUP2 MSTORE PUSH1 0x40 SWAP1 SWAP3 KECCAK256 DUP4 MLOAD DUP2 SSTORE DUP3 DUP5 ADD MLOAD DUP1 MLOAD DUP6 SWAP5 SWAP3 SWAP4 PUSH2 0x2425 SWAP4 SWAP1 DUP6 ADD SWAP3 ADD SWAP1 PUSH2 0x2A66 JUMP JUMPDEST POP PUSH1 0x40 DUP3 ADD MLOAD DUP1 MLOAD PUSH2 0x2441 SWAP2 PUSH1 0x2 DUP5 ADD SWAP2 PUSH1 0x20 SWAP1 SWAP2 ADD SWAP1 PUSH2 0x2A66 JUMP JUMPDEST POP PUSH1 0x60 DUP3 ADD MLOAD PUSH1 0x3 DUP3 ADD DUP1 SLOAD PUSH1 0x1 PUSH1 0x1 PUSH1 0xA0 SHL SUB SWAP3 DUP4 AND PUSH1 0x1 PUSH1 0x1 PUSH1 0xA0 SHL SUB NOT SWAP2 DUP3 AND OR SWAP1 SWAP2 SSTORE PUSH1 0x80 DUP5 ADD MLOAD PUSH1 0x4 DUP5 ADD SSTORE PUSH1 0xA0 DUP5 ADD MLOAD PUSH1 0x5 DUP5 ADD DUP1 SLOAD SWAP2 SWAP1 SWAP4 AND SWAP2 AND OR SWAP1 SSTORE PUSH1 0xC0 DUP3 ADD MLOAD PUSH1 0x6 DUP3 ADD SSTORE PUSH1 0xE0 DUP3 ADD MLOAD PUSH1 0x7 DUP3 ADD SSTORE PUSH2 0x100 SWAP1 SWAP2 ADD MLOAD PUSH1 0x8 SWAP1 SWAP2 ADD SSTORE POP POP POP POP POP POP POP POP POP JUMP JUMPDEST PUSH2 0x24BA PUSH2 0x2A08 JUMP JUMPDEST PUSH1 0x0 DUP6 DUP2 MSTORE PUSH1 0x2 PUSH1 0x20 MSTORE PUSH1 0x40 SWAP1 KECCAK256 SLOAD PUSH1 0xFF AND PUSH2 0x288F JUMPI PUSH1 0x1 PUSH1 0x1 PUSH1 0xA0 SHL SUB DUP3 AND PUSH1 0x0 SWAP1 DUP2 MSTORE PUSH1 0x7 PUSH1 0x20 MSTORE PUSH1 0x40 SWAP1 KECCAK256 SLOAD PUSH1 0xFF AND ISZERO PUSH2 0x2539 JUMPI PUSH1 0x40 MLOAD PUSH3 0x461BCD PUSH1 0xE5 SHL DUP2 MSTORE PUSH1 0x20 PUSH1 0x4 DUP3 ADD MSTORE PUSH1 0x1F PUSH1 0x24 DUP3 ADD MSTORE PUSH32 0x54686973206164647265737320616C7265616479207265676973746572656400 PUSH1 0x44 DUP3 ADD MSTORE PUSH1 0x64 ADD PUSH2 0x792 JUMP JUMPDEST PUSH1 0xB DUP1 SLOAD SWAP1 PUSH1 0x0 PUSH2 0x2549 DUP4 PUSH2 0x2FDB JUMP JUMPDEST SWAP1 SWAP2 SSTORE POP POP PUSH1 0x0 DUP6 DUP2 MSTORE PUSH1 0x2 PUSH1 0x20 SWAP1 DUP2 MSTORE PUSH1 0x40 DUP1 DUP4 KECCAK256 DUP1 SLOAD PUSH1 0xFF NOT AND PUSH1 0x1 SWAP1 DUP2 OR SWAP1 SWAP2 SSTORE PUSH1 0xB SLOAD DUP5 MSTORE PUSH1 0x3 DUP4 MSTORE DUP2 DUP5 KECCAK256 DUP10 SWAP1 SSTORE DUP2 MLOAD PUSH2 0x120 DUP2 ADD DUP4 MSTORE DUP10 DUP2 MSTORE DUP1 DUP5 ADD DUP10 DUP2 MSTORE DUP2 DUP5 ADD DUP10 SWAP1 MSTORE PUSH1 0x1 PUSH1 0x1 PUSH1 0xA0 SHL SUB DUP9 AND PUSH1 0x60 DUP4 ADD MSTORE PUSH1 0x80 DUP3 ADD DUP7 SWAP1 MSTORE PUSH1 0xA0 DUP3 ADD DUP7 SWAP1 MSTORE PUSH1 0xC0 DUP3 ADD DUP7 SWAP1 MSTORE PUSH1 0xE0 DUP3 ADD DUP7 SWAP1 MSTORE PUSH2 0x100 DUP3 ADD DUP7 SWAP1 MSTORE DUP11 DUP7 MSTORE DUP3 DUP6 MSTORE SWAP3 SWAP1 SWAP5 KECCAK256 DUP5 MLOAD DUP2 SSTORE SWAP2 MLOAD DUP1 MLOAD SWAP3 SWAP4 PUSH2 0x25EB SWAP4 SWAP3 DUP6 ADD SWAP3 SWAP2 ADD SWAP1 PUSH2 0x2A66 JUMP JUMPDEST POP PUSH1 0x40 DUP3 ADD MLOAD DUP1 MLOAD PUSH2 0x2607 SWAP2 PUSH1 0x2 DUP5 ADD SWAP2 PUSH1 0x20 SWAP1 SWAP2 ADD SWAP1 PUSH2 0x2A66 JUMP JUMPDEST POP PUSH1 0x60 DUP3 ADD MLOAD PUSH1 0x3 DUP3 ADD DUP1 SLOAD PUSH1 0x1 PUSH1 0x1 PUSH1 0xA0 SHL SUB SWAP3 DUP4 AND PUSH1 0x1 PUSH1 0x1 PUSH1 0xA0 SHL SUB NOT SWAP2 DUP3 AND OR SWAP1 SWAP2 SSTORE PUSH1 0x80 DUP5 ADD MLOAD PUSH1 0x4 DUP5 ADD SSTORE PUSH1 0xA0 DUP5 ADD MLOAD PUSH1 0x5 DUP5 ADD DUP1 SLOAD SWAP2 SWAP1 SWAP4 AND SWAP2 AND OR SWAP1 SSTORE PUSH1 0xC0 DUP3 ADD MLOAD PUSH1 0x6 DUP1 DUP4 ADD SWAP2 SWAP1 SWAP2 SSTORE PUSH1 0xE0 DUP4 ADD MLOAD PUSH1 0x7 DUP4 ADD SSTORE PUSH2 0x100 SWAP1 SWAP3 ADD MLOAD PUSH1 0x8 SWAP1 SWAP2 ADD SSTORE PUSH1 0x0 DUP7 DUP2 MSTORE PUSH1 0x20 SWAP2 SWAP1 SWAP2 MSTORE PUSH1 0x40 DUP2 KECCAK256 DUP1 SLOAD SWAP2 PUSH2 0x268C DUP4 PUSH2 0x2FDB JUMP JUMPDEST SWAP1 SWAP2 SSTORE POP POP PUSH1 0x0 DUP6 DUP2 MSTORE PUSH1 0x4 PUSH1 0x20 SWAP1 DUP2 MSTORE PUSH1 0x40 DUP1 DUP4 KECCAK256 PUSH1 0x6 DUP4 MSTORE DUP2 DUP5 KECCAK256 SLOAD DUP5 MSTORE DUP3 MSTORE DUP1 DUP4 KECCAK256 DUP1 SLOAD PUSH1 0x1 PUSH1 0x1 PUSH1 0xA0 SHL SUB NOT AND PUSH1 0x1 PUSH1 0x1 PUSH1 0xA0 SHL SUB DUP8 AND SWAP1 DUP2 OR SWAP1 SWAP2 SSTORE DUP9 DUP5 MSTORE PUSH1 0x5 DUP4 MSTORE DUP2 DUP5 KECCAK256 SWAP1 DUP5 MSTORE DUP3 MSTORE DUP1 DUP4 KECCAK256 DUP1 SLOAD PUSH1 0xFF NOT SWAP1 DUP2 AND PUSH1 0x1 SWAP1 DUP2 OR SWAP1 SWAP3 SSTORE PUSH1 0x7 DUP5 MSTORE DUP3 DUP6 KECCAK256 DUP1 SLOAD SWAP1 SWAP2 AND DUP3 OR SWAP1 SSTORE DUP9 DUP5 MSTORE DUP1 DUP4 MSTORE SWAP3 DUP2 SWAP1 KECCAK256 DUP2 MLOAD PUSH2 0x120 DUP2 ADD SWAP1 SWAP3 MSTORE DUP1 SLOAD DUP3 MSTORE SWAP3 DUP4 ADD DUP1 SLOAD SWAP2 SWAP4 SWAP3 DUP5 ADD SWAP2 PUSH2 0x272B SWAP1 PUSH2 0x30B5 JUMP JUMPDEST DUP1 PUSH1 0x1F ADD PUSH1 0x20 DUP1 SWAP2 DIV MUL PUSH1 0x20 ADD PUSH1 0x40 MLOAD SWAP1 DUP2 ADD PUSH1 0x40 MSTORE DUP1 SWAP3 SWAP2 SWAP1 DUP2 DUP2 MSTORE PUSH1 0x20 ADD DUP3 DUP1 SLOAD PUSH2 0x2757 SWAP1 PUSH2 0x30B5 JUMP JUMPDEST DUP1 ISZERO PUSH2 0x27A4 JUMPI DUP1 PUSH1 0x1F LT PUSH2 0x2779 JUMPI PUSH2 0x100 DUP1 DUP4 SLOAD DIV MUL DUP4 MSTORE SWAP2 PUSH1 0x20 ADD SWAP2 PUSH2 0x27A4 JUMP JUMPDEST DUP3 ADD SWAP2 SWAP1 PUSH1 0x0 MSTORE PUSH1 0x20 PUSH1 0x0 KECCAK256 SWAP1 JUMPDEST DUP2 SLOAD DUP2 MSTORE SWAP1 PUSH1 0x1 ADD SWAP1 PUSH1 0x20 ADD DUP1 DUP4 GT PUSH2 0x2787 JUMPI DUP3 SWAP1 SUB PUSH1 0x1F AND DUP3 ADD SWAP2 JUMPDEST POP POP POP POP POP DUP2 MSTORE PUSH1 0x20 ADD PUSH1 0x2 DUP3 ADD DUP1 SLOAD PUSH2 0x27BD SWAP1 PUSH2 0x30B5 JUMP JUMPDEST DUP1 PUSH1 0x1F ADD PUSH1 0x20 DUP1 SWAP2 DIV MUL PUSH1 0x20 ADD PUSH1 0x40 MLOAD SWAP1 DUP2 ADD PUSH1 0x40 MSTORE DUP1 SWAP3 SWAP2 SWAP1 DUP2 DUP2 MSTORE PUSH1 0x20 ADD DUP3 DUP1 SLOAD PUSH2 0x27E9 SWAP1 PUSH2 0x30B5 JUMP JUMPDEST DUP1 ISZERO PUSH2 0x2836 JUMPI DUP1 PUSH1 0x1F LT PUSH2 0x280B JUMPI PUSH2 0x100 DUP1 DUP4 SLOAD DIV MUL DUP4 MSTORE SWAP2 PUSH1 0x20 ADD SWAP2 PUSH2 0x2836 JUMP JUMPDEST DUP3 ADD SWAP2 SWAP1 PUSH1 0x0 MSTORE PUSH1 0x20 PUSH1 0x0 KECCAK256 SWAP1 JUMPDEST DUP2 SLOAD DUP2 MSTORE SWAP1 PUSH1 0x1 ADD SWAP1 PUSH1 0x20 ADD DUP1 DUP4 GT PUSH2 0x2819 JUMPI DUP3 SWAP1 SUB PUSH1 0x1F AND DUP3 ADD SWAP2 JUMPDEST POP POP POP SWAP2 DUP4 MSTORE POP POP PUSH1 0x3 DUP3 ADD SLOAD PUSH1 0x1 PUSH1 0x1 PUSH1 0xA0 SHL SUB SWAP1 DUP2 AND PUSH1 0x20 DUP4 ADD MSTORE PUSH1 0x4 DUP4 ADD SLOAD PUSH1 0x40 DUP4 ADD MSTORE PUSH1 0x5 DUP4 ADD SLOAD AND PUSH1 0x60 DUP3 ADD MSTORE PUSH1 0x6 DUP3 ADD SLOAD PUSH1 0x80 DUP3 ADD MSTORE PUSH1 0x7 DUP3 ADD SLOAD PUSH1 0xA0 DUP3 ADD MSTORE PUSH1 0x8 SWAP1 SWAP2 ADD SLOAD PUSH1 0xC0 SWAP1 SWAP2 ADD MSTORE SWAP1 POP PUSH2 0x2A00 JUMP JUMPDEST PUSH1 0x0 DUP6 DUP2 MSTORE PUSH1 0x5 PUSH1 0x20 SWAP1 DUP2 MSTORE PUSH1 0x40 DUP1 DUP4 KECCAK256 PUSH1 0x1 PUSH1 0x1 PUSH1 0xA0 SHL SUB DUP7 AND DUP5 MSTORE SWAP1 SWAP2 MSTORE SWAP1 KECCAK256 SLOAD PUSH1 0xFF AND PUSH2 0x29B1 JUMPI PUSH1 0x1 PUSH1 0x1 PUSH1 0xA0 SHL SUB DUP3 AND PUSH1 0x0 SWAP1 DUP2 MSTORE PUSH1 0x7 PUSH1 0x20 MSTORE PUSH1 0x40 SWAP1 KECCAK256 SLOAD PUSH1 0xFF AND ISZERO PUSH2 0x2922 JUMPI PUSH1 0x40 MLOAD PUSH3 0x461BCD PUSH1 0xE5 SHL DUP2 MSTORE PUSH1 0x20 PUSH1 0x4 DUP3 ADD MSTORE PUSH1 0x1F PUSH1 0x24 DUP3 ADD MSTORE PUSH32 0x54686973206164647265737320616C7265616479207265676973746572656400 PUSH1 0x44 DUP3 ADD MSTORE PUSH1 0x64 ADD PUSH2 0x792 JUMP JUMPDEST PUSH1 0x0 DUP6 DUP2 MSTORE PUSH1 0x6 PUSH1 0x20 MSTORE PUSH1 0x40 DUP2 KECCAK256 DUP1 SLOAD SWAP2 PUSH2 0x293C DUP4 PUSH2 0x2FDB JUMP JUMPDEST SWAP1 SWAP2 SSTORE POP POP PUSH1 0x0 DUP6 DUP2 MSTORE PUSH1 0x4 PUSH1 0x20 SWAP1 DUP2 MSTORE PUSH1 0x40 DUP1 DUP4 KECCAK256 PUSH1 0x6 DUP4 MSTORE DUP2 DUP5 KECCAK256 SLOAD DUP5 MSTORE DUP3 MSTORE DUP1 DUP4 KECCAK256 DUP1 SLOAD PUSH1 0x1 PUSH1 0x1 PUSH1 0xA0 SHL SUB NOT AND PUSH1 0x1 PUSH1 0x1 PUSH1 0xA0 SHL SUB DUP8 AND SWAP1 DUP2 OR SWAP1 SWAP2 SSTORE DUP9 DUP5 MSTORE PUSH1 0x5 DUP4 MSTORE DUP2 DUP5 KECCAK256 SWAP1 DUP5 MSTORE DUP3 MSTORE DUP1 DUP4 KECCAK256 DUP1 SLOAD PUSH1 0xFF NOT SWAP1 DUP2 AND PUSH1 0x1 SWAP1 DUP2 OR SWAP1 SWAP3 SSTORE PUSH1 0x7 SWAP1 SWAP4 MSTORE SWAP3 KECCAK256 DUP1 SLOAD SWAP1 SWAP2 AND SWAP1 SWAP2 OR SWAP1 SSTORE JUMPDEST PUSH1 0x0 DUP6 DUP2 MSTORE PUSH1 0x1 PUSH1 0x20 DUP2 DUP2 MSTORE PUSH1 0x40 SWAP3 DUP4 SWAP1 KECCAK256 PUSH1 0x3 DUP2 ADD DUP1 SLOAD PUSH1 0x1 PUSH1 0x1 PUSH1 0xA0 SHL SUB NOT AND PUSH1 0x1 PUSH1 0x1 PUSH1 0xA0 SHL SUB DUP9 AND OR SWAP1 SSTORE DUP4 MLOAD PUSH2 0x120 DUP2 ADD SWAP1 SWAP5 MSTORE DUP1 SLOAD DUP5 MSTORE SWAP2 DUP3 ADD DUP1 SLOAD SWAP2 DUP5 ADD SWAP2 PUSH2 0x272B SWAP1 PUSH2 0x30B5 JUMP JUMPDEST SWAP5 SWAP4 POP POP POP POP JUMP JUMPDEST PUSH1 0x40 MLOAD DUP1 PUSH2 0x120 ADD PUSH1 0x40 MSTORE DUP1 PUSH1 0x0 DUP2 MSTORE PUSH1 0x20 ADD PUSH1 0x60 DUP2 MSTORE PUSH1 0x20 ADD PUSH1 0x60 DUP2 MSTORE PUSH1 0x20 ADD PUSH1 0x0 PUSH1 0x1 PUSH1 0x1 PUSH1 0xA0 SHL SUB AND DUP2 MSTORE PUSH1 0x20 ADD PUSH1 0x0 DUP2 MSTORE PUSH1 0x20 ADD PUSH1 0x0 PUSH1 0x1 PUSH1 0x1 PUSH1 0xA0 SHL SUB AND DUP2 MSTORE PUSH1 0x20 ADD PUSH1 0x0 DUP2 MSTORE PUSH1 0x20 ADD PUSH1 0x0 DUP2 MSTORE PUSH1 0x20 ADD PUSH1 0x0 DUP2 MSTORE POP SWAP1 JUMP JUMPDEST DUP3 DUP1 SLOAD PUSH2 0x2A72 SWAP1 PUSH2 0x30B5 JUMP JUMPDEST SWAP1 PUSH1 0x0 MSTORE PUSH1 0x20 PUSH1 0x0 KECCAK256 SWAP1 PUSH1 0x1F ADD PUSH1 0x20 SWAP1 DIV DUP2 ADD SWAP3 DUP3 PUSH2 0x2A94 JUMPI PUSH1 0x0 DUP6 SSTORE PUSH2 0x2ADA JUMP JUMPDEST DUP3 PUSH1 0x1F LT PUSH2 0x2AAD JUMPI DUP1 MLOAD PUSH1 0xFF NOT AND DUP4 DUP1 ADD OR DUP6 SSTORE PUSH2 0x2ADA JUMP JUMPDEST DUP3 DUP1 ADD PUSH1 0x1 ADD DUP6 SSTORE DUP3 ISZERO PUSH2 0x2ADA JUMPI SWAP2 DUP3 ADD JUMPDEST DUP3 DUP2 GT ISZERO PUSH2 0x2ADA JUMPI DUP3 MLOAD DUP3 SSTORE SWAP2 PUSH1 0x20 ADD SWAP2 SWAP1 PUSH1 0x1 ADD SWAP1 PUSH2 0x2ABF JUMP JUMPDEST POP PUSH2 0xD50 SWAP3 SWAP2 POP JUMPDEST DUP1 DUP3 GT ISZERO PUSH2 0xD50 JUMPI PUSH1 0x0 DUP2 SSTORE PUSH1 0x1 ADD PUSH2 0x2AE2 JUMP JUMPDEST DUP1 CALLDATALOAD PUSH1 0x1 PUSH1 0x1 PUSH1 0xA0 SHL SUB DUP2 AND DUP2 EQ PUSH2 0xC7F JUMPI PUSH1 0x0 DUP1 REVERT JUMPDEST PUSH1 0x0 PUSH1 0x20 DUP3 DUP5 SUB SLT ISZERO PUSH2 0x2B1F JUMPI PUSH1 0x0 DUP1 REVERT JUMPDEST PUSH2 0x2B28 DUP3 PUSH2 0x2AF6 JUMP JUMPDEST SWAP4 SWAP3 POP POP POP JUMP JUMPDEST PUSH1 0x0 PUSH1 0x20 DUP3 DUP5 SUB SLT ISZERO PUSH2 0x2B41 JUMPI PUSH1 0x0 DUP1 REVERT JUMPDEST POP CALLDATALOAD SWAP2 SWAP1 POP JUMP JUMPDEST PUSH1 0x0 JUMPDEST DUP4 DUP2 LT ISZERO PUSH2 0x2B63 JUMPI DUP2 DUP2 ADD MLOAD DUP4 DUP3 ADD MSTORE PUSH1 0x20 ADD PUSH2 0x2B4B JUMP JUMPDEST DUP4 DUP2 GT ISZERO PUSH2 0x14A9 JUMPI POP POP PUSH1 0x0 SWAP2 ADD MSTORE JUMP JUMPDEST PUSH1 0x0 DUP2 MLOAD DUP1 DUP5 MSTORE PUSH2 0x2B8C DUP2 PUSH1 0x20 DUP7 ADD PUSH1 0x20 DUP7 ADD PUSH2 0x2B48 JUMP JUMPDEST PUSH1 0x1F ADD PUSH1 0x1F NOT AND SWAP3 SWAP1 SWAP3 ADD PUSH1 0x20 ADD SWAP3 SWAP2 POP POP JUMP JUMPDEST PUSH1 0x20 DUP2 MSTORE PUSH1 0x0 PUSH2 0x2B28 PUSH1 0x20 DUP4 ADD DUP5 PUSH2 0x2B74 JUMP JUMPDEST PUSH1 0x0 PUSH2 0x120 DUP3 MLOAD DUP5 MSTORE PUSH1 0x20 DUP4 ADD MLOAD DUP2 PUSH1 0x20 DUP7 ADD MSTORE PUSH2 0x2BD3 DUP3 DUP7 ADD DUP3 PUSH2 0x2B74 JUMP JUMPDEST SWAP2 POP POP PUSH1 0x40 DUP4 ADD MLOAD DUP5 DUP3 SUB PUSH1 0x40 DUP7 ADD MSTORE PUSH2 0x2BED DUP3 DUP3 PUSH2 0x2B74 JUMP JUMPDEST SWAP2 POP POP PUSH1 0x60 DUP4 ADD MLOAD PUSH2 0x2C0A PUSH1 0x60 DUP7 ADD DUP3 PUSH1 0x1 PUSH1 0x1 PUSH1 0xA0 SHL SUB AND SWAP1 MSTORE JUMP JUMPDEST POP PUSH1 0x80 DUP4 ADD MLOAD PUSH1 0x80 DUP6 ADD MSTORE PUSH1 0xA0 DUP4 ADD MLOAD PUSH2 0x2C2F PUSH1 0xA0 DUP7 ADD DUP3 PUSH1 0x1 PUSH1 0x1 PUSH1 0xA0 SHL SUB AND SWAP1 MSTORE JUMP JUMPDEST POP PUSH1 0xC0 DUP4 DUP2 ADD MLOAD SWAP1 DUP6 ADD MSTORE PUSH1 0xE0 DUP1 DUP5 ADD MLOAD SWAP1 DUP6 ADD MSTORE PUSH2 0x100 SWAP3 DUP4 ADD MLOAD SWAP3 SWAP1 SWAP4 ADD SWAP2 SWAP1 SWAP2 MSTORE POP SWAP1 JUMP JUMPDEST PUSH1 0x0 PUSH1 0x20 DUP1 DUP4 ADD DUP2 DUP5 MSTORE DUP1 DUP6 MLOAD DUP1 DUP4 MSTORE PUSH1 0x40 DUP7 ADD SWAP2 POP PUSH1 0x40 DUP2 PUSH1 0x5 SHL DUP8 ADD ADD SWAP3 POP DUP4 DUP8 ADD PUSH1 0x0 JUMPDEST DUP3 DUP2 LT ISZERO PUSH2 0x2CAC JUMPI PUSH1 0x3F NOT DUP9 DUP7 SUB ADD DUP5 MSTORE PUSH2 0x2C9A DUP6 DUP4 MLOAD PUSH2 0x2BB3 JUMP JUMPDEST SWAP5 POP SWAP3 DUP6 ADD SWAP3 SWAP1 DUP6 ADD SWAP1 PUSH1 0x1 ADD PUSH2 0x2C7E JUMP JUMPDEST POP SWAP3 SWAP8 SWAP7 POP POP POP POP POP POP POP JUMP JUMPDEST PUSH1 0x20 DUP1 DUP3 MSTORE DUP3 MLOAD DUP3 DUP3 ADD DUP2 SWAP1 MSTORE PUSH1 0x0 SWAP2 SWAP1 DUP5 DUP3 ADD SWAP1 PUSH1 0x40 DUP6 ADD SWAP1 DUP5 JUMPDEST DUP2 DUP2 LT ISZERO PUSH2 0x2CFA JUMPI DUP4 MLOAD PUSH1 0x1 PUSH1 0x1 PUSH1 0xA0 SHL SUB AND DUP4 MSTORE SWAP3 DUP5 ADD SWAP3 SWAP2 DUP5 ADD SWAP2 PUSH1 0x1 ADD PUSH2 0x2CD5 JUMP JUMPDEST POP SWAP1 SWAP7 SWAP6 POP POP POP POP POP POP JUMP JUMPDEST PUSH1 0x0 PUSH2 0x120 DUP12 DUP4 MSTORE DUP1 PUSH1 0x20 DUP5 ADD MSTORE PUSH2 0x2D20 DUP2 DUP5 ADD DUP13 PUSH2 0x2B74 JUMP JUMPDEST SWAP1 POP DUP3 DUP2 SUB PUSH1 0x40 DUP5 ADD MSTORE PUSH2 0x2D34 DUP2 DUP12 PUSH2 0x2B74 JUMP JUMPDEST PUSH1 0x1 PUSH1 0x1 PUSH1 0xA0 SHL SUB SWAP10 DUP11 AND PUSH1 0x60 DUP6 ADD MSTORE PUSH1 0x80 DUP5 ADD SWAP9 SWAP1 SWAP9 MSTORE POP POP SWAP4 SWAP1 SWAP6 AND PUSH1 0xA0 DUP5 ADD MSTORE PUSH1 0xC0 DUP4 ADD SWAP2 SWAP1 SWAP2 MSTORE PUSH1 0xE0 DUP3 ADD MSTORE PUSH2 0x100 ADD SWAP2 SWAP1 SWAP2 MSTORE SWAP4 SWAP3 POP POP POP JUMP JUMPDEST PUSH1 0x20 DUP1 DUP3 MSTORE DUP3 MLOAD DUP3 DUP3 ADD DUP2 SWAP1 MSTORE PUSH1 0x0 SWAP2 SWAP1 DUP5 DUP3 ADD SWAP1 PUSH1 0x40 DUP6 ADD SWAP1 DUP5 JUMPDEST DUP2 DUP2 LT ISZERO PUSH2 0x2CFA JUMPI DUP4 MLOAD DUP4 MSTORE SWAP3 DUP5 ADD SWAP3 SWAP2 DUP5 ADD SWAP2 PUSH1 0x1 ADD PUSH2 0x2D8F JUMP JUMPDEST PUSH1 0x0 DUP1 PUSH1 0x40 DUP4 DUP6 SUB SLT ISZERO PUSH2 0x2DBE JUMPI PUSH1 0x0 DUP1 REVERT JUMPDEST POP POP DUP1 CALLDATALOAD SWAP3 PUSH1 0x20 SWAP1 SWAP2 ADD CALLDATALOAD SWAP2 POP JUMP JUMPDEST PUSH1 0x0 DUP1 PUSH1 0x40 DUP4 DUP6 SUB SLT ISZERO PUSH2 0x2DE0 JUMPI PUSH1 0x0 DUP1 REVERT JUMPDEST DUP3 CALLDATALOAD SWAP2 POP PUSH2 0x2DF0 PUSH1 0x20 DUP5 ADD PUSH2 0x2AF6 JUMP JUMPDEST SWAP1 POP SWAP3 POP SWAP3 SWAP1 POP JUMP JUMPDEST PUSH1 0x20 DUP2 MSTORE PUSH1 0x0 PUSH2 0x2B28 PUSH1 0x20 DUP4 ADD DUP5 PUSH2 0x2BB3 JUMP JUMPDEST PUSH4 0x4E487B71 PUSH1 0xE0 SHL PUSH1 0x0 MSTORE PUSH1 0x41 PUSH1 0x4 MSTORE PUSH1 0x24 PUSH1 0x0 REVERT JUMPDEST PUSH1 0x40 MLOAD PUSH1 0x1F DUP3 ADD PUSH1 0x1F NOT AND DUP2 ADD PUSH8 0xFFFFFFFFFFFFFFFF DUP2 GT DUP3 DUP3 LT OR ISZERO PUSH2 0x2E4B JUMPI PUSH2 0x2E4B PUSH2 0x2E0C JUMP JUMPDEST PUSH1 0x40 MSTORE SWAP2 SWAP1 POP JUMP JUMPDEST PUSH1 0x0 PUSH8 0xFFFFFFFFFFFFFFFF DUP3 GT ISZERO PUSH2 0x2E6D JUMPI PUSH2 0x2E6D PUSH2 0x2E0C JUMP JUMPDEST POP PUSH1 0x1F ADD PUSH1 0x1F NOT AND PUSH1 0x20 ADD SWAP1 JUMP JUMPDEST PUSH1 0x0 DUP3 PUSH1 0x1F DUP4 ADD SLT PUSH2 0x2E8C JUMPI PUSH1 0x0 DUP1 REVERT JUMPDEST DUP2 CALLDATALOAD PUSH2 0x2E9F PUSH2 0x2E9A DUP3 PUSH2 0x2E53 JUMP JUMPDEST PUSH2 0x2E22 JUMP JUMPDEST DUP2 DUP2 MSTORE DUP5 PUSH1 0x20 DUP4 DUP7 ADD ADD GT ISZERO PUSH2 0x2EB4 JUMPI PUSH1 0x0 DUP1 REVERT JUMPDEST DUP2 PUSH1 0x20 DUP6 ADD PUSH1 0x20 DUP4 ADD CALLDATACOPY PUSH1 0x0 SWAP2 DUP2 ADD PUSH1 0x20 ADD SWAP2 SWAP1 SWAP2 MSTORE SWAP4 SWAP3 POP POP POP JUMP JUMPDEST PUSH1 0x0 DUP1 PUSH1 0x0 DUP1 PUSH1 0x0 DUP1 PUSH1 0x0 PUSH1 0xE0 DUP9 DUP11 SUB SLT ISZERO PUSH2 0x2EEC JUMPI PUSH1 0x0 DUP1 REVERT JUMPDEST DUP8 CALLDATALOAD SWAP7 POP PUSH1 0x20 DUP9 ADD CALLDATALOAD PUSH8 0xFFFFFFFFFFFFFFFF DUP1 DUP3 GT ISZERO PUSH2 0x2F0B JUMPI PUSH1 0x0 DUP1 REVERT JUMPDEST PUSH2 0x2F17 DUP12 DUP4 DUP13 ADD PUSH2 0x2E7B JUMP JUMPDEST SWAP8 POP PUSH1 0x40 DUP11 ADD CALLDATALOAD SWAP2 POP DUP1 DUP3 GT ISZERO PUSH2 0x2F2D JUMPI PUSH1 0x0 DUP1 REVERT JUMPDEST PUSH2 0x2F39 DUP12 DUP4 DUP13 ADD PUSH2 0x2E7B JUMP JUMPDEST SWAP7 POP PUSH1 0x60 DUP11 ADD CALLDATALOAD SWAP6 POP PUSH1 0x80 DUP11 ADD CALLDATALOAD SWAP2 POP DUP1 DUP3 GT ISZERO PUSH2 0x2F56 JUMPI PUSH1 0x0 DUP1 REVERT JUMPDEST PUSH2 0x2F62 DUP12 DUP4 DUP13 ADD PUSH2 0x2E7B JUMP JUMPDEST SWAP5 POP PUSH1 0xA0 DUP11 ADD CALLDATALOAD SWAP2 POP DUP1 DUP3 GT ISZERO PUSH2 0x2F78 JUMPI PUSH1 0x0 DUP1 REVERT JUMPDEST POP PUSH2 0x2F85 DUP11 DUP3 DUP12 ADD PUSH2 0x2E7B JUMP JUMPDEST SWAP3 POP POP PUSH2 0x2F94 PUSH1 0xC0 DUP10 ADD PUSH2 0x2AF6 JUMP JUMPDEST SWAP1 POP SWAP3 SWAP6 SWAP9 SWAP2 SWAP5 SWAP8 POP SWAP3 SWAP6 POP JUMP JUMPDEST PUSH1 0x20 DUP1 DUP3 MSTORE PUSH1 0x9 SWAP1 DUP3 ADD MSTORE PUSH9 0x2737BA1037BBB732B9 PUSH1 0xB9 SHL PUSH1 0x40 DUP3 ADD MSTORE PUSH1 0x60 ADD SWAP1 JUMP JUMPDEST PUSH4 0x4E487B71 PUSH1 0xE0 SHL PUSH1 0x0 MSTORE PUSH1 0x11 PUSH1 0x4 MSTORE PUSH1 0x24 PUSH1 0x0 REVERT JUMPDEST PUSH1 0x0 PUSH1 0x0 NOT DUP3 EQ ISZERO PUSH2 0x2FEF JUMPI PUSH2 0x2FEF PUSH2 0x2FC5 JUMP JUMPDEST POP PUSH1 0x1 ADD SWAP1 JUMP JUMPDEST PUSH1 0x0 PUSH1 0x20 DUP3 DUP5 SUB SLT ISZERO PUSH2 0x3008 JUMPI PUSH1 0x0 DUP1 REVERT JUMPDEST POP MLOAD SWAP2 SWAP1 POP JUMP JUMPDEST PUSH1 0x0 PUSH1 0x20 DUP3 DUP5 SUB SLT ISZERO PUSH2 0x3021 JUMPI PUSH1 0x0 DUP1 REVERT JUMPDEST DUP2 MLOAD PUSH8 0xFFFFFFFFFFFFFFFF DUP2 GT ISZERO PUSH2 0x3038 JUMPI PUSH1 0x0 DUP1 REVERT JUMPDEST DUP3 ADD PUSH1 0x1F DUP2 ADD DUP5 SGT PUSH2 0x3049 JUMPI PUSH1 0x0 DUP1 REVERT JUMPDEST DUP1 MLOAD PUSH2 0x3057 PUSH2 0x2E9A DUP3 PUSH2 0x2E53 JUMP JUMPDEST DUP2 DUP2 MSTORE DUP6 PUSH1 0x20 DUP4 DUP6 ADD ADD GT ISZERO PUSH2 0x306C JUMPI PUSH1 0x0 DUP1 REVERT JUMPDEST PUSH2 0x307D DUP3 PUSH1 0x20 DUP4 ADD PUSH1 0x20 DUP7 ADD PUSH2 0x2B48 JUMP JUMPDEST SWAP6 SWAP5 POP POP POP POP POP JUMP JUMPDEST PUSH1 0x0 DUP2 PUSH2 0x3095 JUMPI PUSH2 0x3095 PUSH2 0x2FC5 JUMP JUMPDEST POP PUSH1 0x0 NOT ADD SWAP1 JUMP JUMPDEST PUSH1 0x0 DUP3 NOT DUP3 GT ISZERO PUSH2 0x30B0 JUMPI PUSH2 0x30B0 PUSH2 0x2FC5 JUMP JUMPDEST POP ADD SWAP1 JUMP JUMPDEST PUSH1 0x1 DUP2 DUP2 SHR SWAP1 DUP3 AND DUP1 PUSH2 0x30C9 JUMPI PUSH1 0x7F DUP3 AND SWAP2 POP JUMPDEST PUSH1 0x20 DUP3 LT DUP2 EQ ISZERO PUSH2 0xC7D JUMPI PUSH4 0x4E487B71 PUSH1 0xE0 SHL PUSH1 0x0 MSTORE PUSH1 0x22 PUSH1 0x4 MSTORE PUSH1 0x24 PUSH1 0x0 REVERT JUMPDEST PUSH4 0x4E487B71 PUSH1 0xE0 SHL PUSH1 0x0 MSTORE PUSH1 0x32 PUSH1 0x4 MSTORE PUSH1 0x24 PUSH1 0x0 REVERT JUMPDEST PUSH1 0x0 PUSH1 0x20 DUP3 DUP5 SUB SLT ISZERO PUSH2 0x3112 JUMPI PUSH1 0x0 DUP1 REVERT JUMPDEST DUP2 MLOAD DUP1 ISZERO ISZERO DUP2 EQ PUSH2 0x2B28 JUMPI PUSH1 0x0 DUP1 REVERT JUMPDEST PUSH1 0x0 DUP3 DUP3 LT ISZERO PUSH2 0x3134 JUMPI PUSH2 0x3134 PUSH2 0x2FC5 JUMP JUMPDEST POP SUB SWAP1 JUMP JUMPDEST PUSH1 0x0 PUSH1 0x20 DUP3 DUP5 SUB SLT ISZERO PUSH2 0x314B JUMPI PUSH1 0x0 DUP1 REVERT JUMPDEST DUP2 MLOAD PUSH1 0xFF DUP2 AND DUP2 EQ PUSH2 0x2B28 JUMPI PUSH1 0x0 DUP1 REVERT INVALID LOG2 PUSH5 0x6970667358 0x22 SLT KECCAK256 CALLDATALOAD DUP6 BASEFEE 0x2B PC 0xC7 PUSH32 0xF6C24C1AA01162AE3C5AF99492179D6177FB2408225E7BF3FF64736F6C634300 ADDMOD 0xC STOP CALLER "
				},
				"gasEstimates": {
					"creation": {
						"codeDepositCost": "2538000",
						"executionCost": "infinite",
						"totalCost": "infinite"
					},
					"external": {
						"addBlackList(address)": "104006",
						"addBlackListUser(uint256)": "101729",
						"blacklist(uint256)": "2568",
						"blacklistCount()": "2441",
						"blacklistIds(address)": "2575",
						"blacklistUsers(uint256)": "2560",
						"blacklistUsersCount()": "2330",
						"blacklistUsersIds(uint256)": "2517",
						"blacklistUsers_map(uint256)": "2540",
						"blacklist_map(address)": "2643",
						"delBlackList(address)": "88398",
						"delBlackListUser(uint256)": "86112",
						"getAllUsers()": "infinite",
						"getBalance()": "infinite",
						"getBlackList()": "infinite",
						"getBlackListUsers()": "infinite",
						"getDecimals()": "infinite",
						"getOracleBalance()": "4989",
						"getSymbol()": "infinite",
						"getUserAddreses(uint256)": "infinite",
						"getUserInfo(uint256)": "infinite",
						"getUserReferrals(uint256)": "infinite",
						"getUserReferralsData(uint256)": "infinite",
						"oracle()": "2405",
						"owner()": "2404",
						"referrerAddresses(address)": "2643",
						"registerUser(uint256,string,string,uint256,string,string,address)": "infinite",
						"repair()": "2404",
						"repairOwner(address)": "26823",
						"rewardAmount()": "2372",
						"rewardToken()": "2447",
						"safeTokens(address)": "infinite",
						"sendPendingReward()": "infinite",
						"setOracle(address)": "26901",
						"setRewardAmount(uint256)": "24575",
						"setRewardToken(address)": "26845",
						"tokensEarned()": "2373",
						"tokensEarnedPending(uint256)": "2516",
						"tokensPending()": "2331",
						"transferOwnership(address)": "26812",
						"userAddresses(uint256,uint256)": "2728",
						"userAddressesCount(uint256)": "2582",
						"userAddressesExists(uint256,address)": "2674",
						"userReferrals(uint256,uint256)": "2561",
						"usersById(uint256)": "infinite",
						"usersCount()": "2395",
						"usersExists(uint256)": "2583",
						"usersIds(uint256)": "2473",
						"withdrawTokens()": "infinite"
					},
					"internal": {
						"getReferrer(uint256,string memory,string memory,address)": "infinite"
					}
				},
				"methodIdentifiers": {
					"addBlackList(address)": "0ecb93c0",
					"addBlackListUser(uint256)": "7ce58741",
					"blacklist(uint256)": "0f2a0919",
					"blacklistCount()": "188d1644",
					"blacklistIds(address)": "e6983a1d",
					"blacklistUsers(uint256)": "ab3c5674",
					"blacklistUsersCount()": "1fdf35bd",
					"blacklistUsersIds(uint256)": "28e08f79",
					"blacklistUsers_map(uint256)": "83d23d6c",
					"blacklist_map(address)": "5414f2fc",
					"delBlackList(address)": "217987ad",
					"delBlackListUser(uint256)": "ebf1ff44",
					"getAllUsers()": "e2842d79",
					"getBalance()": "12065fe0",
					"getBlackList()": "360b97b9",
					"getBlackListUsers()": "e1f817c6",
					"getDecimals()": "f0141d84",
					"getOracleBalance()": "4f292ea9",
					"getSymbol()": "15070401",
					"getUserAddreses(uint256)": "8bf0a38f",
					"getUserInfo(uint256)": "d379dadf",
					"getUserReferrals(uint256)": "54ed7da3",
					"getUserReferralsData(uint256)": "34679df9",
					"oracle()": "7dc0d1d0",
					"owner()": "8da5cb5b",
					"referrerAddresses(address)": "2a1c7116",
					"registerUser(uint256,string,string,uint256,string,string,address)": "f9e41e9f",
					"repair()": "5a058758",
					"repairOwner(address)": "8ab85914",
					"rewardAmount()": "f7b2a7be",
					"rewardToken()": "f7c618c1",
					"safeTokens(address)": "c5ee21d2",
					"sendPendingReward()": "e0b42754",
					"setOracle(address)": "7adbf973",
					"setRewardAmount(uint256)": "a8a65a78",
					"setRewardToken(address)": "8aee8127",
					"tokensEarned()": "8ffc5752",
					"tokensEarnedPending(uint256)": "5e7e1786",
					"tokensPending()": "04d0ac48",
					"transferOwnership(address)": "f2fde38b",
					"userAddresses(uint256,uint256)": "55513d1f",
					"userAddressesCount(uint256)": "b07cbc9c",
					"userAddressesExists(uint256,address)": "56823a3f",
					"userReferrals(uint256,uint256)": "b676b097",
					"usersById(uint256)": "426b5382",
					"usersCount()": "6ba13a82",
					"usersExists(uint256)": "76dcf720",
					"usersIds(uint256)": "3a517151",
					"withdrawTokens()": "8d8f2adb"
				}
			},
			"storageLayout": {
				"storage": [
					{
						"astId": 53,
						"contract": "ReferalSystem.sol:ReferralSystem",
						"label": "userReferrals",
						"offset": 0,
						"slot": "0",
						"type": "t_mapping(t_uint256,t_mapping(t_uint256,t_uint256))"
					},
					{
						"astId": 58,
						"contract": "ReferalSystem.sol:ReferralSystem",
						"label": "usersById",
						"offset": 0,
						"slot": "1",
						"type": "t_mapping(t_uint256,t_struct(User)47_storage)"
					},
					{
						"astId": 62,
						"contract": "ReferalSystem.sol:ReferralSystem",
						"label": "usersExists",
						"offset": 0,
						"slot": "2",
						"type": "t_mapping(t_uint256,t_bool)"
					},
					{
						"astId": 66,
						"contract": "ReferalSystem.sol:ReferralSystem",
						"label": "usersIds",
						"offset": 0,
						"slot": "3",
						"type": "t_mapping(t_uint256,t_uint256)"
					},
					{
						"astId": 72,
						"contract": "ReferalSystem.sol:ReferralSystem",
						"label": "userAddresses",
						"offset": 0,
						"slot": "4",
						"type": "t_mapping(t_uint256,t_mapping(t_uint256,t_address))"
					},
					{
						"astId": 78,
						"contract": "ReferalSystem.sol:ReferralSystem",
						"label": "userAddressesExists",
						"offset": 0,
						"slot": "5",
						"type": "t_mapping(t_uint256,t_mapping(t_address,t_bool))"
					},
					{
						"astId": 82,
						"contract": "ReferalSystem.sol:ReferralSystem",
						"label": "userAddressesCount",
						"offset": 0,
						"slot": "6",
						"type": "t_mapping(t_uint256,t_uint256)"
					},
					{
						"astId": 86,
						"contract": "ReferalSystem.sol:ReferralSystem",
						"label": "referrerAddresses",
						"offset": 0,
						"slot": "7",
						"type": "t_mapping(t_address,t_bool)"
					},
					{
						"astId": 90,
						"contract": "ReferalSystem.sol:ReferralSystem",
						"label": "tokensEarnedPending",
						"offset": 0,
						"slot": "8",
						"type": "t_mapping(t_uint256,t_uint256)"
					},
					{
						"astId": 93,
						"contract": "ReferalSystem.sol:ReferralSystem",
						"label": "tokensPending",
						"offset": 0,
						"slot": "9",
						"type": "t_uint256"
					},
					{
						"astId": 96,
						"contract": "ReferalSystem.sol:ReferralSystem",
						"label": "tokensEarned",
						"offset": 0,
						"slot": "10",
						"type": "t_uint256"
					},
					{
						"astId": 98,
						"contract": "ReferalSystem.sol:ReferralSystem",
						"label": "usersCount",
						"offset": 0,
						"slot": "11",
						"type": "t_uint256"
					},
					{
						"astId": 102,
						"contract": "ReferalSystem.sol:ReferralSystem",
						"label": "blacklist_map",
						"offset": 0,
						"slot": "12",
						"type": "t_mapping(t_address,t_bool)"
					},
					{
						"astId": 106,
						"contract": "ReferalSystem.sol:ReferralSystem",
						"label": "blacklistIds",
						"offset": 0,
						"slot": "13",
						"type": "t_mapping(t_address,t_uint256)"
					},
					{
						"astId": 110,
						"contract": "ReferalSystem.sol:ReferralSystem",
						"label": "blacklist",
						"offset": 0,
						"slot": "14",
						"type": "t_mapping(t_uint256,t_address)"
					},
					{
						"astId": 112,
						"contract": "ReferalSystem.sol:ReferralSystem",
						"label": "blacklistCount",
						"offset": 0,
						"slot": "15",
						"type": "t_uint256"
					},
					{
						"astId": 116,
						"contract": "ReferalSystem.sol:ReferralSystem",
						"label": "blacklistUsers_map",
						"offset": 0,
						"slot": "16",
						"type": "t_mapping(t_uint256,t_bool)"
					},
					{
						"astId": 120,
						"contract": "ReferalSystem.sol:ReferralSystem",
						"label": "blacklistUsersIds",
						"offset": 0,
						"slot": "17",
						"type": "t_mapping(t_uint256,t_uint256)"
					},
					{
						"astId": 124,
						"contract": "ReferalSystem.sol:ReferralSystem",
						"label": "blacklistUsers",
						"offset": 0,
						"slot": "18",
						"type": "t_mapping(t_uint256,t_uint256)"
					},
					{
						"astId": 126,
						"contract": "ReferalSystem.sol:ReferralSystem",
						"label": "blacklistUsersCount",
						"offset": 0,
						"slot": "19",
						"type": "t_uint256"
					},
					{
						"astId": 360,
						"contract": "ReferalSystem.sol:ReferralSystem",
						"label": "owner",
						"offset": 0,
						"slot": "20",
						"type": "t_address"
					},
					{
						"astId": 362,
						"contract": "ReferalSystem.sol:ReferralSystem",
						"label": "repair",
						"offset": 0,
						"slot": "21",
						"type": "t_address"
					},
					{
						"astId": 376,
						"contract": "ReferalSystem.sol:ReferralSystem",
						"label": "oracle",
						"offset": 0,
						"slot": "22",
						"type": "t_address"
					},
					{
						"astId": 398,
						"contract": "ReferalSystem.sol:ReferralSystem",
						"label": "rewardToken",
						"offset": 0,
						"slot": "23",
						"type": "t_contract(IERC20)28"
					},
					{
						"astId": 401,
						"contract": "ReferalSystem.sol:ReferralSystem",
						"label": "rewardAmount",
						"offset": 0,
						"slot": "24",
						"type": "t_uint256"
					}
				],
				"types": {
					"t_address": {
						"encoding": "inplace",
						"label": "address",
						"numberOfBytes": "20"
					},
					"t_bool": {
						"encoding": "inplace",
						"label": "bool",
						"numberOfBytes": "1"
					},
					"t_contract(IERC20)28": {
						"encoding": "inplace",
						"label": "contract IERC20",
						"numberOfBytes": "20"
					},
					"t_mapping(t_address,t_bool)": {
						"encoding": "mapping",
						"key": "t_address",
						"label": "mapping(address => bool)",
						"numberOfBytes": "32",
						"value": "t_bool"
					},
					"t_mapping(t_address,t_uint256)": {
						"encoding": "mapping",
						"key": "t_address",
						"label": "mapping(address => uint256)",
						"numberOfBytes": "32",
						"value": "t_uint256"
					},
					"t_mapping(t_uint256,t_address)": {
						"encoding": "mapping",
						"key": "t_uint256",
						"label": "mapping(uint256 => address)",
						"numberOfBytes": "32",
						"value": "t_address"
					},
					"t_mapping(t_uint256,t_bool)": {
						"encoding": "mapping",
						"key": "t_uint256",
						"label": "mapping(uint256 => bool)",
						"numberOfBytes": "32",
						"value": "t_bool"
					},
					"t_mapping(t_uint256,t_mapping(t_address,t_bool))": {
						"encoding": "mapping",
						"key": "t_uint256",
						"label": "mapping(uint256 => mapping(address => bool))",
						"numberOfBytes": "32",
						"value": "t_mapping(t_address,t_bool)"
					},
					"t_mapping(t_uint256,t_mapping(t_uint256,t_address))": {
						"encoding": "mapping",
						"key": "t_uint256",
						"label": "mapping(uint256 => mapping(uint256 => address))",
						"numberOfBytes": "32",
						"value": "t_mapping(t_uint256,t_address)"
					},
					"t_mapping(t_uint256,t_mapping(t_uint256,t_uint256))": {
						"encoding": "mapping",
						"key": "t_uint256",
						"label": "mapping(uint256 => mapping(uint256 => uint256))",
						"numberOfBytes": "32",
						"value": "t_mapping(t_uint256,t_uint256)"
					},
					"t_mapping(t_uint256,t_struct(User)47_storage)": {
						"encoding": "mapping",
						"key": "t_uint256",
						"label": "mapping(uint256 => struct ReferralSystem.User)",
						"numberOfBytes": "32",
						"value": "t_struct(User)47_storage"
					},
					"t_mapping(t_uint256,t_uint256)": {
						"encoding": "mapping",
						"key": "t_uint256",
						"label": "mapping(uint256 => uint256)",
						"numberOfBytes": "32",
						"value": "t_uint256"
					},
					"t_string_storage": {
						"encoding": "bytes",
						"label": "string",
						"numberOfBytes": "32"
					},
					"t_struct(User)47_storage": {
						"encoding": "inplace",
						"label": "struct ReferralSystem.User",
						"members": [
							{
								"astId": 30,
								"contract": "ReferalSystem.sol:ReferralSystem",
								"label": "id",
								"offset": 0,
								"slot": "0",
								"type": "t_uint256"
							},
							{
								"astId": 32,
								"contract": "ReferalSystem.sol:ReferralSystem",
								"label": "nickname",
								"offset": 0,
								"slot": "1",
								"type": "t_string_storage"
							},
							{
								"astId": 34,
								"contract": "ReferalSystem.sol:ReferralSystem",
								"label": "email",
								"offset": 0,
								"slot": "2",
								"type": "t_string_storage"
							},
							{
								"astId": 36,
								"contract": "ReferalSystem.sol:ReferralSystem",
								"label": "userAddress",
								"offset": 0,
								"slot": "3",
								"type": "t_address"
							},
							{
								"astId": 38,
								"contract": "ReferalSystem.sol:ReferralSystem",
								"label": "referrer_id",
								"offset": 0,
								"slot": "4",
								"type": "t_uint256"
							},
							{
								"astId": 40,
								"contract": "ReferalSystem.sol:ReferralSystem",
								"label": "referrer_address",
								"offset": 0,
								"slot": "5",
								"type": "t_address"
							},
							{
								"astId": 42,
								"contract": "ReferalSystem.sol:ReferralSystem",
								"label": "referralsCount",
								"offset": 0,
								"slot": "6",
								"type": "t_uint256"
							},
							{
								"astId": 44,
								"contract": "ReferalSystem.sol:ReferralSystem",
								"label": "tokensEarned",
								"offset": 0,
								"slot": "7",
								"type": "t_uint256"
							},
							{
								"astId": 46,
								"contract": "ReferalSystem.sol:ReferralSystem",
								"label": "tokensPending",
								"offset": 0,
								"slot": "8",
								"type": "t_uint256"
							}
						],
						"numberOfBytes": "288"
					},
					"t_uint256": {
						"encoding": "inplace",
						"label": "uint256",
						"numberOfBytes": "32"
					}
				}
			},
			"userdoc": {
				"kind": "user",
				"methods": {},
				"version": 1
			}
		}
	}
}