{
	"data": {
		"bytecode": {
			"linkReferences": {},
			"object": "608060405260006009556000600a55600a6018553480156200002057600080fd5b5060405162003294380380620032948339810160408190526200004391620000b1565b60148054336001600160a01b031991821681179092556016805482166001600160a01b03948516179055601580548216909217909155601780549091169390911692909217909155601855620000f2565b80516001600160a01b0381168114620000ac57600080fd5b919050565b600080600060608486031215620000c757600080fd5b620000d28462000094565b925060208401519150620000e96040850162000094565b90509250925092565b61319280620001026000396000f3fe608060405234801561001057600080fd5b50600436106102bb5760003560e01c80637ce5874111610182578063b676b097116100e9578063e6983a1d116100a2578063f2fde38b1161007c578063f2fde38b14610726578063f7b2a7be14610739578063f7c618c114610742578063f9e41e9f1461075557600080fd5b8063e6983a1d146106d9578063ebf1ff44146106f9578063f0141d841461070c57600080fd5b8063b676b09714610666578063c5ee21d21461068e578063d379dadf146106a1578063e0b42754146106c1578063e1f817c6146106c9578063e2842d79146106d157600080fd5b80638d8f2adb1161013b5780638d8f2adb146105ef5780638da5cb5b146105f75780638ffc57521461060a578063a8a65a7814610613578063ab3c567414610626578063b07cbc9c1461064657600080fd5b80637ce587411461056d5780637dc0d1d01461058057806383d23d6c146105935780638ab85914146105b65780638aee8127146105c95780638bf0a38f146105dc57600080fd5b80633a5171511161022657806356823a3f116101df57806356823a3f146104cd5780635a058758146104fb5780635e7e17861461050e5780636ba13a821461052e57806376dcf720146105375780637adbf9731461055a57600080fd5b80633a517151146103fc578063426b53821461041c5780634f292ea9146104445780635414f2fc1461045657806354ed7da31461047957806355513d1f1461049957600080fd5b80631fdf35bd116102785780631fdf35bd14610358578063217987ad1461036157806328e08f79146103745780632a1c71161461039457806334679df9146103c7578063360b97b9146103e757600080fd5b806304d0ac48146102c05780630ecb93c0146102dc5780630f2a0919146102f157806312065fe014610332578063150704011461033a578063188d16441461034f575b600080fd5b6102c960095481565b6040519081526020015b60405180910390f35b6102ef6102ea366004612b0d565b610768565b005b61031a6102ff366004612b2f565b600e602052600090815260409020546001600160a01b031681565b6040516001600160a01b0390911681526020016102d3565b6102c9610824565b610342610896565b6040516102d39190612ba0565b6102c9600f5481565b6102c960135481565b6102ef61036f366004612b0d565b610908565b6102c9610382366004612b2f565b60116020526000908152604090205481565b6103b76103a2366004612b0d565b60076020526000908152604090205460ff1681565b60405190151581526020016102d3565b6103da6103d5366004612b2f565b6109f2565b6040516102d39190612c57565b6103ef610c84565b6040516102d39190612cb9565b6102c961040a366004612b2f565b60036020526000908152604090205481565b61042f61042a366004612b2f565b610d55565b6040516102d399989796959493929190612d06565b6016546001600160a01b0316316102c9565b6103b7610464366004612b0d565b600c6020526000908152604090205460ff1681565b61048c610487366004612b2f565b610eba565b6040516102d39190612d73565b61031a6104a7366004612dab565b60046020908152600092835260408084209091529082529020546001600160a01b031681565b6103b76104db366004612dcd565b600560209081526000928352604080842090915290825290205460ff1681565b60155461031a906001600160a01b031681565b6102c961051c366004612b2f565b60086020526000908152604090205481565b6102c9600b5481565b6103b7610545366004612b2f565b60026020526000908152604090205460ff1681565b6102ef610568366004612b0d565b610f9e565b6102ef61057b366004612b2f565b61102f565b60165461031a906001600160a01b031681565b6103b76105a1366004612b2f565b60106020526000908152604090205460ff1681565b6102ef6105c4366004612b0d565b6110bf565b6102ef6105d7366004612b0d565b61110b565b6103ef6105ea366004612b2f565b611157565b6102ef611252565b60145461031a906001600160a01b031681565b6102c9600a5481565b6102ef610621366004612b2f565b61136a565b6102c9610634366004612b2f565b60126020526000908152604090205481565b6102c9610654366004612b2f565b60066020526000908152604090205481565b6102c9610674366004612dab565b600060208181529281526040808220909352908152205481565b6102ef61069c366004612b0d565b611399565b6106b46106af366004612b2f565b6114b0565b6040516102d39190612df9565b6102ef61164d565b61048c611aab565b6103da611b57565b6102c96106e7366004612b0d565b600d6020526000908152604090205481565b6102ef610707366004612b2f565b611da9565b610714611e51565b60405160ff90911681526020016102d3565b6102ef610734366004612b0d565b611ebf565b6102c960185481565b60175461031a906001600160a01b031681565b6102ef610763366004612ed1565b611f2e565b6014546001600160a01b0316331461079b5760405162461bcd60e51b815260040161079290612fa2565b60405180910390fd5b6001600160a01b0381166000908152600c602052604090205460ff1661082157600f80549060006107cb83612fdb565b9091555050600f80546000908152600e6020908152604080832080546001600160a01b0319166001600160a01b0387169081179091558352600c8252808320805460ff191660011790559254600d909152919020555b50565b6017546040516370a0823160e01b81523060048201526000916001600160a01b0316906370a0823190602401602060405180830381865afa15801561086d573d6000803e3d6000fd5b505050506040513d601f19601f820116820180604052508101906108919190612ff6565b905090565b601754604080516395d89b4160e01b815290516060926001600160a01b0316916395d89b419160048083019260009291908290030181865afa1580156108e0573d6000803e3d6000fd5b505050506040513d6000823e601f3d908101601f19168201604052610891919081019061300f565b6014546001600160a01b031633146109325760405162461bcd60e51b815260040161079290612fa2565b6001600160a01b0381166000908152600c602052604090205460ff161561082157600f546001600160a01b0382166000908152600d602052604090205410156109bc57600f546000908152600e60208181526040808420546001600160a01b038681168652600d84528286205486529390925290922080546001600160a01b031916919092161790555b6001600160a01b0381166000908152600c60205260408120805460ff19169055600f8054916109ea83613086565b919050555050565b60008181526001602052604090206006015460609015610c7f5760008281526001602052604090206006015467ffffffffffffffff811115610a3657610a36612e0c565b604051908082528060200260200182016040528015610a6f57816020015b610a5c612a08565b815260200190600190039081610a545790505b50905060005b600083815260016020526040902060060154811015610c7d5760008381526020819052604081206001919081610aab858561309d565b81526020019081526020016000205481526020019081526020016000206040518061012001604052908160008201548152602001600182018054610aee906130b5565b80601f0160208091040260200160405190810160405280929190818152602001828054610b1a906130b5565b8015610b675780601f10610b3c57610100808354040283529160200191610b67565b820191906000526020600020905b815481529060010190602001808311610b4a57829003601f168201915b50505050508152602001600282018054610b80906130b5565b80601f0160208091040260200160405190810160405280929190818152602001828054610bac906130b5565b8015610bf95780601f10610bce57610100808354040283529160200191610bf9565b820191906000526020600020905b815481529060010190602001808311610bdc57829003601f168201915b505050918352505060038201546001600160a01b03908116602083015260048301546040830152600583015416606082015260068201546080820152600782015460a082015260089091015460c0909101528251839083908110610c5f57610c5f6130ea565b60200260200101819052508080610c7590612fdb565b915050610a75565b505b919050565b600f5460609015610d5257600f5467ffffffffffffffff811115610caa57610caa612e0c565b604051908082528060200260200182016040528015610cd3578160200160208202803683370190505b50905060005b600f54811015610d5057600e6000610cf283600161309d565b815260200190815260200160002060009054906101000a90046001600160a01b0316828281518110610d2657610d266130ea565b6001600160a01b039092166020928302919091019091015280610d4881612fdb565b915050610cd9565b505b90565b600160208190526000918252604090912080549181018054610d76906130b5565b80601f0160208091040260200160405190810160405280929190818152602001828054610da2906130b5565b8015610def5780601f10610dc457610100808354040283529160200191610def565b820191906000526020600020905b815481529060010190602001808311610dd257829003601f168201915b505050505090806002018054610e04906130b5565b80601f0160208091040260200160405190810160405280929190818152602001828054610e30906130b5565b8015610e7d5780601f10610e5257610100808354040283529160200191610e7d565b820191906000526020600020905b815481529060010190602001808311610e6057829003601f168201915b5050506003840154600485015460058601546006870154600788015460089098015496976001600160a01b03948516979396509190931693509089565b60008181526001602052604090206006015460609015610c7f5760008281526001602052604090206006015467ffffffffffffffff811115610efe57610efe612e0c565b604051908082528060200260200182016040528015610f27578160200160208202803683370190505b50905060005b600083815260016020526040902060060154811015610c7d57600083815260208190526040812090610f6083600161309d565b815260200190815260200160002054828281518110610f8157610f816130ea565b602090810291909101015280610f9681612fdb565b915050610f2d565b6014546001600160a01b03163314610fc85760405162461bcd60e51b815260040161079290612fa2565b6001600160a01b03811661100d5760405162461bcd60e51b815260206004820152600c60248201526b5a65726f206164647265737360a01b6044820152606401610792565b601680546001600160a01b0319166001600160a01b0392909216919091179055565b6014546001600160a01b031633146110595760405162461bcd60e51b815260040161079290612fa2565b60008181526010602052604090205460ff16610821576013805490600061107f83612fdb565b909155505060138054600090815260126020908152604080832085905584835260108252808320805460ff19166001179055925460119091529190205550565b6015546001600160a01b031633146110e95760405162461bcd60e51b815260040161079290612fa2565b601480546001600160a01b0319166001600160a01b0392909216919091179055565b6014546001600160a01b031633146111355760405162461bcd60e51b815260040161079290612fa2565b601780546001600160a01b0319166001600160a01b0392909216919091179055565b60008181526006602052604090205460609015610c7f5760008281526006602052604090205467ffffffffffffffff81111561119557611195612e0c565b6040519080825280602002602001820160405280156111be578160200160208202803683370190505b50905060005b600083815260066020526040902054811015610c7d576000838152600460205260408120906111f483600161309d565b815260200190815260200160002060009054906101000a90046001600160a01b0316828281518110611228576112286130ea565b6001600160a01b03909216602092830291909101909101528061124a81612fdb565b9150506111c4565b6014546001600160a01b0316331461127c5760405162461bcd60e51b815260040161079290612fa2565b6017546040516370a0823160e01b81523060048201526000916001600160a01b0316906370a0823190602401602060405180830381865afa1580156112c5573d6000803e3d6000fd5b505050506040513d601f19601f820116820180604052508101906112e99190612ff6565b905080156108215760175460405163a9059cbb60e01b8152336004820152602481018390526001600160a01b039091169063a9059cbb906044016020604051808303816000875af1158015611342573d6000803e3d6000fd5b505050506040513d601f19601f820116820180604052508101906113669190613100565b5050565b6014546001600160a01b031633146113945760405162461bcd60e51b815260040161079290612fa2565b601855565b6014546001600160a01b031633146113c35760405162461bcd60e51b815260040161079290612fa2565b6040516370a0823160e01b815230600482015281906000906001600160a01b038316906370a0823190602401602060405180830381865afa15801561140c573d6000803e3d6000fd5b505050506040513d601f19601f820116820180604052508101906114309190612ff6565b905080156114ab5760405163a9059cbb60e01b8152336004820152602481018290526001600160a01b0383169063a9059cbb906044016020604051808303816000875af1158015611485573d6000803e3d6000fd5b505050506040513d601f19601f820116820180604052508101906114a99190613100565b505b505050565b6114b8612a08565b60008281526001602081815260409283902083516101208101909452805484529182018054918401916114ea906130b5565b80601f0160208091040260200160405190810160405280929190818152602001828054611516906130b5565b80156115635780601f1061153857610100808354040283529160200191611563565b820191906000526020600020905b81548152906001019060200180831161154657829003601f168201915b5050505050815260200160028201805461157c906130b5565b80601f01602080910402602001604051908101604052809291908181526020018280546115a8906130b5565b80156115f55780601f106115ca576101008083540402835291602001916115f5565b820191906000526020600020905b8154815290600101906020018083116115d857829003601f168201915b505050918352505060038201546001600160a01b03908116602083015260048301546040830152600583015416606082015260068201546080820152600782015460a082015260089091015460c09091015292915050565b6014546001600160a01b031633146116775760405162461bcd60e51b815260040161079290612fa2565b6017546040516370a0823160e01b81523060048201526000916001600160a01b0316906370a0823190602401602060405180830381865afa1580156116c0573d6000803e3d6000fd5b505050506040513d601f19601f820116820180604052508101906116e49190612ff6565b905060006009541180156116f85750600081115b156108215760005b600b5481101561136657600060038161171a84600161309d565b81526020019081526020016000205490506000600160008381526020019081526020016000206040518061012001604052908160008201548152602001600182018054611766906130b5565b80601f0160208091040260200160405190810160405280929190818152602001828054611792906130b5565b80156117df5780601f106117b4576101008083540402835291602001916117df565b820191906000526020600020905b8154815290600101906020018083116117c257829003601f168201915b505050505081526020016002820180546117f8906130b5565b80601f0160208091040260200160405190810160405280929190818152602001828054611824906130b5565b80156118715780601f1061184657610100808354040283529160200191611871565b820191906000526020600020905b81548152906001019060200180831161185457829003601f168201915b505050918352505060038201546001600160a01b03908116602083015260048301546040830152600583015416606082015260068201546080820152600782015460a082015260089091015460c090910152610100810151909150158015906118df57508061010001518410155b15611a86576101008101516118f49085613122565b601754606083015161010084015160405163a9059cbb60e01b81526001600160a01b0392831660048201526024810191909152929650169063a9059cbb906044016020604051808303816000875af1158015611954573d6000803e3d6000fd5b505050506040513d601f19601f820116820180604052508101906119789190613100565b508061010001518160e001818151611990919061309d565b905250610100810151600980546000906119ab908490613122565b9091555050610100810151600a80546000906119c890849061309d565b9091555050600061010082018190528281526001602081815260409092208351815582840151805185949293611a0393908501920190612a66565b5060408201518051611a1f916002840191602090910190612a66565b5060608201516003820180546001600160a01b039283166001600160a01b0319918216179091556080840151600484015560a084015160058401805491909316911617905560c0820151600682015560e08201516007820155610100909101516008909101555b601854841015611a965750505050565b50508080611aa390612fdb565b915050611700565b60135460609015610d525760135467ffffffffffffffff811115611ad157611ad1612e0c565b604051908082528060200260200182016040528015611afa578160200160208202803683370190505b50905060005b601354811015610d505760126000611b1983600161309d565b815260200190815260200160002054828281518110611b3a57611b3a6130ea565b602090810291909101015280611b4f81612fdb565b915050611b00565b600b5460609015610d5257600b5467ffffffffffffffff811115611b7d57611b7d612e0c565b604051908082528060200260200182016040528015611bb657816020015b611ba3612a08565b815260200190600190039081611b9b5790505b50905060005b600b54811015610d505760016000600381611bd7858561309d565b81526020019081526020016000205481526020019081526020016000206040518061012001604052908160008201548152602001600182018054611c1a906130b5565b80601f0160208091040260200160405190810160405280929190818152602001828054611c46906130b5565b8015611c935780601f10611c6857610100808354040283529160200191611c93565b820191906000526020600020905b815481529060010190602001808311611c7657829003601f168201915b50505050508152602001600282018054611cac906130b5565b80601f0160208091040260200160405190810160405280929190818152602001828054611cd8906130b5565b8015611d255780601f10611cfa57610100808354040283529160200191611d25565b820191906000526020600020905b815481529060010190602001808311611d0857829003601f168201915b505050918352505060038201546001600160a01b03908116602083015260048301546040830152600583015416606082015260068201546080820152600782015460a082015260089091015460c0909101528251839083908110611d8b57611d8b6130ea565b60200260200101819052508080611da190612fdb565b915050611bbc565b6014546001600160a01b03163314611dd35760405162461bcd60e51b815260040161079290612fa2565b60008181526010602052604090205460ff1615610821576013546000828152601160205260409020541015611e2d576013546000908152601260208181526040808420548585526011835281852054855292909152909120555b6000818152601060205260408120805460ff1916905560138054916109ea83613086565b6017546040805163313ce56760e01b815290516000926001600160a01b03169163313ce5679160048083019260209291908290030181865afa158015611e9b573d6000803e3d6000fd5b505050506040513d601f19601f820116820180604052508101906108919190613139565b6014546001600160a01b03163314611ee95760405162461bcd60e51b815260040161079290612fa2565b6001600160a01b0381166110e95760405162461bcd60e51b815260206004820152600c60248201526b5a65726f206164647265737360a01b6044820152606401610792565b6014546001600160a01b0316331480611f5157506016546001600160a01b031633145b611f945760405162461bcd60e51b81526020600482015260146024820152734f6e6c79206f776e6572206f72206f7261636c6560601b6044820152606401610792565b60008781526002602052604090205460ff1615611ff35760405162461bcd60e51b815260206004820152601760248201527f5573657220616c726561647920726567697374657265640000000000000000006044820152606401610792565b838714156120435760405162461bcd60e51b815260206004820152601860248201527f53656c662072656665726572206e6f7420616c6c6f77656400000000000000006044820152606401610792565b6001600160a01b0381166000908152600c602052604090205460ff16156120ac5760405162461bcd60e51b815260206004820152601760248201527f526566657272657220616464726573732062616e6e65640000000000000000006044820152606401610792565b60008481526010602052604090205460ff16156121005760405162461bcd60e51b8152602060048201526012602482015271149959995c9c995c8812510818985b9b995960721b6044820152606401610792565b6017546040516370a0823160e01b81523060048201526000916001600160a01b0316906370a0823190602401602060405180830381865afa158015612149573d6000803e3d6000fd5b505050506040513d601f19601f8201168201806040525081019061216d9190612ff6565b9050600061217d868686866124b2565b600b8054919250600061218f83612fdb565b90915550506000898152600260209081526040808320805460ff19166001908117909155600b548452600383528184208d90558151610120810183528d81528084018d81528184018d905260608201869052608082018c90526001600160a01b03891660a083015260c0820186905260e0820186905261010082018690528e865282855292909420845181559151805192936122319392850192910190612a66565b506040820151805161224d916002840191602090910190612a66565b5060608201516003820180546001600160a01b039283166001600160a01b0319918216179091556080840151600484015560a084015160058401805491909316911617905560c080830151600683015560e083015160078301556101009092015160089091015581018051906122c282612fdb565b90525060008681526020818152604080832060c085015184529091529020899055601854821061239e5760175460185460405163a9059cbb60e01b81526001600160a01b038681166004830152602482019290925291169063a9059cbb906044016020604051808303816000875af1158015612342573d6000803e3d6000fd5b505050506040513d601f19601f820116820180604052508101906123669190613100565b506018548160e00181815161237b919061309d565b905250601854600a805460009061239390849061309d565b909155506123f79050565b60185481610100018181516123b3919061309d565b905250601854600087815260086020526040812080549091906123d790849061309d565b9091555050601854600980546000906123f190849061309d565b90915550505b6000868152600160208181526040909220835181558284015180518594929361242593908501920190612a66565b5060408201518051612441916002840191602090910190612a66565b5060608201516003820180546001600160a01b039283166001600160a01b0319918216179091556080840151600484015560a084015160058401805491909316911617905560c0820151600682015560e0820151600782015561010090910151600890910155505050505050505050565b6124ba612a08565b60008581526002602052604090205460ff1661288f576001600160a01b03821660009081526007602052604090205460ff16156125395760405162461bcd60e51b815260206004820152601f60248201527f54686973206164647265737320616c72656164792072656769737465726564006044820152606401610792565b600b805490600061254983612fdb565b90915550506000858152600260209081526040808320805460ff19166001908117909155600b548452600383528184208990558151610120810183528981528084018981528184018990526001600160a01b03881660608301526080820186905260a0820186905260c0820186905260e0820186905261010082018690528a865282855292909420845181559151805192936125eb9392850192910190612a66565b5060408201518051612607916002840191602090910190612a66565b5060608201516003820180546001600160a01b039283166001600160a01b0319918216179091556080840151600484015560a084015160058401805491909316911617905560c082015160068083019190915560e083015160078301556101009092015160089091015560008681526020919091526040812080549161268c83612fdb565b9091555050600085815260046020908152604080832060068352818420548452825280832080546001600160a01b0319166001600160a01b038716908117909155888452600583528184209084528252808320805460ff19908116600190811790925560078452828520805490911682179055888452808352928190208151610120810190925280548252928301805491939284019161272b906130b5565b80601f0160208091040260200160405190810160405280929190818152602001828054612757906130b5565b80156127a45780601f10612779576101008083540402835291602001916127a4565b820191906000526020600020905b81548152906001019060200180831161278757829003601f168201915b505050505081526020016002820180546127bd906130b5565b80601f01602080910402602001604051908101604052809291908181526020018280546127e9906130b5565b80156128365780601f1061280b57610100808354040283529160200191612836565b820191906000526020600020905b81548152906001019060200180831161281957829003601f168201915b505050918352505060038201546001600160a01b03908116602083015260048301546040830152600583015416606082015260068201546080820152600782015460a082015260089091015460c0909101529050612a00565b60008581526005602090815260408083206001600160a01b038616845290915290205460ff166129b1576001600160a01b03821660009081526007602052604090205460ff16156129225760405162461bcd60e51b815260206004820152601f60248201527f54686973206164647265737320616c72656164792072656769737465726564006044820152606401610792565b600085815260066020526040812080549161293c83612fdb565b9091555050600085815260046020908152604080832060068352818420548452825280832080546001600160a01b0319166001600160a01b038716908117909155888452600583528184209084528252808320805460ff19908116600190811790925560079093529220805490911690911790555b6000858152600160208181526040928390206003810180546001600160a01b0319166001600160a01b038816179055835161012081019094528054845291820180549184019161272b906130b5565b949350505050565b60405180610120016040528060008152602001606081526020016060815260200160006001600160a01b031681526020016000815260200160006001600160a01b031681526020016000815260200160008152602001600081525090565b828054612a72906130b5565b90600052602060002090601f016020900481019282612a945760008555612ada565b82601f10612aad57805160ff1916838001178555612ada565b82800160010185558215612ada579182015b82811115612ada578251825591602001919060010190612abf565b50610d509291505b80821115610d505760008155600101612ae2565b80356001600160a01b0381168114610c7f57600080fd5b600060208284031215612b1f57600080fd5b612b2882612af6565b9392505050565b600060208284031215612b4157600080fd5b5035919050565b60005b83811015612b63578181015183820152602001612b4b565b838111156114a95750506000910152565b60008151808452612b8c816020860160208601612b48565b601f01601f19169290920160200192915050565b602081526000612b286020830184612b74565b6000610120825184526020830151816020860152612bd382860182612b74565b91505060408301518482036040860152612bed8282612b74565b9150506060830151612c0a60608601826001600160a01b03169052565b506080830151608085015260a0830151612c2f60a08601826001600160a01b03169052565b5060c0838101519085015260e080840151908501526101009283015192909301919091525090565b6000602080830181845280855180835260408601915060408160051b870101925083870160005b82811015612cac57603f19888603018452612c9a858351612bb3565b94509285019290850190600101612c7e565b5092979650505050505050565b6020808252825182820181905260009190848201906040850190845b81811015612cfa5783516001600160a01b031683529284019291840191600101612cd5565b50909695505050505050565b60006101208b8352806020840152612d208184018c612b74565b90508281036040840152612d34818b612b74565b6001600160a01b03998a166060850152608084019890985250509390951660a084015260c083019190915260e082015261010001919091529392505050565b6020808252825182820181905260009190848201906040850190845b81811015612cfa57835183529284019291840191600101612d8f565b60008060408385031215612dbe57600080fd5b50508035926020909101359150565b60008060408385031215612de057600080fd5b82359150612df060208401612af6565b90509250929050565b602081526000612b286020830184612bb3565b634e487b7160e01b600052604160045260246000fd5b604051601f8201601f1916810167ffffffffffffffff81118282101715612e4b57612e4b612e0c565b604052919050565b600067ffffffffffffffff821115612e6d57612e6d612e0c565b50601f01601f191660200190565b600082601f830112612e8c57600080fd5b8135612e9f612e9a82612e53565b612e22565b818152846020838601011115612eb457600080fd5b816020850160208301376000918101602001919091529392505050565b600080600080600080600060e0888a031215612eec57600080fd5b87359650602088013567ffffffffffffffff80821115612f0b57600080fd5b612f178b838c01612e7b565b975060408a0135915080821115612f2d57600080fd5b612f398b838c01612e7b565b965060608a0135955060808a0135915080821115612f5657600080fd5b612f628b838c01612e7b565b945060a08a0135915080821115612f7857600080fd5b50612f858a828b01612e7b565b925050612f9460c08901612af6565b905092959891949750929550565b6020808252600990820152682737ba1037bbb732b960b91b604082015260600190565b634e487b7160e01b600052601160045260246000fd5b6000600019821415612fef57612fef612fc5565b5060010190565b60006020828403121561300857600080fd5b5051919050565b60006020828403121561302157600080fd5b815167ffffffffffffffff81111561303857600080fd5b8201601f8101841361304957600080fd5b8051613057612e9a82612e53565b81815285602083850101111561306c57600080fd5b61307d826020830160208601612b48565b95945050505050565b60008161309557613095612fc5565b506000190190565b600082198211156130b0576130b0612fc5565b500190565b600181811c908216806130c957607f821691505b60208210811415610c7d57634e487b7160e01b600052602260045260246000fd5b634e487b7160e01b600052603260045260246000fd5b60006020828403121561311257600080fd5b81518015158114612b2857600080fd5b60008282101561313457613134612fc5565b500390565b60006020828403121561314b57600080fd5b815160ff81168114612b2857600080fdfea26469706673582212203585482b58c77ff6c24c1aa01162ae3c5af99492179d6177fb2408225e7bf3ff64736f6c634300080c0033",
			"opcodes": "PUSH1 0x80 PUSH1 0x40 MSTORE PUSH1 0x0 PUSH1 0x9 SSTORE PUSH1 0x0 PUSH1 0xA SSTORE PUSH1 0xA PUSH1 0x18 SSTORE CALLVALUE DUP1 ISZERO PUSH3 0x20 JUMPI PUSH1 0x0 DUP1 REVERT JUMPDEST POP PUSH1 0x40 MLOAD PUSH3 0x3294 CODESIZE SUB DUP1 PUSH3 0x3294 DUP4 CODECOPY DUP2 ADD PUSH1 0x40 DUP2 SWAP1 MSTORE PUSH3 0x43 SWAP2 PUSH3 0xB1 JUMP JUMPDEST PUSH1 0x14 DUP1 SLOAD CALLER PUSH1 0x1 PUSH1 0x1 PUSH1 0xA0 SHL SUB NOT SWAP2 DUP3 AND DUP2 OR SWAP1 SWAP3 SSTORE PUSH1 0x16 DUP1 SLOAD DUP3 AND PUSH1 0x1 PUSH1 0x1 PUSH1 0xA0 SHL SUB SWAP5 DUP6 AND OR SWAP1 SSTORE PUSH1 0x15 DUP1 SLOAD DUP3 AND SWAP1 SWAP3 OR SWAP1 SWAP2 SSTORE PUSH1 0x17 DUP1 SLOAD SWAP1 SWAP2 AND SWAP4 SWAP1 SWAP2 AND SWAP3 SWAP1 SWAP3 OR SWAP1 SWAP2 SSTORE PUSH1 0x18 SSTORE PUSH3 0xF2 JUMP JUMPDEST DUP1 MLOAD PUSH1 0x1 PUSH1 0x1 PUSH1 0xA0 SHL SUB DUP2 AND DUP2 EQ PUSH3 0xAC JUMPI PUSH1 0x0 DUP1 REVERT JUMPDEST SWAP2 SWAP1 POP JUMP JUMPDEST PUSH1 0x0 DUP1 PUSH1 0x0 PUSH1 0x60 DUP5 DUP7 SUB SLT ISZERO PUSH3 0xC7 JUMPI PUSH1 0x0 DUP1 REVERT JUMPDEST PUSH3 0xD2 DUP5 PUSH3 0x94 JUMP JUMPDEST SWAP3 POP PUSH1 0x20 DUP5 ADD MLOAD SWAP2 POP PUSH3 0xE9 PUSH1 0x40 DUP6 ADD PUSH3 0x94 JUMP JUMPDEST SWAP1 POP SWAP3 POP SWAP3 POP SWAP3 JUMP JUMPDEST PUSH2 0x3192 DUP1 PUSH3 0x102 PUSH1 0x0 CODECOPY PUSH1 0x0 RETURN INVALID PUSH1 0x80 PUSH1 0x40 MSTORE CALLVALUE DUP1 ISZERO PUSH2 0x10 JUMPI PUSH1 0x0 DUP1 REVERT JUMPDEST POP PUSH1 0x4 CALLDATASIZE LT PUSH2 0x2BB JUMPI PUSH1 0x0 CALLDATALOAD PUSH1 0xE0 SHR DUP1 PUSH4 0x7CE58741 GT PUSH2 0x182 JUMPI DUP1 PUSH4 0xB676B097 GT PUSH2 0xE9 JUMPI DUP1 PUSH4 0xE6983A1D GT PUSH2 0xA2 JUMPI DUP1 PUSH4 0xF2FDE38B GT PUSH2 0x7C JUMPI DUP1 PUSH4 0xF2FDE38B EQ PUSH2 0x726 JUMPI DUP1 PUSH4 0xF7B2A7BE EQ PUSH2 0x739 JUMPI DUP1 PUSH4 0xF7C618C1 EQ PUSH2 0x742 JUMPI DUP1 PUSH4 0xF9E41E9F EQ PUSH2 0x755 JUMPI PUSH1 0x0 DUP1 REVERT JUMPDEST DUP1 PUSH4 0xE6983A1D EQ PUSH2 0x6D9 JUMPI DUP1 PUSH4 0xEBF1FF44 EQ PUSH2 0x6F9 JUMPI DUP1 PUSH4 0xF0141D84 EQ PUSH2 0x70C JUMPI PUSH1 0x0 DUP1 REVERT JUMPDEST DUP1 PUSH4 0xB676B097 EQ PUSH2 0x666 JUMPI DUP1 PUSH4 0xC5EE21D2 EQ PUSH2 0x68E JUMPI DUP1 PUSH4 0xD379DADF EQ PUSH2 0x6A1 JUMPI DUP1 PUSH4 0xE0B42754 EQ PUSH2 0x6C1 JUMPI DUP1 PUSH4 0xE1F817C6 EQ PUSH2 0x6C9 JUMPI DUP1 PUSH4 0xE2842D79 EQ PUSH2 0x6D1 JUMPI PUSH1 0x0 DUP1 REVERT JUMPDEST DUP1 PUSH4 0x8D8F2ADB GT PUSH2 0x13B JUMPI DUP1 PUSH4 0x8D8F2ADB EQ PUSH2 0x5EF JUMPI DUP1 PUSH4 0x8DA5CB5B EQ PUSH2 0x5F7 JUMPI DUP1 PUSH4 0x8FFC5752 EQ PUSH2 0x60A JUMPI DUP1 PUSH4 0xA8A65A78 EQ PUSH2 0x613 JUMPI DUP1 PUSH4 0xAB3C5674 EQ PUSH2 0x626 JUMPI DUP1 PUSH4 0xB07CBC9C EQ PUSH2 0x646 JUMPI PUSH1 0x0 DUP1 REVERT JUMPDEST DUP1 PUSH4 0x7CE58741 EQ PUSH2 0x56D JUMPI DUP1 PUSH4 0x7DC0D1D0 EQ PUSH2 0x580 JUMPI DUP1 PUSH4 0x83D23D6C EQ PUSH2 0x593 JUMPI DUP1 PUSH4 0x8AB85914 EQ PUSH2 0x5B6 JUMPI DUP1 PUSH4 0x8AEE8127 EQ PUSH2 0x5C9 JUMPI DUP1 PUSH4 0x8BF0A38F EQ PUSH2 0x5DC JUMPI PUSH1 0x0 DUP1 REVERT JUMPDEST DUP1 PUSH4 0x3A517151 GT PUSH2 0x226 JUMPI DUP1 PUSH4 0x56823A3F GT PUSH2 0x1DF JUMPI DUP1 PUSH4 0x56823A3F EQ PUSH2 0x4CD JUMPI DUP1 PUSH4 0x5A058758 EQ PUSH2 0x4FB JUMPI DUP1 PUSH4 0x5E7E1786 EQ PUSH2 0x50E JUMPI DUP1 PUSH4 0x6BA13A82 EQ PUSH2 0x52E JUMPI DUP1 PUSH4 0x76DCF720 EQ PUSH2 0x537 JUMPI DUP1 PUSH4 0x7ADBF973 EQ PUSH2 0x55A JUMPI PUSH1 0x0 DUP1 REVERT JUMPDEST DUP1 PUSH4 0x3A517151 EQ PUSH2 0x3FC JUMPI DUP1 PUSH4 0x426B5382 EQ PUSH2 0x41C JUMPI DUP1 PUSH4 0x4F292EA9 EQ PUSH2 0x444 JUMPI DUP1 PUSH4 0x5414F2FC EQ PUSH2 0x456 JUMPI DUP1 PUSH4 0x54ED7DA3 EQ PUSH2 0x479 JUMPI DUP1 PUSH4 0x55513D1F EQ PUSH2 0x499 JUMPI PUSH1 0x0 DUP1 REVERT JUMPDEST DUP1 PUSH4 0x1FDF35BD GT PUSH2 0x278 JUMPI DUP1 PUSH4 0x1FDF35BD EQ PUSH2 0x358 JUMPI DUP1 PUSH4 0x217987AD EQ PUSH2 0x361 JUMPI DUP1 PUSH4 0x28E08F79 EQ PUSH2 0x374 JUMPI DUP1 PUSH4 0x2A1C7116 EQ PUSH2 0x394 JUMPI DUP1 PUSH4 0x34679DF9 EQ PUSH2 0x3C7 JUMPI DUP1 PUSH4 0x360B97B9 EQ PUSH2 0x3E7 JUMPI PUSH1 0x0 DUP1 REVERT JUMPDEST DUP1 PUSH4 0x4D0AC48 EQ PUSH2 0x2C0 JUMPI DUP1 PUSH4 0xECB93C0 EQ PUSH2 0x2DC JUMPI DUP1 PUSH4 0xF2A0919 EQ PUSH2 0x2F1 JUMPI DUP1 PUSH4 0x12065FE0 EQ PUSH2 0x332 JUMPI DUP1 PUSH4 0x15070401 EQ PUSH2 0x33A JUMPI DUP1 PUSH4 0x188D1644 EQ PUSH2 0x34F JUMPI JUMPDEST PUSH1 0x0 DUP1 REVERT JUMPDEST PUSH2 0x2C9 PUSH1 0x9 SLOAD DUP2 JUMP JUMPDEST PUSH1 0x40 MLOAD SWAP1 DUP2 MSTORE PUSH1 0x20 ADD JUMPDEST PUSH1 0x40 MLOAD DUP1 SWAP2 SUB SWAP1 RETURN JUMPDEST PUSH2 0x2EF PUSH2 0x2EA CALLDATASIZE PUSH1 0x4 PUSH2 0x2B0D JUMP JUMPDEST PUSH2 0x768 JUMP JUMPDEST STOP JUMPDEST PUSH2 0x31A PUSH2 0x2FF CALLDATASIZE PUSH1 0x4 PUSH2 0x2B2F JUMP JUMPDEST PUSH1 0xE PUSH1 0x20 MSTORE PUSH1 0x0 SWAP1 DUP2 MSTORE PUSH1 0x40 SWAP1 KECCAK256 SLOAD PUSH1 0x1 PUSH1 0x1 PUSH1 0xA0 SHL SUB AND DUP2 JUMP JUMPDEST PUSH1 0x40 MLOAD PUSH1 0x1 PUSH1 0x1 PUSH1 0xA0 SHL SUB SWAP1 SWAP2 AND DUP2 MSTORE PUSH1 0x20 ADD PUSH2 0x2D3 JUMP JUMPDEST PUSH2 0x2C9 PUSH2 0x824 JUMP JUMPDEST PUSH2 0x342 PUSH2 0x896 JUMP JUMPDEST PUSH1 0x40 MLOAD PUSH2 0x2D3 SWAP2 SWAP1 PUSH2 0x2BA0 JUMP JUMPDEST PUSH2 0x2C9 PUSH1 0xF SLOAD DUP2 JUMP JUMPDEST PUSH2 0x2C9 PUSH1 0x13 SLOAD DUP2 JUMP JUMPDEST PUSH2 0x2EF PUSH2 0x36F CALLDATASIZE PUSH1 0x4 PUSH2 0x2B0D JUMP JUMPDEST PUSH2 0x908 JUMP JUMPDEST PUSH2 0x2C9 PUSH2 0x382 CALLDATASIZE PUSH1 0x4 PUSH2 0x2B2F JUMP JUMPDEST PUSH1 0x11 PUSH1 0x20 MSTORE PUSH1 0x0 SWAP1 DUP2 MSTORE PUSH1 0x40 SWAP1 KECCAK256 SLOAD DUP2 JUMP JUMPDEST PUSH2 0x3B7 PUSH2 0x3A2 CALLDATASIZE PUSH1 0x4 PUSH2 0x2B0D JUMP JUMPDEST PUSH1 0x7 PUSH1 0x20 MSTORE PUSH1 0x0 SWAP1 DUP2 MSTORE PUSH1 0x40 SWAP1 KECCAK256 SLOAD PUSH1 0xFF AND DUP2 JUMP JUMPDEST PUSH1 0x40 MLOAD SWAP1 ISZERO ISZERO DUP2 MSTORE PUSH1 0x20 ADD PUSH2 0x2D3 JUMP JUMPDEST PUSH2 0x3DA PUSH2 0x3D5 CALLDATASIZE PUSH1 0x4 PUSH2 0x2B2F JUMP JUMPDEST PUSH2 0x9F2 JUMP JUMPDEST PUSH1 0x40 MLOAD PUSH2 0x2D3 SWAP2 SWAP1 PUSH2 0x2C57 JUMP JUMPDEST PUSH2 0x3EF PUSH2 0xC84 JUMP JUMPDEST PUSH1 0x40 MLOAD PUSH2 0x2D3 SWAP2 SWAP1 PUSH2 0x2CB9 JUMP JUMPDEST PUSH2 0x2C9 PUSH2 0x40A CALLDATASIZE PUSH1 0x4 PUSH2 0x2B2F JUMP JUMPDEST PUSH1 0x3 PUSH1 0x20 MSTORE PUSH1 0x0 SWAP1 DUP2 MSTORE PUSH1 0x40 SWAP1 KECCAK256 SLOAD DUP2 JUMP JUMPDEST PUSH2 0x42F PUSH2 0x42A CALLDATASIZE PUSH1 0x4 PUSH2 0x2B2F JUMP JUMPDEST PUSH2 0xD55 JUMP JUMPDEST PUSH1 0x40 MLOAD PUSH2 0x2D3 SWAP10 SWAP9 SWAP8 SWAP7 SWAP6 SWAP5 SWAP4 SWAP3 SWAP2 SWAP1 PUSH2 0x2D06 JUMP JUMPDEST PUSH1 0x16 SLOAD PUSH1 0x1 PUSH1 0x1 PUSH1 0xA0 SHL SUB AND BALANCE PUSH2 0x2C9 JUMP JUMPDEST PUSH2 0x3B7 PUSH2 0x464 CALLDATASIZE PUSH1 0x4 PUSH2 0x2B0D JUMP JUMPDEST PUSH1 0xC PUSH1 0x20 MSTORE PUSH1 0x0 SWAP1 DUP2 MSTORE PUSH1 0x40 SWAP1 KECCAK256 SLOAD PUSH1 0xFF AND DUP2 JUMP JUMPDEST PUSH2 0x48C PUSH2 0x487 CALLDATASIZE PUSH1 0x4 PUSH2 0x2B2F JUMP JUMPDEST PUSH2 0xEBA JUMP JUMPDEST PUSH1 0x40 MLOAD PUSH2 0x2D3 SWAP2 SWAP1 PUSH2 0x2D73 JUMP JUMPDEST PUSH2 0x31A PUSH2 0x4A7 CALLDATASIZE PUSH1 0x4 PUSH2 0x2DAB JUMP JUMPDEST PUSH1 0x4 PUSH1 0x20 SWAP1 DUP2 MSTORE PUSH1 0x0 SWAP3 DUP4 MSTORE PUSH1 0x40 DUP1 DUP5 KECCAK256 SWAP1 SWAP2 MSTORE SWAP1 DUP3 MSTORE SWAP1 KECCAK256 SLOAD PUSH1 0x1 PUSH1 0x1 PUSH1 0xA0 SHL SUB AND DUP2 JUMP JUMPDEST PUSH2 0x3B7 PUSH2 0x4DB CALLDATASIZE PUSH1 0x4 PUSH2 0x2DCD JUMP JUMPDEST PUSH1 0x5 PUSH1 0x20 SWAP1 DUP2 MSTORE PUSH1 0x0 SWAP3 DUP4 MSTORE PUSH1 0x40 DUP1 DUP5 KECCAK256 SWAP1 SWAP2 MSTORE SWAP1 DUP3 MSTORE SWAP1 KECCAK256 SLOAD PUSH1 0xFF AND DUP2 JUMP JUMPDEST PUSH1 0x15 SLOAD PUSH2 0x31A SWAP1 PUSH1 0x1 PUSH1 0x1 PUSH1 0xA0 SHL SUB AND DUP2 JUMP JUMPDEST PUSH2 0x2C9 PUSH2 0x51C CALLDATASIZE PUSH1 0x4 PUSH2 0x2B2F JUMP JUMPDEST PUSH1 0x8 PUSH1 0x20 MSTORE PUSH1 0x0 SWAP1 DUP2 MSTORE PUSH1 0x40 SWAP1 KECCAK256 SLOAD DUP2 JUMP JUMPDEST PUSH2 0x2C9 PUSH1 0xB SLOAD DUP2 JUMP JUMPDEST PUSH2 0x3B7 PUSH2 0x545 CALLDATASIZE PUSH1 0x4 PUSH2 0x2B2F JUMP JUMPDEST PUSH1 0x2 PUSH1 0x20 MSTORE PUSH1 0x0 SWAP1 DUP2 MSTORE PUSH1 0x40 SWAP1 KECCAK256 SLOAD PUSH1 0xFF AND DUP2 JUMP JUMPDEST PUSH2 0x2EF PUSH2 0x568 CALLDATASIZE PUSH1 0x4 PUSH2 0x2B0D JUMP JUMPDEST PUSH2 0xF9E JUMP JUMPDEST PUSH2 0x2EF PUSH2 0x57B CALLDATASIZE PUSH1 0x4 PUSH2 0x2B2F JUMP JUMPDEST PUSH2 0x102F JUMP JUMPDEST PUSH1 0x16 SLOAD PUSH2 0x31A SWAP1 PUSH1 0x1 PUSH1 0x1 PUSH1 0xA0 SHL SUB AND DUP2 JUMP JUMPDEST PUSH2 0x3B7 PUSH2 0x5A1 CALLDATASIZE PUSH1 0x4 PUSH2 0x2B2F JUMP JUMPDEST PUSH1 0x10 PUSH1 0x20 MSTORE PUSH1 0x0 SWAP1 DUP2 MSTORE PUSH1 0x40 SWAP1 KECCAK256 SLOAD PUSH1 0xFF AND DUP2 JUMP JUMPDEST PUSH2 0x2EF PUSH2 0x5C4 CALLDATASIZE PUSH1 0x4 PUSH2 0x2B0D JUMP JUMPDEST PUSH2 0x10BF JUMP JUMPDEST PUSH2 0x2EF PUSH2 0x5D7 CALLDATASIZE PUSH1 0x4 PUSH2 0x2B0D JUMP JUMPDEST PUSH2 0x110B JUMP JUMPDEST PUSH2 0x3EF PUSH2 0x5EA CALLDATASIZE PUSH1 0x4 PUSH2 0x2B2F JUMP JUMPDEST PUSH2 0x1157 JUMP JUMPDEST PUSH2 0x2EF PUSH2 0x1252 JUMP JUMPDEST PUSH1 0x14 SLOAD PUSH2 0x31A SWAP1 PUSH1 0x1 PUSH1 0x1 PUSH1 0xA0 SHL SUB AND DUP2 JUMP JUMPDEST PUSH2 0x2C9 PUSH1 0xA SLOAD DUP2 JUMP JUMPDEST PUSH2 0x2EF PUSH2 0x621 CALLDATASIZE PUSH1 0x4 PUSH2 0x2B2F JUMP JUMPDEST PUSH2 0x136A JUMP JUMPDEST PUSH2 0x2C9 PUSH2 0x634 CALLDATASIZE PUSH1 0x4 PUSH2 0x2B2F JUMP JUMPDEST PUSH1 0x12 PUSH1 0x20 MSTORE PUSH1 0x0 SWAP1 DUP2 MSTORE PUSH1 0x40 SWAP1 KECCAK256 SLOAD DUP2 JUMP JUMPDEST PUSH2 0x2C9 PUSH2 0x654 CALLDATASIZE PUSH1 0x4 PUSH2 0x2B2F JUMP JUMPDEST PUSH1 0x6 PUSH1 0x20 MSTORE PUSH1 0x0 SWAP1 DUP2 MSTORE PUSH1 0x40 SWAP1 KECCAK256 SLOAD DUP2 JUMP JUMPDEST PUSH2 0x2C9 PUSH2 0x674 CALLDATASIZE PUSH1 0x4 PUSH2 0x2DAB JUMP JUMPDEST PUSH1 0x0 PUSH1 0x20 DUP2 DUP2 MSTORE SWAP3 DUP2 MSTORE PUSH1 0x40 DUP1 DUP3 KECCAK256 SWAP1 SWAP4 MSTORE SWAP1 DUP2 MSTORE KECCAK256 SLOAD DUP2 JUMP JUMPDEST PUSH2 0x2EF PUSH2 0x69C CALLDATASIZE PUSH1 0x4 PUSH2 0x2B0D JUMP JUMPDEST PUSH2 0x1399 JUMP JUMPDEST PUSH2 0x6B4 PUSH2 0x6AF CALLDATASIZE PUSH1 0x4 PUSH2 0x2B2F JUMP JUMPDEST PUSH2 0x14B0 JUMP JUMPDEST PUSH1 0x40 MLOAD PUSH2 0x2D3 SWAP2 SWAP1 PUSH2 0x2DF9 JUMP JUMPDEST PUSH2 0x2EF PUSH2 0x164D JUMP JUMPDEST PUSH2 0x48C PUSH2 0x1AAB JUMP JUMPDEST PUSH2 0x3DA PUSH2 0x1B57 JUMP JUMPDEST PUSH2 0x2C9 PUSH2 0x6E7 CALLDATASIZE PUSH1 0x4 PUSH2 0x2B0D JUMP JUMPDEST PUSH1 0xD PUSH1 0x20 MSTORE PUSH1 0x0 SWAP1 DUP2 MSTORE PUSH1 0x40 SWAP1 KECCAK256 SLOAD DUP2 JUMP JUMPDEST PUSH2 0x2EF PUSH2 0x707 CALLDATASIZE PUSH1 0x4 PUSH2 0x2B2F JUMP JUMPDEST PUSH2 0x1DA9 JUMP JUMPDEST PUSH2 0x714 PUSH2 0x1E51 JUMP JUMPDEST PUSH1 0x40 MLOAD PUSH1 0xFF SWAP1 SWAP2 AND DUP2 MSTORE PUSH1 0x20 ADD PUSH2 0x2D3 JUMP JUMPDEST PUSH2 0x2EF PUSH2 0x734 CALLDATASIZE PUSH1 0x4 PUSH2 0x2B0D JUMP JUMPDEST PUSH2 0x1EBF JUMP JUMPDEST PUSH2 0x2C9 PUSH1 0x18 SLOAD DUP2 JUMP JUMPDEST PUSH1 0x17 SLOAD PUSH2 0x31A SWAP1 PUSH1 0x1 PUSH1 0x1 PUSH1 0xA0 SHL SUB AND DUP2 JUMP JUMPDEST PUSH2 0x2EF PUSH2 0x763 CALLDATASIZE PUSH1 0x4 PUSH2 0x2ED1 JUMP JUMPDEST PUSH2 0x1F2E JUMP JUMPDEST PUSH1 0x14 SLOAD PUSH1 0x1 PUSH1 0x1 PUSH1 0xA0 SHL SUB AND CALLER EQ PUSH2 0x79B JUMPI PUSH1 0x40 MLOAD PUSH3 0x461BCD PUSH1 0xE5 SHL DUP2 MSTORE PUSH1 0x4 ADD PUSH2 0x792 SWAP1 PUSH2 0x2FA2 JUMP JUMPDEST PUSH1 0x40 MLOAD DUP1 SWAP2 SUB SWAP1 REVERT JUMPDEST PUSH1 0x1 PUSH1 0x1 PUSH1 0xA0 SHL SUB DUP2 AND PUSH1 0x0 SWAP1 DUP2 MSTORE PUSH1 0xC PUSH1 0x20 MSTORE PUSH1 0x40 SWAP1 KECCAK256 SLOAD PUSH1 0xFF AND PUSH2 0x821 JUMPI PUSH1 0xF DUP1 SLOAD SWAP1 PUSH1 0x0 PUSH2 0x7CB DUP4 PUSH2 0x2FDB JUMP JUMPDEST SWAP1 SWAP2 SSTORE POP POP PUSH1 0xF DUP1 SLOAD PUSH1 0x0 SWAP1 DUP2 MSTORE PUSH1 0xE PUSH1 0x20 SWAP1 DUP2 MSTORE PUSH1 0x40 DUP1 DUP4 KECCAK256 DUP1 SLOAD PUSH1 0x1 PUSH1 0x1 PUSH1 0xA0 SHL SUB NOT AND PUSH1 0x1 PUSH1 0x1 PUSH1 0xA0 SHL SUB DUP8 AND SWAP1 DUP2 OR SWAP1 SWAP2 SSTORE DUP4 MSTORE PUSH1 0xC DUP3 MSTORE DUP1 DUP4 KECCAK256 DUP1 SLOAD PUSH1 0xFF NOT AND PUSH1 0x1 OR SWAP1 SSTORE SWAP3 SLOAD PUSH1 0xD SWAP1 SWAP2 MSTORE SWAP2 SWAP1 KECCAK256 SSTORE JUMPDEST POP JUMP JUMPDEST PUSH1 0x17 SLOAD PUSH1 0x40 MLOAD PUSH4 0x70A08231 PUSH1 0xE0 SHL DUP2 MSTORE ADDRESS PUSH1 0x4 DUP3 ADD MSTORE PUSH1 0x0 SWAP2 PUSH1 0x1 PUSH1 0x1 PUSH1 0xA0 SHL SUB AND SWAP1 PUSH4 0x70A08231 SWAP1 PUSH1 0x24 ADD PUSH1 0x20 PUSH1 0x40 MLOAD DUP1 DUP4 SUB DUP2 DUP7 GAS STATICCALL ISZERO DUP1 ISZERO PUSH2 0x86D JUMPI RETURNDATASIZE PUSH1 0x0 DUP1 RETURNDATACOPY RETURNDATASIZE PUSH1 0x0 REVERT JUMPDEST POP POP POP POP PUSH1 0x40 MLOAD RETURNDATASIZE PUSH1 0x1F NOT PUSH1 0x1F DUP3 ADD AND DUP3 ADD DUP1 PUSH1 0x40 MSTORE POP DUP2 ADD SWAP1 PUSH2 0x891 SWAP2 SWAP1 PUSH2 0x2FF6 JUMP JUMPDEST SWAP1 POP SWAP1 JUMP JUMPDEST PUSH1 0x17 SLOAD PUSH1 0x40 DUP1 MLOAD PUSH4 0x95D89B41 PUSH1 0xE0 SHL DUP2 MSTORE SWAP1 MLOAD PUSH1 0x60 SWAP3 PUSH1 0x1 PUSH1 0x1 PUSH1 0xA0 SHL SUB AND SWAP2 PUSH4 0x95D89B41 SWAP2 PUSH1 0x4 DUP1 DUP4 ADD SWAP3 PUSH1 0x0 SWAP3 SWAP2 SWAP1 DUP3 SWAP1 SUB ADD DUP2 DUP7 GAS STATICCALL ISZERO DUP1 ISZERO PUSH2 0x8E0 JUMPI RETURNDATASIZE PUSH1 0x0 DUP1 RETURNDATACOPY RETURNDATASIZE PUSH1 0x0 REVERT JUMPDEST POP POP POP POP PUSH1 0x40 MLOAD RETURNDATASIZE PUSH1 0x0 DUP3 RETURNDATACOPY PUSH1 0x1F RETURNDATASIZE SWAP1 DUP2 ADD PUSH1 0x1F NOT AND DUP3 ADD PUSH1 0x40 MSTORE PUSH2 0x891 SWAP2 SWAP1 DUP2 ADD SWAP1 PUSH2 0x300F JUMP JUMPDEST PUSH1 0x14 SLOAD PUSH1 0x1 PUSH1 0x1 PUSH1 0xA0 SHL SUB AND CALLER EQ PUSH2 0x932 JUMPI PUSH1 0x40 MLOAD PUSH3 0x461BCD PUSH1 0xE5 SHL DUP2 MSTORE PUSH1 0x4 ADD PUSH2 0x792 SWAP1 PUSH2 0x2FA2 JUMP JUMPDEST PUSH1 0x1 PUSH1 0x1 PUSH1 0xA0 SHL SUB DUP2 AND PUSH1 0x0 SWAP1 DUP2 MSTORE PUSH1 0xC PUSH1 0x20 MSTORE PUSH1 0x40 SWAP1 KECCAK256 SLOAD PUSH1 0xFF AND ISZERO PUSH2 0x821 JUMPI PUSH1 0xF SLOAD PUSH1 0x1 PUSH1 0x1 PUSH1 0xA0 SHL SUB DUP3 AND PUSH1 0x0 SWAP1 DUP2 MSTORE PUSH1 0xD PUSH1 0x20 MSTORE PUSH1 0x40 SWAP1 KECCAK256 SLOAD LT ISZERO PUSH2 0x9BC JUMPI PUSH1 0xF SLOAD PUSH1 0x0 SWAP1 DUP2 MSTORE PUSH1 0xE PUSH1 0x20 DUP2 DUP2 MSTORE PUSH1 0x40 DUP1 DUP5 KECCAK256 SLOAD PUSH1 0x1 PUSH1 0x1 PUSH1 0xA0 SHL SUB DUP7 DUP2 AND DUP7 MSTORE PUSH1 0xD DUP5 MSTORE DUP3 DUP7 KECCAK256 SLOAD DUP7 MSTORE SWAP4 SWAP1 SWAP3 MSTORE SWAP1 SWAP3 KECCAK256 DUP1 SLOAD PUSH1 0x1 PUSH1 0x1 PUSH1 0xA0 SHL SUB NOT AND SWAP2 SWAP1 SWAP3 AND OR SWAP1 SSTORE JUMPDEST PUSH1 0x1 PUSH1 0x1 PUSH1 0xA0 SHL SUB DUP2 AND PUSH1 0x0 SWAP1 DUP2 MSTORE PUSH1 0xC PUSH1 0x20 MSTORE PUSH1 0x40 DUP2 KECCAK256 DUP1 SLOAD PUSH1 0xFF NOT AND SWAP1 SSTORE PUSH1 0xF DUP1 SLOAD SWAP2 PUSH2 0x9EA DUP4 PUSH2 0x3086 JUMP JUMPDEST SWAP2 SWAP1 POP SSTORE POP POP JUMP JUMPDEST PUSH1 0x0 DUP2 DUP2 MSTORE PUSH1 0x1 PUSH1 0x20 MSTORE PUSH1 0x40 SWAP1 KECCAK256 PUSH1 0x6 ADD SLOAD PUSH1 0x60 SWAP1 ISZERO PUSH2 0xC7F JUMPI PUSH1 0x0 DUP3 DUP2 MSTORE PUSH1 0x1 PUSH1 0x20 MSTORE PUSH1 0x40 SWAP1 KECCAK256 PUSH1 0x6 ADD SLOAD PUSH8 0xFFFFFFFFFFFFFFFF DUP2 GT ISZERO PUSH2 0xA36 JUMPI PUSH2 0xA36 PUSH2 0x2E0C JUMP JUMPDEST PUSH1 0x40 MLOAD SWAP1 DUP1 DUP3 MSTORE DUP1 PUSH1 0x20 MUL PUSH1 0x20 ADD DUP3 ADD PUSH1 0x40 MSTORE DUP1 ISZERO PUSH2 0xA6F JUMPI DUP2 PUSH1 0x20 ADD JUMPDEST PUSH2 0xA5C PUSH2 0x2A08 JUMP JUMPDEST DUP2 MSTORE PUSH1 0x20 ADD SWAP1 PUSH1 0x1 SWAP1 SUB SWAP1 DUP2 PUSH2 0xA54 JUMPI SWAP1 POP JUMPDEST POP SWAP1 POP PUSH1 0x0 JUMPDEST PUSH1 0x0 DUP4 DUP2 MSTORE PUSH1 0x1 PUSH1 0x20 MSTORE PUSH1 0x40 SWAP1 KECCAK256 PUSH1 0x6 ADD SLOAD DUP2 LT ISZERO PUSH2 0xC7D JUMPI PUSH1 0x0 DUP4 DUP2 MSTORE PUSH1 0x20 DUP2 SWAP1 MSTORE PUSH1 0x40 DUP2 KECCAK256 PUSH1 0x1 SWAP2 SWAP1 DUP2 PUSH2 0xAAB DUP6 DUP6 PUSH2 0x309D JUMP JUMPDEST DUP2 MSTORE PUSH1 0x20 ADD SWAP1 DUP2 MSTORE PUSH1 0x20 ADD PUSH1 0x0 KECCAK256 SLOAD DUP2 MSTORE PUSH1 0x20 ADD SWAP1 DUP2 MSTORE PUSH1 0x20 ADD PUSH1 0x0 KECCAK256 PUSH1 0x40 MLOAD DUP1 PUSH2 0x120 ADD PUSH1 0x40 MSTORE SWAP1 DUP2 PUSH1 0x0 DUP3 ADD SLOAD DUP2 MSTORE PUSH1 0x20 ADD PUSH1 0x1 DUP3 ADD DUP1 SLOAD PUSH2 0xAEE SWAP1 PUSH2 0x30B5 JUMP JUMPDEST DUP1 PUSH1 0x1F ADD PUSH1 0x20 DUP1 SWAP2 DIV MUL PUSH1 0x20 ADD PUSH1 0x40 MLOAD SWAP1 DUP2 ADD PUSH1 0x40 MSTORE DUP1 SWAP3 SWAP2 SWAP1 DUP2 DUP2 MSTORE PUSH1 0x20 ADD DUP3 DUP1 SLOAD PUSH2 0xB1A SWAP1 PUSH2 0x30B5 JUMP JUMPDEST DUP1 ISZERO PUSH2 0xB67 JUMPI DUP1 PUSH1 0x1F LT PUSH2 0xB3C JUMPI PUSH2 0x100 DUP1 DUP4 SLOAD DIV MUL DUP4 MSTORE SWAP2 PUSH1 0x20 ADD SWAP2 PUSH2 0xB67 JUMP JUMPDEST DUP3 ADD SWAP2 SWAP1 PUSH1 0x0 MSTORE PUSH1 0x20 PUSH1 0x0 KECCAK256 SWAP1 JUMPDEST DUP2 SLOAD DUP2 MSTORE SWAP1 PUSH1 0x1 ADD SWAP1 PUSH1 0x20 ADD DUP1 DUP4 GT PUSH2 0xB4A JUMPI DUP3 SWAP1 SUB PUSH1 0x1F AND DUP3 ADD SWAP2 JUMPDEST POP POP POP POP POP DUP2 MSTORE PUSH1 0x20 ADD PUSH1 0x2 DUP3 ADD DUP1 SLOAD PUSH2 0xB80 SWAP1 PUSH2 0x30B5 JUMP JUMPDEST DUP1 PUSH1 0x1F ADD PUSH1 0x20 DUP1 SWAP2 DIV MUL PUSH1 0x20 ADD PUSH1 0x40 MLOAD SWAP1 DUP2 ADD PUSH1 0x40 MSTORE DUP1 SWAP3 SWAP2 SWAP1 DUP2 DUP2 MSTORE PUSH1 0x20 ADD DUP3 DUP1 SLOAD PUSH2 0xBAC SWAP1 PUSH2 0x30B5 JUMP JUMPDEST DUP1 ISZERO PUSH2 0xBF9 JUMPI DUP1 PUSH1 0x1F LT PUSH2 0xBCE JUMPI PUSH2 0x100 DUP1 DUP4 SLOAD DIV MUL DUP4 MSTORE SWAP2 PUSH1 0x20 ADD SWAP2 PUSH2 0xBF9 JUMP JUMPDEST DUP3 ADD SWAP2 SWAP1 PUSH1 0x0 MSTORE PUSH1 0x20 PUSH1 0x0 KECCAK256 SWAP1 JUMPDEST DUP2 SLOAD DUP2 MSTORE SWAP1 PUSH1 0x1 ADD SWAP1 PUSH1 0x20 ADD DUP1 DUP4 GT PUSH2 0xBDC JUMPI DUP3 SWAP1 SUB PUSH1 0x1F AND DUP3 ADD SWAP2 JUMPDEST POP POP POP SWAP2 DUP4 MSTORE POP POP PUSH1 0x3 DUP3 ADD SLOAD PUSH1 0x1 PUSH1 0x1 PUSH1 0xA0 SHL SUB SWAP1 DUP2 AND PUSH1 0x20 DUP4 ADD MSTORE PUSH1 0x4 DUP4 ADD SLOAD PUSH1 0x40 DUP4 ADD MSTORE PUSH1 0x5 DUP4 ADD SLOAD AND PUSH1 0x60 DUP3 ADD MSTORE PUSH1 0x6 DUP3 ADD SLOAD PUSH1 0x80 DUP3 ADD MSTORE PUSH1 0x7 DUP3 ADD SLOAD PUSH1 0xA0 DUP3 ADD MSTORE PUSH1 0x8 SWAP1 SWAP2 ADD SLOAD PUSH1 0xC0 SWAP1 SWAP2 ADD MSTORE DUP3 MLOAD DUP4 SWAP1 DUP4 SWAP1 DUP2 LT PUSH2 0xC5F JUMPI PUSH2 0xC5F PUSH2 0x30EA JUMP JUMPDEST PUSH1 0x20 MUL PUSH1 0x20 ADD ADD DUP2 SWAP1 MSTORE POP DUP1 DUP1 PUSH2 0xC75 SWAP1 PUSH2 0x2FDB JUMP JUMPDEST SWAP2 POP POP PUSH2 0xA75 JUMP JUMPDEST POP JUMPDEST SWAP2 SWAP1 POP JUMP JUMPDEST PUSH1 0xF SLOAD PUSH1 0x60 SWAP1 ISZERO PUSH2 0xD52 JUMPI PUSH1 0xF SLOAD PUSH8 0xFFFFFFFFFFFFFFFF DUP2 GT ISZERO PUSH2 0xCAA JUMPI PUSH2 0xCAA PUSH2 0x2E0C JUMP JUMPDEST PUSH1 0x40 MLOAD SWAP1 DUP1 DUP3 MSTORE DUP1 PUSH1 0x20 MUL PUSH1 0x20 ADD DUP3 ADD PUSH1 0x40 MSTORE DUP1 ISZERO PUSH2 0xCD3 JUMPI DUP2 PUSH1 0x20 ADD PUSH1 0x20 DUP3 MUL DUP1 CALLDATASIZE DUP4 CALLDATACOPY ADD SWAP1 POP JUMPDEST POP SWAP1 POP PUSH1 0x0 JUMPDEST PUSH1 0xF SLOAD DUP2 LT ISZERO PUSH2 0xD50 JUMPI PUSH1 0xE PUSH1 0x0 PUSH2 0xCF2 DUP4 PUSH1 0x1 PUSH2 0x309D JUMP JUMPDEST DUP2 MSTORE PUSH1 0x20 ADD SWAP1 DUP2 MSTORE PUSH1 0x20 ADD PUSH1 0x0 KECCAK256 PUSH1 0x0 SWAP1 SLOAD SWAP1 PUSH2 0x100 EXP SWAP1 DIV PUSH1 0x1 PUSH1 0x1 PUSH1 0xA0 SHL SUB AND DUP3 DUP3 DUP2 MLOAD DUP2 LT PUSH2 0xD26 JUMPI PUSH2 0xD26 PUSH2 0x30EA JUMP JUMPDEST PUSH1 0x1 PUSH1 0x1 PUSH1 0xA0 SHL SUB SWAP1 SWAP3 AND PUSH1 0x20 SWAP3 DUP4 MUL SWAP2 SWAP1 SWAP2 ADD SWAP1 SWAP2 ADD MSTORE DUP1 PUSH2 0xD48 DUP2 PUSH2 0x2FDB JUMP JUMPDEST SWAP2 POP POP PUSH2 0xCD9 JUMP JUMPDEST POP JUMPDEST SWAP1 JUMP JUMPDEST PUSH1 0x1 PUSH1 0x20 DUP2 SWAP1 MSTORE PUSH1 0x0 SWAP2 DUP3 MSTORE PUSH1 0x40 SWAP1 SWAP2 KECCAK256 DUP1 SLOAD SWAP2 DUP2 ADD DUP1 SLOAD PUSH2 0xD76 SWAP1 PUSH2 0x30B5 JUMP JUMPDEST DUP1 PUSH1 0x1F ADD PUSH1 0x20 DUP1 SWAP2 DIV MUL PUSH1 0x20 ADD PUSH1 0x40 MLOAD SWAP1 DUP2 ADD PUSH1 0x40 MSTORE DUP1 SWAP3 SWAP2 SWAP1 DUP2 DUP2 MSTORE PUSH1 0x20 ADD DUP3 DUP1 SLOAD PUSH2 0xDA2 SWAP1 PUSH2 0x30B5 JUMP JUMPDEST DUP1 ISZERO PUSH2 0xDEF JUMPI DUP1 PUSH1 0x1F LT PUSH2 0xDC4 JUMPI PUSH2 0x100 DUP1 DUP4 SLOAD DIV MUL DUP4 MSTORE SWAP2 PUSH1 0x20 ADD SWAP2 PUSH2 0xDEF JUMP JUMPDEST DUP3 ADD SWAP2 SWAP1 PUSH1 0x0 MSTORE PUSH1 0x20 PUSH1 0x0 KECCAK256 SWAP1 JUMPDEST DUP2 SLOAD DUP2 MSTORE SWAP1 PUSH1 0x1 ADD SWAP1 PUSH1 0x20 ADD DUP1 DUP4 GT PUSH2 0xDD2 JUMPI DUP3 SWAP1 SUB PUSH1 0x1F AND DUP3 ADD SWAP2 JUMPDEST POP POP POP POP POP SWAP1 DUP1 PUSH1 0x2 ADD DUP1 SLOAD PUSH2 0xE04 SWAP1 PUSH2 0x30B5 JUMP JUMPDEST DUP1 PUSH1 0x1F ADD PUSH1 0x20 DUP1 SWAP2 DIV MUL PUSH1 0x20 ADD PUSH1 0x40 MLOAD SWAP1 DUP2 ADD PUSH1 0x40 MSTORE DUP1 SWAP3 SWAP2 SWAP1 DUP2 DUP2 MSTORE PUSH1 0x20 ADD DUP3 DUP1 SLOAD PUSH2 0xE30 SWAP1 PUSH2 0x30B5 JUMP JUMPDEST DUP1 ISZERO PUSH2 0xE7D JUMPI DUP1 PUSH1 0x1F LT PUSH2 0xE52 JUMPI PUSH2 0x100 DUP1 DUP4 SLOAD DIV MUL DUP4 MSTORE SWAP2 PUSH1 0x20 ADD SWAP2 PUSH2 0xE7D JUMP JUMPDEST DUP3 ADD SWAP2 SWAP1 PUSH1 0x0 MSTORE PUSH1 0x20 PUSH1 0x0 KECCAK256 SWAP1 JUMPDEST DUP2 SLOAD DUP2 MSTORE SWAP1 PUSH1 0x1 ADD SWAP1 PUSH1 0x20 ADD DUP1 DUP4 GT PUSH2 0xE60 JUMPI DUP3 SWAP1 SUB PUSH1 0x1F AND DUP3 ADD SWAP2 JUMPDEST POP POP POP PUSH1 0x3 DUP5 ADD SLOAD PUSH1 0x4 DUP6 ADD SLOAD PUSH1 0x5 DUP7 ADD SLOAD PUSH1 0x6 DUP8 ADD SLOAD PUSH1 0x7 DUP9 ADD SLOAD PUSH1 0x8 SWAP1 SWAP9 ADD SLOAD SWAP7 SWAP8 PUSH1 0x1 PUSH1 0x1 PUSH1 0xA0 SHL SUB SWAP5 DUP6 AND SWAP8 SWAP4 SWAP7 POP SWAP2 SWAP1 SWAP4 AND SWAP4 POP SWAP1 DUP10 JUMP JUMPDEST PUSH1 0x0 DUP2 DUP2 MSTORE PUSH1 0x1 PUSH1 0x20 MSTORE PUSH1 0x40 SWAP1 KECCAK256 PUSH1 0x6 ADD SLOAD PUSH1 0x60 SWAP1 ISZERO PUSH2 0xC7F JUMPI PUSH1 0x0 DUP3 DUP2 MSTORE PUSH1 0x1 PUSH1 0x20 MSTORE PUSH1 0x40 SWAP1 KECCAK256 PUSH1 0x6 ADD SLOAD PUSH8 0xFFFFFFFFFFFFFFFF DUP2 GT ISZERO PUSH2 0xEFE JUMPI PUSH2 0xEFE PUSH2 0x2E0C JUMP JUMPDEST PUSH1 0x40 MLOAD SWAP1 DUP1 DUP3 MSTORE DUP1 PUSH1 0x20 MUL PUSH1 0x20 ADD DUP3 ADD PUSH1 0x40 MSTORE DUP1 ISZERO PUSH2 0xF27 JUMPI DUP2 PUSH1 0x20 ADD PUSH1 0x20 DUP3 MUL DUP1 CALLDATASIZE DUP4 CALLDATACOPY ADD SWAP1 POP JUMPDEST POP SWAP1 POP PUSH1 0x0 JUMPDEST PUSH1 0x0 DUP4 DUP2 MSTORE PUSH1 0x1 PUSH1 0x20 MSTORE PUSH1 0x40 SWAP1 KECCAK256 PUSH1 0x6 ADD SLOAD DUP2 LT ISZERO PUSH2 0xC7D JUMPI PUSH1 0x0 DUP4 DUP2 MSTORE PUSH1 0x20 DUP2 SWAP1 MSTORE PUSH1 0x40 DUP2 KECCAK256 SWAP1 PUSH2 0xF60 DUP4 PUSH1 0x1 PUSH2 0x309D JUMP JUMPDEST DUP2 MSTORE PUSH1 0x20 ADD SWAP1 DUP2 MSTORE PUSH1 0x20 ADD PUSH1 0x0 KECCAK256 SLOAD DUP3 DUP3 DUP2 MLOAD DUP2 LT PUSH2 0xF81 JUMPI PUSH2 0xF81 PUSH2 0x30EA JUMP JUMPDEST PUSH1 0x20 SWAP1 DUP2 MUL SWAP2 SWAP1 SWAP2 ADD ADD MSTORE DUP1 PUSH2 0xF96 DUP2 PUSH2 0x2FDB JUMP JUMPDEST SWAP2 POP POP PUSH2 0xF2D JUMP JUMPDEST PUSH1 0x14 SLOAD PUSH1 0x1 PUSH1 0x1 PUSH1 0xA0 SHL SUB AND CALLER EQ PUSH2 0xFC8 JUMPI PUSH1 0x40 MLOAD PUSH3 0x461BCD PUSH1 0xE5 SHL DUP2 MSTORE PUSH1 0x4 ADD PUSH2 0x792 SWAP1 PUSH2 0x2FA2 JUMP JUMPDEST PUSH1 0x1 PUSH1 0x1 PUSH1 0xA0 SHL SUB DUP2 AND PUSH2 0x100D JUMPI PUSH1 0x40 MLOAD PUSH3 0x461BCD PUSH1 0xE5 SHL DUP2 MSTORE PUSH1 0x20 PUSH1 0x4 DUP3 ADD MSTORE PUSH1 0xC PUSH1 0x24 DUP3 ADD MSTORE PUSH12 0x5A65726F2061646472657373 PUSH1 0xA0 SHL PUSH1 0x44 DUP3 ADD MSTORE PUSH1 0x64 ADD PUSH2 0x792 JUMP JUMPDEST PUSH1 0x16 DUP1 SLOAD PUSH1 0x1 PUSH1 0x1 PUSH1 0xA0 SHL SUB NOT AND PUSH1 0x1 PUSH1 0x1 PUSH1 0xA0 SHL SUB SWAP3 SWAP1 SWAP3 AND SWAP2 SWAP1 SWAP2 OR SWAP1 SSTORE JUMP JUMPDEST PUSH1 0x14 SLOAD PUSH1 0x1 PUSH1 0x1 PUSH1 0xA0 SHL SUB AND CALLER EQ PUSH2 0x1059 JUMPI PUSH1 0x40 MLOAD PUSH3 0x461BCD PUSH1 0xE5 SHL DUP2 MSTORE PUSH1 0x4 ADD PUSH2 0x792 SWAP1 PUSH2 0x2FA2 JUMP JUMPDEST PUSH1 0x0 DUP2 DUP2 MSTORE PUSH1 0x10 PUSH1 0x20 MSTORE PUSH1 0x40 SWAP1 KECCAK256 SLOAD PUSH1 0xFF AND PUSH2 0x821 JUMPI PUSH1 0x13 DUP1 SLOAD SWAP1 PUSH1 0x0 PUSH2 0x107F DUP4 PUSH2 0x2FDB JUMP JUMPDEST SWAP1 SWAP2 SSTORE POP POP PUSH1 0x13 DUP1 SLOAD PUSH1 0x0 SWAP1 DUP2 MSTORE PUSH1 0x12 PUSH1 0x20 SWAP1 DUP2 MSTORE PUSH1 0x40 DUP1 DUP4 KECCAK256 DUP6 SWAP1 SSTORE DUP5 DUP4 MSTORE PUSH1 0x10 DUP3 MSTORE DUP1 DUP4 KECCAK256 DUP1 SLOAD PUSH1 0xFF NOT AND PUSH1 0x1 OR SWAP1 SSTORE SWAP3 SLOAD PUSH1 0x11 SWAP1 SWAP2 MSTORE SWAP2 SWAP1 KECCAK256 SSTORE POP JUMP JUMPDEST PUSH1 0x15 SLOAD PUSH1 0x1 PUSH1 0x1 PUSH1 0xA0 SHL SUB AND CALLER EQ PUSH2 0x10E9 JUMPI PUSH1 0x40 MLOAD PUSH3 0x461BCD PUSH1 0xE5 SHL DUP2 MSTORE PUSH1 0x4 ADD PUSH2 0x792 SWAP1 PUSH2 0x2FA2 JUMP JUMPDEST PUSH1 0x14 DUP1 SLOAD PUSH1 0x1 PUSH1 0x1 PUSH1 0xA0 SHL SUB NOT AND PUSH1 0x1 PUSH1 0x1 PUSH1 0xA0 SHL SUB SWAP3 SWAP1 SWAP3 AND SWAP2 SWAP1 SWAP2 OR SWAP1 SSTORE JUMP JUMPDEST PUSH1 0x14 SLOAD PUSH1 0x1 PUSH1 0x1 PUSH1 0xA0 SHL SUB AND CALLER EQ PUSH2 0x1135 JUMPI PUSH1 0x40 MLOAD PUSH3 0x461BCD PUSH1 0xE5 SHL DUP2 MSTORE PUSH1 0x4 ADD PUSH2 0x792 SWAP1 PUSH2 0x2FA2 JUMP JUMPDEST PUSH1 0x17 DUP1 SLOAD PUSH1 0x1 PUSH1 0x1 PUSH1 0xA0 SHL SUB NOT AND PUSH1 0x1 PUSH1 0x1 PUSH1 0xA0 SHL SUB SWAP3 SWAP1 SWAP3 AND SWAP2 SWAP1 SWAP2 OR SWAP1 SSTORE JUMP JUMPDEST PUSH1 0x0 DUP2 DUP2 MSTORE PUSH1 0x6 PUSH1 0x20 MSTORE PUSH1 0x40 SWAP1 KECCAK256 SLOAD PUSH1 0x60 SWAP1 ISZERO PUSH2 0xC7F JUMPI PUSH1 0x0 DUP3 DUP2 MSTORE PUSH1 0x6 PUSH1 0x20 MSTORE PUSH1 0x40 SWAP1 KECCAK256 SLOAD PUSH8 0xFFFFFFFFFFFFFFFF DUP2 GT ISZERO PUSH2 0x1195 JUMPI PUSH2 0x1195 PUSH2 0x2E0C JUMP JUMPDEST PUSH1 0x40 MLOAD SWAP1 DUP1 DUP3 MSTORE DUP1 PUSH1 0x20 MUL PUSH1 0x20 ADD DUP3 ADD PUSH1 0x40 MSTORE DUP1 ISZERO PUSH2 0x11BE JUMPI DUP2 PUSH1 0x20 ADD PUSH1 0x20 DUP3 MUL DUP1 CALLDATASIZE DUP4 CALLDATACOPY ADD SWAP1 POP JUMPDEST POP SWAP1 POP PUSH1 0x0 JUMPDEST PUSH1 0x0 DUP4 DUP2 MSTORE PUSH1 0x6 PUSH1 0x20 MSTORE PUSH1 0x40 SWAP1 KECCAK256 SLOAD DUP2 LT ISZERO PUSH2 0xC7D JUMPI PUSH1 0x0 DUP4 DUP2 MSTORE PUSH1 0x4 PUSH1 0x20 MSTORE PUSH1 0x40 DUP2 KECCAK256 SWAP1 PUSH2 0x11F4 DUP4 PUSH1 0x1 PUSH2 0x309D JUMP JUMPDEST DUP2 MSTORE PUSH1 0x20 ADD SWAP1 DUP2 MSTORE PUSH1 0x20 ADD PUSH1 0x0 KECCAK256 PUSH1 0x0 SWAP1 SLOAD SWAP1 PUSH2 0x100 EXP SWAP1 DIV PUSH1 0x1 PUSH1 0x1 PUSH1 0xA0 SHL SUB AND DUP3 DUP3 DUP2 MLOAD DUP2 LT PUSH2 0x1228 JUMPI PUSH2 0x1228 PUSH2 0x30EA JUMP JUMPDEST PUSH1 0x1 PUSH1 0x1 PUSH1 0xA0 SHL SUB SWAP1 SWAP3 AND PUSH1 0x20 SWAP3 DUP4 MUL SWAP2 SWAP1 SWAP2 ADD SWAP1 SWAP2 ADD MSTORE DUP1 PUSH2 0x124A DUP2 PUSH2 0x2FDB JUMP JUMPDEST SWAP2 POP POP PUSH2 0x11C4 JUMP JUMPDEST PUSH1 0x14 SLOAD PUSH1 0x1 PUSH1 0x1 PUSH1 0xA0 SHL SUB AND CALLER EQ PUSH2 0x127C JUMPI PUSH1 0x40 MLOAD PUSH3 0x461BCD PUSH1 0xE5 SHL DUP2 MSTORE PUSH1 0x4 ADD PUSH2 0x792 SWAP1 PUSH2 0x2FA2 JUMP JUMPDEST PUSH1 0x17 SLOAD PUSH1 0x40 MLOAD PUSH4 0x70A08231 PUSH1 0xE0 SHL DUP2 MSTORE ADDRESS PUSH1 0x4 DUP3 ADD MSTORE PUSH1 0x0 SWAP2 PUSH1 0x1 PUSH1 0x1 PUSH1 0xA0 SHL SUB AND SWAP1 PUSH4 0x70A08231 SWAP1 PUSH1 0x24 ADD PUSH1 0x20 PUSH1 0x40 MLOAD DUP1 DUP4 SUB DUP2 DUP7 GAS STATICCALL ISZERO DUP1 ISZERO PUSH2 0x12C5 JUMPI RETURNDATASIZE PUSH1 0x0 DUP1 RETURNDATACOPY RETURNDATASIZE PUSH1 0x0 REVERT JUMPDEST POP POP POP POP PUSH1 0x40 MLOAD RETURNDATASIZE PUSH1 0x1F NOT PUSH1 0x1F DUP3 ADD AND DUP3 ADD DUP1 PUSH1 0x40 MSTORE POP DUP2 ADD SWAP1 PUSH2 0x12E9 SWAP2 SWAP1 PUSH2 0x2FF6 JUMP JUMPDEST SWAP1 POP DUP1 ISZERO PUSH2 0x821 JUMPI PUSH1 0x17 SLOAD PUSH1 0x40 MLOAD PUSH4 0xA9059CBB PUSH1 0xE0 SHL DUP2 MSTORE CALLER PUSH1 0x4 DUP3 ADD MSTORE PUSH1 0x24 DUP2 ADD DUP4 SWAP1 MSTORE PUSH1 0x1 PUSH1 0x1 PUSH1 0xA0 SHL SUB SWAP1 SWAP2 AND SWAP1 PUSH4 0xA9059CBB SWAP1 PUSH1 0x44 ADD PUSH1 0x20 PUSH1 0x40 MLOAD DUP1 DUP4 SUB DUP2 PUSH1 0x0 DUP8 GAS CALL ISZERO DUP1 ISZERO PUSH2 0x1342 JUMPI RETURNDATASIZE PUSH1 0x0 DUP1 RETURNDATACOPY RETURNDATASIZE PUSH1 0x0 REVERT JUMPDEST POP POP POP POP PUSH1 0x40 MLOAD RETURNDATASIZE PUSH1 0x1F NOT PUSH1 0x1F DUP3 ADD AND DUP3 ADD DUP1 PUSH1 0x40 MSTORE POP DUP2 ADD SWAP1 PUSH2 0x1366 SWAP2 SWAP1 PUSH2 0x3100 JUMP JUMPDEST POP POP JUMP JUMPDEST PUSH1 0x14 SLOAD PUSH1 0x1 PUSH1 0x1 PUSH1 0xA0 SHL SUB AND CALLER EQ PUSH2 0x1394 JUMPI PUSH1 0x40 MLOAD PUSH3 0x461BCD PUSH1 0xE5 SHL DUP2 MSTORE PUSH1 0x4 ADD PUSH2 0x792 SWAP1 PUSH2 0x2FA2 JUMP JUMPDEST PUSH1 0x18 SSTORE JUMP JUMPDEST PUSH1 0x14 SLOAD PUSH1 0x1 PUSH1 0x1 PUSH1 0xA0 SHL SUB AND CALLER EQ PUSH2 0x13C3 JUMPI PUSH1 0x40 MLOAD PUSH3 0x461BCD PUSH1 0xE5 SHL DUP2 MSTORE PUSH1 0x4 ADD PUSH2 0x792 SWAP1 PUSH2 0x2FA2 JUMP JUMPDEST PUSH1 0x40 MLOAD PUSH4 0x70A08231 PUSH1 0xE0 SHL DUP2 MSTORE ADDRESS PUSH1 0x4 DUP3 ADD MSTORE DUP2 SWAP1 PUSH1 0x0 SWAP1 PUSH1 0x1 PUSH1 0x1 PUSH1 0xA0 SHL SUB DUP4 AND SWAP1 PUSH4 0x70A08231 SWAP1 PUSH1 0x24 ADD PUSH1 0x20 PUSH1 0x40 MLOAD DUP1 DUP4 SUB DUP2 DUP7 GAS STATICCALL ISZERO DUP1 ISZERO PUSH2 0x140C JUMPI RETURNDATASIZE PUSH1 0x0 DUP1 RETURNDATACOPY RETURNDATASIZE PUSH1 0x0 REVERT JUMPDEST POP POP POP POP PUSH1 0x40 MLOAD RETURNDATASIZE PUSH1 0x1F NOT PUSH1 0x1F DUP3 ADD AND DUP3 ADD DUP1 PUSH1 0x40 MSTORE POP DUP2 ADD SWAP1 PUSH2 0x1430 SWAP2 SWAP1 PUSH2 0x2FF6 JUMP JUMPDEST SWAP1 POP DUP1 ISZERO PUSH2 0x14AB JUMPI PUSH1 0x40 MLOAD PUSH4 0xA9059CBB PUSH1 0xE0 SHL DUP2 MSTORE CALLER PUSH1 0x4 DUP3 ADD MSTORE PUSH1 0x24 DUP2 ADD DUP3 SWAP1 MSTORE PUSH1 0x1 PUSH1 0x1 PUSH1 0xA0 SHL SUB DUP4 AND SWAP1 PUSH4 0xA9059CBB SWAP1 PUSH1 0x44 ADD PUSH1 0x20 PUSH1 0x40 MLOAD DUP1 DUP4 SUB DUP2 PUSH1 0x0 DUP8 GAS CALL ISZERO DUP1 ISZERO PUSH2 0x1485 JUMPI RETURNDATASIZE PUSH1 0x0 DUP1 RETURNDATACOPY RETURNDATASIZE PUSH1 0x0 REVERT JUMPDEST POP POP POP POP PUSH1 0x40 MLOAD RETURNDATASIZE PUSH1 0x1F NOT PUSH1 0x1F DUP3 ADD AND DUP3 ADD DUP1 PUSH1 0x40 MSTORE POP DUP2 ADD SWAP1 PUSH2 0x14A9 SWAP2 SWAP1 PUSH2 0x3100 JUMP JUMPDEST POP JUMPDEST POP POP POP JUMP JUMPDEST PUSH2 0x14B8 PUSH2 0x2A08 JUMP JUMPDEST PUSH1 0x0 DUP3 DUP2 MSTORE PUSH1 0x1 PUSH1 0x20 DUP2 DUP2 MSTORE PUSH1 0x40 SWAP3 DUP4 SWAP1 KECCAK256 DUP4 MLOAD PUSH2 0x120 DUP2 ADD SWAP1 SWAP5 MSTORE DUP1 SLOAD DUP5 MSTORE SWAP2 DUP3 ADD DUP1 SLOAD SWAP2 DUP5 ADD SWAP2 PUSH2 0x14EA SWAP1 PUSH2 0x30B5 JUMP JUMPDEST DUP1 PUSH1 0x1F ADD PUSH1 0x20 DUP1 SWAP2 DIV MUL PUSH1 0x20 ADD PUSH1 0x40 MLOAD SWAP1 DUP2 ADD PUSH1 0x40 MSTORE DUP1 SWAP3 SWAP2 SWAP1 DUP2 DUP2 MSTORE PUSH1 0x20 ADD DUP3 DUP1 SLOAD PUSH2 0x1516 SWAP1 PUSH2 0x30B5 JUMP JUMPDEST DUP1 ISZERO PUSH2 0x1563 JUMPI DUP1 PUSH1 0x1F LT PUSH2 0x1538 JUMPI PUSH2 0x100 DUP1 DUP4 SLOAD DIV MUL DUP4 MSTORE SWAP2 PUSH1 0x20 ADD SWAP2 PUSH2 0x1563 JUMP JUMPDEST DUP3 ADD SWAP2 SWAP1 PUSH1 0x0 MSTORE PUSH1 0x20 PUSH1 0x0 KECCAK256 SWAP1 JUMPDEST DUP2 SLOAD DUP2 MSTORE SWAP1 PUSH1 0x1 ADD SWAP1 PUSH1 0x20 ADD DUP1 DUP4 GT PUSH2 0x1546 JUMPI DUP3 SWAP1 SUB PUSH1 0x1F AND DUP3 ADD SWAP2 JUMPDEST POP POP POP POP POP DUP2 MSTORE PUSH1 0x20 ADD PUSH1 0x2 DUP3 ADD DUP1 SLOAD PUSH2 0x157C SWAP1 PUSH2 0x30B5 JUMP JUMPDEST DUP1 PUSH1 0x1F ADD PUSH1 0x20 DUP1 SWAP2 DIV MUL PUSH1 0x20 ADD PUSH1 0x40 MLOAD SWAP1 DUP2 ADD PUSH1 0x40 MSTORE DUP1 SWAP3 SWAP2 SWAP1 DUP2 DUP2 MSTORE PUSH1 0x20 ADD DUP3 DUP1 SLOAD PUSH2 0x15A8 SWAP1 PUSH2 0x30B5 JUMP JUMPDEST DUP1 ISZERO PUSH2 0x15F5 JUMPI DUP1 PUSH1 0x1F LT PUSH2 0x15CA JUMPI PUSH2 0x100 DUP1 DUP4 SLOAD DIV MUL DUP4 MSTORE SWAP2 PUSH1 0x20 ADD SWAP2 PUSH2 0x15F5 JUMP JUMPDEST DUP3 ADD SWAP2 SWAP1 PUSH1 0x0 MSTORE PUSH1 0x20 PUSH1 0x0 KECCAK256 SWAP1 JUMPDEST DUP2 SLOAD DUP2 MSTORE SWAP1 PUSH1 0x1 ADD SWAP1 PUSH1 0x20 ADD DUP1 DUP4 GT PUSH2 0x15D8 JUMPI DUP3 SWAP1 SUB PUSH1 0x1F AND DUP3 ADD SWAP2 JUMPDEST POP POP POP SWAP2 DUP4 MSTORE POP POP PUSH1 0x3 DUP3 ADD SLOAD PUSH1 0x1 PUSH1 0x1 PUSH1 0xA0 SHL SUB SWAP1 DUP2 AND PUSH1 0x20 DUP4 ADD MSTORE PUSH1 0x4 DUP4 ADD SLOAD PUSH1 0x40 DUP4 ADD MSTORE PUSH1 0x5 DUP4 ADD SLOAD AND PUSH1 0x60 DUP3 ADD MSTORE PUSH1 0x6 DUP3 ADD SLOAD PUSH1 0x80 DUP3 ADD MSTORE PUSH1 0x7 DUP3 ADD SLOAD PUSH1 0xA0 DUP3 ADD MSTORE PUSH1 0x8 SWAP1 SWAP2 ADD SLOAD PUSH1 0xC0 SWAP1 SWAP2 ADD MSTORE SWAP3 SWAP2 POP POP JUMP JUMPDEST PUSH1 0x14 SLOAD PUSH1 0x1 PUSH1 0x1 PUSH1 0xA0 SHL SUB AND CALLER EQ PUSH2 0x1677 JUMPI PUSH1 0x40 MLOAD PUSH3 0x461BCD PUSH1 0xE5 SHL DUP2 MSTORE PUSH1 0x4 ADD PUSH2 0x792 SWAP1 PUSH2 0x2FA2 JUMP JUMPDEST PUSH1 0x17 SLOAD PUSH1 0x40 MLOAD PUSH4 0x70A08231 PUSH1 0xE0 SHL DUP2 MSTORE ADDRESS PUSH1 0x4 DUP3 ADD MSTORE PUSH1 0x0 SWAP2 PUSH1 0x1 PUSH1 0x1 PUSH1 0xA0 SHL SUB AND SWAP1 PUSH4 0x70A08231 SWAP1 PUSH1 0x24 ADD PUSH1 0x20 PUSH1 0x40 MLOAD DUP1 DUP4 SUB DUP2 DUP7 GAS STATICCALL ISZERO DUP1 ISZERO PUSH2 0x16C0 JUMPI RETURNDATASIZE PUSH1 0x0 DUP1 RETURNDATACOPY RETURNDATASIZE PUSH1 0x0 REVERT JUMPDEST POP POP POP POP PUSH1 0x40 MLOAD RETURNDATASIZE PUSH1 0x1F NOT PUSH1 0x1F DUP3 ADD AND DUP3 ADD DUP1 PUSH1 0x40 MSTORE POP DUP2 ADD SWAP1 PUSH2 0x16E4 SWAP2 SWAP1 PUSH2 0x2FF6 JUMP JUMPDEST SWAP1 POP PUSH1 0x0 PUSH1 0x9 SLOAD GT DUP1 ISZERO PUSH2 0x16F8 JUMPI POP PUSH1 0x0 DUP2 GT JUMPDEST ISZERO PUSH2 0x821 JUMPI PUSH1 0x0 JUMPDEST PUSH1 0xB SLOAD DUP2 LT ISZERO PUSH2 0x1366 JUMPI PUSH1 0x0 PUSH1 0x3 DUP2 PUSH2 0x171A DUP5 PUSH1 0x1 PUSH2 0x309D JUMP JUMPDEST DUP2 MSTORE PUSH1 0x20 ADD SWAP1 DUP2 MSTORE PUSH1 0x20 ADD PUSH1 0x0 KECCAK256 SLOAD SWAP1 POP PUSH1 0x0 PUSH1 0x1 PUSH1 0x0 DUP4 DUP2 MSTORE PUSH1 0x20 ADD SWAP1 DUP2 MSTORE PUSH1 0x20 ADD PUSH1 0x0 KECCAK256 PUSH1 0x40 MLOAD DUP1 PUSH2 0x120 ADD PUSH1 0x40 MSTORE SWAP1 DUP2 PUSH1 0x0 DUP3 ADD SLOAD DUP2 MSTORE PUSH1 0x20 ADD PUSH1 0x1 DUP3 ADD DUP1 SLOAD PUSH2 0x1766 SWAP1 PUSH2 0x30B5 JUMP JUMPDEST DUP1 PUSH1 0x1F ADD PUSH1 0x20 DUP1 SWAP2 DIV MUL PUSH1 0x20 ADD PUSH1 0x40 MLOAD SWAP1 DUP2 ADD PUSH1 0x40 MSTORE DUP1 SWAP3 SWAP2 SWAP1 DUP2 DUP2 MSTORE PUSH1 0x20 ADD DUP3 DUP1 SLOAD PUSH2 0x1792 SWAP1 PUSH2 0x30B5 JUMP JUMPDEST DUP1 ISZERO PUSH2 0x17DF JUMPI DUP1 PUSH1 0x1F LT PUSH2 0x17B4 JUMPI PUSH2 0x100 DUP1 DUP4 SLOAD DIV MUL DUP4 MSTORE SWAP2 PUSH1 0x20 ADD SWAP2 PUSH2 0x17DF JUMP JUMPDEST DUP3 ADD SWAP2 SWAP1 PUSH1 0x0 MSTORE PUSH1 0x20 PUSH1 0x0 KECCAK256 SWAP1 JUMPDEST DUP2 SLOAD DUP2 MSTORE SWAP1 PUSH1 0x1 ADD SWAP1 PUSH1 0x20 ADD DUP1 DUP4 GT PUSH2 0x17C2 JUMPI DUP3 SWAP1 SUB PUSH1 0x1F AND DUP3 ADD SWAP2 JUMPDEST POP POP POP POP POP DUP2 MSTORE PUSH1 0x20 ADD PUSH1 0x2 DUP3 ADD DUP1 SLOAD PUSH2 0x17F8 SWAP1 PUSH2 0x30B5 JUMP JUMPDEST DUP1 PUSH1 0x1F ADD PUSH1 0x20 DUP1 SWAP2 DIV MUL PUSH1 0x20 ADD PUSH1 0x40 MLOAD SWAP1 DUP2 ADD PUSH1 0x40 MSTORE DUP1 SWAP3 SWAP2 SWAP1 DUP2 DUP2 MSTORE PUSH1 0x20 ADD DUP3 DUP1 SLOAD PUSH2 0x1824 SWAP1 PUSH2 0x30B5 JUMP JUMPDEST DUP1 ISZERO PUSH2 0x1871 JUMPI DUP1 PUSH1 0x1F LT PUSH2 0x1846 JUMPI PUSH2 0x100 DUP1 DUP4 SLOAD DIV MUL DUP4 MSTORE SWAP2 PUSH1 0x20 ADD SWAP2 PUSH2 0x1871 JUMP JUMPDEST DUP3 ADD SWAP2 SWAP1 PUSH1 0x0 MSTORE PUSH1 0x20 PUSH1 0x0 KECCAK256 SWAP1 JUMPDEST DUP2 SLOAD DUP2 MSTORE SWAP1 PUSH1 0x1 ADD SWAP1 PUSH1 0x20 ADD DUP1 DUP4 GT PUSH2 0x1854 JUMPI DUP3 SWAP1 SUB PUSH1 0x1F AND DUP3 ADD SWAP2 JUMPDEST POP POP POP SWAP2 DUP4 MSTORE POP POP PUSH1 0x3 DUP3 ADD SLOAD PUSH1 0x1 PUSH1 0x1 PUSH1 0xA0 SHL SUB SWAP1 DUP2 AND PUSH1 0x20 DUP4 ADD MSTORE PUSH1 0x4 DUP4 ADD SLOAD PUSH1 0x40 DUP4 ADD MSTORE PUSH1 0x5 DUP4 ADD SLOAD AND PUSH1 0x60 DUP3 ADD MSTORE PUSH1 0x6 DUP3 ADD SLOAD PUSH1 0x80 DUP3 ADD MSTORE PUSH1 0x7 DUP3 ADD SLOAD PUSH1 0xA0 DUP3 ADD MSTORE PUSH1 0x8 SWAP1 SWAP2 ADD SLOAD PUSH1 0xC0 SWAP1 SWAP2 ADD MSTORE PUSH2 0x100 DUP2 ADD MLOAD SWAP1 SWAP2 POP ISZERO DUP1 ISZERO SWAP1 PUSH2 0x18DF JUMPI POP DUP1 PUSH2 0x100 ADD MLOAD DUP5 LT ISZERO JUMPDEST ISZERO PUSH2 0x1A86 JUMPI PUSH2 0x100 DUP2 ADD MLOAD PUSH2 0x18F4 SWAP1 DUP6 PUSH2 0x3122 JUMP JUMPDEST PUSH1 0x17 SLOAD PUSH1 0x60 DUP4 ADD MLOAD PUSH2 0x100 DUP5 ADD MLOAD PUSH1 0x40 MLOAD PUSH4 0xA9059CBB PUSH1 0xE0 SHL DUP2 MSTORE PUSH1 0x1 PUSH1 0x1 PUSH1 0xA0 SHL SUB SWAP3 DUP4 AND PUSH1 0x4 DUP3 ADD MSTORE PUSH1 0x24 DUP2 ADD SWAP2 SWAP1 SWAP2 MSTORE SWAP3 SWAP7 POP AND SWAP1 PUSH4 0xA9059CBB SWAP1 PUSH1 0x44 ADD PUSH1 0x20 PUSH1 0x40 MLOAD DUP1 DUP4 SUB DUP2 PUSH1 0x0 DUP8 GAS CALL ISZERO DUP1 ISZERO PUSH2 0x1954 JUMPI RETURNDATASIZE PUSH1 0x0 DUP1 RETURNDATACOPY RETURNDATASIZE PUSH1 0x0 REVERT JUMPDEST POP POP POP POP PUSH1 0x40 MLOAD RETURNDATASIZE PUSH1 0x1F NOT PUSH1 0x1F DUP3 ADD AND DUP3 ADD DUP1 PUSH1 0x40 MSTORE POP DUP2 ADD SWAP1 PUSH2 0x1978 SWAP2 SWAP1 PUSH2 0x3100 JUMP JUMPDEST POP DUP1 PUSH2 0x100 ADD MLOAD DUP2 PUSH1 0xE0 ADD DUP2 DUP2 MLOAD PUSH2 0x1990 SWAP2 SWAP1 PUSH2 0x309D JUMP JUMPDEST SWAP1 MSTORE POP PUSH2 0x100 DUP2 ADD MLOAD PUSH1 0x9 DUP1 SLOAD PUSH1 0x0 SWAP1 PUSH2 0x19AB SWAP1 DUP5 SWAP1 PUSH2 0x3122 JUMP JUMPDEST SWAP1 SWAP2 SSTORE POP POP PUSH2 0x100 DUP2 ADD MLOAD PUSH1 0xA DUP1 SLOAD PUSH1 0x0 SWAP1 PUSH2 0x19C8 SWAP1 DUP5 SWAP1 PUSH2 0x309D JUMP JUMPDEST SWAP1 SWAP2 SSTORE POP POP PUSH1 0x0 PUSH2 0x100 DUP3 ADD DUP2 SWAP1 MSTORE DUP3 DUP2 MSTORE PUSH1 0x1 PUSH1 0x20 DUP2 DUP2 MSTORE PUSH1 0x40 SWAP1 SWAP3 KECCAK256 DUP4 MLOAD DUP2 SSTORE DUP3 DUP5 ADD MLOAD DUP1 MLOAD DUP6 SWAP5 SWAP3 SWAP4 PUSH2 0x1A03 SWAP4 SWAP1 DUP6 ADD SWAP3 ADD SWAP1 PUSH2 0x2A66 JUMP JUMPDEST POP PUSH1 0x40 DUP3 ADD MLOAD DUP1 MLOAD PUSH2 0x1A1F SWAP2 PUSH1 0x2 DUP5 ADD SWAP2 PUSH1 0x20 SWAP1 SWAP2 ADD SWAP1 PUSH2 0x2A66 JUMP JUMPDEST POP PUSH1 0x60 DUP3 ADD MLOAD PUSH1 0x3 DUP3 ADD DUP1 SLOAD PUSH1 0x1 PUSH1 0x1 PUSH1 0xA0 SHL SUB SWAP3 DUP4 AND PUSH1 0x1 PUSH1 0x1 PUSH1 0xA0 SHL SUB NOT SWAP2 DUP3 AND OR SWAP1 SWAP2 SSTORE PUSH1 0x80 DUP5 ADD MLOAD PUSH1 0x4 DUP5 ADD SSTORE PUSH1 0xA0 DUP5 ADD MLOAD PUSH1 0x5 DUP5 ADD DUP1 SLOAD SWAP2 SWAP1 SWAP4 AND SWAP2 AND OR SWAP1 SSTORE PUSH1 0xC0 DUP3 ADD MLOAD PUSH1 0x6 DUP3 ADD SSTORE PUSH1 0xE0 DUP3 ADD MLOAD PUSH1 0x7 DUP3 ADD SSTORE PUSH2 0x100 SWAP1 SWAP2 ADD MLOAD PUSH1 0x8 SWAP1 SWAP2 ADD SSTORE JUMPDEST PUSH1 0x18 SLOAD DUP5 LT ISZERO PUSH2 0x1A96 JUMPI POP POP POP POP JUMP JUMPDEST POP POP DUP1 DUP1 PUSH2 0x1AA3 SWAP1 PUSH2 0x2FDB JUMP JUMPDEST SWAP2 POP POP PUSH2 0x1700 JUMP JUMPDEST PUSH1 0x13 SLOAD PUSH1 0x60 SWAP1 ISZERO PUSH2 0xD52 JUMPI PUSH1 0x13 SLOAD PUSH8 0xFFFFFFFFFFFFFFFF DUP2 GT ISZERO PUSH2 0x1AD1 JUMPI PUSH2 0x1AD1 PUSH2 0x2E0C JUMP JUMPDEST PUSH1 0x40 MLOAD SWAP1 DUP1 DUP3 MSTORE DUP1 PUSH1 0x20 MUL PUSH1 0x20 ADD DUP3 ADD PUSH1 0x40 MSTORE DUP1 ISZERO PUSH2 0x1AFA JUMPI DUP2 PUSH1 0x20 ADD PUSH1 0x20 DUP3 MUL DUP1 CALLDATASIZE DUP4 CALLDATACOPY ADD SWAP1 POP JUMPDEST POP SWAP1 POP PUSH1 0x0 JUMPDEST PUSH1 0x13 SLOAD DUP2 LT ISZERO PUSH2 0xD50 JUMPI PUSH1 0x12 PUSH1 0x0 PUSH2 0x1B19 DUP4 PUSH1 0x1 PUSH2 0x309D JUMP JUMPDEST DUP2 MSTORE PUSH1 0x20 ADD SWAP1 DUP2 MSTORE PUSH1 0x20 ADD PUSH1 0x0 KECCAK256 SLOAD DUP3 DUP3 DUP2 MLOAD DUP2 LT PUSH2 0x1B3A JUMPI PUSH2 0x1B3A PUSH2 0x30EA JUMP JUMPDEST PUSH1 0x20 SWAP1 DUP2 MUL SWAP2 SWAP1 SWAP2 ADD ADD MSTORE DUP1 PUSH2 0x1B4F DUP2 PUSH2 0x2FDB JUMP JUMPDEST SWAP2 POP POP PUSH2 0x1B00 JUMP JUMPDEST PUSH1 0xB SLOAD PUSH1 0x60 SWAP1 ISZERO PUSH2 0xD52 JUMPI PUSH1 0xB SLOAD PUSH8 0xFFFFFFFFFFFFFFFF DUP2 GT ISZERO PUSH2 0x1B7D JUMPI PUSH2 0x1B7D PUSH2 0x2E0C JUMP JUMPDEST PUSH1 0x40 MLOAD SWAP1 DUP1 DUP3 MSTORE DUP1 PUSH1 0x20 MUL PUSH1 0x20 ADD DUP3 ADD PUSH1 0x40 MSTORE DUP1 ISZERO PUSH2 0x1BB6 JUMPI DUP2 PUSH1 0x20 ADD JUMPDEST PUSH2 0x1BA3 PUSH2 0x2A08 JUMP JUMPDEST DUP2 MSTORE PUSH1 0x20 ADD SWAP1 PUSH1 0x1 SWAP1 SUB SWAP1 DUP2 PUSH2 0x1B9B JUMPI SWAP1 POP JUMPDEST POP SWAP1 POP PUSH1 0x0 JUMPDEST PUSH1 0xB SLOAD DUP2 LT ISZERO PUSH2 0xD50 JUMPI PUSH1 0x1 PUSH1 0x0 PUSH1 0x3 DUP2 PUSH2 0x1BD7 DUP6 DUP6 PUSH2 0x309D JUMP JUMPDEST DUP2 MSTORE PUSH1 0x20 ADD SWAP1 DUP2 MSTORE PUSH1 0x20 ADD PUSH1 0x0 KECCAK256 SLOAD DUP2 MSTORE PUSH1 0x20 ADD SWAP1 DUP2 MSTORE PUSH1 0x20 ADD PUSH1 0x0 KECCAK256 PUSH1 0x40 MLOAD DUP1 PUSH2 0x120 ADD PUSH1 0x40 MSTORE SWAP1 DUP2 PUSH1 0x0 DUP3 ADD SLOAD DUP2 MSTORE PUSH1 0x20 ADD PUSH1 0x1 DUP3 ADD DUP1 SLOAD PUSH2 0x1C1A SWAP1 PUSH2 0x30B5 JUMP JUMPDEST DUP1 PUSH1 0x1F ADD PUSH1 0x20 DUP1 SWAP2 DIV MUL PUSH1 0x20 ADD PUSH1 0x40 MLOAD SWAP1 DUP2 ADD PUSH1 0x40 MSTORE DUP1 SWAP3 SWAP2 SWAP1 DUP2 DUP2 MSTORE PUSH1 0x20 ADD DUP3 DUP1 SLOAD PUSH2 0x1C46 SWAP1 PUSH2 0x30B5 JUMP JUMPDEST DUP1 ISZERO PUSH2 0x1C93 JUMPI DUP1 PUSH1 0x1F LT PUSH2 0x1C68 JUMPI PUSH2 0x100 DUP1 DUP4 SLOAD DIV MUL DUP4 MSTORE SWAP2 PUSH1 0x20 ADD SWAP2 PUSH2 0x1C93 JUMP JUMPDEST DUP3 ADD SWAP2 SWAP1 PUSH1 0x0 MSTORE PUSH1 0x20 PUSH1 0x0 KECCAK256 SWAP1 JUMPDEST DUP2 SLOAD DUP2 MSTORE SWAP1 PUSH1 0x1 ADD SWAP1 PUSH1 0x20 ADD DUP1 DUP4 GT PUSH2 0x1C76 JUMPI DUP3 SWAP1 SUB PUSH1 0x1F AND DUP3 ADD SWAP2 JUMPDEST POP POP POP POP POP DUP2 MSTORE PUSH1 0x20 ADD PUSH1 0x2 DUP3 ADD DUP1 SLOAD PUSH2 0x1CAC SWAP1 PUSH2 0x30B5 JUMP JUMPDEST DUP1 PUSH1 0x1F ADD PUSH1 0x20 DUP1 SWAP2 DIV MUL PUSH1 0x20 ADD PUSH1 0x40 MLOAD SWAP1 DUP2 ADD PUSH1 0x40 MSTORE DUP1 SWAP3 SWAP2 SWAP1 DUP2 DUP2 MSTORE PUSH1 0x20 ADD DUP3 DUP1 SLOAD PUSH2 0x1CD8 SWAP1 PUSH2 0x30B5 JUMP JUMPDEST DUP1 ISZERO PUSH2 0x1D25 JUMPI DUP1 PUSH1 0x1F LT PUSH2 0x1CFA JUMPI PUSH2 0x100 DUP1 DUP4 SLOAD DIV MUL DUP4 MSTORE SWAP2 PUSH1 0x20 ADD SWAP2 PUSH2 0x1D25 JUMP JUMPDEST DUP3 ADD SWAP2 SWAP1 PUSH1 0x0 MSTORE PUSH1 0x20 PUSH1 0x0 KECCAK256 SWAP1 JUMPDEST DUP2 SLOAD DUP2 MSTORE SWAP1 PUSH1 0x1 ADD SWAP1 PUSH1 0x20 ADD DUP1 DUP4 GT PUSH2 0x1D08 JUMPI DUP3 SWAP1 SUB PUSH1 0x1F AND DUP3 ADD SWAP2 JUMPDEST POP POP POP SWAP2 DUP4 MSTORE POP POP PUSH1 0x3 DUP3 ADD SLOAD PUSH1 0x1 PUSH1 0x1 PUSH1 0xA0 SHL SUB SWAP1 DUP2 AND PUSH1 0x20 DUP4 ADD MSTORE PUSH1 0x4 DUP4 ADD SLOAD PUSH1 0x40 DUP4 ADD MSTORE PUSH1 0x5 DUP4 ADD SLOAD AND PUSH1 0x60 DUP3 ADD MSTORE PUSH1 0x6 DUP3 ADD SLOAD PUSH1 0x80 DUP3 ADD MSTORE PUSH1 0x7 DUP3 ADD SLOAD PUSH1 0xA0 DUP3 ADD MSTORE PUSH1 0x8 SWAP1 SWAP2 ADD SLOAD PUSH1 0xC0 SWAP1 SWAP2 ADD MSTORE DUP3 MLOAD DUP4 SWAP1 DUP4 SWAP1 DUP2 LT PUSH2 0x1D8B JUMPI PUSH2 0x1D8B PUSH2 0x30EA JUMP JUMPDEST PUSH1 0x20 MUL PUSH1 0x20 ADD ADD DUP2 SWAP1 MSTORE POP DUP1 DUP1 PUSH2 0x1DA1 SWAP1 PUSH2 0x2FDB JUMP JUMPDEST SWAP2 POP POP PUSH2 0x1BBC JUMP JUMPDEST PUSH1 0x14 SLOAD PUSH1 0x1 PUSH1 0x1 PUSH1 0xA0 SHL SUB AND CALLER EQ PUSH2 0x1DD3 JUMPI PUSH1 0x40 MLOAD PUSH3 0x461BCD PUSH1 0xE5 SHL DUP2 MSTORE PUSH1 0x4 ADD PUSH2 0x792 SWAP1 PUSH2 0x2FA2 JUMP JUMPDEST PUSH1 0x0 DUP2 DUP2 MSTORE PUSH1 0x10 PUSH1 0x20 MSTORE PUSH1 0x40 SWAP1 KECCAK256 SLOAD PUSH1 0xFF AND ISZERO PUSH2 0x821 JUMPI PUSH1 0x13 SLOAD PUSH1 0x0 DUP3 DUP2 MSTORE PUSH1 0x11 PUSH1 0x20 MSTORE PUSH1 0x40 SWAP1 KECCAK256 SLOAD LT ISZERO PUSH2 0x1E2D JUMPI PUSH1 0x13 SLOAD PUSH1 0x0 SWAP1 DUP2 MSTORE PUSH1 0x12 PUSH1 0x20 DUP2 DUP2 MSTORE PUSH1 0x40 DUP1 DUP5 KECCAK256 SLOAD DUP6 DUP6 MSTORE PUSH1 0x11 DUP4 MSTORE DUP2 DUP6 KECCAK256 SLOAD DUP6 MSTORE SWAP3 SWAP1 SWAP2 MSTORE SWAP1 SWAP2 KECCAK256 SSTORE JUMPDEST PUSH1 0x0 DUP2 DUP2 MSTORE PUSH1 0x10 PUSH1 0x20 MSTORE PUSH1 0x40 DUP2 KECCAK256 DUP1 SLOAD PUSH1 0xFF NOT AND SWAP1 SSTORE PUSH1 0x13 DUP1 SLOAD SWAP2 PUSH2 0x9EA DUP4 PUSH2 0x3086 JUMP JUMPDEST PUSH1 0x17 SLOAD PUSH1 0x40 DUP1 MLOAD PUSH4 0x313CE567 PUSH1 0xE0 SHL DUP2 MSTORE SWAP1 MLOAD PUSH1 0x0 SWAP3 PUSH1 0x1 PUSH1 0x1 PUSH1 0xA0 SHL SUB AND SWAP2 PUSH4 0x313CE567 SWAP2 PUSH1 0x4 DUP1 DUP4 ADD SWAP3 PUSH1 0x20 SWAP3 SWAP2 SWAP1 DUP3 SWAP1 SUB ADD DUP2 DUP7 GAS STATICCALL ISZERO DUP1 ISZERO PUSH2 0x1E9B JUMPI RETURNDATASIZE PUSH1 0x0 DUP1 RETURNDATACOPY RETURNDATASIZE PUSH1 0x0 REVERT JUMPDEST POP POP POP POP PUSH1 0x40 MLOAD RETURNDATASIZE PUSH1 0x1F NOT PUSH1 0x1F DUP3 ADD AND DUP3 ADD DUP1 PUSH1 0x40 MSTORE POP DUP2 ADD SWAP1 PUSH2 0x891 SWAP2 SWAP1 PUSH2 0x3139 JUMP JUMPDEST PUSH1 0x14 SLOAD PUSH1 0x1 PUSH1 0x1 PUSH1 0xA0 SHL SUB AND CALLER EQ PUSH2 0x1EE9 JUMPI PUSH1 0x40 MLOAD PUSH3 0x461BCD PUSH1 0xE5 SHL DUP2 MSTORE PUSH1 0x4 ADD PUSH2 0x792 SWAP1 PUSH2 0x2FA2 JUMP JUMPDEST PUSH1 0x1 PUSH1 0x1 PUSH1 0xA0 SHL SUB DUP2 AND PUSH2 0x10E9 JUMPI PUSH1 0x40 MLOAD PUSH3 0x461BCD PUSH1 0xE5 SHL DUP2 MSTORE PUSH1 0x20 PUSH1 0x4 DUP3 ADD MSTORE PUSH1 0xC PUSH1 0x24 DUP3 ADD MSTORE PUSH12 0x5A65726F2061646472657373 PUSH1 0xA0 SHL PUSH1 0x44 DUP3 ADD MSTORE PUSH1 0x64 ADD PUSH2 0x792 JUMP JUMPDEST PUSH1 0x14 SLOAD PUSH1 0x1 PUSH1 0x1 PUSH1 0xA0 SHL SUB AND CALLER EQ DUP1 PUSH2 0x1F51 JUMPI POP PUSH1 0x16 SLOAD PUSH1 0x1 PUSH1 0x1 PUSH1 0xA0 SHL SUB AND CALLER EQ JUMPDEST PUSH2 0x1F94 JUMPI PUSH1 0x40 MLOAD PUSH3 0x461BCD PUSH1 0xE5 SHL DUP2 MSTORE PUSH1 0x20 PUSH1 0x4 DUP3 ADD MSTORE PUSH1 0x14 PUSH1 0x24 DUP3 ADD MSTORE PUSH20 0x4F6E6C79206F776E6572206F72206F7261636C65 PUSH1 0x60 SHL PUSH1 0x44 DUP3 ADD MSTORE PUSH1 0x64 ADD PUSH2 0x792 JUMP JUMPDEST PUSH1 0x0 DUP8 DUP2 MSTORE PUSH1 0x2 PUSH1 0x20 MSTORE PUSH1 0x40 SWAP1 KECCAK256 SLOAD PUSH1 0xFF AND ISZERO PUSH2 0x1FF3 JUMPI PUSH1 0x40 MLOAD PUSH3 0x461BCD PUSH1 0xE5 SHL DUP2 MSTORE PUSH1 0x20 PUSH1 0x4 DUP3 ADD MSTORE PUSH1 0x17 PUSH1 0x24 DUP3 ADD MSTORE PUSH32 0x5573657220616C72656164792072656769737465726564000000000000000000 PUSH1 0x44 DUP3 ADD MSTORE PUSH1 0x64 ADD PUSH2 0x792 JUMP JUMPDEST DUP4 DUP8 EQ ISZERO PUSH2 0x2043 JUMPI PUSH1 0x40 MLOAD PUSH3 0x461BCD PUSH1 0xE5 SHL DUP2 MSTORE PUSH1 0x20 PUSH1 0x4 DUP3 ADD MSTORE PUSH1 0x18 PUSH1 0x24 DUP3 ADD MSTORE PUSH32 0x53656C662072656665726572206E6F7420616C6C6F7765640000000000000000 PUSH1 0x44 DUP3 ADD MSTORE PUSH1 0x64 ADD PUSH2 0x792 JUMP JUMPDEST PUSH1 0x1 PUSH1 0x1 PUSH1 0xA0 SHL SUB DUP2 AND PUSH1 0x0 SWAP1 DUP2 MSTORE PUSH1 0xC PUSH1 0x20 MSTORE PUSH1 0x40 SWAP1 KECCAK256 SLOAD PUSH1 0xFF AND ISZERO PUSH2 0x20AC JUMPI PUSH1 0x40 MLOAD PUSH3 0x461BCD PUSH1 0xE5 SHL DUP2 MSTORE PUSH1 0x20 PUSH1 0x4 DUP3 ADD MSTORE PUSH1 0x17 PUSH1 0x24 DUP3 ADD MSTORE PUSH32 0x526566657272657220616464726573732062616E6E6564000000000000000000 PUSH1 0x44 DUP3 ADD MSTORE PUSH1 0x64 ADD PUSH2 0x792 JUMP JUMPDEST PUSH1 0x0 DUP5 DUP2 MSTORE PUSH1 0x10 PUSH1 0x20 MSTORE PUSH1 0x40 SWAP1 KECCAK256 SLOAD PUSH1 0xFF AND ISZERO PUSH2 0x2100 JUMPI PUSH1 0x40 MLOAD PUSH3 0x461BCD PUSH1 0xE5 SHL DUP2 MSTORE PUSH1 0x20 PUSH1 0x4 DUP3 ADD MSTORE PUSH1 0x12 PUSH1 0x24 DUP3 ADD MSTORE PUSH18 0x149959995C9C995C8812510818985B9B9959 PUSH1 0x72 SHL PUSH1 0x44 DUP3 ADD MSTORE PUSH1 0x64 ADD PUSH2 0x792 JUMP JUMPDEST PUSH1 0x17 SLOAD PUSH1 0x40 MLOAD PUSH4 0x70A08231 PUSH1 0xE0 SHL DUP2 MSTORE ADDRESS PUSH1 0x4 DUP3 ADD MSTORE PUSH1 0x0 SWAP2 PUSH1 0x1 PUSH1 0x1 PUSH1 0xA0 SHL SUB AND SWAP1 PUSH4 0x70A08231 SWAP1 PUSH1 0x24 ADD PUSH1 0x20 PUSH1 0x40 MLOAD DUP1 DUP4 SUB DUP2 DUP7 GAS STATICCALL ISZERO DUP1 ISZERO PUSH2 0x2149 JUMPI RETURNDATASIZE PUSH1 0x0 DUP1 RETURNDATACOPY RETURNDATASIZE PUSH1 0x0 REVERT JUMPDEST POP POP POP POP PUSH1 0x40 MLOAD RETURNDATASIZE PUSH1 0x1F NOT PUSH1 0x1F DUP3 ADD AND DUP3 ADD DUP1 PUSH1 0x40 MSTORE POP DUP2 ADD SWAP1 PUSH2 0x216D SWAP2 SWAP1 PUSH2 0x2FF6 JUMP JUMPDEST SWAP1 POP PUSH1 0x0 PUSH2 0x217D DUP7 DUP7 DUP7 DUP7 PUSH2 0x24B2 JUMP JUMPDEST PUSH1 0xB DUP1 SLOAD SWAP2 SWAP3 POP PUSH1 0x0 PUSH2 0x218F DUP4 PUSH2 0x2FDB JUMP JUMPDEST SWAP1 SWAP2 SSTORE POP POP PUSH1 0x0 DUP10 DUP2 MSTORE PUSH1 0x2 PUSH1 0x20 SWAP1 DUP2 MSTORE PUSH1 0x40 DUP1 DUP4 KECCAK256 DUP1 SLOAD PUSH1 0xFF NOT AND PUSH1 0x1 SWAP1 DUP2 OR SWAP1 SWAP2 SSTORE PUSH1 0xB SLOAD DUP5 MSTORE PUSH1 0x3 DUP4 MSTORE DUP2 DUP5 KECCAK256 DUP14 SWAP1 SSTORE DUP2 MLOAD PUSH2 0x120 DUP2 ADD DUP4 MSTORE DUP14 DUP2 MSTORE DUP1 DUP5 ADD DUP14 DUP2 MSTORE DUP2 DUP5 ADD DUP14 SWAP1 MSTORE PUSH1 0x60 DUP3 ADD DUP7 SWAP1 MSTORE PUSH1 0x80 DUP3 ADD DUP13 SWAP1 MSTORE PUSH1 0x1 PUSH1 0x1 PUSH1 0xA0 SHL SUB DUP10 AND PUSH1 0xA0 DUP4 ADD MSTORE PUSH1 0xC0 DUP3 ADD DUP7 SWAP1 MSTORE PUSH1 0xE0 DUP3 ADD DUP7 SWAP1 MSTORE PUSH2 0x100 DUP3 ADD DUP7 SWAP1 MSTORE DUP15 DUP7 MSTORE DUP3 DUP6 MSTORE SWAP3 SWAP1 SWAP5 KECCAK256 DUP5 MLOAD DUP2 SSTORE SWAP2 MLOAD DUP1 MLOAD SWAP3 SWAP4 PUSH2 0x2231 SWAP4 SWAP3 DUP6 ADD SWAP3 SWAP2 ADD SWAP1 PUSH2 0x2A66 JUMP JUMPDEST POP PUSH1 0x40 DUP3 ADD MLOAD DUP1 MLOAD PUSH2 0x224D SWAP2 PUSH1 0x2 DUP5 ADD SWAP2 PUSH1 0x20 SWAP1 SWAP2 ADD SWAP1 PUSH2 0x2A66 JUMP JUMPDEST POP PUSH1 0x60 DUP3 ADD MLOAD PUSH1 0x3 DUP3 ADD DUP1 SLOAD PUSH1 0x1 PUSH1 0x1 PUSH1 0xA0 SHL SUB SWAP3 DUP4 AND PUSH1 0x1 PUSH1 0x1 PUSH1 0xA0 SHL SUB NOT SWAP2 DUP3 AND OR SWAP1 SWAP2 SSTORE PUSH1 0x80 DUP5 ADD MLOAD PUSH1 0x4 DUP5 ADD SSTORE PUSH1 0xA0 DUP5 ADD MLOAD PUSH1 0x5 DUP5 ADD DUP1 SLOAD SWAP2 SWAP1 SWAP4 AND SWAP2 AND OR SWAP1 SSTORE PUSH1 0xC0 DUP1 DUP4 ADD MLOAD PUSH1 0x6 DUP4 ADD SSTORE PUSH1 0xE0 DUP4 ADD MLOAD PUSH1 0x7 DUP4 ADD SSTORE PUSH2 0x100 SWAP1 SWAP3 ADD MLOAD PUSH1 0x8 SWAP1 SWAP2 ADD SSTORE DUP2 ADD DUP1 MLOAD SWAP1 PUSH2 0x22C2 DUP3 PUSH2 0x2FDB JUMP JUMPDEST SWAP1 MSTORE POP PUSH1 0x0 DUP7 DUP2 MSTORE PUSH1 0x20 DUP2 DUP2 MSTORE PUSH1 0x40 DUP1 DUP4 KECCAK256 PUSH1 0xC0 DUP6 ADD MLOAD DUP5 MSTORE SWAP1 SWAP2 MSTORE SWAP1 KECCAK256 DUP10 SWAP1 SSTORE PUSH1 0x18 SLOAD DUP3 LT PUSH2 0x239E JUMPI PUSH1 0x17 SLOAD PUSH1 0x18 SLOAD PUSH1 0x40 MLOAD PUSH4 0xA9059CBB PUSH1 0xE0 SHL DUP2 MSTORE PUSH1 0x1 PUSH1 0x1 PUSH1 0xA0 SHL SUB DUP7 DUP2 AND PUSH1 0x4 DUP4 ADD MSTORE PUSH1 0x24 DUP3 ADD SWAP3 SWAP1 SWAP3 MSTORE SWAP2 AND SWAP1 PUSH4 0xA9059CBB SWAP1 PUSH1 0x44 ADD PUSH1 0x20 PUSH1 0x40 MLOAD DUP1 DUP4 SUB DUP2 PUSH1 0x0 DUP8 GAS CALL ISZERO DUP1 ISZERO PUSH2 0x2342 JUMPI RETURNDATASIZE PUSH1 0x0 DUP1 RETURNDATACOPY RETURNDATASIZE PUSH1 0x0 REVERT JUMPDEST POP POP POP POP PUSH1 0x40 MLOAD RETURNDATASIZE PUSH1 0x1F NOT PUSH1 0x1F DUP3 ADD AND DUP3 ADD DUP1 PUSH1 0x40 MSTORE POP DUP2 ADD SWAP1 PUSH2 0x2366 SWAP2 SWAP1 PUSH2 0x3100 JUMP JUMPDEST POP PUSH1 0x18 SLOAD DUP2 PUSH1 0xE0 ADD DUP2 DUP2 MLOAD PUSH2 0x237B SWAP2 SWAP1 PUSH2 0x309D JUMP JUMPDEST SWAP1 MSTORE POP PUSH1 0x18 SLOAD PUSH1 0xA DUP1 SLOAD PUSH1 0x0 SWAP1 PUSH2 0x2393 SWAP1 DUP5 SWAP1 PUSH2 0x309D JUMP JUMPDEST SWAP1 SWAP2 SSTORE POP PUSH2 0x23F7 SWAP1 POP JUMP JUMPDEST PUSH1 0x18 SLOAD DUP2 PUSH2 0x100 ADD DUP2 DUP2 MLOAD PUSH2 0x23B3 SWAP2 SWAP1 PUSH2 0x309D JUMP JUMPDEST SWAP1 MSTORE POP PUSH1 0x18 SLOAD PUSH1 0x0 DUP8 DUP2 MSTORE PUSH1 0x8 PUSH1 0x20 MSTORE PUSH1 0x40 DUP2 KECCAK256 DUP1 SLOAD SWAP1 SWAP2 SWAP1 PUSH2 0x23D7 SWAP1 DUP5 SWAP1 PUSH2 0x309D JUMP JUMPDEST SWAP1 SWAP2 SSTORE POP POP PUSH1 0x18 SLOAD PUSH1 0x9 DUP1 SLOAD PUSH1 0x0 SWAP1 PUSH2 0x23F1 SWAP1 DUP5 SWAP1 PUSH2 0x309D JUMP JUMPDEST SWAP1 SWAP2 SSTORE POP POP JUMPDEST PUSH1 0x0 DUP7 DUP2 MSTORE PUSH1 0x1 PUSH1 0x20 DUP2 DUP2 MSTORE PUSH1 0x40 SWAP1 SWAP3 KECCAK256 DUP4 MLOAD DUP2 SSTORE DUP3 DUP5 ADD MLOAD DUP1 MLOAD DUP6 SWAP5 SWAP3 SWAP4 PUSH2 0x2425 SWAP4 SWAP1 DUP6 ADD SWAP3 ADD SWAP1 PUSH2 0x2A66 JUMP JUMPDEST POP PUSH1 0x40 DUP3 ADD MLOAD DUP1 MLOAD PUSH2 0x2441 SWAP2 PUSH1 0x2 DUP5 ADD SWAP2 PUSH1 0x20 SWAP1 SWAP2 ADD SWAP1 PUSH2 0x2A66 JUMP JUMPDEST POP PUSH1 0x60 DUP3 ADD MLOAD PUSH1 0x3 DUP3 ADD DUP1 SLOAD PUSH1 0x1 PUSH1 0x1 PUSH1 0xA0 SHL SUB SWAP3 DUP4 AND PUSH1 0x1 PUSH1 0x1 PUSH1 0xA0 SHL SUB NOT SWAP2 DUP3 AND OR SWAP1 SWAP2 SSTORE PUSH1 0x80 DUP5 ADD MLOAD PUSH1 0x4 DUP5 ADD SSTORE PUSH1 0xA0 DUP5 ADD MLOAD PUSH1 0x5 DUP5 ADD DUP1 SLOAD SWAP2 SWAP1 SWAP4 AND SWAP2 AND OR SWAP1 SSTORE PUSH1 0xC0 DUP3 ADD MLOAD PUSH1 0x6 DUP3 ADD SSTORE PUSH1 0xE0 DUP3 ADD MLOAD PUSH1 0x7 DUP3 ADD SSTORE PUSH2 0x100 SWAP1 SWAP2 ADD MLOAD PUSH1 0x8 SWAP1 SWAP2 ADD SSTORE POP POP POP POP POP POP POP POP POP JUMP JUMPDEST PUSH2 0x24BA PUSH2 0x2A08 JUMP JUMPDEST PUSH1 0x0 DUP6 DUP2 MSTORE PUSH1 0x2 PUSH1 0x20 MSTORE PUSH1 0x40 SWAP1 KECCAK256 SLOAD PUSH1 0xFF AND PUSH2 0x288F JUMPI PUSH1 0x1 PUSH1 0x1 PUSH1 0xA0 SHL SUB DUP3 AND PUSH1 0x0 SWAP1 DUP2 MSTORE PUSH1 0x7 PUSH1 0x20 MSTORE PUSH1 0x40 SWAP1 KECCAK256 SLOAD PUSH1 0xFF AND ISZERO PUSH2 0x2539 JUMPI PUSH1 0x40 MLOAD PUSH3 0x461BCD PUSH1 0xE5 SHL DUP2 MSTORE PUSH1 0x20 PUSH1 0x4 DUP3 ADD MSTORE PUSH1 0x1F PUSH1 0x24 DUP3 ADD MSTORE PUSH32 0x54686973206164647265737320616C7265616479207265676973746572656400 PUSH1 0x44 DUP3 ADD MSTORE PUSH1 0x64 ADD PUSH2 0x792 JUMP JUMPDEST PUSH1 0xB DUP1 SLOAD SWAP1 PUSH1 0x0 PUSH2 0x2549 DUP4 PUSH2 0x2FDB JUMP JUMPDEST SWAP1 SWAP2 SSTORE POP POP PUSH1 0x0 DUP6 DUP2 MSTORE PUSH1 0x2 PUSH1 0x20 SWAP1 DUP2 MSTORE PUSH1 0x40 DUP1 DUP4 KECCAK256 DUP1 SLOAD PUSH1 0xFF NOT AND PUSH1 0x1 SWAP1 DUP2 OR SWAP1 SWAP2 SSTORE PUSH1 0xB SLOAD DUP5 MSTORE PUSH1 0x3 DUP4 MSTORE DUP2 DUP5 KECCAK256 DUP10 SWAP1 SSTORE DUP2 MLOAD PUSH2 0x120 DUP2 ADD DUP4 MSTORE DUP10 DUP2 MSTORE DUP1 DUP5 ADD DUP10 DUP2 MSTORE DUP2 DUP5 ADD DUP10 SWAP1 MSTORE PUSH1 0x1 PUSH1 0x1 PUSH1 0xA0 SHL SUB DUP9 AND PUSH1 0x60 DUP4 ADD MSTORE PUSH1 0x80 DUP3 ADD DUP7 SWAP1 MSTORE PUSH1 0xA0 DUP3 ADD DUP7 SWAP1 MSTORE PUSH1 0xC0 DUP3 ADD DUP7 SWAP1 MSTORE PUSH1 0xE0 DUP3 ADD DUP7 SWAP1 MSTORE PUSH2 0x100 DUP3 ADD DUP7 SWAP1 MSTORE DUP11 DUP7 MSTORE DUP3 DUP6 MSTORE SWAP3 SWAP1 SWAP5 KECCAK256 DUP5 MLOAD DUP2 SSTORE SWAP2 MLOAD DUP1 MLOAD SWAP3 SWAP4 PUSH2 0x25EB SWAP4 SWAP3 DUP6 ADD SWAP3 SWAP2 ADD SWAP1 PUSH2 0x2A66 JUMP JUMPDEST POP PUSH1 0x40 DUP3 ADD MLOAD DUP1 MLOAD PUSH2 0x2607 SWAP2 PUSH1 0x2 DUP5 ADD SWAP2 PUSH1 0x20 SWAP1 SWAP2 ADD SWAP1 PUSH2 0x2A66 JUMP JUMPDEST POP PUSH1 0x60 DUP3 ADD MLOAD PUSH1 0x3 DUP3 ADD DUP1 SLOAD PUSH1 0x1 PUSH1 0x1 PUSH1 0xA0 SHL SUB SWAP3 DUP4 AND PUSH1 0x1 PUSH1 0x1 PUSH1 0xA0 SHL SUB NOT SWAP2 DUP3 AND OR SWAP1 SWAP2 SSTORE PUSH1 0x80 DUP5 ADD MLOAD PUSH1 0x4 DUP5 ADD SSTORE PUSH1 0xA0 DUP5 ADD MLOAD PUSH1 0x5 DUP5 ADD DUP1 SLOAD SWAP2 SWAP1 SWAP4 AND SWAP2 AND OR SWAP1 SSTORE PUSH1 0xC0 DUP3 ADD MLOAD PUSH1 0x6 DUP1 DUP4 ADD SWAP2 SWAP1 SWAP2 SSTORE PUSH1 0xE0 DUP4 ADD MLOAD PUSH1 0x7 DUP4 ADD SSTORE PUSH2 0x100 SWAP1 SWAP3 ADD MLOAD PUSH1 0x8 SWAP1 SWAP2 ADD SSTORE PUSH1 0x0 DUP7 DUP2 MSTORE PUSH1 0x20 SWAP2 SWAP1 SWAP2 MSTORE PUSH1 0x40 DUP2 KECCAK256 DUP1 SLOAD SWAP2 PUSH2 0x268C DUP4 PUSH2 0x2FDB JUMP JUMPDEST SWAP1 SWAP2 SSTORE POP POP PUSH1 0x0 DUP6 DUP2 MSTORE PUSH1 0x4 PUSH1 0x20 SWAP1 DUP2 MSTORE PUSH1 0x40 DUP1 DUP4 KECCAK256 PUSH1 0x6 DUP4 MSTORE DUP2 DUP5 KECCAK256 SLOAD DUP5 MSTORE DUP3 MSTORE DUP1 DUP4 KECCAK256 DUP1 SLOAD PUSH1 0x1 PUSH1 0x1 PUSH1 0xA0 SHL SUB NOT AND PUSH1 0x1 PUSH1 0x1 PUSH1 0xA0 SHL SUB DUP8 AND SWAP1 DUP2 OR SWAP1 SWAP2 SSTORE DUP9 DUP5 MSTORE PUSH1 0x5 DUP4 MSTORE DUP2 DUP5 KECCAK256 SWAP1 DUP5 MSTORE DUP3 MSTORE DUP1 DUP4 KECCAK256 DUP1 SLOAD PUSH1 0xFF NOT SWAP1 DUP2 AND PUSH1 0x1 SWAP1 DUP2 OR SWAP1 SWAP3 SSTORE PUSH1 0x7 DUP5 MSTORE DUP3 DUP6 KECCAK256 DUP1 SLOAD SWAP1 SWAP2 AND DUP3 OR SWAP1 SSTORE DUP9 DUP5 MSTORE DUP1 DUP4 MSTORE SWAP3 DUP2 SWAP1 KECCAK256 DUP2 MLOAD PUSH2 0x120 DUP2 ADD SWAP1 SWAP3 MSTORE DUP1 SLOAD DUP3 MSTORE SWAP3 DUP4 ADD DUP1 SLOAD SWAP2 SWAP4 SWAP3 DUP5 ADD SWAP2 PUSH2 0x272B SWAP1 PUSH2 0x30B5 JUMP JUMPDEST DUP1 PUSH1 0x1F ADD PUSH1 0x20 DUP1 SWAP2 DIV MUL PUSH1 0x20 ADD PUSH1 0x40 MLOAD SWAP1 DUP2 ADD PUSH1 0x40 MSTORE DUP1 SWAP3 SWAP2 SWAP1 DUP2 DUP2 MSTORE PUSH1 0x20 ADD DUP3 DUP1 SLOAD PUSH2 0x2757 SWAP1 PUSH2 0x30B5 JUMP JUMPDEST DUP1 ISZERO PUSH2 0x27A4 JUMPI DUP1 PUSH1 0x1F LT PUSH2 0x2779 JUMPI PUSH2 0x100 DUP1 DUP4 SLOAD DIV MUL DUP4 MSTORE SWAP2 PUSH1 0x20 ADD SWAP2 PUSH2 0x27A4 JUMP JUMPDEST DUP3 ADD SWAP2 SWAP1 PUSH1 0x0 MSTORE PUSH1 0x20 PUSH1 0x0 KECCAK256 SWAP1 JUMPDEST DUP2 SLOAD DUP2 MSTORE SWAP1 PUSH1 0x1 ADD SWAP1 PUSH1 0x20 ADD DUP1 DUP4 GT PUSH2 0x2787 JUMPI DUP3 SWAP1 SUB PUSH1 0x1F AND DUP3 ADD SWAP2 JUMPDEST POP POP POP POP POP DUP2 MSTORE PUSH1 0x20 ADD PUSH1 0x2 DUP3 ADD DUP1 SLOAD PUSH2 0x27BD SWAP1 PUSH2 0x30B5 JUMP JUMPDEST DUP1 PUSH1 0x1F ADD PUSH1 0x20 DUP1 SWAP2 DIV MUL PUSH1 0x20 ADD PUSH1 0x40 MLOAD SWAP1 DUP2 ADD PUSH1 0x40 MSTORE DUP1 SWAP3 SWAP2 SWAP1 DUP2 DUP2 MSTORE PUSH1 0x20 ADD DUP3 DUP1 SLOAD PUSH2 0x27E9 SWAP1 PUSH2 0x30B5 JUMP JUMPDEST DUP1 ISZERO PUSH2 0x2836 JUMPI DUP1 PUSH1 0x1F LT PUSH2 0x280B JUMPI PUSH2 0x100 DUP1 DUP4 SLOAD DIV MUL DUP4 MSTORE SWAP2 PUSH1 0x20 ADD SWAP2 PUSH2 0x2836 JUMP JUMPDEST DUP3 ADD SWAP2 SWAP1 PUSH1 0x0 MSTORE PUSH1 0x20 PUSH1 0x0 KECCAK256 SWAP1 JUMPDEST DUP2 SLOAD DUP2 MSTORE SWAP1 PUSH1 0x1 ADD SWAP1 PUSH1 0x20 ADD DUP1 DUP4 GT PUSH2 0x2819 JUMPI DUP3 SWAP1 SUB PUSH1 0x1F AND DUP3 ADD SWAP2 JUMPDEST POP POP POP SWAP2 DUP4 MSTORE POP POP PUSH1 0x3 DUP3 ADD SLOAD PUSH1 0x1 PUSH1 0x1 PUSH1 0xA0 SHL SUB SWAP1 DUP2 AND PUSH1 0x20 DUP4 ADD MSTORE PUSH1 0x4 DUP4 ADD SLOAD PUSH1 0x40 DUP4 ADD MSTORE PUSH1 0x5 DUP4 ADD SLOAD AND PUSH1 0x60 DUP3 ADD MSTORE PUSH1 0x6 DUP3 ADD SLOAD PUSH1 0x80 DUP3 ADD MSTORE PUSH1 0x7 DUP3 ADD SLOAD PUSH1 0xA0 DUP3 ADD MSTORE PUSH1 0x8 SWAP1 SWAP2 ADD SLOAD PUSH1 0xC0 SWAP1 SWAP2 ADD MSTORE SWAP1 POP PUSH2 0x2A00 JUMP JUMPDEST PUSH1 0x0 DUP6 DUP2 MSTORE PUSH1 0x5 PUSH1 0x20 SWAP1 DUP2 MSTORE PUSH1 0x40 DUP1 DUP4 KECCAK256 PUSH1 0x1 PUSH1 0x1 PUSH1 0xA0 SHL SUB DUP7 AND DUP5 MSTORE SWAP1 SWAP2 MSTORE SWAP1 KECCAK256 SLOAD PUSH1 0xFF AND PUSH2 0x29B1 JUMPI PUSH1 0x1 PUSH1 0x1 PUSH1 0xA0 SHL SUB DUP3 AND PUSH1 0x0 SWAP1 DUP2 MSTORE PUSH1 0x7 PUSH1 0x20 MSTORE PUSH1 0x40 SWAP1 KECCAK256 SLOAD PUSH1 0xFF AND ISZERO PUSH2 0x2922 JUMPI PUSH1 0x40 MLOAD PUSH3 0x461BCD PUSH1 0xE5 SHL DUP2 MSTORE PUSH1 0x20 PUSH1 0x4 DUP3 ADD MSTORE PUSH1 0x1F PUSH1 0x24 DUP3 ADD MSTORE PUSH32 0x54686973206164647265737320616C7265616479207265676973746572656400 PUSH1 0x44 DUP3 ADD MSTORE PUSH1 0x64 ADD PUSH2 0x792 JUMP JUMPDEST PUSH1 0x0 DUP6 DUP2 MSTORE PUSH1 0x6 PUSH1 0x20 MSTORE PUSH1 0x40 DUP2 KECCAK256 DUP1 SLOAD SWAP2 PUSH2 0x293C DUP4 PUSH2 0x2FDB JUMP JUMPDEST SWAP1 SWAP2 SSTORE POP POP PUSH1 0x0 DUP6 DUP2 MSTORE PUSH1 0x4 PUSH1 0x20 SWAP1 DUP2 MSTORE PUSH1 0x40 DUP1 DUP4 KECCAK256 PUSH1 0x6 DUP4 MSTORE DUP2 DUP5 KECCAK256 SLOAD DUP5 MSTORE DUP3 MSTORE DUP1 DUP4 KECCAK256 DUP1 SLOAD PUSH1 0x1 PUSH1 0x1 PUSH1 0xA0 SHL SUB NOT AND PUSH1 0x1 PUSH1 0x1 PUSH1 0xA0 SHL SUB DUP8 AND SWAP1 DUP2 OR SWAP1 SWAP2 SSTORE DUP9 DUP5 MSTORE PUSH1 0x5 DUP4 MSTORE DUP2 DUP5 KECCAK256 SWAP1 DUP5 MSTORE DUP3 MSTORE DUP1 DUP4 KECCAK256 DUP1 SLOAD PUSH1 0xFF NOT SWAP1 DUP2 AND PUSH1 0x1 SWAP1 DUP2 OR SWAP1 SWAP3 SSTORE PUSH1 0x7 SWAP1 SWAP4 MSTORE SWAP3 KECCAK256 DUP1 SLOAD SWAP1 SWAP2 AND SWAP1 SWAP2 OR SWAP1 SSTORE JUMPDEST PUSH1 0x0 DUP6 DUP2 MSTORE PUSH1 0x1 PUSH1 0x20 DUP2 DUP2 MSTORE PUSH1 0x40 SWAP3 DUP4 SWAP1 KECCAK256 PUSH1 0x3 DUP2 ADD DUP1 SLOAD PUSH1 0x1 PUSH1 0x1 PUSH1 0xA0 SHL SUB NOT AND PUSH1 0x1 PUSH1 0x1 PUSH1 0xA0 SHL SUB DUP9 AND OR SWAP1 SSTORE DUP4 MLOAD PUSH2 0x120 DUP2 ADD SWAP1 SWAP5 MSTORE DUP1 SLOAD DUP5 MSTORE SWAP2 DUP3 ADD DUP1 SLOAD SWAP2 DUP5 ADD SWAP2 PUSH2 0x272B SWAP1 PUSH2 0x30B5 JUMP JUMPDEST SWAP5 SWAP4 POP POP POP POP JUMP JUMPDEST PUSH1 0x40 MLOAD DUP1 PUSH2 0x120 ADD PUSH1 0x40 MSTORE DUP1 PUSH1 0x0 DUP2 MSTORE PUSH1 0x20 ADD PUSH1 0x60 DUP2 MSTORE PUSH1 0x20 ADD PUSH1 0x60 DUP2 MSTORE PUSH1 0x20 ADD PUSH1 0x0 PUSH1 0x1 PUSH1 0x1 PUSH1 0xA0 SHL SUB AND DUP2 MSTORE PUSH1 0x20 ADD PUSH1 0x0 DUP2 MSTORE PUSH1 0x20 ADD PUSH1 0x0 PUSH1 0x1 PUSH1 0x1 PUSH1 0xA0 SHL SUB AND DUP2 MSTORE PUSH1 0x20 ADD PUSH1 0x0 DUP2 MSTORE PUSH1 0x20 ADD PUSH1 0x0 DUP2 MSTORE PUSH1 0x20 ADD PUSH1 0x0 DUP2 MSTORE POP SWAP1 JUMP JUMPDEST DUP3 DUP1 SLOAD PUSH2 0x2A72 SWAP1 PUSH2 0x30B5 JUMP JUMPDEST SWAP1 PUSH1 0x0 MSTORE PUSH1 0x20 PUSH1 0x0 KECCAK256 SWAP1 PUSH1 0x1F ADD PUSH1 0x20 SWAP1 DIV DUP2 ADD SWAP3 DUP3 PUSH2 0x2A94 JUMPI PUSH1 0x0 DUP6 SSTORE PUSH2 0x2ADA JUMP JUMPDEST DUP3 PUSH1 0x1F LT PUSH2 0x2AAD JUMPI DUP1 MLOAD PUSH1 0xFF NOT AND DUP4 DUP1 ADD OR DUP6 SSTORE PUSH2 0x2ADA JUMP JUMPDEST DUP3 DUP1 ADD PUSH1 0x1 ADD DUP6 SSTORE DUP3 ISZERO PUSH2 0x2ADA JUMPI SWAP2 DUP3 ADD JUMPDEST DUP3 DUP2 GT ISZERO PUSH2 0x2ADA JUMPI DUP3 MLOAD DUP3 SSTORE SWAP2 PUSH1 0x20 ADD SWAP2 SWAP1 PUSH1 0x1 ADD SWAP1 PUSH2 0x2ABF JUMP JUMPDEST POP PUSH2 0xD50 SWAP3 SWAP2 POP JUMPDEST DUP1 DUP3 GT ISZERO PUSH2 0xD50 JUMPI PUSH1 0x0 DUP2 SSTORE PUSH1 0x1 ADD PUSH2 0x2AE2 JUMP JUMPDEST DUP1 CALLDATALOAD PUSH1 0x1 PUSH1 0x1 PUSH1 0xA0 SHL SUB DUP2 AND DUP2 EQ PUSH2 0xC7F JUMPI PUSH1 0x0 DUP1 REVERT JUMPDEST PUSH1 0x0 PUSH1 0x20 DUP3 DUP5 SUB SLT ISZERO PUSH2 0x2B1F JUMPI PUSH1 0x0 DUP1 REVERT JUMPDEST PUSH2 0x2B28 DUP3 PUSH2 0x2AF6 JUMP JUMPDEST SWAP4 SWAP3 POP POP POP JUMP JUMPDEST PUSH1 0x0 PUSH1 0x20 DUP3 DUP5 SUB SLT ISZERO PUSH2 0x2B41 JUMPI PUSH1 0x0 DUP1 REVERT JUMPDEST POP CALLDATALOAD SWAP2 SWAP1 POP JUMP JUMPDEST PUSH1 0x0 JUMPDEST DUP4 DUP2 LT ISZERO PUSH2 0x2B63 JUMPI DUP2 DUP2 ADD MLOAD DUP4 DUP3 ADD MSTORE PUSH1 0x20 ADD PUSH2 0x2B4B JUMP JUMPDEST DUP4 DUP2 GT ISZERO PUSH2 0x14A9 JUMPI POP POP PUSH1 0x0 SWAP2 ADD MSTORE JUMP JUMPDEST PUSH1 0x0 DUP2 MLOAD DUP1 DUP5 MSTORE PUSH2 0x2B8C DUP2 PUSH1 0x20 DUP7 ADD PUSH1 0x20 DUP7 ADD PUSH2 0x2B48 JUMP JUMPDEST PUSH1 0x1F ADD PUSH1 0x1F NOT AND SWAP3 SWAP1 SWAP3 ADD PUSH1 0x20 ADD SWAP3 SWAP2 POP POP JUMP JUMPDEST PUSH1 0x20 DUP2 MSTORE PUSH1 0x0 PUSH2 0x2B28 PUSH1 0x20 DUP4 ADD DUP5 PUSH2 0x2B74 JUMP JUMPDEST PUSH1 0x0 PUSH2 0x120 DUP3 MLOAD DUP5 MSTORE PUSH1 0x20 DUP4 ADD MLOAD DUP2 PUSH1 0x20 DUP7 ADD MSTORE PUSH2 0x2BD3 DUP3 DUP7 ADD DUP3 PUSH2 0x2B74 JUMP JUMPDEST SWAP2 POP POP PUSH1 0x40 DUP4 ADD MLOAD DUP5 DUP3 SUB PUSH1 0x40 DUP7 ADD MSTORE PUSH2 0x2BED DUP3 DUP3 PUSH2 0x2B74 JUMP JUMPDEST SWAP2 POP POP PUSH1 0x60 DUP4 ADD MLOAD PUSH2 0x2C0A PUSH1 0x60 DUP7 ADD DUP3 PUSH1 0x1 PUSH1 0x1 PUSH1 0xA0 SHL SUB AND SWAP1 MSTORE JUMP JUMPDEST POP PUSH1 0x80 DUP4 ADD MLOAD PUSH1 0x80 DUP6 ADD MSTORE PUSH1 0xA0 DUP4 ADD MLOAD PUSH2 0x2C2F PUSH1 0xA0 DUP7 ADD DUP3 PUSH1 0x1 PUSH1 0x1 PUSH1 0xA0 SHL SUB AND SWAP1 MSTORE JUMP JUMPDEST POP PUSH1 0xC0 DUP4 DUP2 ADD MLOAD SWAP1 DUP6 ADD MSTORE PUSH1 0xE0 DUP1 DUP5 ADD MLOAD SWAP1 DUP6 ADD MSTORE PUSH2 0x100 SWAP3 DUP4 ADD MLOAD SWAP3 SWAP1 SWAP4 ADD SWAP2 SWAP1 SWAP2 MSTORE POP SWAP1 JUMP JUMPDEST PUSH1 0x0 PUSH1 0x20 DUP1 DUP4 ADD DUP2 DUP5 MSTORE DUP1 DUP6 MLOAD DUP1 DUP4 MSTORE PUSH1 0x40 DUP7 ADD SWAP2 POP PUSH1 0x40 DUP2 PUSH1 0x5 SHL DUP8 ADD ADD SWAP3 POP DUP4 DUP8 ADD PUSH1 0x0 JUMPDEST DUP3 DUP2 LT ISZERO PUSH2 0x2CAC JUMPI PUSH1 0x3F NOT DUP9 DUP7 SUB ADD DUP5 MSTORE PUSH2 0x2C9A DUP6 DUP4 MLOAD PUSH2 0x2BB3 JUMP JUMPDEST SWAP5 POP SWAP3 DUP6 ADD SWAP3 SWAP1 DUP6 ADD SWAP1 PUSH1 0x1 ADD PUSH2 0x2C7E JUMP JUMPDEST POP SWAP3 SWAP8 SWAP7 POP POP POP POP POP POP POP JUMP JUMPDEST PUSH1 0x20 DUP1 DUP3 MSTORE DUP3 MLOAD DUP3 DUP3 ADD DUP2 SWAP1 MSTORE PUSH1 0x0 SWAP2 SWAP1 DUP5 DUP3 ADD SWAP1 PUSH1 0x40 DUP6 ADD SWAP1 DUP5 JUMPDEST DUP2 DUP2 LT ISZERO PUSH2 0x2CFA JUMPI DUP4 MLOAD PUSH1 0x1 PUSH1 0x1 PUSH1 0xA0 SHL SUB AND DUP4 MSTORE SWAP3 DUP5 ADD SWAP3 SWAP2 DUP5 ADD SWAP2 PUSH1 0x1 ADD PUSH2 0x2CD5 JUMP JUMPDEST POP SWAP1 SWAP7 SWAP6 POP POP POP POP POP POP JUMP JUMPDEST PUSH1 0x0 PUSH2 0x120 DUP12 DUP4 MSTORE DUP1 PUSH1 0x20 DUP5 ADD MSTORE PUSH2 0x2D20 DUP2 DUP5 ADD DUP13 PUSH2 0x2B74 JUMP JUMPDEST SWAP1 POP DUP3 DUP2 SUB PUSH1 0x40 DUP5 ADD MSTORE PUSH2 0x2D34 DUP2 DUP12 PUSH2 0x2B74 JUMP JUMPDEST PUSH1 0x1 PUSH1 0x1 PUSH1 0xA0 SHL SUB SWAP10 DUP11 AND PUSH1 0x60 DUP6 ADD MSTORE PUSH1 0x80 DUP5 ADD SWAP9 SWAP1 SWAP9 MSTORE POP POP SWAP4 SWAP1 SWAP6 AND PUSH1 0xA0 DUP5 ADD MSTORE PUSH1 0xC0 DUP4 ADD SWAP2 SWAP1 SWAP2 MSTORE PUSH1 0xE0 DUP3 ADD MSTORE PUSH2 0x100 ADD SWAP2 SWAP1 SWAP2 MSTORE SWAP4 SWAP3 POP POP POP JUMP JUMPDEST PUSH1 0x20 DUP1 DUP3 MSTORE DUP3 MLOAD DUP3 DUP3 ADD DUP2 SWAP1 MSTORE PUSH1 0x0 SWAP2 SWAP1 DUP5 DUP3 ADD SWAP1 PUSH1 0x40 DUP6 ADD SWAP1 DUP5 JUMPDEST DUP2 DUP2 LT ISZERO PUSH2 0x2CFA JUMPI DUP4 MLOAD DUP4 MSTORE SWAP3 DUP5 ADD SWAP3 SWAP2 DUP5 ADD SWAP2 PUSH1 0x1 ADD PUSH2 0x2D8F JUMP JUMPDEST PUSH1 0x0 DUP1 PUSH1 0x40 DUP4 DUP6 SUB SLT ISZERO PUSH2 0x2DBE JUMPI PUSH1 0x0 DUP1 REVERT JUMPDEST POP POP DUP1 CALLDATALOAD SWAP3 PUSH1 0x20 SWAP1 SWAP2 ADD CALLDATALOAD SWAP2 POP JUMP JUMPDEST PUSH1 0x0 DUP1 PUSH1 0x40 DUP4 DUP6 SUB SLT ISZERO PUSH2 0x2DE0 JUMPI PUSH1 0x0 DUP1 REVERT JUMPDEST DUP3 CALLDATALOAD SWAP2 POP PUSH2 0x2DF0 PUSH1 0x20 DUP5 ADD PUSH2 0x2AF6 JUMP JUMPDEST SWAP1 POP SWAP3 POP SWAP3 SWAP1 POP JUMP JUMPDEST PUSH1 0x20 DUP2 MSTORE PUSH1 0x0 PUSH2 0x2B28 PUSH1 0x20 DUP4 ADD DUP5 PUSH2 0x2BB3 JUMP JUMPDEST PUSH4 0x4E487B71 PUSH1 0xE0 SHL PUSH1 0x0 MSTORE PUSH1 0x41 PUSH1 0x4 MSTORE PUSH1 0x24 PUSH1 0x0 REVERT JUMPDEST PUSH1 0x40 MLOAD PUSH1 0x1F DUP3 ADD PUSH1 0x1F NOT AND DUP2 ADD PUSH8 0xFFFFFFFFFFFFFFFF DUP2 GT DUP3 DUP3 LT OR ISZERO PUSH2 0x2E4B JUMPI PUSH2 0x2E4B PUSH2 0x2E0C JUMP JUMPDEST PUSH1 0x40 MSTORE SWAP2 SWAP1 POP JUMP JUMPDEST PUSH1 0x0 PUSH8 0xFFFFFFFFFFFFFFFF DUP3 GT ISZERO PUSH2 0x2E6D JUMPI PUSH2 0x2E6D PUSH2 0x2E0C JUMP JUMPDEST POP PUSH1 0x1F ADD PUSH1 0x1F NOT AND PUSH1 0x20 ADD SWAP1 JUMP JUMPDEST PUSH1 0x0 DUP3 PUSH1 0x1F DUP4 ADD SLT PUSH2 0x2E8C JUMPI PUSH1 0x0 DUP1 REVERT JUMPDEST DUP2 CALLDATALOAD PUSH2 0x2E9F PUSH2 0x2E9A DUP3 PUSH2 0x2E53 JUMP JUMPDEST PUSH2 0x2E22 JUMP JUMPDEST DUP2 DUP2 MSTORE DUP5 PUSH1 0x20 DUP4 DUP7 ADD ADD GT ISZERO PUSH2 0x2EB4 JUMPI PUSH1 0x0 DUP1 REVERT JUMPDEST DUP2 PUSH1 0x20 DUP6 ADD PUSH1 0x20 DUP4 ADD CALLDATACOPY PUSH1 0x0 SWAP2 DUP2 ADD PUSH1 0x20 ADD SWAP2 SWAP1 SWAP2 MSTORE SWAP4 SWAP3 POP POP POP JUMP JUMPDEST PUSH1 0x0 DUP1 PUSH1 0x0 DUP1 PUSH1 0x0 DUP1 PUSH1 0x0 PUSH1 0xE0 DUP9 DUP11 SUB SLT ISZERO PUSH2 0x2EEC JUMPI PUSH1 0x0 DUP1 REVERT JUMPDEST DUP8 CALLDATALOAD SWAP7 POP PUSH1 0x20 DUP9 ADD CALLDATALOAD PUSH8 0xFFFFFFFFFFFFFFFF DUP1 DUP3 GT ISZERO PUSH2 0x2F0B JUMPI PUSH1 0x0 DUP1 REVERT JUMPDEST PUSH2 0x2F17 DUP12 DUP4 DUP13 ADD PUSH2 0x2E7B JUMP JUMPDEST SWAP8 POP PUSH1 0x40 DUP11 ADD CALLDATALOAD SWAP2 POP DUP1 DUP3 GT ISZERO PUSH2 0x2F2D JUMPI PUSH1 0x0 DUP1 REVERT JUMPDEST PUSH2 0x2F39 DUP12 DUP4 DUP13 ADD PUSH2 0x2E7B JUMP JUMPDEST SWAP7 POP PUSH1 0x60 DUP11 ADD CALLDATALOAD SWAP6 POP PUSH1 0x80 DUP11 ADD CALLDATALOAD SWAP2 POP DUP1 DUP3 GT ISZERO PUSH2 0x2F56 JUMPI PUSH1 0x0 DUP1 REVERT JUMPDEST PUSH2 0x2F62 DUP12 DUP4 DUP13 ADD PUSH2 0x2E7B JUMP JUMPDEST SWAP5 POP PUSH1 0xA0 DUP11 ADD CALLDATALOAD SWAP2 POP DUP1 DUP3 GT ISZERO PUSH2 0x2F78 JUMPI PUSH1 0x0 DUP1 REVERT JUMPDEST POP PUSH2 0x2F85 DUP11 DUP3 DUP12 ADD PUSH2 0x2E7B JUMP JUMPDEST SWAP3 POP POP PUSH2 0x2F94 PUSH1 0xC0 DUP10 ADD PUSH2 0x2AF6 JUMP JUMPDEST SWAP1 POP SWAP3 SWAP6 SWAP9 SWAP2 SWAP5 SWAP8 POP SWAP3 SWAP6 POP JUMP JUMPDEST PUSH1 0x20 DUP1 DUP3 MSTORE PUSH1 0x9 SWAP1 DUP3 ADD MSTORE PUSH9 0x2737BA1037BBB732B9 PUSH1 0xB9 SHL PUSH1 0x40 DUP3 ADD MSTORE PUSH1 0x60 ADD SWAP1 JUMP JUMPDEST PUSH4 0x4E487B71 PUSH1 0xE0 SHL PUSH1 0x0 MSTORE PUSH1 0x11 PUSH1 0x4 MSTORE PUSH1 0x24 PUSH1 0x0 REVERT JUMPDEST PUSH1 0x0 PUSH1 0x0 NOT DUP3 EQ ISZERO PUSH2 0x2FEF JUMPI PUSH2 0x2FEF PUSH2 0x2FC5 JUMP JUMPDEST POP PUSH1 0x1 ADD SWAP1 JUMP JUMPDEST PUSH1 0x0 PUSH1 0x20 DUP3 DUP5 SUB SLT ISZERO PUSH2 0x3008 JUMPI PUSH1 0x0 DUP1 REVERT JUMPDEST POP MLOAD SWAP2 SWAP1 POP JUMP JUMPDEST PUSH1 0x0 PUSH1 0x20 DUP3 DUP5 SUB SLT ISZERO PUSH2 0x3021 JUMPI PUSH1 0x0 DUP1 REVERT JUMPDEST DUP2 MLOAD PUSH8 0xFFFFFFFFFFFFFFFF DUP2 GT ISZERO PUSH2 0x3038 JUMPI PUSH1 0x0 DUP1 REVERT JUMPDEST DUP3 ADD PUSH1 0x1F DUP2 ADD DUP5 SGT PUSH2 0x3049 JUMPI PUSH1 0x0 DUP1 REVERT JUMPDEST DUP1 MLOAD PUSH2 0x3057 PUSH2 0x2E9A DUP3 PUSH2 0x2E53 JUMP JUMPDEST DUP2 DUP2 MSTORE DUP6 PUSH1 0x20 DUP4 DUP6 ADD ADD GT ISZERO PUSH2 0x306C JUMPI PUSH1 0x0 DUP1 REVERT JUMPDEST PUSH2 0x307D DUP3 PUSH1 0x20 DUP4 ADD PUSH1 0x20 DUP7 ADD PUSH2 0x2B48 JUMP JUMPDEST SWAP6 SWAP5 POP POP POP POP POP JUMP JUMPDEST PUSH1 0x0 DUP2 PUSH2 0x3095 JUMPI PUSH2 0x3095 PUSH2 0x2FC5 JUMP JUMPDEST POP PUSH1 0x0 NOT ADD SWAP1 JUMP JUMPDEST PUSH1 0x0 DUP3 NOT DUP3 GT ISZERO PUSH2 0x30B0 JUMPI PUSH2 0x30B0 PUSH2 0x2FC5 JUMP JUMPDEST POP ADD SWAP1 JUMP JUMPDEST PUSH1 0x1 DUP2 DUP2 SHR SWAP1 DUP3 AND DUP1 PUSH2 0x30C9 JUMPI PUSH1 0x7F DUP3 AND SWAP2 POP JUMPDEST PUSH1 0x20 DUP3 LT DUP2 EQ ISZERO PUSH2 0xC7D JUMPI PUSH4 0x4E487B71 PUSH1 0xE0 SHL PUSH1 0x0 MSTORE PUSH1 0x22 PUSH1 0x4 MSTORE PUSH1 0x24 PUSH1 0x0 REVERT JUMPDEST PUSH4 0x4E487B71 PUSH1 0xE0 SHL PUSH1 0x0 MSTORE PUSH1 0x32 PUSH1 0x4 MSTORE PUSH1 0x24 PUSH1 0x0 REVERT JUMPDEST PUSH1 0x0 PUSH1 0x20 DUP3 DUP5 SUB SLT ISZERO PUSH2 0x3112 JUMPI PUSH1 0x0 DUP1 REVERT JUMPDEST DUP2 MLOAD DUP1 ISZERO ISZERO DUP2 EQ PUSH2 0x2B28 JUMPI PUSH1 0x0 DUP1 REVERT JUMPDEST PUSH1 0x0 DUP3 DUP3 LT ISZERO PUSH2 0x3134 JUMPI PUSH2 0x3134 PUSH2 0x2FC5 JUMP JUMPDEST POP SUB SWAP1 JUMP JUMPDEST PUSH1 0x0 PUSH1 0x20 DUP3 DUP5 SUB SLT ISZERO PUSH2 0x314B JUMPI PUSH1 0x0 DUP1 REVERT JUMPDEST DUP2 MLOAD PUSH1 0xFF DUP2 AND DUP2 EQ PUSH2 0x2B28 JUMPI PUSH1 0x0 DUP1 REVERT INVALID LOG2 PUSH5 0x6970667358 0x22 SLT KECCAK256 CALLDATALOAD DUP6 BASEFEE 0x2B PC 0xC7 PUSH32 0xF6C24C1AA01162AE3C5AF99492179D6177FB2408225E7BF3FF64736F6C634300 ADDMOD 0xC STOP CALLER "
		},
		"gasEstimates": {
			"creation": {
				"codeDepositCost": "2538000",
				"executionCost": "infinite",
				"totalCost": "infinite"
			},
			"external": {
				"addBlackList(address)": "104006",
				"addBlackListUser(uint256)": "101729",
				"blacklist(uint256)": "2568",
				"blacklistCount()": "2441",
				"blacklistIds(address)": "2575",
				"blacklistUsers(uint256)": "2560",
				"blacklistUsersCount()": "2330",
				"blacklistUsersIds(uint256)": "2517",
				"blacklistUsers_map(uint256)": "2540",
				"blacklist_map(address)": "2643",
				"delBlackList(address)": "88398",
				"delBlackListUser(uint256)": "86112",
				"getAllUsers()": "infinite",
				"getBalance()": "infinite",
				"getBlackList()": "infinite",
				"getBlackListUsers()": "infinite",
				"getDecimals()": "infinite",
				"getOracleBalance()": "4989",
				"getSymbol()": "infinite",
				"getUserAddreses(uint256)": "infinite",
				"getUserInfo(uint256)": "infinite",
				"getUserReferrals(uint256)": "infinite",
				"getUserReferralsData(uint256)": "infinite",
				"oracle()": "2405",
				"owner()": "2404",
				"referrerAddresses(address)": "2643",
				"registerUser(uint256,string,string,uint256,string,string,address)": "infinite",
				"repair()": "2404",
				"repairOwner(address)": "26823",
				"rewardAmount()": "2372",
				"rewardToken()": "2447",
				"safeTokens(address)": "infinite",
				"sendPendingReward()": "infinite",
				"setOracle(address)": "26901",
				"setRewardAmount(uint256)": "24575",
				"setRewardToken(address)": "26845",
				"tokensEarned()": "2373",
				"tokensEarnedPending(uint256)": "2516",
				"tokensPending()": "2331",
				"transferOwnership(address)": "26812",
				"userAddresses(uint256,uint256)": "2728",
				"userAddressesCount(uint256)": "2582",
				"userAddressesExists(uint256,address)": "2674",
				"userReferrals(uint256,uint256)": "2561",
				"usersById(uint256)": "infinite",
				"usersCount()": "2395",
				"usersExists(uint256)": "2583",
				"usersIds(uint256)": "2473",
				"withdrawTokens()": "infinite"
			},
			"internal": {
				"getReferrer(uint256,string memory,string memory,address)": "infinite"
			}
		},
		"methodIdentifiers": {
			"addBlackList(address)": "0ecb93c0",
			"addBlackListUser(uint256)": "7ce58741",
			"blacklist(uint256)": "0f2a0919",
			"blacklistCount()": "188d1644",
			"blacklistIds(address)": "e6983a1d",
			"blacklistUsers(uint256)": "ab3c5674",
			"blacklistUsersCount()": "1fdf35bd",
			"blacklistUsersIds(uint256)": "28e08f79",
			"blacklistUsers_map(uint256)": "83d23d6c",
			"blacklist_map(address)": "5414f2fc",
			"delBlackList(address)": "217987ad",
			"delBlackListUser(uint256)": "ebf1ff44",
			"getAllUsers()": "e2842d79",
			"getBalance()": "12065fe0",
			"getBlackList()": "360b97b9",
			"getBlackListUsers()": "e1f817c6",
			"getDecimals()": "f0141d84",
			"getOracleBalance()": "4f292ea9",
			"getSymbol()": "15070401",
			"getUserAddreses(uint256)": "8bf0a38f",
			"getUserInfo(uint256)": "d379dadf",
			"getUserReferrals(uint256)": "54ed7da3",
			"getUserReferralsData(uint256)": "34679df9",
			"oracle()": "7dc0d1d0",
			"owner()": "8da5cb5b",
			"referrerAddresses(address)": "2a1c7116",
			"registerUser(uint256,string,string,uint256,string,string,address)": "f9e41e9f",
			"repair()": "5a058758",
			"repairOwner(address)": "8ab85914",
			"rewardAmount()": "f7b2a7be",
			"rewardToken()": "f7c618c1",
			"safeTokens(address)": "c5ee21d2",
			"sendPendingReward()": "e0b42754",
			"setOracle(address)": "7adbf973",
			"setRewardAmount(uint256)": "a8a65a78",
			"setRewardToken(address)": "8aee8127",
			"tokensEarned()": "8ffc5752",
			"tokensEarnedPending(uint256)": "5e7e1786",
			"tokensPending()": "04d0ac48",
			"transferOwnership(address)": "f2fde38b",
			"userAddresses(uint256,uint256)": "55513d1f",
			"userAddressesCount(uint256)": "b07cbc9c",
			"userAddressesExists(uint256,address)": "56823a3f",
			"userReferrals(uint256,uint256)": "b676b097",
			"usersById(uint256)": "426b5382",
			"usersCount()": "6ba13a82",
			"usersExists(uint256)": "76dcf720",
			"usersIds(uint256)": "3a517151",
			"withdrawTokens()": "8d8f2adb"
		}
	},
	"abi": [
		{
			"inputs": [
				{
					"internalType": "address",
					"name": "_rewardToken",
					"type": "address"
				},
				{
					"internalType": "uint256",
					"name": "_rewardAmount",
					"type": "uint256"
				},
				{
					"internalType": "address",
					"name": "_oracle",
					"type": "address"
				}
			],
			"stateMutability": "nonpayable",
			"type": "constructor"
		},
		{
			"inputs": [
				{
					"internalType": "address",
					"name": "user",
					"type": "address"
				}
			],
			"name": "addBlackList",
			"outputs": [],
			"stateMutability": "nonpayable",
			"type": "function"
		},
		{
			"inputs": [
				{
					"internalType": "uint256",
					"name": "userId",
					"type": "uint256"
				}
			],
			"name": "addBlackListUser",
			"outputs": [],
			"stateMutability": "nonpayable",
			"type": "function"
		},
		{
			"inputs": [
				{
					"internalType": "uint256",
					"name": "",
					"type": "uint256"
				}
			],
			"name": "blacklist",
			"outputs": [
				{
					"internalType": "address",
					"name": "",
					"type": "address"
				}
			],
			"stateMutability": "view",
			"type": "function"
		},
		{
			"inputs": [],
			"name": "blacklistCount",
			"outputs": [
				{
					"internalType": "uint256",
					"name": "",
					"type": "uint256"
				}
			],
			"stateMutability": "view",
			"type": "function"
		},
		{
			"inputs": [
				{
					"internalType": "address",
					"name": "",
					"type": "address"
				}
			],
			"name": "blacklistIds",
			"outputs": [
				{
					"internalType": "uint256",
					"name": "",
					"type": "uint256"
				}
			],
			"stateMutability": "view",
			"type": "function"
		},
		{
			"inputs": [
				{
					"internalType": "uint256",
					"name": "",
					"type": "uint256"
				}
			],
			"name": "blacklistUsers",
			"outputs": [
				{
					"internalType": "uint256",
					"name": "",
					"type": "uint256"
				}
			],
			"stateMutability": "view",
			"type": "function"
		},
		{
			"inputs": [],
			"name": "blacklistUsersCount",
			"outputs": [
				{
					"internalType": "uint256",
					"name": "",
					"type": "uint256"
				}
			],
			"stateMutability": "view",
			"type": "function"
		},
		{
			"inputs": [
				{
					"internalType": "uint256",
					"name": "",
					"type": "uint256"
				}
			],
			"name": "blacklistUsersIds",
			"outputs": [
				{
					"internalType": "uint256",
					"name": "",
					"type": "uint256"
				}
			],
			"stateMutability": "view",
			"type": "function"
		},
		{
			"inputs": [
				{
					"internalType": "uint256",
					"name": "",
					"type": "uint256"
				}
			],
			"name": "blacklistUsers_map",
			"outputs": [
				{
					"internalType": "bool",
					"name": "",
					"type": "bool"
				}
			],
			"stateMutability": "view",
			"type": "function"
		},
		{
			"inputs": [
				{
					"internalType": "address",
					"name": "",
					"type": "address"
				}
			],
			"name": "blacklist_map",
			"outputs": [
				{
					"internalType": "bool",
					"name": "",
					"type": "bool"
				}
			],
			"stateMutability": "view",
			"type": "function"
		},
		{
			"inputs": [
				{
					"internalType": "address",
					"name": "user",
					"type": "address"
				}
			],
			"name": "delBlackList",
			"outputs": [],
			"stateMutability": "nonpayable",
			"type": "function"
		},
		{
			"inputs": [
				{
					"internalType": "uint256",
					"name": "userId",
					"type": "uint256"
				}
			],
			"name": "delBlackListUser",
			"outputs": [],
			"stateMutability": "nonpayable",
			"type": "function"
		},
		{
			"inputs": [],
			"name": "getAllUsers",
			"outputs": [
				{
					"components": [
						{
							"internalType": "uint256",
							"name": "id",
							"type": "uint256"
						},
						{
							"internalType": "string",
							"name": "nickname",
							"type": "string"
						},
						{
							"internalType": "string",
							"name": "email",
							"type": "string"
						},
						{
							"internalType": "address",
							"name": "userAddress",
							"type": "address"
						},
						{
							"internalType": "uint256",
							"name": "referrer_id",
							"type": "uint256"
						},
						{
							"internalType": "address",
							"name": "referrer_address",
							"type": "address"
						},
						{
							"internalType": "uint256",
							"name": "referralsCount",
							"type": "uint256"
						},
						{
							"internalType": "uint256",
							"name": "tokensEarned",
							"type": "uint256"
						},
						{
							"internalType": "uint256",
							"name": "tokensPending",
							"type": "uint256"
						}
					],
					"internalType": "struct ReferralSystem.User[]",
					"name": "users",
					"type": "tuple[]"
				}
			],
			"stateMutability": "view",
			"type": "function"
		},
		{
			"inputs": [],
			"name": "getBalance",
			"outputs": [
				{
					"internalType": "uint256",
					"name": "",
					"type": "uint256"
				}
			],
			"stateMutability": "view",
			"type": "function"
		},
		{
			"inputs": [],
			"name": "getBlackList",
			"outputs": [
				{
					"internalType": "address[]",
					"name": "ret",
					"type": "address[]"
				}
			],
			"stateMutability": "view",
			"type": "function"
		},
		{
			"inputs": [],
			"name": "getBlackListUsers",
			"outputs": [
				{
					"internalType": "uint256[]",
					"name": "ret",
					"type": "uint256[]"
				}
			],
			"stateMutability": "view",
			"type": "function"
		},
		{
			"inputs": [],
			"name": "getDecimals",
			"outputs": [
				{
					"internalType": "uint8",
					"name": "",
					"type": "uint8"
				}
			],
			"stateMutability": "view",
			"type": "function"
		},
		{
			"inputs": [],
			"name": "getOracleBalance",
			"outputs": [
				{
					"internalType": "uint256",
					"name": "",
					"type": "uint256"
				}
			],
			"stateMutability": "view",
			"type": "function"
		},
		{
			"inputs": [],
			"name": "getSymbol",
			"outputs": [
				{
					"internalType": "string",
					"name": "",
					"type": "string"
				}
			],
			"stateMutability": "view",
			"type": "function"
		},
		{
			"inputs": [
				{
					"internalType": "uint256",
					"name": "userId",
					"type": "uint256"
				}
			],
			"name": "getUserAddreses",
			"outputs": [
				{
					"internalType": "address[]",
					"name": "addresses",
					"type": "address[]"
				}
			],
			"stateMutability": "view",
			"type": "function"
		},
		{
			"inputs": [
				{
					"internalType": "uint256",
					"name": "_id",
					"type": "uint256"
				}
			],
			"name": "getUserInfo",
			"outputs": [
				{
					"components": [
						{
							"internalType": "uint256",
							"name": "id",
							"type": "uint256"
						},
						{
							"internalType": "string",
							"name": "nickname",
							"type": "string"
						},
						{
							"internalType": "string",
							"name": "email",
							"type": "string"
						},
						{
							"internalType": "address",
							"name": "userAddress",
							"type": "address"
						},
						{
							"internalType": "uint256",
							"name": "referrer_id",
							"type": "uint256"
						},
						{
							"internalType": "address",
							"name": "referrer_address",
							"type": "address"
						},
						{
							"internalType": "uint256",
							"name": "referralsCount",
							"type": "uint256"
						},
						{
							"internalType": "uint256",
							"name": "tokensEarned",
							"type": "uint256"
						},
						{
							"internalType": "uint256",
							"name": "tokensPending",
							"type": "uint256"
						}
					],
					"internalType": "struct ReferralSystem.User",
					"name": "",
					"type": "tuple"
				}
			],
			"stateMutability": "view",
			"type": "function"
		},
		{
			"inputs": [
				{
					"internalType": "uint256",
					"name": "userId",
					"type": "uint256"
				}
			],
			"name": "getUserReferrals",
			"outputs": [
				{
					"internalType": "uint256[]",
					"name": "referralsIds",
					"type": "uint256[]"
				}
			],
			"stateMutability": "view",
			"type": "function"
		},
		{
			"inputs": [
				{
					"internalType": "uint256",
					"name": "userId",
					"type": "uint256"
				}
			],
			"name": "getUserReferralsData",
			"outputs": [
				{
					"components": [
						{
							"internalType": "uint256",
							"name": "id",
							"type": "uint256"
						},
						{
							"internalType": "string",
							"name": "nickname",
							"type": "string"
						},
						{
							"internalType": "string",
							"name": "email",
							"type": "string"
						},
						{
							"internalType": "address",
							"name": "userAddress",
							"type": "address"
						},
						{
							"internalType": "uint256",
							"name": "referrer_id",
							"type": "uint256"
						},
						{
							"internalType": "address",
							"name": "referrer_address",
							"type": "address"
						},
						{
							"internalType": "uint256",
							"name": "referralsCount",
							"type": "uint256"
						},
						{
							"internalType": "uint256",
							"name": "tokensEarned",
							"type": "uint256"
						},
						{
							"internalType": "uint256",
							"name": "tokensPending",
							"type": "uint256"
						}
					],
					"internalType": "struct ReferralSystem.User[]",
					"name": "referrals",
					"type": "tuple[]"
				}
			],
			"stateMutability": "view",
			"type": "function"
		},
		{
			"inputs": [],
			"name": "oracle",
			"outputs": [
				{
					"internalType": "address",
					"name": "",
					"type": "address"
				}
			],
			"stateMutability": "view",
			"type": "function"
		},
		{
			"inputs": [],
			"name": "owner",
			"outputs": [
				{
					"internalType": "address",
					"name": "",
					"type": "address"
				}
			],
			"stateMutability": "view",
			"type": "function"
		},
		{
			"inputs": [
				{
					"internalType": "address",
					"name": "",
					"type": "address"
				}
			],
			"name": "referrerAddresses",
			"outputs": [
				{
					"internalType": "bool",
					"name": "",
					"type": "bool"
				}
			],
			"stateMutability": "view",
			"type": "function"
		},
		{
			"inputs": [
				{
					"internalType": "uint256",
					"name": "_UserId",
					"type": "uint256"
				},
				{
					"internalType": "string",
					"name": "_UserNickName",
					"type": "string"
				},
				{
					"internalType": "string",
					"name": "_UserEmail",
					"type": "string"
				},
				{
					"internalType": "uint256",
					"name": "_ReferrerId",
					"type": "uint256"
				},
				{
					"internalType": "string",
					"name": "_ReferrerNickName",
					"type": "string"
				},
				{
					"internalType": "string",
					"name": "_ReferrerEmail",
					"type": "string"
				},
				{
					"internalType": "address",
					"name": "_ReferrerAddress",
					"type": "address"
				}
			],
			"name": "registerUser",
			"outputs": [],
			"stateMutability": "nonpayable",
			"type": "function"
		},
		{
			"inputs": [],
			"name": "repair",
			"outputs": [
				{
					"internalType": "address",
					"name": "",
					"type": "address"
				}
			],
			"stateMutability": "view",
			"type": "function"
		},
		{
			"inputs": [
				{
					"internalType": "address",
					"name": "newOwner",
					"type": "address"
				}
			],
			"name": "repairOwner",
			"outputs": [],
			"stateMutability": "nonpayable",
			"type": "function"
		},
		{
			"inputs": [],
			"name": "rewardAmount",
			"outputs": [
				{
					"internalType": "uint256",
					"name": "",
					"type": "uint256"
				}
			],
			"stateMutability": "view",
			"type": "function"
		},
		{
			"inputs": [],
			"name": "rewardToken",
			"outputs": [
				{
					"internalType": "contract IERC20",
					"name": "",
					"type": "address"
				}
			],
			"stateMutability": "view",
			"type": "function"
		},
		{
			"inputs": [
				{
					"internalType": "address",
					"name": "tokenAddress",
					"type": "address"
				}
			],
			"name": "safeTokens",
			"outputs": [],
			"stateMutability": "nonpayable",
			"type": "function"
		},
		{
			"inputs": [],
			"name": "sendPendingReward",
			"outputs": [],
			"stateMutability": "nonpayable",
			"type": "function"
		},
		{
			"inputs": [
				{
					"internalType": "address",
					"name": "newOracle",
					"type": "address"
				}
			],
			"name": "setOracle",
			"outputs": [],
			"stateMutability": "nonpayable",
			"type": "function"
		},
		{
			"inputs": [
				{
					"internalType": "uint256",
					"name": "newReward",
					"type": "uint256"
				}
			],
			"name": "setRewardAmount",
			"outputs": [],
			"stateMutability": "nonpayable",
			"type": "function"
		},
		{
			"inputs": [
				{
					"internalType": "address",
					"name": "newToken",
					"type": "address"
				}
			],
			"name": "setRewardToken",
			"outputs": [],
			"stateMutability": "nonpayable",
			"type": "function"
		},
		{
			"inputs": [],
			"name": "tokensEarned",
			"outputs": [
				{
					"internalType": "uint256",
					"name": "",
					"type": "uint256"
				}
			],
			"stateMutability": "view",
			"type": "function"
		},
		{
			"inputs": [
				{
					"internalType": "uint256",
					"name": "",
					"type": "uint256"
				}
			],
			"name": "tokensEarnedPending",
			"outputs": [
				{
					"internalType": "uint256",
					"name": "",
					"type": "uint256"
				}
			],
			"stateMutability": "view",
			"type": "function"
		},
		{
			"inputs": [],
			"name": "tokensPending",
			"outputs": [
				{
					"internalType": "uint256",
					"name": "",
					"type": "uint256"
				}
			],
			"stateMutability": "view",
			"type": "function"
		},
		{
			"inputs": [
				{
					"internalType": "address",
					"name": "newOwner",
					"type": "address"
				}
			],
			"name": "transferOwnership",
			"outputs": [],
			"stateMutability": "nonpayable",
			"type": "function"
		},
		{
			"inputs": [
				{
					"internalType": "uint256",
					"name": "",
					"type": "uint256"
				},
				{
					"internalType": "uint256",
					"name": "",
					"type": "uint256"
				}
			],
			"name": "userAddresses",
			"outputs": [
				{
					"internalType": "address",
					"name": "",
					"type": "address"
				}
			],
			"stateMutability": "view",
			"type": "function"
		},
		{
			"inputs": [
				{
					"internalType": "uint256",
					"name": "",
					"type": "uint256"
				}
			],
			"name": "userAddressesCount",
			"outputs": [
				{
					"internalType": "uint256",
					"name": "",
					"type": "uint256"
				}
			],
			"stateMutability": "view",
			"type": "function"
		},
		{
			"inputs": [
				{
					"internalType": "uint256",
					"name": "",
					"type": "uint256"
				},
				{
					"internalType": "address",
					"name": "",
					"type": "address"
				}
			],
			"name": "userAddressesExists",
			"outputs": [
				{
					"internalType": "bool",
					"name": "",
					"type": "bool"
				}
			],
			"stateMutability": "view",
			"type": "function"
		},
		{
			"inputs": [
				{
					"internalType": "uint256",
					"name": "",
					"type": "uint256"
				},
				{
					"internalType": "uint256",
					"name": "",
					"type": "uint256"
				}
			],
			"name": "userReferrals",
			"outputs": [
				{
					"internalType": "uint256",
					"name": "",
					"type": "uint256"
				}
			],
			"stateMutability": "view",
			"type": "function"
		},
		{
			"inputs": [
				{
					"internalType": "uint256",
					"name": "",
					"type": "uint256"
				}
			],
			"name": "usersById",
			"outputs": [
				{
					"internalType": "uint256",
					"name": "id",
					"type": "uint256"
				},
				{
					"internalType": "string",
					"name": "nickname",
					"type": "string"
				},
				{
					"internalType": "string",
					"name": "email",
					"type": "string"
				},
				{
					"internalType": "address",
					"name": "userAddress",
					"type": "address"
				},
				{
					"internalType": "uint256",
					"name": "referrer_id",
					"type": "uint256"
				},
				{
					"internalType": "address",
					"name": "referrer_address",
					"type": "address"
				},
				{
					"internalType": "uint256",
					"name": "referralsCount",
					"type": "uint256"
				},
				{
					"internalType": "uint256",
					"name": "tokensEarned",
					"type": "uint256"
				},
				{
					"internalType": "uint256",
					"name": "tokensPending",
					"type": "uint256"
				}
			],
			"stateMutability": "view",
			"type": "function"
		},
		{
			"inputs": [],
			"name": "usersCount",
			"outputs": [
				{
					"internalType": "uint256",
					"name": "",
					"type": "uint256"
				}
			],
			"stateMutability": "view",
			"type": "function"
		},
		{
			"inputs": [
				{
					"internalType": "uint256",
					"name": "",
					"type": "uint256"
				}
			],
			"name": "usersExists",
			"outputs": [
				{
					"internalType": "bool",
					"name": "",
					"type": "bool"
				}
			],
			"stateMutability": "view",
			"type": "function"
		},
		{
			"inputs": [
				{
					"internalType": "uint256",
					"name": "",
					"type": "uint256"
				}
			],
			"name": "usersIds",
			"outputs": [
				{
					"internalType": "uint256",
					"name": "",
					"type": "uint256"
				}
			],
			"stateMutability": "view",
			"type": "function"
		},
		{
			"inputs": [],
			"name": "withdrawTokens",
			"outputs": [],
			"stateMutability": "nonpayable",
			"type": "function"
		}
	]
}